{
  "contractName": "AxelarExecutable",
  "abi": [
    {
      "inputs": [
        {
          "internalType": "address",
          "name": "gateway_",
          "type": "address"
        }
      ],
      "stateMutability": "nonpayable",
      "type": "constructor"
    },
    {
      "inputs": [],
      "name": "InvalidAddress",
      "type": "error"
    },
    {
      "inputs": [],
      "name": "NotApprovedByGateway",
      "type": "error"
    },
    {
      "inputs": [],
      "name": "gateway",
      "outputs": [
        {
          "internalType": "contract IAxelarGateway",
          "name": "",
          "type": "address"
        }
      ],
      "stateMutability": "view",
      "type": "function"
    },
    {
      "inputs": [
        {
          "internalType": "bytes32",
          "name": "commandId",
          "type": "bytes32"
        },
        {
          "internalType": "string",
          "name": "sourceChain",
          "type": "string"
        },
        {
          "internalType": "string",
          "name": "sourceAddress",
          "type": "string"
        },
        {
          "internalType": "bytes",
          "name": "payload",
          "type": "bytes"
        }
      ],
      "name": "execute",
      "outputs": [],
      "stateMutability": "nonpayable",
      "type": "function"
    },
    {
      "inputs": [
        {
          "internalType": "bytes32",
          "name": "commandId",
          "type": "bytes32"
        },
        {
          "internalType": "string",
          "name": "sourceChain",
          "type": "string"
        },
        {
          "internalType": "string",
          "name": "sourceAddress",
          "type": "string"
        },
        {
          "internalType": "bytes",
          "name": "payload",
          "type": "bytes"
        },
        {
          "internalType": "string",
          "name": "tokenSymbol",
          "type": "string"
        },
        {
          "internalType": "uint256",
          "name": "amount",
          "type": "uint256"
        }
      ],
      "name": "executeWithToken",
      "outputs": [],
      "stateMutability": "nonpayable",
      "type": "function"
    }
  ],
  "bytecode": "0x60a03461009257601f6104f738819003918201601f19168301916001600160401b038311848410176100975780849260209460405283398101031261009257516001600160a01b038116908190036100925780156100805760805260405161044990816100ae82396080518181816101070152818161029801526102f50152f35b60405163e6c4247b60e01b8152600490fd5b600080fd5b634e487b7160e01b600052604160045260246000fdfe608060408181526004908136101561001657600080fd5b600092833560e01c908163116191b6146102e1575080631a98b2e0146101a25763491606581461004557600080fd5b3461019e5760031960803682011261019a5767ffffffffffffffff602435818111610196576100779036908601610328565b6044358381116101925761008e9036908801610328565b9360643590811161018e576100eb956020956100ba6100b36100fa9436908d01610328565b3691610393565b8051908801208951635f6970c360e01b81528b358c82015260806024820152988997889792969260848901916103f2565b928684030160448701526103f2565b60648301919091520381877f00000000000000000000000000000000000000000000000000000000000000006001600160a01b03165af1908115610184578491610156575b5015610149578280f35b51631403112d60e21b8152fd5b610177915060203d811161017d575b61016f818361035b565b8101906103da565b3861013f565b503d610165565b82513d86823e3d90fd5b8880fd5b8780fd5b8580fd5b8380fd5b8280fd5b503461019e5760031960c03682011261019a5767ffffffffffffffff90602435828111610196576101d69036908601610328565b9092604435818111610192576101ef9036908801610328565b6064358381116102dd576102069036908a01610328565b6084359485116102d95760209661027761028b9561023561022b8e9936908b01610328565b9690953691610393565b8a8151910120956102678d519c8d9b8c9b631876eed960e01b8d528035908d015260c060248d015260c48c01916103f2565b91848a84030160448b01526103f2565b9360648701528584030160848601526103f2565b60a48035908301520381877f00000000000000000000000000000000000000000000000000000000000000006001600160a01b03165af1908115610184578491610156575015610149578280f35b8a80fd5b8980fd5b8490346103245781600319360112610324577f00000000000000000000000000000000000000000000000000000000000000006001600160a01b03168152602090f35b5080fd5b9181601f840112156103565782359167ffffffffffffffff8311610356576020838186019501011161035657565b600080fd5b90601f8019910116810190811067ffffffffffffffff82111761037d57604052565b634e487b7160e01b600052604160045260246000fd5b92919267ffffffffffffffff821161037d57604051916103bd601f8201601f19166020018461035b565b829481845281830111610356578281602093846000960137010152565b90816020910312610356575180151581036103565790565b908060209392818452848401376000828201840152601f01601f191601019056fea264697066735822122043108147570c922ffa314891172e3da954497e1ab0a4852fc1066bb0242025a364736f6c63430008110033",
  "immutableReferences": {
    "241": [
      {
        "length": 32,
        "start": 263
      },
      {
        "length": 32,
        "start": 664
      },
      {
        "length": 32,
        "start": 757
      }
    ]
  },
  "source": "// SPDX-License-Identifier: MIT\n\npragma solidity ^0.8.0;\n\nimport { IAxelarGateway } from '../interfaces/IAxelarGateway.sol';\nimport { IAxelarExecutable } from '../interfaces/IAxelarExecutable.sol';\n\ncontract AxelarExecutable is IAxelarExecutable {\n    IAxelarGateway public immutable gateway;\n\n    constructor(address gateway_) {\n        if (gateway_ == address(0)) revert InvalidAddress();\n\n        gateway = IAxelarGateway(gateway_);\n    }\n\n    function execute(\n        bytes32 commandId,\n        string calldata sourceChain,\n        string calldata sourceAddress,\n        bytes calldata payload\n    ) external override {\n        bytes32 payloadHash = keccak256(payload);\n        if (!gateway.validateContractCall(commandId, sourceChain, sourceAddress, payloadHash))\n            revert NotApprovedByGateway();\n        _execute(sourceChain, sourceAddress, payload);\n    }\n\n    function executeWithToken(\n        bytes32 commandId,\n        string calldata sourceChain,\n        string calldata sourceAddress,\n        bytes calldata payload,\n        string calldata tokenSymbol,\n        uint256 amount\n    ) external override {\n        bytes32 payloadHash = keccak256(payload);\n        if (\n            !gateway.validateContractCallAndMint(\n                commandId,\n                sourceChain,\n                sourceAddress,\n                payloadHash,\n                tokenSymbol,\n                amount\n            )\n        ) revert NotApprovedByGateway();\n\n        _executeWithToken(sourceChain, sourceAddress, payload, tokenSymbol, amount);\n    }\n\n    function _execute(\n        string calldata sourceChain,\n        string calldata sourceAddress,\n        bytes calldata payload\n    ) internal virtual {}\n\n    function _executeWithToken(\n        string calldata sourceChain,\n        string calldata sourceAddress,\n        bytes calldata payload,\n        string calldata tokenSymbol,\n        uint256 amount\n    ) internal virtual {}\n}\n",
  "sourcePath": "@axelar-network/axelar-gmp-sdk-solidity/contracts/executables/AxelarExecutable.sol",
  "compiler": {
    "name": "solc",
    "version": "0.8.17+commit.8df45f5f.Emscripten.clang"
  },
  "schemaVersion": "3.4.10",
  "updatedAt": "2022-10-14T10:21:16.987Z",
  "devdoc": {
    "kind": "dev",
    "methods": {},
    "version": 1
  },
  "userdoc": {
    "kind": "user",
    "methods": {},
    "version": 1
  }
}