{
  "contractName": "DistributionExecutable",
  "abi": [
    {
      "inputs": [
        {
          "internalType": "address",
          "name": "gateway_",
          "type": "address"
        },
        {
          "internalType": "address",
          "name": "gasReceiver_",
          "type": "address"
        }
      ],
      "stateMutability": "nonpayable",
      "type": "constructor"
    },
    {
      "inputs": [],
      "name": "InvalidAddress",
      "type": "error"
    },
    {
      "inputs": [],
      "name": "NotApprovedByGateway",
      "type": "error"
    },
    {
      "anonymous": false,
      "inputs": [
        {
          "indexed": false,
          "internalType": "address",
          "name": "contractAdr",
          "type": "address"
        },
        {
          "indexed": false,
          "internalType": "string",
          "name": "message",
          "type": "string"
        }
      ],
      "name": "Logs",
      "type": "event"
    },
    {
      "anonymous": false,
      "inputs": [
        {
          "indexed": false,
          "internalType": "address",
          "name": "contractAdr",
          "type": "address"
        },
        {
          "indexed": false,
          "internalType": "string",
          "name": "message",
          "type": "string"
        },
        {
          "indexed": false,
          "internalType": "uint256",
          "name": "value",
          "type": "uint256"
        }
      ],
      "name": "LogsValue",
      "type": "event"
    },
    {
      "inputs": [
        {
          "internalType": "bytes32",
          "name": "commandId",
          "type": "bytes32"
        },
        {
          "internalType": "string",
          "name": "sourceChain",
          "type": "string"
        },
        {
          "internalType": "string",
          "name": "sourceAddress",
          "type": "string"
        },
        {
          "internalType": "bytes",
          "name": "payload",
          "type": "bytes"
        }
      ],
      "name": "execute",
      "outputs": [],
      "stateMutability": "nonpayable",
      "type": "function"
    },
    {
      "inputs": [
        {
          "internalType": "bytes32",
          "name": "commandId",
          "type": "bytes32"
        },
        {
          "internalType": "string",
          "name": "sourceChain",
          "type": "string"
        },
        {
          "internalType": "string",
          "name": "sourceAddress",
          "type": "string"
        },
        {
          "internalType": "bytes",
          "name": "payload",
          "type": "bytes"
        },
        {
          "internalType": "string",
          "name": "tokenSymbol",
          "type": "string"
        },
        {
          "internalType": "uint256",
          "name": "amount",
          "type": "uint256"
        }
      ],
      "name": "executeWithToken",
      "outputs": [],
      "stateMutability": "nonpayable",
      "type": "function"
    },
    {
      "inputs": [],
      "name": "gasReceiver",
      "outputs": [
        {
          "internalType": "contract IAxelarGasService",
          "name": "",
          "type": "address"
        }
      ],
      "stateMutability": "view",
      "type": "function"
    },
    {
      "inputs": [],
      "name": "gateway",
      "outputs": [
        {
          "internalType": "contract IAxelarGateway",
          "name": "",
          "type": "address"
        }
      ],
      "stateMutability": "view",
      "type": "function"
    },
    {
      "inputs": [
        {
          "internalType": "address",
          "name": "address_",
          "type": "address"
        }
      ],
      "name": "addressToString",
      "outputs": [
        {
          "internalType": "string",
          "name": "",
          "type": "string"
        }
      ],
      "stateMutability": "pure",
      "type": "function"
    },
    {
      "inputs": [
        {
          "internalType": "string",
          "name": "destinationChain",
          "type": "string"
        },
        {
          "internalType": "string",
          "name": "destinationAddress",
          "type": "string"
        },
        {
          "internalType": "address[]",
          "name": "destinationAddresses",
          "type": "address[]"
        },
        {
          "internalType": "string",
          "name": "symbol",
          "type": "string"
        },
        {
          "internalType": "uint256",
          "name": "amount",
          "type": "uint256"
        }
      ],
      "name": "sendToMany",
      "outputs": [],
      "stateMutability": "payable",
      "type": "function"
    }
  ],
  "bytecode": "0x60c0346100d557601f6113ae38819003918201601f19168301916001600160401b038311848410176100da5780849260409485528339810103126100d557610052602061004b836100f0565b92016100f0565b6001600160a01b0391821680156100c3576080521660a0526040516112a99081610105823960805181818161022b015281816102bb0152818161051e015281816105c101528181610b3401528181610c580152610ed9015260a051818181610649015281816106f401526108530152f35b60405163e6c4247b60e01b8152600490fd5b600080fd5b634e487b7160e01b600052604160045260246000fd5b51906001600160a01b03821682036100d55756fe608080604052600436101561001357600080fd5b600090813560e01c908163116191b614610ec5575080631a98b2e014610bad5780634916065814610a6d5780635e57966d1461088257806380d14b4a1461083d5763fbd9497b1461006357600080fd5b60a03660031901126106085767ffffffffffffffff9060043582811161083957610091903690600401611052565b602435838111610835576100a9903690600401611052565b90604435938085116108315736602386011215610831578085600401351161083157366024866004013560051b8701011161083157606435908111610831576100f6903690600401611052565b84600401351561081d5761010c60248601611127565b604051635e57966d60e01b81526001600160a01b0390911660048201528481602481305afa9081156107aa577ff914ca0348190fe49c31ec3901a60069cc792666a05ee2db257a8491cbad2b1e916101ff918791610803575b506101f2603660405180936973656e64546f4d616e7960b01b6020830152875161019681602a850160208c01610f4f565b630103a37960e51b602a82850101528951906101bc828c6020602e858901019101610f4f565b8301016730b2323932b9b99d60c11b602e8201526101e38251809360208785019101610f4f565b01036016810184520182610fdd565b604051918291308361119a565b0390a16040516349ad89fb60e11b815260206004820181905281806102276024820186610f72565b03817f00000000000000000000000000000000000000000000000000000000000000006001600160a01b03165afa9081156107aa5785916107d4575b506040516323b872dd60e01b81523360048201523060248201526084356044820152602081606481896001600160a01b0387165af18015610744576107b5575b5060405163095ea7b360e01b81526001600160a01b037f00000000000000000000000000000000000000000000000000000000000000008116600483015260843560248301529091602091839160449183918a91165af180156107aa5761077b575b5060405191604083016020808501528660040135905260608301836024880191875b8960040135811061074f5750610346925003601f198101855284610fdd565b7faf0fb12b97da20938bb1d21fd3d221e0e82a44421eaa81ad19ef3e91c22027e660c060405130815260606020820152602660608201527f7061794e6174697665476173466f72436f6e747261637443616c6c5769746854608082015265037b5b2b71d160d51b60a0820152346040820152a134610647575b84956103d860246103d16084356111db565b9201611127565b604051635e57966d60e01b81526001600160a01b0390911660048201528681602481305afa91821561063c576101f2605588927ff914ca0348190fe49c31ec3901a60069cc792666a05ee2db257a8491cbad2b1e95610519958c9161061a575b506040519485927431b0b63621b7b73a3930b1ba2bb4ba342a37b5b2b760591b60208501528a51610471818d6020603589019101610f4f565b84016630b6b7bab73a1d60c91b6035820152610497825180936020603c85019101610f4f565b01630103a37960e51b603c8201528951906104ba828c6020604085019101610f4f565b016c31b7b73a3930b1ba30b232391d60991b60408201526104e5825180936020604d85019101610f4f565b016730b2323932b9b99d60c11b604d82015261050a8251809360208785019101610f4f565b01036035810184520182610fdd565b0390a17f00000000000000000000000000000000000000000000000000000000000000006001600160a01b03163b15610616576105b461057e926105a287956105906040519889978897632d505c2160e21b895260a060048a015260a4890190610f72565b87810360031901602489015290610f72565b85810360031901604487015290610f72565b83810360031901606485015290610f72565b60848035908301520381837f00000000000000000000000000000000000000000000000000000000000000006001600160a01b03165af1801561060b576105f85750f35b61060190610f97565b6106085780f35b80fd5b6040513d84823e3d90fd5b8480fd5b61063691503d808e833e61062e8183610fdd565b81019061113b565b38610438565b6040513d89823e3d90fd5b7f00000000000000000000000000000000000000000000000000000000000000006001600160a01b03163b1561061657604051636316100160e11b815230600482015260e06024820152958587806106e16106cf6106bd6106ab60e4850189610f72565b8481036003190160448601528b610f72565b83810360031901606485015289610f72565b82810360031901608484015287610f72565b60843560a48301523360c48301520381347f00000000000000000000000000000000000000000000000000000000000000006001600160a01b03165af1801561074457610730575b95506103bf565b94909561073c90610f97565b938590610729565b6040513d88823e3d90fd5b915060019060209081906001600160a01b0361076a87610f3b565b168152019301910191859192610327565b61079c9060203d6020116107a3575b6107948183610fdd565b810190611070565b5038610305565b503d61078a565b6040513d87823e3d90fd5b6107cd9060203d6020116107a3576107948183610fdd565b50386102a3565b6107f6915060203d6020116107fc575b6107ee8183610fdd565b8101906111bc565b38610263565b503d6107e4565b61081791503d8089833e61062e8183610fdd565b38610165565b634e487b7160e01b84526032600452602484fd5b8380fd5b8280fd5b5080fd5b50346106085780600319360112610608576040517f00000000000000000000000000000000000000000000000000000000000000006001600160a01b03168152602090f35b50346106085760208060031936011261083957600435916001600160a01b038316830361060857604051926bffffffffffffffffffffffff199060601b1682840152601483526108d183610fc1565b6040516108dd81610fc1565b601081526f181899199a1a9b1b9c1cb0b131b232b360811b83820152835160019181831b600292808204841490151715610a59578201808311610a5957610923906110a9565b95865115610a45576030868801538651841015610a45576078602188015384845b610960575b6040518781528061095c818a018b610f72565b0390f35b8151811015610a40576001600160f81b03198061098a61098084866110db565b5160fc1c866110db565b51169082871b91838304871484151715610a2c5782870190818811610a18576109b6908a1a918c6110db565b536109d1600f6109c685876110db565b5160f81c16866110db565b51166003918201809211610a0457916109fb916109f588979695948a1a918c6110db565b53611102565b90919293610944565b634e487b7160e01b88526011600452602488fd5b634e487b7160e01b8a52601160045260248afd5b634e487b7160e01b89526011600452602489fd5b610949565b634e487b7160e01b85526032600452602485fd5b634e487b7160e01b85526011600452602485fd5b5034610608576003196080368201126108395767ffffffffffffffff60243581811161083157610aa1903690600401610f08565b604435838111610ba957610ab9903690600401610f08565b93606435908111610ba557610b1895602095610ae6610adf610b27943690600401610f08565b369161101b565b878151910120936040519889978897635f6970c360e01b895260043560048a0152608060248a01526084890191611088565b92868403016044870152611088565b60648301919091520381857f00000000000000000000000000000000000000000000000000000000000000006001600160a01b03165af190811561060b578291610b87575b5015610b755780f35b604051631403112d60e21b8152600490fd5b610b9f915060203d81116107a3576107948183610fdd565b38610b6c565b8680fd5b8580fd5b50346106085760c03660031901126106085767ffffffffffffffff9060243582811161083957610be1903690600401610f08565b9260443581811161083157610bfa903690600401610f08565b9490606435838111610ba957610c14903690600401610f08565b608495919535858111610e9757610cb298610c36610ccb923690600401610f08565b9a9095610c4436868c61101b565b6020815191012092610ca060018060a01b037f000000000000000000000000000000000000000000000000000000000000000016976040519a631876eed960e01b8c5260043560048d015260c060248d015260c48c0191611088565b8981036003190160448b015291611088565b9060648701526003198682030160848701528985611088565b936020818060a435978860a483015203818b875af1908115610eba578891610e9b575b5015610b7557850194602081870312610ba557803590858211610e9757019685601f89011215610ba5578735948511610e835760059585871b9860405196610d3960208c0189610fdd565b875260208088019a820101918211610e7f57602001985b818a10610e67575050610d8796975090602092916040518098819482936349ad89fb60e11b84528760048501526024840191611088565b03915afa9384156107aa578594610e46575b508151908115610e325704845b8251811015610e2e57602081851b840181015160405163a9059cbb60e01b81526001600160a01b03909116600482015260248101849052919082806044810103818a6001600160a01b038b165af191821561063c57610e0a92610e0f575b50611102565b610da6565b610e279060203d6020116107a3576107948183610fdd565b5038610e04565b8580f35b634e487b7160e01b86526012600452602486fd5b610e6091945060203d6020116107fc576107ee8183610fdd565b9238610d99565b60208091610e748c610f3b565b815201990198610d50565b8880fd5b634e487b7160e01b87526041600452602487fd5b8780fd5b610eb4915060203d6020116107a3576107948183610fdd565b38610cee565b6040513d8a823e3d90fd5b9050346108395781600319360112610839577f00000000000000000000000000000000000000000000000000000000000000006001600160a01b03168152602090f35b9181601f84011215610f365782359167ffffffffffffffff8311610f365760208381860195010111610f3657565b600080fd5b35906001600160a01b0382168203610f3657565b60005b838110610f625750506000910152565b8181015183820152602001610f52565b90602091610f8b81518092818552858086019101610f4f565b601f01601f1916010190565b67ffffffffffffffff8111610fab57604052565b634e487b7160e01b600052604160045260246000fd5b6040810190811067ffffffffffffffff821117610fab57604052565b90601f8019910116810190811067ffffffffffffffff821117610fab57604052565b67ffffffffffffffff8111610fab57601f01601f191660200190565b92919261102782610fff565b916110356040519384610fdd565b829481845281830111610f36578281602093846000960137010152565b9080601f83011215610f365781602061106d9335910161101b565b90565b90816020910312610f3657518015158103610f365790565b908060209392818452848401376000828201840152601f01601f1916010190565b906110b382610fff565b6110c06040519182610fdd565b82815280926110d1601f1991610fff565b0190602036910137565b9081518110156110ec570160200190565b634e487b7160e01b600052603260045260246000fd5b60001981146111115760010190565b634e487b7160e01b600052601160045260246000fd5b356001600160a01b0381168103610f365790565b602081830312610f365780519067ffffffffffffffff8211610f36570181601f82011215610f3657805161116e81610fff565b9261117c6040519485610fdd565b81845260208284010111610f365761106d9160208085019101610f4f565b6001600160a01b03909116815260406020820181905261106d92910190610f72565b90816020910312610f3657516001600160a01b0381168103610f365790565b80156112555780816000925b61124157506111f5826110a9565b9190805b61120257505090565b600a90603092828206840180941161111157801561111157600019019260f81b6001600160f81b03191660001a61123984866110db565b5304806111f9565b9161124d600a91611102565b9204806111e7565b5060405161126281610fc1565b60018152600360fc1b60208201529056fea2646970667358221220f1d2f448d1542d0920fdbf0698a698f31cc2e404f4eaa5f13349f39d4f765f8264736f6c63430008110033",
  "immutableReferences": {
    "241": [
      {
        "length": 32,
        "start": 555
      },
      {
        "length": 32,
        "start": 699
      },
      {
        "length": 32,
        "start": 1310
      },
      {
        "length": 32,
        "start": 1473
      },
      {
        "length": 32,
        "start": 2868
      },
      {
        "length": 32,
        "start": 3160
      },
      {
        "length": 32,
        "start": 3801
      }
    ],
    "1066": [
      {
        "length": 32,
        "start": 1609
      },
      {
        "length": 32,
        "start": 1780
      },
      {
        "length": 32,
        "start": 2131
      }
    ]
  },
  "source": "//SPDX-License-Identifier: MIT\npragma solidity ^0.8.12;\n\nimport { AxelarExecutable } from '@axelar-network/axelar-gmp-sdk-solidity/contracts/executables/AxelarExecutable.sol';\nimport { IAxelarGateway } from '@axelar-network/axelar-gmp-sdk-solidity/contracts/interfaces/IAxelarGateway.sol';\nimport { IERC20 } from '@axelar-network/axelar-gmp-sdk-solidity/contracts/interfaces/IERC20.sol';\nimport { IAxelarGasService } from '@axelar-network/axelar-gmp-sdk-solidity/contracts/interfaces/IAxelarGasService.sol';\n\nimport { StringToAddress, AddressToString } from '@axelar-network/axelar-gmp-sdk-solidity/contracts/StringAddressUtils.sol';\n\n\ncontract DistributionExecutable is AxelarExecutable {\n    IAxelarGasService public immutable gasReceiver;\n\n    using AddressToString for address;\n\n    event Logs(address contractAdr, string message);\n\n    event LogsValue(address contractAdr, string message, uint value);\n\n    constructor(address gateway_, address gasReceiver_) AxelarExecutable(gateway_) {\n        gasReceiver = IAxelarGasService(gasReceiver_);\n    }\n\n    function addressToString(address address_) external pure returns (string memory) {\n        return address_.toString();\n    }\n\n    function uint2str(\n        uint256 _i\n      )\n        internal\n        pure\n        returns (string memory str)\n      {\n        if (_i == 0)\n        {\n          return \"0\";\n        }\n        uint256 j = _i;\n        uint256 length;\n        while (j != 0)\n        {\n          length++;\n          j /= 10;\n        }\n        bytes memory bstr = new bytes(length);\n        uint256 k = length;\n        j = _i;\n        while (j != 0)\n        {\n          bstr[--k] = bytes1(uint8(48 + j % 10));\n          j /= 10;\n        }\n        str = string(bstr);\n      }\n\n    function sendToMany(\n        string memory destinationChain,\n        string memory destinationAddress,\n        address[] calldata destinationAddresses,\n        string memory symbol,\n        uint256 amount\n    ) external payable {\n        emit Logs(address(this), string.concat(\"sendToMany\", symbol, \" to \", destinationChain, \"address:\",this.addressToString(destinationAddresses[0])));\n        address tokenAddress = gateway.tokenAddresses(symbol);\n        IERC20(tokenAddress).transferFrom(msg.sender, address(this), amount);\n        IERC20(tokenAddress).approve(address(gateway), amount);\n        bytes memory payload = abi.encode(destinationAddresses);\n        emit LogsValue(address(this), \"payNativeGasForContractCallWithToken: \", msg.value);\n        if (msg.value > 0) {\n            gasReceiver.payNativeGasForContractCallWithToken{ value: msg.value }(\n                address(this),\n                destinationChain,\n                destinationAddress,\n                payload,\n                symbol,\n                amount,\n                msg.sender\n            );\n        }\n        emit Logs(address(this), string.concat(\"callContractWithToken\", symbol, \"amount:\", uint2str(amount), \" to \", destinationChain, \"contractaddr:\", destinationAddress, \"address:\",this.addressToString(destinationAddresses[0])));\n        gateway.callContractWithToken(destinationChain, destinationAddress, payload, symbol, amount);\n    }\n\n    function _executeWithToken(\n        string calldata,\n        string calldata,\n        bytes calldata payload,\n        string calldata tokenSymbol,\n        uint256 amount\n    ) internal override {\n        address[] memory recipients = abi.decode(payload, (address[]));\n        address tokenAddress = gateway.tokenAddresses(tokenSymbol);\n\n        uint256 sentAmount = amount / recipients.length;\n        for (uint256 i = 0; i < recipients.length; i++) {\n            IERC20(tokenAddress).transfer(recipients[i], sentAmount);\n        }\n    }\n}\n",
  "sourcePath": "/home/user/Documents/mainstream/devopsdao/contracts/DistributionExecutable.sol",
  "compiler": {
    "name": "solc",
    "version": "0.8.17+commit.8df45f5f.Emscripten.clang"
  },
  "schemaVersion": "3.4.10",
  "updatedAt": "2022-10-06T13:48:51.526Z",
  "devdoc": {
    "kind": "dev",
    "methods": {},
    "version": 1
  },
  "userdoc": {
    "kind": "user",
    "methods": {},
    "version": 1
  }
}