{
  "contractName": "DistributionExecutable",
  "abi": [
    {
      "inputs": [
        {
          "internalType": "address",
          "name": "gateway_",
          "type": "address"
        },
        {
          "internalType": "address",
          "name": "gasReceiver_",
          "type": "address"
        }
      ],
      "stateMutability": "nonpayable",
      "type": "constructor"
    },
    {
      "inputs": [],
      "name": "InvalidAddress",
      "type": "error"
    },
    {
      "inputs": [],
      "name": "NotApprovedByGateway",
      "type": "error"
    },
    {
      "inputs": [
        {
          "internalType": "bytes32",
          "name": "commandId",
          "type": "bytes32"
        },
        {
          "internalType": "string",
          "name": "sourceChain",
          "type": "string"
        },
        {
          "internalType": "string",
          "name": "sourceAddress",
          "type": "string"
        },
        {
          "internalType": "bytes",
          "name": "payload",
          "type": "bytes"
        }
      ],
      "name": "execute",
      "outputs": [],
      "stateMutability": "nonpayable",
      "type": "function"
    },
    {
      "inputs": [
        {
          "internalType": "bytes32",
          "name": "commandId",
          "type": "bytes32"
        },
        {
          "internalType": "string",
          "name": "sourceChain",
          "type": "string"
        },
        {
          "internalType": "string",
          "name": "sourceAddress",
          "type": "string"
        },
        {
          "internalType": "bytes",
          "name": "payload",
          "type": "bytes"
        },
        {
          "internalType": "string",
          "name": "tokenSymbol",
          "type": "string"
        },
        {
          "internalType": "uint256",
          "name": "amount",
          "type": "uint256"
        }
      ],
      "name": "executeWithToken",
      "outputs": [],
      "stateMutability": "nonpayable",
      "type": "function"
    },
    {
      "inputs": [],
      "name": "gasReceiver",
      "outputs": [
        {
          "internalType": "contract IAxelarGasService",
          "name": "",
          "type": "address"
        }
      ],
      "stateMutability": "view",
      "type": "function",
      "constant": true
    },
    {
      "inputs": [],
      "name": "gateway",
      "outputs": [
        {
          "internalType": "contract IAxelarGateway",
          "name": "",
          "type": "address"
        }
      ],
      "stateMutability": "view",
      "type": "function",
      "constant": true
    },
    {
      "inputs": [
        {
          "internalType": "string",
          "name": "destinationChain",
          "type": "string"
        },
        {
          "internalType": "string",
          "name": "destinationAddress",
          "type": "string"
        },
        {
          "internalType": "address[]",
          "name": "destinationAddresses",
          "type": "address[]"
        },
        {
          "internalType": "string",
          "name": "symbol",
          "type": "string"
        },
        {
          "internalType": "uint256",
          "name": "amount",
          "type": "uint256"
        }
      ],
      "name": "sendToMany",
      "outputs": [],
      "stateMutability": "payable",
      "type": "function",
      "payable": true
    }
  ],
  "bytecode": "0x60c0346100b857601f610c3438819003918201601f19168301916001600160401b038311848410176100bd5780849260409485528339810103126100b857610052602061004b836100d3565b92016100d3565b6001600160a01b0391821680156100a6576080521660a052604051610b4c90816100e8823960805181818160fd0152818161056f015281816106a40152610957015260a0518181816102c901526104770152f35b60405163e6c4247b60e01b8152600490fd5b600080fd5b634e487b7160e01b600052604160045260246000fd5b51906001600160a01b03821682036100b85756fe60806040908082526004918236101561001757600080fd5b600091823560e01c908163116191b614610943575080631a98b2e0146105ee57806349160658146104aa57806380d14b4a146104635763fbd9497b1461005c57600080fd5b6003199060a03683011261045f5767ffffffffffffffff91843583811161045b5761008a9036908701610a4c565b926024908135818111610457576100a49036908901610a4c565b94604435828111610453573660238201121561045357808901359280841161044f5736858560051b8401011161044f5760643590811161044f576100eb9036908b01610a4c565b9889916084359060018060a01b0390817f000000000000000000000000000000000000000000000000000000000000000016968a516349ad89fb60e11b815289818061014260209a8b94858c850152830190610ac2565b03818c5afa9081156103ed57878f9160648f9488908f938691610422575b50169451809481936323b872dd60e01b8352338d84015230908301528a6044830152865af18015610416578f928b8f948a6101d2968d968c966103f9575b505163095ea7b360e01b81526001600160a01b03909316908301908152602081019490945290948593849291839160400190565b03925af180156103ed576103c0575b50948c91868c92835198899485018280870152528b606085019301945b82811061039a5750505061021b925003601f1981018652856109e3565b346102c7575b50899a853b156102c3578a9788948a519b8c998a988997632d505c2160e21b8952880160a0905260a4880161025591610ac2565b9084888303019088015261026891610ac2565b8286820301604487015261027b91610ac2565b9084820301606485015261028e91610ac2565b90608483015203925af19081156102ba57506102a75750f35b6102b0906109b9565b6102b75780f35b80fd5b513d84823e3d90fd5b8a80fd5b7f0000000000000000000000000000000000000000000000000000000000000000169a8b3b156102c3578851636316100160e11b8152308482015260e0888201529b8b908d9081808e8d61031e60e484018d610ac2565b9083820301604484015261033191610ac2565b8d828203016064830152610345908a610ac2565b8d8282030160848301526103599087610ac2565b8760a48301523360c4830152039134905af180156103905761037c575b9a610221565b99909a610388906109b9565b988a90610376565b89513d8d823e3d90fd5b919350918280600192886103ad89610b02565b16815201950191019188939194926101fe565b6103df90873d89116103e6575b6103d781836109e3565b810190610a6a565b50386101e1565b503d6103cd565b8e8d51903d90823e3d90fd5b61040f90883d8a116103e6576103d781836109e3565b503861019e565b8f8e51903d90823e3d90fd5b6104429150853d8711610448575b61043a81836109e3565b810190610aa3565b38610160565b503d610430565b8880fd5b8780fd5b8680fd5b8480fd5b8280fd5b50346104a657816003193601126104a657517f00000000000000000000000000000000000000000000000000000000000000006001600160a01b03168152602090f35b5080fd5b5082903461045f576003196080368201126105ea5767ffffffffffffffff6024358181116105e6576104df9036908601610986565b604435838111610453576104f69036908801610986565b9360643590811161044f576105539560209561052261051b6105629436908d01610986565b3691610a05565b8051908801208951635f6970c360e01b81528b358c8201526080602482015298899788979296926084890191610a82565b92868403016044870152610a82565b60648301919091520381877f00000000000000000000000000000000000000000000000000000000000000006001600160a01b03165af19081156105dc5784916105be575b50156105b1578280f35b51631403112d60e21b8152fd5b6105d6915060203d81116103e6576103d781836109e3565b846105a7565b82513d86823e3d90fd5b8580fd5b8380fd5b5090346102b7576003199260c0368501126104a65760249367ffffffffffffffff93853585811161045b576106269036908501610986565b959092604435828111610457576106409036908701610986565b91909760643584811161044f5761065a9036908901610986565b9290996084358681116102c35793899388938d938f97369088019061067e91610986565b99909585369061068d92610a05565b9c8d5160209e8f012094600160a01b600190039a8b7f00000000000000000000000000000000000000000000000000000000000000001699519a631876eed960e01b8c528035908c01528a0160c0905260c48a01906106eb92610a82565b90838983030160448a01526106ff92610a82565b916064870152858203016084860152610719908784610a82565b9389818d818060a435998a60a48301520391885af1908115610939578c9161091c575b501561090c578b019a88818d03126102c35780359087821161090857019a80601f8d0112156102c3578b359687116108f65760059b878d1b908951986107848c84018b6109e3565b89528a808a01928201019283116108f257928a94928f9492868e9401905b8282106108cc57505050906107d085928b51998a96879586956349ad89fb60e11b8752860152840191610a82565b03915afa9283156108c25788936108a3575b508351908115610891570492875b815181101561088d57808a1b8201870151865163a9059cbb60e01b81529084166001600160a01b03168982019081526020810187905288908290819060400103818d888a165af1801561088357610866575b506000198114610854576001016107f0565b634e487b7160e01b8952601188528a89fd5b61087c90883d8a116103e6576103d781836109e3565b5038610842565b87513d8c823e3d90fd5b8880f35b634e487b7160e01b8952601288528a89fd5b6108bb919350863d88116104485761043a81836109e3565b91386107e2565b85513d8a823e3d90fd5b909350869295506108e08497929597610b02565b8152019101928a94928f948d936107a2565b8c80fd5b634e487b7160e01b8b5260418a528c8bfd5b8b80fd5b8751631403112d60e21b81528a90fd5b61093391508a3d8c116103e6576103d781836109e3565b3861073c565b89513d8e823e3d90fd5b8390346104a657816003193601126104a6577f00000000000000000000000000000000000000000000000000000000000000006001600160a01b03168152602090f35b9181601f840112156109b45782359167ffffffffffffffff83116109b457602083818601950101116109b457565b600080fd5b67ffffffffffffffff81116109cd57604052565b634e487b7160e01b600052604160045260246000fd5b90601f8019910116810190811067ffffffffffffffff8211176109cd57604052565b92919267ffffffffffffffff82116109cd5760405191610a2f601f8201601f1916602001846109e3565b8294818452818301116109b4578281602093846000960137010152565b9080601f830112156109b457816020610a6793359101610a05565b90565b908160209103126109b4575180151581036109b45790565b908060209392818452848401376000828201840152601f01601f1916010190565b908160209103126109b457516001600160a01b03811681036109b45790565b919082519283825260005b848110610aee575050826000602080949584010152601f8019910116010190565b602081830181015184830182015201610acd565b35906001600160a01b03821682036109b45756fea26469706673582212209e945c881ac36f31efd0372a80be8da47af933077e26222dff02af564b1a25f064736f6c63430008110033",
  "immutableReferences": {
    "10": [
      {
        "length": 32,
        "start": 253
      },
      {
        "length": 32,
        "start": 1391
      },
      {
        "length": 32,
        "start": 1700
      },
      {
        "length": 32,
        "start": 2391
      }
    ],
    "832": [
      {
        "length": 32,
        "start": 713
      },
      {
        "length": 32,
        "start": 1143
      }
    ]
  },
  "source": "//SPDX-License-Identifier: MIT\npragma solidity ^0.8.12;\n\nimport { AxelarExecutable } from '@axelar-network/axelar-gmp-sdk-solidity/contracts/executables/AxelarExecutable.sol';\nimport { IAxelarGateway } from '@axelar-network/axelar-gmp-sdk-solidity/contracts/interfaces/IAxelarGateway.sol';\nimport { IERC20 } from '@axelar-network/axelar-gmp-sdk-solidity/contracts/interfaces/IERC20.sol';\nimport { IAxelarGasService } from '@axelar-network/axelar-gmp-sdk-solidity/contracts/interfaces/IAxelarGasService.sol';\n\ncontract DistributionExecutable is AxelarExecutable {\n    IAxelarGasService public immutable gasReceiver;\n\n    constructor(address gateway_, address gasReceiver_) AxelarExecutable(gateway_) {\n        gasReceiver = IAxelarGasService(gasReceiver_);\n    }\n\n    function sendToMany(\n        string memory destinationChain,\n        string memory destinationAddress,\n        address[] calldata destinationAddresses,\n        string memory symbol,\n        uint256 amount\n    ) external payable {\n        address tokenAddress = gateway.tokenAddresses(symbol);\n        IERC20(tokenAddress).transferFrom(msg.sender, address(this), amount);\n        IERC20(tokenAddress).approve(address(gateway), amount);\n        bytes memory payload = abi.encode(destinationAddresses);\n        if (msg.value > 0) {\n            gasReceiver.payNativeGasForContractCallWithToken{ value: msg.value }(\n                address(this),\n                destinationChain,\n                destinationAddress,\n                payload,\n                symbol,\n                amount,\n                msg.sender\n            );\n        }\n        gateway.callContractWithToken(destinationChain, destinationAddress, payload, symbol, amount);\n    }\n\n    function _executeWithToken(\n        string calldata,\n        string calldata,\n        bytes calldata payload,\n        string calldata tokenSymbol,\n        uint256 amount\n    ) internal override {\n        address[] memory recipients = abi.decode(payload, (address[]));\n        address tokenAddress = gateway.tokenAddresses(tokenSymbol);\n\n        uint256 sentAmount = amount / recipients.length;\n        for (uint256 i = 0; i < recipients.length; i++) {\n            IERC20(tokenAddress).transfer(recipients[i], sentAmount);\n        }\n    }\n}\n",
  "sourcePath": "/home/user/Documents/mainstream/devopsdao/contracts/DistributionExecutable.sol",
  "compiler": {
    "name": "solc",
    "version": "0.8.17+commit.8df45f5f.Emscripten.clang"
  },
  "schemaVersion": "3.4.9",
  "updatedAt": "2022-09-14T18:14:49.149Z",
  "networkType": "ethereum",
  "devdoc": {
    "kind": "dev",
    "methods": {},
    "version": 1
  },
  "userdoc": {
    "kind": "user",
    "methods": {},
    "version": 1
  }
}