{
  "contractName": "DistributionExecutable",
  "abi": [
    {
      "inputs": [
        {
          "internalType": "address",
          "name": "gateway_",
          "type": "address"
        },
        {
          "internalType": "address",
          "name": "gasReceiver_",
          "type": "address"
        }
      ],
      "stateMutability": "nonpayable",
      "type": "constructor"
    },
    {
      "inputs": [],
      "name": "InvalidAddress",
      "type": "error"
    },
    {
      "inputs": [],
      "name": "NotApprovedByGateway",
      "type": "error"
    },
    {
      "inputs": [
        {
          "internalType": "bytes32",
          "name": "commandId",
          "type": "bytes32"
        },
        {
          "internalType": "string",
          "name": "sourceChain",
          "type": "string"
        },
        {
          "internalType": "string",
          "name": "sourceAddress",
          "type": "string"
        },
        {
          "internalType": "bytes",
          "name": "payload",
          "type": "bytes"
        }
      ],
      "name": "execute",
      "outputs": [],
      "stateMutability": "nonpayable",
      "type": "function"
    },
    {
      "inputs": [
        {
          "internalType": "bytes32",
          "name": "commandId",
          "type": "bytes32"
        },
        {
          "internalType": "string",
          "name": "sourceChain",
          "type": "string"
        },
        {
          "internalType": "string",
          "name": "sourceAddress",
          "type": "string"
        },
        {
          "internalType": "bytes",
          "name": "payload",
          "type": "bytes"
        },
        {
          "internalType": "string",
          "name": "tokenSymbol",
          "type": "string"
        },
        {
          "internalType": "uint256",
          "name": "amount",
          "type": "uint256"
        }
      ],
      "name": "executeWithToken",
      "outputs": [],
      "stateMutability": "nonpayable",
      "type": "function"
    },
    {
      "inputs": [],
      "name": "gasReceiver",
      "outputs": [
        {
          "internalType": "contract IAxelarGasService",
          "name": "",
          "type": "address"
        }
      ],
      "stateMutability": "view",
      "type": "function",
      "constant": true
    },
    {
      "inputs": [],
      "name": "gateway",
      "outputs": [
        {
          "internalType": "contract IAxelarGateway",
          "name": "",
          "type": "address"
        }
      ],
      "stateMutability": "view",
      "type": "function",
      "constant": true
    },
    {
      "inputs": [
        {
          "internalType": "string",
          "name": "destinationChain",
          "type": "string"
        },
        {
          "internalType": "string",
          "name": "destinationAddress",
          "type": "string"
        },
        {
          "internalType": "address[]",
          "name": "destinationAddresses",
          "type": "address[]"
        },
        {
          "internalType": "string",
          "name": "symbol",
          "type": "string"
        },
        {
          "internalType": "uint256",
          "name": "amount",
          "type": "uint256"
        }
      ],
      "name": "sendToMany",
      "outputs": [],
      "stateMutability": "payable",
      "type": "function",
      "payable": true
    }
  ],
  "bytecode": "0x60c06040523480156200001157600080fd5b50604051620018cd380380620018cd83398181016040528101906200003791906200017b565b81600073ffffffffffffffffffffffffffffffffffffffff168173ffffffffffffffffffffffffffffffffffffffff161415620000a0576040517fe6c4247b00000000000000000000000000000000000000000000000000000000815260040160405180910390fd5b8073ffffffffffffffffffffffffffffffffffffffff1660808173ffffffffffffffffffffffffffffffffffffffff1681525050508073ffffffffffffffffffffffffffffffffffffffff1660a08173ffffffffffffffffffffffffffffffffffffffff16815250505050620001c2565b600080fd5b600073ffffffffffffffffffffffffffffffffffffffff82169050919050565b6000620001438262000116565b9050919050565b620001558162000136565b81146200016157600080fd5b50565b60008151905062000175816200014a565b92915050565b6000806040838503121562000195576200019462000111565b5b6000620001a58582860162000164565b9250506020620001b88582860162000164565b9150509250929050565b60805160a0516116b46200021960003960008181610365015261057601526000818161011501528181610155015281816102710152818161038b015281816104c40152818161060f01526106c101526116b46000f3fe60806040526004361061004a5760003560e01c8063116191b61461004f5780631a98b2e01461007a57806349160658146100a357806380d14b4a146100cc578063fbd9497b146100f7575b600080fd5b34801561005b57600080fd5b50610064610113565b60405161007191906108bc565b60405180910390f35b34801561008657600080fd5b506100a1600480360381019061009c9190610a12565b610137565b005b3480156100af57600080fd5b506100ca60048036038101906100c59190610b22565b610253565b005b3480156100d857600080fd5b506100e1610363565b6040516100ee9190610c0c565b60405180910390f35b610111600480360381019061010c9190610dbe565b610387565b005b7f000000000000000000000000000000000000000000000000000000000000000081565b60008585604051610149929190610edc565b604051809103902090507f000000000000000000000000000000000000000000000000000000000000000073ffffffffffffffffffffffffffffffffffffffff16631876eed98c8c8c8c8c878b8b8b6040518a63ffffffff1660e01b81526004016101bc99989796959493929190610f51565b6020604051808303816000875af11580156101db573d6000803e3d6000fd5b505050506040513d601f19601f820116820180604052508101906101ff9190611005565b610235576040517f500c44b400000000000000000000000000000000000000000000000000000000815260040160405180910390fd5b6102468a8a8a8a8a8a8a8a8a6106aa565b5050505050505050505050565b60008282604051610265929190610edc565b604051809103902090507f000000000000000000000000000000000000000000000000000000000000000073ffffffffffffffffffffffffffffffffffffffff16635f6970c38989898989876040518763ffffffff1660e01b81526004016102d296959493929190611032565b6020604051808303816000875af11580156102f1573d6000803e3d6000fd5b505050506040513d601f19601f820116820180604052508101906103159190611005565b61034b576040517f500c44b400000000000000000000000000000000000000000000000000000000815260040160405180910390fd5b610359878787878787610835565b5050505050505050565b7f000000000000000000000000000000000000000000000000000000000000000081565b60007f000000000000000000000000000000000000000000000000000000000000000073ffffffffffffffffffffffffffffffffffffffff1663935b13f6846040518263ffffffff1660e01b81526004016103e29190611100565b602060405180830381865afa1580156103ff573d6000803e3d6000fd5b505050506040513d601f19601f820116820180604052508101906104239190611160565b90508073ffffffffffffffffffffffffffffffffffffffff166323b872dd3330856040518463ffffffff1660e01b81526004016104629392919061119c565b6020604051808303816000875af1158015610481573d6000803e3d6000fd5b505050506040513d601f19601f820116820180604052508101906104a59190611005565b508073ffffffffffffffffffffffffffffffffffffffff1663095ea7b37f0000000000000000000000000000000000000000000000000000000000000000846040518363ffffffff1660e01b81526004016105019291906111d3565b6020604051808303816000875af1158015610520573d6000803e3d6000fd5b505050506040513d601f19601f820116820180604052508101906105449190611005565b506000858560405160200161055a9291906112d4565b6040516020818303038152906040529050600034111561060d577f000000000000000000000000000000000000000000000000000000000000000073ffffffffffffffffffffffffffffffffffffffff1663c62c200234308b8b868a8a336040518963ffffffff1660e01b81526004016105da979695949392919061134d565b6000604051808303818588803b1580156105f357600080fd5b505af1158015610607573d6000803e3d6000fd5b50505050505b7f000000000000000000000000000000000000000000000000000000000000000073ffffffffffffffffffffffffffffffffffffffff1663b541708489898488886040518663ffffffff1660e01b815260040161066e9594939291906113d8565b600060405180830381600087803b15801561068857600080fd5b505af115801561069c573d6000803e3d6000fd5b505050505050505050505050565b600085858101906106bb919061150a565b905060007f000000000000000000000000000000000000000000000000000000000000000073ffffffffffffffffffffffffffffffffffffffff1663935b13f686866040518363ffffffff1660e01b815260040161071a929190611553565b602060405180830381865afa158015610737573d6000803e3d6000fd5b505050506040513d601f19601f8201168201806040525081019061075b9190611160565b9050600082518461076c91906115d5565b905060005b8351811015610826578273ffffffffffffffffffffffffffffffffffffffff1663a9059cbb8583815181106107a9576107a8611606565b5b6020026020010151846040518363ffffffff1660e01b81526004016107cf9291906111d3565b6020604051808303816000875af11580156107ee573d6000803e3d6000fd5b505050506040513d601f19601f820116820180604052508101906108129190611005565b50808061081e90611635565b915050610771565b50505050505050505050505050565b505050505050565b600073ffffffffffffffffffffffffffffffffffffffff82169050919050565b6000819050919050565b600061088261087d6108788461083d565b61085d565b61083d565b9050919050565b600061089482610867565b9050919050565b60006108a682610889565b9050919050565b6108b68161089b565b82525050565b60006020820190506108d160008301846108ad565b92915050565b6000604051905090565b600080fd5b600080fd5b6000819050919050565b6108fe816108eb565b811461090957600080fd5b50565b60008135905061091b816108f5565b92915050565b600080fd5b600080fd5b600080fd5b60008083601f84011261094657610945610921565b5b8235905067ffffffffffffffff81111561096357610962610926565b5b60208301915083600182028301111561097f5761097e61092b565b5b9250929050565b60008083601f84011261099c5761099b610921565b5b8235905067ffffffffffffffff8111156109b9576109b8610926565b5b6020830191508360018202830111156109d5576109d461092b565b5b9250929050565b6000819050919050565b6109ef816109dc565b81146109fa57600080fd5b50565b600081359050610a0c816109e6565b92915050565b60008060008060008060008060008060c08b8d031215610a3557610a346108e1565b5b6000610a438d828e0161090c565b9a505060208b013567ffffffffffffffff811115610a6457610a636108e6565b5b610a708d828e01610930565b995099505060408b013567ffffffffffffffff811115610a9357610a926108e6565b5b610a9f8d828e01610930565b975097505060608b013567ffffffffffffffff811115610ac257610ac16108e6565b5b610ace8d828e01610986565b955095505060808b013567ffffffffffffffff811115610af157610af06108e6565b5b610afd8d828e01610930565b935093505060a0610b108d828e016109fd565b9150509295989b9194979a5092959850565b60008060008060008060006080888a031215610b4157610b406108e1565b5b6000610b4f8a828b0161090c565b975050602088013567ffffffffffffffff811115610b7057610b6f6108e6565b5b610b7c8a828b01610930565b9650965050604088013567ffffffffffffffff811115610b9f57610b9e6108e6565b5b610bab8a828b01610930565b9450945050606088013567ffffffffffffffff811115610bce57610bcd6108e6565b5b610bda8a828b01610986565b925092505092959891949750929550565b6000610bf682610889565b9050919050565b610c0681610beb565b82525050565b6000602082019050610c216000830184610bfd565b92915050565b600080fd5b6000601f19601f8301169050919050565b7f4e487b7100000000000000000000000000000000000000000000000000000000600052604160045260246000fd5b610c7582610c2c565b810181811067ffffffffffffffff82111715610c9457610c93610c3d565b5b80604052505050565b6000610ca76108d7565b9050610cb38282610c6c565b919050565b600067ffffffffffffffff821115610cd357610cd2610c3d565b5b610cdc82610c2c565b9050602081019050919050565b82818337600083830152505050565b6000610d0b610d0684610cb8565b610c9d565b905082815260208101848484011115610d2757610d26610c27565b5b610d32848285610ce9565b509392505050565b600082601f830112610d4f57610d4e610921565b5b8135610d5f848260208601610cf8565b91505092915050565b60008083601f840112610d7e57610d7d610921565b5b8235905067ffffffffffffffff811115610d9b57610d9a610926565b5b602083019150836020820283011115610db757610db661092b565b5b9250929050565b60008060008060008060a08789031215610ddb57610dda6108e1565b5b600087013567ffffffffffffffff811115610df957610df86108e6565b5b610e0589828a01610d3a565b965050602087013567ffffffffffffffff811115610e2657610e256108e6565b5b610e3289828a01610d3a565b955050604087013567ffffffffffffffff811115610e5357610e526108e6565b5b610e5f89828a01610d68565b9450945050606087013567ffffffffffffffff811115610e8257610e816108e6565b5b610e8e89828a01610d3a565b9250506080610e9f89828a016109fd565b9150509295509295509295565b600081905092915050565b6000610ec38385610eac565b9350610ed0838584610ce9565b82840190509392505050565b6000610ee9828486610eb7565b91508190509392505050565b610efe816108eb565b82525050565b600082825260208201905092915050565b6000610f218385610f04565b9350610f2e838584610ce9565b610f3783610c2c565b840190509392505050565b610f4b816109dc565b82525050565b600060c082019050610f66600083018c610ef5565b8181036020830152610f79818a8c610f15565b90508181036040830152610f8e81888a610f15565b9050610f9d6060830187610ef5565b8181036080830152610fb0818587610f15565b9050610fbf60a0830184610f42565b9a9950505050505050505050565b60008115159050919050565b610fe281610fcd565b8114610fed57600080fd5b50565b600081519050610fff81610fd9565b92915050565b60006020828403121561101b5761101a6108e1565b5b600061102984828501610ff0565b91505092915050565b60006080820190506110476000830189610ef5565b818103602083015261105a818789610f15565b9050818103604083015261106f818587610f15565b905061107e6060830184610ef5565b979650505050505050565b600081519050919050565b60005b838110156110b2578082015181840152602081019050611097565b838111156110c1576000848401525b50505050565b60006110d282611089565b6110dc8185610f04565b93506110ec818560208601611094565b6110f581610c2c565b840191505092915050565b6000602082019050818103600083015261111a81846110c7565b905092915050565b600061112d8261083d565b9050919050565b61113d81611122565b811461114857600080fd5b50565b60008151905061115a81611134565b92915050565b600060208284031215611176576111756108e1565b5b60006111848482850161114b565b91505092915050565b61119681611122565b82525050565b60006060820190506111b1600083018661118d565b6111be602083018561118d565b6111cb6040830184610f42565b949350505050565b60006040820190506111e8600083018561118d565b6111f56020830184610f42565b9392505050565b600082825260208201905092915050565b6000819050919050565b61122081611122565b82525050565b60006112328383611217565b60208301905092915050565b60008135905061124d81611134565b92915050565b6000611262602084018461123e565b905092915050565b6000602082019050919050565b600061128383856111fc565b935061128e8261120d565b8060005b858110156112c7576112a48284611253565b6112ae8882611226565b97506112b98361126a565b925050600181019050611292565b5085925050509392505050565b600060208201905081810360008301526112ef818486611277565b90509392505050565b600081519050919050565b600082825260208201905092915050565b600061131f826112f8565b6113298185611303565b9350611339818560208601611094565b61134281610c2c565b840191505092915050565b600060e082019050611362600083018a61118d565b818103602083015261137481896110c7565b9050818103604083015261138881886110c7565b9050818103606083015261139c8187611314565b905081810360808301526113b081866110c7565b90506113bf60a0830185610f42565b6113cc60c083018461118d565b98975050505050505050565b600060a08201905081810360008301526113f281886110c7565b9050818103602083015261140681876110c7565b9050818103604083015261141a8186611314565b9050818103606083015261142e81856110c7565b905061143d6080830184610f42565b9695505050505050565b600067ffffffffffffffff82111561146257611461610c3d565b5b602082029050602081019050919050565b600061148661148184611447565b610c9d565b905080838252602082019050602084028301858111156114a9576114a861092b565b5b835b818110156114d257806114be888261123e565b8452602084019350506020810190506114ab565b5050509392505050565b600082601f8301126114f1576114f0610921565b5b8135611501848260208601611473565b91505092915050565b6000602082840312156115205761151f6108e1565b5b600082013567ffffffffffffffff81111561153e5761153d6108e6565b5b61154a848285016114dc565b91505092915050565b6000602082019050818103600083015261156e818486610f15565b90509392505050565b7f4e487b7100000000000000000000000000000000000000000000000000000000600052601260045260246000fd5b7f4e487b7100000000000000000000000000000000000000000000000000000000600052601160045260246000fd5b60006115e0826109dc565b91506115eb836109dc565b9250826115fb576115fa611577565b5b828204905092915050565b7f4e487b7100000000000000000000000000000000000000000000000000000000600052603260045260246000fd5b6000611640826109dc565b91507fffffffffffffffffffffffffffffffffffffffffffffffffffffffffffffffff821415611673576116726115a6565b5b60018201905091905056fea2646970667358221220c63da19949311e5624d3ac073e04d1c3899abd5a88e6f68cc22c94bcb6264df164736f6c634300080c0033",
  "immutableReferences": {
    "10": [
      {
        "length": 32,
        "start": 277
      },
      {
        "length": 32,
        "start": 341
      },
      {
        "length": 32,
        "start": 625
      },
      {
        "length": 32,
        "start": 907
      },
      {
        "length": 32,
        "start": 1220
      },
      {
        "length": 32,
        "start": 1551
      },
      {
        "length": 32,
        "start": 1729
      }
    ],
    "832": [
      {
        "length": 32,
        "start": 869
      },
      {
        "length": 32,
        "start": 1398
      }
    ]
  },
  "source": "//SPDX-License-Identifier: MIT\npragma solidity ^0.8.12;\n\nimport { AxelarExecutable } from '@axelar-network/axelar-gmp-sdk-solidity/contracts/executables/AxelarExecutable.sol';\nimport { IAxelarGateway } from '@axelar-network/axelar-gmp-sdk-solidity/contracts/interfaces/IAxelarGateway.sol';\nimport { IERC20 } from '@axelar-network/axelar-gmp-sdk-solidity/contracts/interfaces/IERC20.sol';\nimport { IAxelarGasService } from '@axelar-network/axelar-gmp-sdk-solidity/contracts/interfaces/IAxelarGasService.sol';\n\ncontract DistributionExecutable is AxelarExecutable {\n    IAxelarGasService public immutable gasReceiver;\n\n    constructor(address gateway_, address gasReceiver_) AxelarExecutable(gateway_) {\n        gasReceiver = IAxelarGasService(gasReceiver_);\n    }\n\n    function sendToMany(\n        string memory destinationChain,\n        string memory destinationAddress,\n        address[] calldata destinationAddresses,\n        string memory symbol,\n        uint256 amount\n    ) external payable {\n        address tokenAddress = gateway.tokenAddresses(symbol);\n        IERC20(tokenAddress).transferFrom(msg.sender, address(this), amount);\n        IERC20(tokenAddress).approve(address(gateway), amount);\n        bytes memory payload = abi.encode(destinationAddresses);\n        if (msg.value > 0) {\n            gasReceiver.payNativeGasForContractCallWithToken{ value: msg.value }(\n                address(this),\n                destinationChain,\n                destinationAddress,\n                payload,\n                symbol,\n                amount,\n                msg.sender\n            );\n        }\n        gateway.callContractWithToken(destinationChain, destinationAddress, payload, symbol, amount);\n    }\n\n    function _executeWithToken(\n        string calldata,\n        string calldata,\n        bytes calldata payload,\n        string calldata tokenSymbol,\n        uint256 amount\n    ) internal override {\n        address[] memory recipients = abi.decode(payload, (address[]));\n        address tokenAddress = gateway.tokenAddresses(tokenSymbol);\n\n        uint256 sentAmount = amount / recipients.length;\n        for (uint256 i = 0; i < recipients.length; i++) {\n            IERC20(tokenAddress).transfer(recipients[i], sentAmount);\n        }\n    }\n}\n",
  "sourcePath": "/home/user/Documents/mainstream/devopsdao/contracts/DistributionExecutable.sol",
  "compiler": {
    "name": "solc",
    "version": "0.8.12+commit.f00d7308.Emscripten.clang"
  },
  "schemaVersion": "3.4.9",
  "updatedAt": "2022-09-09T17:02:03.010Z",
  "networkType": "ethereum",
  "devdoc": {
    "kind": "dev",
    "methods": {},
    "version": 1
  },
  "userdoc": {
    "kind": "user",
    "methods": {},
    "version": 1
  }
}