{
  "contractName": "Factory",
  "abi": [
    {
      "anonymous": false,
      "inputs": [
        {
          "indexed": false,
          "internalType": "address",
          "name": "jobAddress",
          "type": "address"
        },
        {
          "indexed": false,
          "internalType": "string",
          "name": "title",
          "type": "string"
        },
        {
          "indexed": false,
          "internalType": "string",
          "name": "description",
          "type": "string"
        }
      ],
      "name": "JobContractCreated",
      "type": "event"
    },
    {
      "anonymous": false,
      "inputs": [
        {
          "indexed": false,
          "internalType": "address",
          "name": "contractAdr",
          "type": "address"
        },
        {
          "indexed": false,
          "internalType": "uint256",
          "name": "index",
          "type": "uint256"
        }
      ],
      "name": "OneEventForAll",
      "type": "event"
    },
    {
      "inputs": [],
      "name": "countNew",
      "outputs": [
        {
          "internalType": "uint256",
          "name": "",
          "type": "uint256"
        }
      ],
      "stateMutability": "view",
      "type": "function",
      "constant": true
    },
    {
      "inputs": [
        {
          "internalType": "uint256",
          "name": "",
          "type": "uint256"
        }
      ],
      "name": "jobArray",
      "outputs": [
        {
          "internalType": "contract Job",
          "name": "",
          "type": "address"
        }
      ],
      "stateMutability": "view",
      "type": "function",
      "constant": true
    },
    {
      "inputs": [
        {
          "internalType": "string",
          "name": "_title",
          "type": "string"
        },
        {
          "internalType": "string",
          "name": "_description",
          "type": "string"
        }
      ],
      "name": "createJobContract",
      "outputs": [],
      "stateMutability": "payable",
      "type": "function",
      "payable": true
    },
    {
      "inputs": [],
      "name": "allJobs",
      "outputs": [
        {
          "internalType": "contract Job[]",
          "name": "_jobs",
          "type": "address[]"
        }
      ],
      "stateMutability": "view",
      "type": "function",
      "constant": true
    },
    {
      "inputs": [
        {
          "internalType": "contract Job",
          "name": "job",
          "type": "address"
        }
      ],
      "name": "jobParticipate",
      "outputs": [],
      "stateMutability": "nonpayable",
      "type": "function"
    },
    {
      "inputs": [
        {
          "internalType": "contract Job",
          "name": "job",
          "type": "address"
        },
        {
          "internalType": "address payable",
          "name": "_participantAddress",
          "type": "address"
        },
        {
          "internalType": "string",
          "name": "_state",
          "type": "string"
        }
      ],
      "name": "jobStateChange",
      "outputs": [],
      "stateMutability": "nonpayable",
      "type": "function"
    },
    {
      "inputs": [
        {
          "internalType": "contract Job",
          "name": "job",
          "type": "address"
        },
        {
          "internalType": "address payable",
          "name": "addressToSend",
          "type": "address"
        }
      ],
      "name": "transferToaddress",
      "outputs": [],
      "stateMutability": "payable",
      "type": "function",
      "payable": true
    },
    {
      "inputs": [
        {
          "internalType": "contract Job",
          "name": "job",
          "type": "address"
        },
        {
          "internalType": "address payable",
          "name": "addressToSend",
          "type": "address"
        },
        {
          "internalType": "string",
          "name": "chain",
          "type": "string"
        }
      ],
      "name": "transferToaddressChain",
      "outputs": [],
      "stateMutability": "payable",
      "type": "function",
      "payable": true
    },
    {
      "inputs": [
        {
          "internalType": "contract Job",
          "name": "job",
          "type": "address"
        },
        {
          "internalType": "address payable",
          "name": "addressToSend",
          "type": "address"
        },
        {
          "internalType": "string",
          "name": "chain",
          "type": "string"
        }
      ],
      "name": "transferToaddressChain2",
      "outputs": [],
      "stateMutability": "payable",
      "type": "function",
      "payable": true
    },
    {
      "inputs": [
        {
          "internalType": "uint256",
          "name": "_classIndex",
          "type": "uint256"
        }
      ],
      "name": "getBalance",
      "outputs": [
        {
          "internalType": "uint256",
          "name": "",
          "type": "uint256"
        }
      ],
      "stateMutability": "view",
      "type": "function",
      "constant": true
    },
    {
      "inputs": [
        {
          "internalType": "uint256",
          "name": "_classIndex",
          "type": "uint256"
        }
      ],
      "name": "getJobInfo",
      "outputs": [
        {
          "internalType": "string",
          "name": "",
          "type": "string"
        },
        {
          "internalType": "string",
          "name": "",
          "type": "string"
        },
        {
          "internalType": "address",
          "name": "",
          "type": "address"
        },
        {
          "internalType": "address",
          "name": "",
          "type": "address"
        },
        {
          "internalType": "address",
          "name": "",
          "type": "address"
        },
        {
          "internalType": "uint256",
          "name": "",
          "type": "uint256"
        },
        {
          "internalType": "uint256",
          "name": "",
          "type": "uint256"
        },
        {
          "internalType": "string",
          "name": "",
          "type": "string"
        },
        {
          "internalType": "address[]",
          "name": "",
          "type": "address[]"
        },
        {
          "internalType": "address",
          "name": "",
          "type": "address"
        }
      ],
      "stateMutability": "view",
      "type": "function",
      "constant": true
    }
  ],
  "bytecode": "0x60806040526000600155600060025560006003556000600455600060055560006006556040518060400160405280600381526020017f6e65770000000000000000000000000000000000000000000000000000000000815250600790805190602001906200006f9291906200020a565b506040518060400160405280600681526020017f616772656564000000000000000000000000000000000000000000000000000081525060089080519060200190620000bd9291906200020a565b506040518060400160405280600881526020017f70726f6772657373000000000000000000000000000000000000000000000000815250600990805190602001906200010b9291906200020a565b506040518060400160405280600681526020017f7265766965770000000000000000000000000000000000000000000000000000815250600a9080519060200190620001599291906200020a565b506040518060400160405280600981526020017f636f6d706c657465640000000000000000000000000000000000000000000000815250600b9080519060200190620001a79291906200020a565b506040518060400160405280600881526020017f63616e63656c6564000000000000000000000000000000000000000000000000815250600c9080519060200190620001f59291906200020a565b503480156200020357600080fd5b506200031f565b8280546200021890620002e9565b90600052602060002090601f0160209004810192826200023c576000855562000288565b82601f106200025757805160ff191683800117855562000288565b8280016001018555821562000288579182015b82811115620002875782518255916020019190600101906200026a565b5b5090506200029791906200029b565b5090565b5b80821115620002b65760008160009055506001016200029c565b5090565b7f4e487b7100000000000000000000000000000000000000000000000000000000600052602260045260246000fd5b600060028204905060018216806200030257607f821691505b60208210811415620003195762000318620002ba565b5b50919050565b614f33806200032f6000396000f3fe608060405260043610620000aa5760003560e01c80638c7bf1a7116200006d5780638c7bf1a714620001ae578063a696ee0614620001f2578063a7e595b81462000212578063c8d1b6aa1462000232578063d69a588e1462000262578063fcd3f196146200029257620000aa565b80631c80405114620000af5780631e01043914620000cf578063437a4f141462000113578063527ded4d14620001335780637f4497d81462000161575b600080fd5b620000cd6004803603810190620000c7919062001233565b620002c0565b005b348015620000dc57600080fd5b50620000fb6004803603810190620000f59190620012f3565b62000475565b6040516200010a919062001336565b60405180910390f35b6200013160048036038101906200012b9190620013fd565b62000536565b005b3480156200014057600080fd5b506200015f600480360381019062000159919062001444565b62000707565b005b3480156200016e57600080fd5b506200018d6004803603810190620001879190620012f3565b620008db565b604051620001a59a9998979695949392919062001645565b60405180910390f35b348015620001bb57600080fd5b50620001da6004803603810190620001d49190620012f3565b620009c9565b604051620001e991906200177c565b60405180910390f35b6200021060048036038101906200020a919062001444565b62000a09565b005b6200023060048036038101906200022a919062001444565b62000bdd565b005b3480156200023f57600080fd5b506200024a62000db0565b60405162000259919062001867565b60405180910390f35b3480156200026f57600080fd5b506200027a62000ed9565b60405162000289919062001336565b60405180910390f35b3480156200029f57600080fd5b50620002be6004803603810190620002b891906200188b565b62000edf565b005b600034838360008054905033604051620002da90620010af565b620002e99493929190620018bd565b6040518091039082f090508015801562000307573d6000803e3d6000fd5b5090506000819080600181540180825580915050600190039060005260206000200160009091909190916101000a81548173ffffffffffffffffffffffffffffffffffffffff021916908373ffffffffffffffffffffffffffffffffffffffff16021790555060016000815480929190620003829062001947565b91905055507fdbd47b425a67d7853b85090bfc3053905bcb304828ec29c6c608e446d069b883818484604051620003bc9392919062001995565b60405180910390a17f9bae9a5cb21b2c8bcdab1612a93a658a295cc73028d28d9dc4555387605185b0818273ffffffffffffffffffffffffffffffffffffffff16632986c0e56040518163ffffffff1660e01b8152600401602060405180830381865afa15801562000432573d6000803e3d6000fd5b505050506040513d601f19601f82011682018060405250810190620004589190620019f7565b6040516200046892919062001a29565b60405180910390a1505050565b600080600083815481106200048f576200048e62001a56565b5b9060005260206000200160009054906101000a900473ffffffffffffffffffffffffffffffffffffffff1690508073ffffffffffffffffffffffffffffffffffffffff166312065fe06040518163ffffffff1660e01b8152600401602060405180830381865afa15801562000508573d6000803e3d6000fd5b505050506040513d601f19601f820116820180604052508101906200052e9190620019f7565b915050919050565b60008273ffffffffffffffffffffffffffffffffffffffff16632986c0e56040518163ffffffff1660e01b8152600401602060405180830381865afa15801562000584573d6000803e3d6000fd5b505050506040513d601f19601f82011682018060405250810190620005aa9190620019f7565b81548110620005be57620005bd62001a56565b5b9060005260206000200160009054906101000a900473ffffffffffffffffffffffffffffffffffffffff1673ffffffffffffffffffffffffffffffffffffffff16635ad8e8ae826040518263ffffffff1660e01b815260040162000623919062001a96565b600060405180830381600087803b1580156200063e57600080fd5b505af115801562000653573d6000803e3d6000fd5b505050507f9bae9a5cb21b2c8bcdab1612a93a658a295cc73028d28d9dc4555387605185b0828373ffffffffffffffffffffffffffffffffffffffff16632986c0e56040518163ffffffff1660e01b8152600401602060405180830381865afa158015620006c5573d6000803e3d6000fd5b505050506040513d601f19601f82011682018060405250810190620006eb9190620019f7565b604051620006fb92919062001a29565b60405180910390a15050565b60008373ffffffffffffffffffffffffffffffffffffffff16632986c0e56040518163ffffffff1660e01b8152600401602060405180830381865afa15801562000755573d6000803e3d6000fd5b505050506040513d601f19601f820116820180604052508101906200077b9190620019f7565b815481106200078f576200078e62001a56565b5b9060005260206000200160009054906101000a900473ffffffffffffffffffffffffffffffffffffffff1673ffffffffffffffffffffffffffffffffffffffff1663e2395ad883836040518363ffffffff1660e01b8152600401620007f692919062001ab3565b600060405180830381600087803b1580156200081157600080fd5b505af115801562000826573d6000803e3d6000fd5b505050507f9bae9a5cb21b2c8bcdab1612a93a658a295cc73028d28d9dc4555387605185b0838473ffffffffffffffffffffffffffffffffffffffff16632986c0e56040518163ffffffff1660e01b8152600401602060405180830381865afa15801562000898573d6000803e3d6000fd5b505050506040513d601f19601f82011682018060405250810190620008be9190620019f7565b604051620008ce92919062001a29565b60405180910390a1505050565b606080600080600080600060608060008060008c8154811062000903576200090262001a56565b5b9060005260206000200160009054906101000a900473ffffffffffffffffffffffffffffffffffffffff1690508073ffffffffffffffffffffffffffffffffffffffff1663dd28e14d6040518163ffffffff1660e01b8152600401600060405180830381865afa1580156200097c573d6000803e3d6000fd5b505050506040513d6000823e3d601f19601f82011682018060405250810190620009a7919062001c71565b9a509a509a509a509a509a509a509a509a509a50509193959799509193959799565b60008181548110620009da57600080fd5b906000526020600020016000915054906101000a900473ffffffffffffffffffffffffffffffffffffffff1681565b60008373ffffffffffffffffffffffffffffffffffffffff16632986c0e56040518163ffffffff1660e01b8152600401602060405180830381865afa15801562000a57573d6000803e3d6000fd5b505050506040513d601f19601f8201168201806040525081019062000a7d9190620019f7565b8154811062000a915762000a9062001a56565b5b9060005260206000200160009054906101000a900473ffffffffffffffffffffffffffffffffffffffff1673ffffffffffffffffffffffffffffffffffffffff1663aa826f6a83836040518363ffffffff1660e01b815260040162000af892919062001ab3565b600060405180830381600087803b15801562000b1357600080fd5b505af115801562000b28573d6000803e3d6000fd5b505050507f9bae9a5cb21b2c8bcdab1612a93a658a295cc73028d28d9dc4555387605185b0838473ffffffffffffffffffffffffffffffffffffffff16632986c0e56040518163ffffffff1660e01b8152600401602060405180830381865afa15801562000b9a573d6000803e3d6000fd5b505050506040513d601f19601f8201168201806040525081019062000bc09190620019f7565b60405162000bd092919062001a29565b60405180910390a1505050565b60008373ffffffffffffffffffffffffffffffffffffffff16632986c0e56040518163ffffffff1660e01b8152600401602060405180830381865afa15801562000c2b573d6000803e3d6000fd5b505050506040513d601f19601f8201168201806040525081019062000c519190620019f7565b8154811062000c655762000c6462001a56565b5b9060005260206000200160009054906101000a900473ffffffffffffffffffffffffffffffffffffffff1673ffffffffffffffffffffffffffffffffffffffff1662bc30f983836040518363ffffffff1660e01b815260040162000ccb92919062001ab3565b600060405180830381600087803b15801562000ce657600080fd5b505af115801562000cfb573d6000803e3d6000fd5b505050507f9bae9a5cb21b2c8bcdab1612a93a658a295cc73028d28d9dc4555387605185b0838473ffffffffffffffffffffffffffffffffffffffff16632986c0e56040518163ffffffff1660e01b8152600401602060405180830381865afa15801562000d6d573d6000803e3d6000fd5b505050506040513d601f19601f8201168201806040525081019062000d939190620019f7565b60405162000da392919062001a29565b60405180910390a1505050565b606060008054905067ffffffffffffffff81111562000dd45762000dd3620010ec565b5b60405190808252806020026020018201604052801562000e035781602001602082028036833780820191505090505b509050600080600090505b60008054905081101562000ed4576000818154811062000e335762000e3262001a56565b5b9060005260206000200160009054906101000a900473ffffffffffffffffffffffffffffffffffffffff1683838151811062000e745762000e7362001a56565b5b602002602001019073ffffffffffffffffffffffffffffffffffffffff16908173ffffffffffffffffffffffffffffffffffffffff1681525050818062000ebb9062001947565b925050808062000ecb9062001947565b91505062000e0e565b505090565b60015481565b60008173ffffffffffffffffffffffffffffffffffffffff16632986c0e56040518163ffffffff1660e01b8152600401602060405180830381865afa15801562000f2d573d6000803e3d6000fd5b505050506040513d601f19601f8201168201806040525081019062000f539190620019f7565b8154811062000f675762000f6662001a56565b5b9060005260206000200160009054906101000a900473ffffffffffffffffffffffffffffffffffffffff1673ffffffffffffffffffffffffffffffffffffffff1663fcd3f196336040518263ffffffff1660e01b815260040162000fcc919062001de3565b600060405180830381600087803b15801562000fe757600080fd5b505af115801562000ffc573d6000803e3d6000fd5b505050507f9bae9a5cb21b2c8bcdab1612a93a658a295cc73028d28d9dc4555387605185b0818273ffffffffffffffffffffffffffffffffffffffff16632986c0e56040518163ffffffff1660e01b8152600401602060405180830381865afa1580156200106e573d6000803e3d6000fd5b505050506040513d601f19601f82011682018060405250810190620010949190620019f7565b604051620010a492919062001a29565b60405180910390a150565b6130fd8062001e0183390190565b6000604051905090565b600080fd5b600080fd5b600080fd5b600080fd5b6000601f19601f8301169050919050565b7f4e487b7100000000000000000000000000000000000000000000000000000000600052604160045260246000fd5b6200112682620010db565b810181811067ffffffffffffffff82111715620011485762001147620010ec565b5b80604052505050565b60006200115d620010bd565b90506200116b82826200111b565b919050565b600067ffffffffffffffff8211156200118e576200118d620010ec565b5b6200119982620010db565b9050602081019050919050565b82818337600083830152505050565b6000620011cc620011c68462001170565b62001151565b905082815260208101848484011115620011eb57620011ea620010d6565b5b620011f8848285620011a6565b509392505050565b600082601f830112620012185762001217620010d1565b5b81356200122a848260208601620011b5565b91505092915050565b600080604083850312156200124d576200124c620010c7565b5b600083013567ffffffffffffffff8111156200126e576200126d620010cc565b5b6200127c8582860162001200565b925050602083013567ffffffffffffffff811115620012a0576200129f620010cc565b5b620012ae8582860162001200565b9150509250929050565b6000819050919050565b620012cd81620012b8565b8114620012d957600080fd5b50565b600081359050620012ed81620012c2565b92915050565b6000602082840312156200130c576200130b620010c7565b5b60006200131c84828501620012dc565b91505092915050565b6200133081620012b8565b82525050565b60006020820190506200134d600083018462001325565b92915050565b600073ffffffffffffffffffffffffffffffffffffffff82169050919050565b6000620013808262001353565b9050919050565b6000620013948262001373565b9050919050565b620013a68162001387565b8114620013b257600080fd5b50565b600081359050620013c6816200139b565b92915050565b620013d78162001373565b8114620013e357600080fd5b50565b600081359050620013f781620013cc565b92915050565b60008060408385031215620014175762001416620010c7565b5b60006200142785828601620013b5565b92505060206200143a85828601620013e6565b9150509250929050565b60008060006060848603121562001460576200145f620010c7565b5b60006200147086828701620013b5565b93505060206200148386828701620013e6565b925050604084013567ffffffffffffffff811115620014a757620014a6620010cc565b5b620014b58682870162001200565b9150509250925092565b600081519050919050565b600082825260208201905092915050565b60005b83811015620014fb578082015181840152602081019050620014de565b838111156200150b576000848401525b50505050565b60006200151e82620014bf565b6200152a8185620014ca565b93506200153c818560208601620014db565b6200154781620010db565b840191505092915050565b60006200155f8262001353565b9050919050565b620015718162001552565b82525050565b600081519050919050565b600082825260208201905092915050565b6000819050602082019050919050565b620015ae8162001552565b82525050565b6000620015c28383620015a3565b60208301905092915050565b6000602082019050919050565b6000620015e88262001577565b620015f4818562001582565b9350620016018362001593565b8060005b83811015620016385781516200161c8882620015b4565b97506200162983620015ce565b92505060018101905062001605565b5085935050505092915050565b600061014082019050818103600083015262001662818d62001511565b9050818103602083015262001678818c62001511565b905062001689604083018b62001566565b62001698606083018a62001566565b620016a7608083018962001566565b620016b660a083018862001325565b620016c560c083018762001325565b81810360e0830152620016d9818662001511565b9050818103610100830152620016f08185620015db565b90506200170261012083018462001566565b9b9a5050505050505050505050565b6000819050919050565b60006200173c62001736620017308462001353565b62001711565b62001353565b9050919050565b600062001750826200171b565b9050919050565b6000620017648262001743565b9050919050565b620017768162001757565b82525050565b60006020820190506200179360008301846200176b565b92915050565b600081519050919050565b600082825260208201905092915050565b6000819050602082019050919050565b620017d08162001757565b82525050565b6000620017e48383620017c5565b60208301905092915050565b6000602082019050919050565b60006200180a8262001799565b620018168185620017a4565b93506200182383620017b5565b8060005b838110156200185a5781516200183e8882620017d6565b97506200184b83620017f0565b92505060018101905062001827565b5085935050505092915050565b60006020820190508181036000830152620018838184620017fd565b905092915050565b600060208284031215620018a457620018a3620010c7565b5b6000620018b484828501620013b5565b91505092915050565b60006080820190508181036000830152620018d9818762001511565b90508181036020830152620018ef818662001511565b905062001900604083018562001325565b6200190f606083018462001566565b95945050505050565b7f4e487b7100000000000000000000000000000000000000000000000000000000600052601160045260246000fd5b60006200195482620012b8565b91507fffffffffffffffffffffffffffffffffffffffffffffffffffffffffffffffff8214156200198a576200198962001918565b5b600182019050919050565b6000606082019050620019ac600083018662001566565b8181036020830152620019c0818562001511565b90508181036040830152620019d6818462001511565b9050949350505050565b600081519050620019f181620012c2565b92915050565b60006020828403121562001a105762001a0f620010c7565b5b600062001a2084828501620019e0565b91505092915050565b600060408201905062001a40600083018562001566565b62001a4f602083018462001325565b9392505050565b7f4e487b7100000000000000000000000000000000000000000000000000000000600052603260045260246000fd5b62001a908162001373565b82525050565b600060208201905062001aad600083018462001a85565b92915050565b600060408201905062001aca600083018562001a85565b818103602083015262001ade818462001511565b90509392505050565b600062001afe62001af88462001170565b62001151565b90508281526020810184848401111562001b1d5762001b1c620010d6565b5b62001b2a848285620014db565b509392505050565b600082601f83011262001b4a5762001b49620010d1565b5b815162001b5c84826020860162001ae7565b91505092915050565b62001b708162001552565b811462001b7c57600080fd5b50565b60008151905062001b908162001b65565b92915050565b600067ffffffffffffffff82111562001bb45762001bb3620010ec565b5b602082029050602081019050919050565b600080fd5b600062001be162001bdb8462001b96565b62001151565b9050808382526020820190506020840283018581111562001c075762001c0662001bc5565b5b835b8181101562001c34578062001c1f888262001b7f565b84526020840193505060208101905062001c09565b5050509392505050565b600082601f83011262001c565762001c55620010d1565b5b815162001c6884826020860162001bca565b91505092915050565b6000806000806000806000806000806101408b8d03121562001c985762001c97620010c7565b5b60008b015167ffffffffffffffff81111562001cb95762001cb8620010cc565b5b62001cc78d828e0162001b32565b9a505060208b015167ffffffffffffffff81111562001ceb5762001cea620010cc565b5b62001cf98d828e0162001b32565b995050604062001d0c8d828e0162001b7f565b985050606062001d1f8d828e0162001b7f565b975050608062001d328d828e0162001b7f565b96505060a062001d458d828e01620019e0565b95505060c062001d588d828e01620019e0565b94505060e08b015167ffffffffffffffff81111562001d7c5762001d7b620010cc565b5b62001d8a8d828e0162001b32565b9350506101008b015167ffffffffffffffff81111562001daf5762001dae620010cc565b5b62001dbd8d828e0162001c3e565b92505061012062001dd18d828e0162001b7f565b9150509295989b9194979a5092959850565b600060208201905062001dfa600083018462001566565b9291505056fe60c0604052604051620030fd380380620030fd8339818101604052810190620000299190620004f3565b8073ffffffffffffffffffffffffffffffffffffffff1660808173ffffffffffffffffffffffffffffffffffffffff168152505083600190805190602001906200007592919062000206565b506040518060400160405280600381526020017f6e6577000000000000000000000000000000000000000000000000000000000081525060039080519060200190620000c392919062000206565b5030600860006101000a81548173ffffffffffffffffffffffffffffffffffffffff021916908373ffffffffffffffffffffffffffffffffffffffff16021790555033600760006101000a81548173ffffffffffffffffffffffffffffffffffffffff021916908373ffffffffffffffffffffffffffffffffffffffff16021790555080600960006101000a81548173ffffffffffffffffffffffffffffffffffffffff021916908373ffffffffffffffffffffffffffffffffffffffff16021790555042600b81905550816004819055508260029080519060200190620001ad92919062000206565b506000735769d84dd62a6fd969856c75c7d321b84d45592990508073ffffffffffffffffffffffffffffffffffffffff1660a08173ffffffffffffffffffffffffffffffffffffffff1681525050505050505062000608565b8280546200021490620005d2565b90600052602060002090601f01602090048101928262000238576000855562000284565b82601f106200025357805160ff191683800117855562000284565b8280016001018555821562000284579182015b828111156200028357825182559160200191906001019062000266565b5b50905062000293919062000297565b5090565b5b80821115620002b257600081600090555060010162000298565b5090565b6000604051905090565b600080fd5b600080fd5b600080fd5b600080fd5b6000601f19601f8301169050919050565b7f4e487b7100000000000000000000000000000000000000000000000000000000600052604160045260246000fd5b6200031f82620002d4565b810181811067ffffffffffffffff82111715620003415762000340620002e5565b5b80604052505050565b600062000356620002b6565b905062000364828262000314565b919050565b600067ffffffffffffffff821115620003875762000386620002e5565b5b6200039282620002d4565b9050602081019050919050565b60005b83811015620003bf578082015181840152602081019050620003a2565b83811115620003cf576000848401525b50505050565b6000620003ec620003e68462000369565b6200034a565b9050828152602081018484840111156200040b576200040a620002cf565b5b620004188482856200039f565b509392505050565b600082601f830112620004385762000437620002ca565b5b81516200044a848260208601620003d5565b91505092915050565b6000819050919050565b620004688162000453565b81146200047457600080fd5b50565b60008151905062000488816200045d565b92915050565b600073ffffffffffffffffffffffffffffffffffffffff82169050919050565b6000620004bb826200048e565b9050919050565b620004cd81620004ae565b8114620004d957600080fd5b50565b600081519050620004ed81620004c2565b92915050565b6000806000806080858703121562000510576200050f620002c0565b5b600085015167ffffffffffffffff811115620005315762000530620002c5565b5b6200053f8782880162000420565b945050602085015167ffffffffffffffff811115620005635762000562620002c5565b5b620005718782880162000420565b9350506040620005848782880162000477565b92505060606200059787828801620004dc565b91505092959194509250565b7f4e487b7100000000000000000000000000000000000000000000000000000000600052602260045260246000fd5b60006002820490506001821680620005eb57607f821691505b60208210811415620006025762000601620005a3565b5b50919050565b60805160a051612aba62000643600039600081816106c20152818161077e0152610921015260008181610fdc01526110ec0152612aba6000f3fe6080604052600436106101435760003560e01c80637284e416116100b6578063bfe109281161006f578063bfe109281461040d578063ce606ee014610438578063dd28e14d14610463578063e2395ad814610497578063f6b4dfb4146104c0578063fcd3f196146104eb5761014a565b80637284e4161461031c578063853828b61461034757806398cfc1a61461035e578063a035b1fe14610389578063aa826f6a146103b4578063bed5572f146103d05761014a565b80632986c0e5116101085780632986c0e5146102295780634327a9f4146102545780634a79d50c1461027f57806359ff6ba8146102aa5780635ad8e8ae146102d557806361dcd7ab146102f15761014a565b8062bc30f91461014f57806305747a1f1461016b57806306fdde03146101a8578063116191b6146101d357806312065fe0146101fe5761014a565b3661014a57005b600080fd5b61016960048036038101906101649190611d84565b610514565b005b34801561017757600080fd5b50610192600480360381019061018d9190611e16565b610852565b60405161019f9190611e64565b60405180910390f35b3480156101b457600080fd5b506101bd610891565b6040516101ca9190611f07565b60405180910390f35b3480156101df57600080fd5b506101e861091f565b6040516101f59190611f88565b60405180910390f35b34801561020a57600080fd5b50610213610943565b6040516102209190611fb2565b60405180910390f35b34801561023557600080fd5b5061023e610984565b60405161024b9190611fb2565b60405180910390f35b34801561026057600080fd5b5061026961098a565b6040516102769190611e64565b60405180910390f35b34801561028b57600080fd5b506102946109b0565b6040516102a19190611f07565b60405180910390f35b3480156102b657600080fd5b506102bf610a3e565b6040516102cc9190611fdc565b60405180910390f35b6102ef60048036038101906102ea9190611ff7565b610a64565b005b3480156102fd57600080fd5b50610306610c9b565b6040516103139190611fb2565b60405180910390f35b34801561032857600080fd5b50610331610ca1565b60405161033e9190611f07565b60405180910390f35b34801561035357600080fd5b5061035c610d2f565b005b34801561036a57600080fd5b50610373610d31565b6040516103809190611f07565b60405180910390f35b34801561039557600080fd5b5061039e610dbf565b6040516103ab9190611fb2565b60405180910390f35b6103ce60048036038101906103c99190611d84565b610dc5565b005b3480156103dc57600080fd5b506103f760048036038101906103f29190611e16565b6110ab565b6040516104049190611e64565b60405180910390f35b34801561041957600080fd5b506104226110ea565b60405161042f9190612045565b60405180910390f35b34801561044457600080fd5b5061044d61110e565b60405161045a9190611e64565b60405180910390f35b34801561046f57600080fd5b50610478611134565b60405161048e9a9998979695949392919061211e565b60405180910390f35b3480156104a357600080fd5b506104be60048036038101906104b99190611d84565b61142a565b005b3480156104cc57600080fd5b506104d561177b565b6040516104e29190611e64565b60405180910390f35b3480156104f757600080fd5b50610512600480360381019061050d9190612202565b6117a1565b005b6040518060400160405280600881526020017f63616e63656c6564000000000000000000000000000000000000000000000000815250805190602001206003604051610560919061232f565b6040518091039020141561064a57600960009054906101000a900473ffffffffffffffffffffffffffffffffffffffff1673ffffffffffffffffffffffffffffffffffffffff168273ffffffffffffffffffffffffffffffffffffffff161415610645578173ffffffffffffffffffffffffffffffffffffffff166108fc600860009054906101000a900473ffffffffffffffffffffffffffffffffffffffff1673ffffffffffffffffffffffffffffffffffffffff16319081150290604051600060405180830381858888f19350505050158015610643573d6000803e3d6000fd5b505b61084e565b6040518060400160405280600981526020017f636f6d706c657465640000000000000000000000000000000000000000000000815250805190602001206003604051610696919061232f565b6040518091039020141561084d578173ffffffffffffffffffffffffffffffffffffffff1663095ea7b37f0000000000000000000000000000000000000000000000000000000000000000600860009054906101000a900473ffffffffffffffffffffffffffffffffffffffff1673ffffffffffffffffffffffffffffffffffffffff16316040518363ffffffff1660e01b8152600401610738929190612346565b6020604051808303816000875af1158015610757573d6000803e3d6000fd5b505050506040513d601f19601f8201168201806040525081019061077b91906123a7565b507f000000000000000000000000000000000000000000000000000000000000000073ffffffffffffffffffffffffffffffffffffffff166326ef699d826107c285611920565b600860009054906101000a900473ffffffffffffffffffffffffffffffffffffffff1673ffffffffffffffffffffffffffffffffffffffff16316040518463ffffffff1660e01b815260040161081a93929190612420565b600060405180830381600087803b15801561083457600080fd5b505af1158015610848573d6000803e3d6000fd5b505050505b5b5050565b6000818154811061086257600080fd5b906000526020600020016000915054906101000a900473ffffffffffffffffffffffffffffffffffffffff1681565b6005805461089e9061225e565b80601f01602080910402602001604051908101604052809291908181526020018280546108ca9061225e565b80156109175780601f106108ec57610100808354040283529160200191610917565b820191906000526020600020905b8154815290600101906020018083116108fa57829003601f168201915b505050505081565b7f000000000000000000000000000000000000000000000000000000000000000081565b6000600860009054906101000a900473ffffffffffffffffffffffffffffffffffffffff1673ffffffffffffffffffffffffffffffffffffffff1631905090565b60045481565b600760009054906101000a900473ffffffffffffffffffffffffffffffffffffffff1681565b600180546109bd9061225e565b80601f01602080910402602001604051908101604052809291908181526020018280546109e99061225e565b8015610a365780601f10610a0b57610100808354040283529160200191610a36565b820191906000526020600020905b815481529060010190602001808311610a1957829003601f168201915b505050505081565b600a60009054906101000a900473ffffffffffffffffffffffffffffffffffffffff1681565b6040518060400160405280600881526020017f63616e63656c6564000000000000000000000000000000000000000000000000815250805190602001206003604051610ab0919061232f565b60405180910390201415610b9a57600960009054906101000a900473ffffffffffffffffffffffffffffffffffffffff1673ffffffffffffffffffffffffffffffffffffffff168173ffffffffffffffffffffffffffffffffffffffff161415610b95578073ffffffffffffffffffffffffffffffffffffffff166108fc600860009054906101000a900473ffffffffffffffffffffffffffffffffffffffff1673ffffffffffffffffffffffffffffffffffffffff16319081150290604051600060405180830381858888f19350505050158015610b93573d6000803e3d6000fd5b505b610c98565b6040518060400160405280600981526020017f636f6d706c657465640000000000000000000000000000000000000000000000815250805190602001206003604051610be6919061232f565b60405180910390201415610c9757600a60009054906101000a900473ffffffffffffffffffffffffffffffffffffffff1673ffffffffffffffffffffffffffffffffffffffff166108fc600860009054906101000a900473ffffffffffffffffffffffffffffffffffffffff1673ffffffffffffffffffffffffffffffffffffffff16319081150290604051600060405180830381858888f19350505050158015610c95573d6000803e3d6000fd5b505b5b50565b600b5481565b60028054610cae9061225e565b80601f0160208091040260200160405190810160405280929190818152602001828054610cda9061225e565b8015610d275780601f10610cfc57610100808354040283529160200191610d27565b820191906000526020600020905b815481529060010190602001808311610d0a57829003601f168201915b505050505081565b565b60038054610d3e9061225e565b80601f0160208091040260200160405190810160405280929190818152602001828054610d6a9061225e565b8015610db75780601f10610d8c57610100808354040283529160200191610db7565b820191906000526020600020905b815481529060010190602001808311610d9a57829003601f168201915b505050505081565b60065481565b6040518060400160405280600881526020017f63616e63656c6564000000000000000000000000000000000000000000000000815250805190602001206003604051610e11919061232f565b60405180910390201415610efb57600960009054906101000a900473ffffffffffffffffffffffffffffffffffffffff1673ffffffffffffffffffffffffffffffffffffffff168273ffffffffffffffffffffffffffffffffffffffff161415610ef6578173ffffffffffffffffffffffffffffffffffffffff166108fc600860009054906101000a900473ffffffffffffffffffffffffffffffffffffffff1673ffffffffffffffffffffffffffffffffffffffff16319081150290604051600060405180830381858888f19350505050158015610ef4573d6000803e3d6000fd5b505b6110a7565b6040518060400160405280600981526020017f636f6d706c657465640000000000000000000000000000000000000000000000815250805190602001206003604051610f47919061232f565b604051809103902014156110a657600c600a60009054906101000a900473ffffffffffffffffffffffffffffffffffffffff169080600181540180825580915050600190039060005260206000200160009091909190916101000a81548173ffffffffffffffffffffffffffffffffffffffff021916908373ffffffffffffffffffffffffffffffffffffffff1602179055507f000000000000000000000000000000000000000000000000000000000000000073ffffffffffffffffffffffffffffffffffffffff1663bd97f0078284600c600860009054906101000a900473ffffffffffffffffffffffffffffffffffffffff1673ffffffffffffffffffffffffffffffffffffffff16316040518563ffffffff1660e01b815260040161107394939291906125d1565b600060405180830381600087803b15801561108d57600080fd5b505af11580156110a1573d6000803e3d6000fd5b505050505b5b5050565b600c81815481106110bb57600080fd5b906000526020600020016000915054906101000a900473ffffffffffffffffffffffffffffffffffffffff1681565b7f000000000000000000000000000000000000000000000000000000000000000081565b600960009054906101000a900473ffffffffffffffffffffffffffffffffffffffff1681565b6060806000806000806000606080600060016003600860009054906101000a900473ffffffffffffffffffffffffffffffffffffffff16600760009054906101000a900473ffffffffffffffffffffffffffffffffffffffff16600960009054906101000a900473ffffffffffffffffffffffffffffffffffffffff16600b5460045460026000600a60009054906101000a900473ffffffffffffffffffffffffffffffffffffffff168980546111ea9061225e565b80601f01602080910402602001604051908101604052809291908181526020018280546112169061225e565b80156112635780601f1061123857610100808354040283529160200191611263565b820191906000526020600020905b81548152906001019060200180831161124657829003601f168201915b505050505099508880546112769061225e565b80601f01602080910402602001604051908101604052809291908181526020018280546112a29061225e565b80156112ef5780601f106112c4576101008083540402835291602001916112ef565b820191906000526020600020905b8154815290600101906020018083116112d257829003601f168201915b505050505098508280546113029061225e565b80601f016020809104026020016040519081016040528092919081815260200182805461132e9061225e565b801561137b5780601f106113505761010080835404028352916020019161137b565b820191906000526020600020905b81548152906001019060200180831161135e57829003601f168201915b505050505092508180548060200260200160405190810160405280929190818152602001828054801561140357602002820191906000526020600020905b8160009054906101000a900473ffffffffffffffffffffffffffffffffffffffff1673ffffffffffffffffffffffffffffffffffffffff16815260200190600101908083116113b9575b50505050509150995099509950995099509950995099509950995090919293949596979899565b6040518060400160405280600681526020017f61677265656400000000000000000000000000000000000000000000000000008152508051906020012081805190602001201415611507576040518060400160405280600681526020017f6167726565640000000000000000000000000000000000000000000000000000815250600390805190602001906114c0929190611b29565b5081600a60006101000a81548173ffffffffffffffffffffffffffffffffffffffff021916908373ffffffffffffffffffffffffffffffffffffffff160217905550611777565b6040518060400160405280600881526020017f70726f677265737300000000000000000000000000000000000000000000000081525080519060200120818051906020012014156115a3576040518060400160405280600881526020017f70726f67726573730000000000000000000000000000000000000000000000008152506003908051906020019061159d929190611b29565b50611776565b6040518060400160405280600681526020017f7265766965770000000000000000000000000000000000000000000000000000815250805190602001208180519060200120141561163f576040518060400160405280600681526020017f726576696577000000000000000000000000000000000000000000000000000081525060039080519060200190611639929190611b29565b50611775565b6040518060400160405280600981526020017f636f6d706c65746564000000000000000000000000000000000000000000000081525080519060200120818051906020012014156116db576040518060400160405280600981526020017f636f6d706c657465640000000000000000000000000000000000000000000000815250600390805190602001906116d5929190611b29565b50611774565b6040518060400160405280600881526020017f63616e63656c65640000000000000000000000000000000000000000000000008152508051906020012081805190602001201415611773576040518060400160405280600881526020017f63616e63656c656400000000000000000000000000000000000000000000000081525060039080519060200190611771929190611b29565b505b5b5b5b5b5050565b600860009054906101000a900473ffffffffffffffffffffffffffffffffffffffff1681565b60008080805490501415611817576000829080600181540180825580915050600190039060005260206000200160009091909190916101000a81548173ffffffffffffffffffffffffffffffffffffffff021916908373ffffffffffffffffffffffffffffffffffffffff16021790555061191c565b60005b6000805490508110156118b1578273ffffffffffffffffffffffffffffffffffffffff166000828154811061185257611851612637565b5b9060005260206000200160009054906101000a900473ffffffffffffffffffffffffffffffffffffffff1673ffffffffffffffffffffffffffffffffffffffff16141561189e57600191505b80806118a990612695565b91505061181a565b508061191b576000829080600181540180825580915050600190039060005260206000200160009091909190916101000a81548173ffffffffffffffffffffffffffffffffffffffff021916908373ffffffffffffffffffffffffffffffffffffffff1602179055505b5b5050565b60606000602867ffffffffffffffff81111561193f5761193e611c59565b5b6040519080825280601f01601f1916602001820160405280156119715781602001600182028036833780820191505090505b50905060005b6014811015611ad957600081601361198f91906126de565b600861199b9190612712565b60026119a7919061289f565b8573ffffffffffffffffffffffffffffffffffffffff166119c89190612919565b60f81b9050600060108260f81c6119df9190612957565b60f81b905060008160f81c60106119f69190612988565b8360f81c611a0491906129c3565b60f81b9050611a1282611ae3565b85856002611a209190612712565b81518110611a3157611a30612637565b5b60200101907effffffffffffffffffffffffffffffffffffffffffffffffffffffffffffff1916908160001a905350611a6981611ae3565b856001866002611a799190612712565b611a8391906129f7565b81518110611a9457611a93612637565b5b60200101907effffffffffffffffffffffffffffffffffffffffffffffffffffffffffffff1916908160001a9053505050508080611ad190612695565b915050611977565b5080915050919050565b6000600a8260f81c60ff161015611b0e5760308260f81c611b049190612a4d565b60f81b9050611b24565b60578260f81c611b1e9190612a4d565b60f81b90505b919050565b828054611b359061225e565b90600052602060002090601f016020900481019282611b575760008555611b9e565b82601f10611b7057805160ff1916838001178555611b9e565b82800160010185558215611b9e579182015b82811115611b9d578251825591602001919060010190611b82565b5b509050611bab9190611baf565b5090565b5b80821115611bc8576000816000905550600101611bb0565b5090565b6000604051905090565b600080fd5b600080fd5b600073ffffffffffffffffffffffffffffffffffffffff82169050919050565b6000611c0b82611be0565b9050919050565b611c1b81611c00565b8114611c2657600080fd5b50565b600081359050611c3881611c12565b92915050565b600080fd5b600080fd5b6000601f19601f8301169050919050565b7f4e487b7100000000000000000000000000000000000000000000000000000000600052604160045260246000fd5b611c9182611c48565b810181811067ffffffffffffffff82111715611cb057611caf611c59565b5b80604052505050565b6000611cc3611bcc565b9050611ccf8282611c88565b919050565b600067ffffffffffffffff821115611cef57611cee611c59565b5b611cf882611c48565b9050602081019050919050565b82818337600083830152505050565b6000611d27611d2284611cd4565b611cb9565b905082815260208101848484011115611d4357611d42611c43565b5b611d4e848285611d05565b509392505050565b600082601f830112611d6b57611d6a611c3e565b5b8135611d7b848260208601611d14565b91505092915050565b60008060408385031215611d9b57611d9a611bd6565b5b6000611da985828601611c29565b925050602083013567ffffffffffffffff811115611dca57611dc9611bdb565b5b611dd685828601611d56565b9150509250929050565b6000819050919050565b611df381611de0565b8114611dfe57600080fd5b50565b600081359050611e1081611dea565b92915050565b600060208284031215611e2c57611e2b611bd6565b5b6000611e3a84828501611e01565b91505092915050565b6000611e4e82611be0565b9050919050565b611e5e81611e43565b82525050565b6000602082019050611e796000830184611e55565b92915050565b600081519050919050565b600082825260208201905092915050565b60005b83811015611eb9578082015181840152602081019050611e9e565b83811115611ec8576000848401525b50505050565b6000611ed982611e7f565b611ee38185611e8a565b9350611ef3818560208601611e9b565b611efc81611c48565b840191505092915050565b60006020820190508181036000830152611f218184611ece565b905092915050565b6000819050919050565b6000611f4e611f49611f4484611be0565b611f29565b611be0565b9050919050565b6000611f6082611f33565b9050919050565b6000611f7282611f55565b9050919050565b611f8281611f67565b82525050565b6000602082019050611f9d6000830184611f79565b92915050565b611fac81611de0565b82525050565b6000602082019050611fc76000830184611fa3565b92915050565b611fd681611c00565b82525050565b6000602082019050611ff16000830184611fcd565b92915050565b60006020828403121561200d5761200c611bd6565b5b600061201b84828501611c29565b91505092915050565b600061202f82611f55565b9050919050565b61203f81612024565b82525050565b600060208201905061205a6000830184612036565b92915050565b600081519050919050565b600082825260208201905092915050565b6000819050602082019050919050565b61209581611e43565b82525050565b60006120a7838361208c565b60208301905092915050565b6000602082019050919050565b60006120cb82612060565b6120d5818561206b565b93506120e08361207c565b8060005b838110156121115781516120f8888261209b565b9750612103836120b3565b9250506001810190506120e4565b5085935050505092915050565b6000610140820190508181036000830152612139818d611ece565b9050818103602083015261214d818c611ece565b905061215c604083018b611e55565b612169606083018a611e55565b6121766080830189611e55565b61218360a0830188611fa3565b61219060c0830187611fa3565b81810360e08301526121a28186611ece565b90508181036101008301526121b781856120c0565b90506121c7610120830184611e55565b9b9a5050505050505050505050565b6121df81611e43565b81146121ea57600080fd5b50565b6000813590506121fc816121d6565b92915050565b60006020828403121561221857612217611bd6565b5b6000612226848285016121ed565b91505092915050565b7f4e487b7100000000000000000000000000000000000000000000000000000000600052602260045260246000fd5b6000600282049050600182168061227657607f821691505b6020821081141561228a5761228961222f565b5b50919050565b600081905092915050565b60008190508160005260206000209050919050565b600081546122bd8161225e565b6122c78186612290565b945060018216600081146122e257600181146122f357612326565b60ff19831686528186019350612326565b6122fc8561229b565b60005b8381101561231e578154818901526001820191506020810190506122ff565b838801955050505b50505092915050565b600061233b82846122b0565b915081905092915050565b600060408201905061235b6000830185611e55565b6123686020830184611fa3565b9392505050565b60008115159050919050565b6123848161236f565b811461238f57600080fd5b50565b6000815190506123a18161237b565b92915050565b6000602082840312156123bd576123bc611bd6565b5b60006123cb84828501612392565b91505092915050565b7f4445560000000000000000000000000000000000000000000000000000000000600082015250565b600061240a600383611e8a565b9150612415826123d4565b602082019050919050565b6000608082019050818103600083015261243a8186611ece565b9050818103602083015261244e8185611ece565b90508181036040830152612461816123fd565b90506124706060830184611fa3565b949350505050565b600061248382611f55565b9050919050565b61249381612478565b82525050565b600081549050919050565b60008190508160005260206000209050919050565b60008160001c9050919050565b600073ffffffffffffffffffffffffffffffffffffffff82169050919050565b60006124f96124f4836124b9565b6124c6565b9050919050565b600061250c82546124e6565b9050919050565b6000600182019050919050565b600061252b82612499565b612535818561206b565b9350612540836124a4565b8060005b838110156125785761255582612500565b61255f888261209b565b975061256a83612513565b925050600181019050612544565b5085935050505092915050565b7f6155534443000000000000000000000000000000000000000000000000000000600082015250565b60006125bb600583611e8a565b91506125c682612585565b602082019050919050565b600060a08201905081810360008301526125eb8187611ece565b90506125fa602083018661248a565b818103604083015261260c8185612520565b9050818103606083015261261f816125ae565b905061262e6080830184611fa3565b95945050505050565b7f4e487b7100000000000000000000000000000000000000000000000000000000600052603260045260246000fd5b7f4e487b7100000000000000000000000000000000000000000000000000000000600052601160045260246000fd5b60006126a082611de0565b91507fffffffffffffffffffffffffffffffffffffffffffffffffffffffffffffffff8214156126d3576126d2612666565b5b600182019050919050565b60006126e982611de0565b91506126f483611de0565b92508282101561270757612706612666565b5b828203905092915050565b600061271d82611de0565b915061272883611de0565b9250817fffffffffffffffffffffffffffffffffffffffffffffffffffffffffffffffff048311821515161561276157612760612666565b5b828202905092915050565b60008160011c9050919050565b6000808291508390505b60018511156127c35780860481111561279f5761279e612666565b5b60018516156127ae5780820291505b80810290506127bc8561276c565b9450612783565b94509492505050565b6000826127dc5760019050612898565b816127ea5760009050612898565b8160018114612800576002811461280a57612839565b6001915050612898565b60ff84111561281c5761281b612666565b5b8360020a91508482111561283357612832612666565b5b50612898565b5060208310610133831016604e8410600b841016171561286e5782820a90508381111561286957612868612666565b5b612898565b61287b8484846001612779565b9250905081840481111561289257612891612666565b5b81810290505b9392505050565b60006128aa82611de0565b91506128b583611de0565b92506128e27fffffffffffffffffffffffffffffffffffffffffffffffffffffffffffffffff84846127cc565b905092915050565b7f4e487b7100000000000000000000000000000000000000000000000000000000600052601260045260246000fd5b600061292482611de0565b915061292f83611de0565b92508261293f5761293e6128ea565b5b828204905092915050565b600060ff82169050919050565b60006129628261294a565b915061296d8361294a565b92508261297d5761297c6128ea565b5b828204905092915050565b60006129938261294a565b915061299e8361294a565b92508160ff04831182151516156129b8576129b7612666565b5b828202905092915050565b60006129ce8261294a565b91506129d98361294a565b9250828210156129ec576129eb612666565b5b828203905092915050565b6000612a0282611de0565b9150612a0d83611de0565b9250827fffffffffffffffffffffffffffffffffffffffffffffffffffffffffffffffff03821115612a4257612a41612666565b5b828201905092915050565b6000612a588261294a565b9150612a638361294a565b92508260ff03821115612a7957612a78612666565b5b82820190509291505056fea264697066735822122090eeb9c835ed0d37270188ba832f13b28c07e459f3df6d0cfe8dc7b9e68dd72564736f6c634300080c0033a2646970667358221220d2d26bc3b7984efd3b8df86a574ad7ad01fb156c68108c2c4e26c545c402b12c64736f6c634300080c0033",
  "immutableReferences": {},
  "source": "// SPDX-License-Identifier: MIT\npragma solidity ^0.8.12;\n\nimport { IDistributionExecutable } from './IDistributionExecutable.sol';\n\n\nimport { AxelarExecutable } from '@axelar-network/axelar-gmp-sdk-solidity/contracts/executables/AxelarExecutable.sol';\nimport { IAxelarGateway } from '@axelar-network/axelar-gmp-sdk-solidity/contracts/interfaces/IAxelarGateway.sol';\nimport { IERC20 } from '@axelar-network/axelar-gmp-sdk-solidity/contracts/interfaces/IERC20.sol';\nimport { IAxelarGasService } from '@axelar-network/axelar-gmp-sdk-solidity/contracts/interfaces/IAxelarGasService.sol';\n\ncontract Factory {\n    \n\n    Job[] public jobArray;\n    // address contractOwner;\n    uint256 public countNew = 0;\n    uint256 countAgreed = 0;\n    uint256 countProgress = 0;\n    uint256 countReview = 0;\n    uint256 countCompleted = 0;\n    uint256 countCanceled = 0;\n    string stateNew = \"new\";\n    string stateAgreed = \"agreed\";\n    string stateProgress = \"progress\";\n    string stateReview = \"review\";\n    string stateCompleted = \"completed\";\n    string stateCanceled = \"canceled\";\n\n    event OneEventForAll(address contractAdr, uint256 index);\n\n    event JobContractCreated(\n        address jobAddress,\n        string title,\n        string description\n        \n    );\n\n\n    // constructor(address gateway_) {\n    //     if (gateway_ == address(0)) revert InvalidAddress();\n\n    //     gateway = IAxelarGateway(gateway_);\n    // }\n\n    // initial: new, contractor choosed: agreed, work in progress: progress, completed: completed, canceled\n\n    // function indexCalculation(string memory _state) public returns (uint256) {}\n\n    function createJobContract(string memory _title, string memory _description)\n        external\n        payable\n    {\n        Job job = new Job{value: msg.value}(\n            _title,\n            _description,\n            jobArray.length,\n            msg.sender\n        );\n        jobArray.push(job);\n        countNew++;\n        emit JobContractCreated(address(job), _title, _description);\n        emit OneEventForAll(address(job), job.index());\n    }\n\n    // function findJobs(uint256 _myIndex) external view returns (address) {\n    //     return address(jobArray[_myIndex]);\n    // }\n\n    function allJobs() external view returns (Job[] memory _jobs) {\n        _jobs = new Job[](jobArray.length);\n        uint256 count;\n        for (uint256 i = 0; i < jobArray.length; i++) {\n            _jobs[count] = jobArray[i];\n            count++;\n        }\n    }\n\n    // function allJobsNew() external view returns (Job[] memory _jobs) {\n    //     // _jobs = new Job[](jobArray.length - indexCalculation(\"new\"));\n    //     _jobs = new Job[](countNew);\n\n    //     uint256 count;\n    //     for (uint256 i = 0; i < jobArray.length; i++) {\n    //         if (\n    //             keccak256(bytes(jobArray[i].jobState())) ==\n    //             keccak256(bytes(\"new\"))\n    //         ) {\n    //             _jobs[count] = jobArray[i];\n    //             count++;\n    //         }\n    //     }\n    // }\n\n    // function allCompletedJobs() external view returns (Job[] memory _jobs) {\n    //     _jobs = new Job[](countCompleted);\n    //     uint256 count;\n    //     for (uint256 i = 0; i < jobArray.length; i++) {\n    //         if (\n    //             keccak256(bytes(jobArray[i].jobState())) !=\n    //             keccak256(bytes(\"completed\"))\n    //         ) {\n    //             _jobs[count] = jobArray[i];\n    //             count++;\n    //         }\n    //     }\n    // }\n\n    function jobParticipate(Job job) external {\n        jobArray[job.index()].jobParticipate(msg.sender);\n        emit OneEventForAll(address(job), job.index());\n    }\n\n\n    function jobStateChange(\n        Job job,\n        address payable _participantAddress,\n        string memory _state\n    ) external {\n        jobArray[job.index()].jobStateChange(_participantAddress, _state);\n\n        // if (keccak256(bytes(_state)) == keccak256(bytes(\"agreed\"))) {\n        //     countAgreed++;\n        // } else if (keccak256(bytes(_state)) == keccak256(bytes(\"progress\"))) {\n        //     countProgress++;\n        // } else if (keccak256(bytes(_state)) == keccak256(bytes(\"review\"))) {\n        //     countReview++;\n        // } else if (keccak256(bytes(_state)) == keccak256(bytes(\"completed\"))) {\n        //     countCompleted++;\n        // } else if (keccak256(bytes(_state)) == keccak256(bytes(\"canceled\"))) {\n        //     countCanceled++;\n        // }\n\n        emit OneEventForAll(address(job), job.index());\n    }\n\n    // function jobReview(Job job, address _participantAddress) external {\n    //     jobArray[job.index()].jobReview(_participantAddress);\n    //     countProgress++;\n    // }\n\n    // function jobConfimation(Job job, address _participantAddress) external {\n    //     jobArray[job.index()].jobConfimation(_participantAddress);\n    //     countReview++;\n    // }\n\n    function transferToaddress(Job job, address payable addressToSend)\n        external\n        payable\n    {\n        // addressToSend.transfer(0.5 ether);\n        jobArray[job.index()].transferToaddress(addressToSend);\n        emit OneEventForAll(address(job), job.index());\n    }\n\n    function transferToaddressChain(Job job, address payable addressToSend, string memory chain)\n        external\n        payable\n    {\n        jobArray[job.index()].transferToaddressChain(addressToSend, chain);\n        emit OneEventForAll(address(job), job.index());\n    }\n\n    function transferToaddressChain2(Job job, address payable addressToSend, string memory chain)\n        external\n        payable\n    {\n        jobArray[job.index()].transferToaddressChain2(addressToSend, chain);\n        emit OneEventForAll(address(job), job.index());\n    }\n    \n\n    // function jobCanceled(Job job) external {\n    //     jobArray[job.index()].jobCanceled();\n    //     countCanceled++;\n    // }\n\n    // function getContractAdr(uint256 _classIndex)\n    //     external\n    //     view\n    //     returns (address)\n    // {\n    //     Job _retBal = Job(payable(address(jobArray[_classIndex])));\n    //     return _retBal.returnContractAddress();\n    // }\n\n    function getBalance(uint256 _classIndex) external view returns (uint256) {\n        Job _retBal = Job(payable(address(jobArray[_classIndex])));\n        return _retBal.getBalance();\n    }\n\n    // function thisContract() external view returns (address) {\n    //     address thisConr = address(this);\n    //     return thisConr;\n    // }\n\n    function getJobInfo(uint256 _classIndex)\n        external\n        view\n        returns (\n            string memory,\n            string memory,\n            address,\n            address,\n            address,\n            uint256,\n            uint256,\n            string memory,\n            address[] memory,\n            address\n        )\n    {\n        Job _retBal = Job(payable(address(jobArray[_classIndex])));\n        return _retBal.getJob();\n    }\n\n    // receive() external payable {}\n}\n\ncontract Job {\n    IDistributionExecutable public immutable distributor;\n\t\n    IAxelarGateway public immutable gateway;\n\t\n\n    address[] public Participants;\n    // uint256 public data;\n    string public title;\n    string public description;\n    string public jobState;\n    uint256 public index;\n\n    string public name;\n    uint256 public price;\n    address public contractParent;\n    address public contractAddress;\n    address public contractOwner;\n    address payable public participantAddress;\n    uint256 public createTime;\n    address[] public _destinationAddresses;\n\n    // uint256 public balance;\n\n    // struct jobStructData {\n    //     uint256 data;\n    //     bool jobState;\n    //     address contractAddress;\n    //     address contractParent;\n    //     uint256 createTime;\n    //     uint256 index;\n    // }\n\n    // jobStructData public myStruct;\n\n    constructor(\n        string memory _title,\n        string memory _description,\n        uint256 _index,\n        address _contractOwner\n    ) payable {\n        // data = _data;\n        distributor = IDistributionExecutable(_contractOwner);\n        title = _title;\n        jobState = \"new\";\n        contractAddress = address(this);\n        contractParent = msg.sender;\n        contractOwner = _contractOwner;\n        createTime = block.timestamp;\n        index = _index;\n        description = _description;\n\n        address gateway_ = 0x5769D84DD62a6fD969856c75c7D321b84d455929;\n        gateway = IAxelarGateway(gateway_);\n        // balance = contractAddress.balance;\n        // createJob(_content, _index);\n        // myStruct = jobStructData(\n        //     _data,\n        //     true,\n        //     address(this),\n        //     msg.sender,\n        //     block.timestamp,\n        //     _index\n        // );\n    }\n\n    // event OneEventForAll2(address contractAdr);\n\n    // function createJob(string memory _content, uint256 _index) public {\n    //     jobStructDataArray.push();\n\n    //     jobStructData(\n    //         _content,\n    //         true,\n    //         address(this),\n    //         msg.sender,\n    //         block.timestamp\n    //     );\n    //     emit jobCreated(_content, _index);\n    // }\n\n    function getJob()\n        public\n        view\n        returns (\n            string memory _content,\n            string memory _jobState,\n            address _contractAddress,\n            address _contractParent,\n            address _contractOwner,\n            uint256 _createTime,\n            uint256 _index,\n            string memory _description,\n            address[] memory _participants,\n            address _participantAddress\n        )\n    {\n        return (\n            title,\n            jobState,\n            contractAddress,\n            contractParent,\n            contractOwner,\n            createTime,\n            index,\n            description,\n            Participants,\n            participantAddress\n        );\n    }\n\n    function withdrawAll() external {\n        // jobState = true;\n    }\n\n    // function getContractInfo() public view returns (uint256) {\n    //     return contractAddress.balance;\n    // }\n\n    function getBalance() public view returns (uint256) {\n        return contractAddress.balance;\n    }\n\n    function transferToaddress(address payable _addressToSend) public payable {\n        if (keccak256(bytes(jobState)) == keccak256(bytes(\"canceled\"))) {\n            if (_addressToSend == contractOwner) {\n                _addressToSend.transfer(contractAddress.balance);\n            }\n        } else if (\n            keccak256(bytes(jobState)) == keccak256(bytes(\"completed\"))\n        ) {\n            participantAddress.transfer(contractAddress.balance);\n        }\n        // msg.sender.transfer(address(this).balance);\n    }\n\n    function transferToaddressChain(address payable _addressToSend, string memory chain) public payable {\n        if (keccak256(bytes(jobState)) == keccak256(bytes(\"canceled\"))) {\n            if (_addressToSend == contractOwner) {\n                _addressToSend.transfer(contractAddress.balance);\n            }\n        } else if (\n            keccak256(bytes(jobState)) == keccak256(bytes(\"completed\"))\n        ) {\n            _destinationAddresses.push(participantAddress);\n            distributor.sendToMany(chain, _addressToSend, _destinationAddresses, 'aUSDC', contractAddress.balance);\n        }\n        // msg.sender.transfer(address(this).balance);\n    }\n\n    function transferToaddressChain2(address payable _addressToSend, string memory chain) public payable {\n        if (keccak256(bytes(jobState)) == keccak256(bytes(\"canceled\"))) {\n            if (_addressToSend == contractOwner) {\n                _addressToSend.transfer(contractAddress.balance);\n            }\n        } else if (\n            keccak256(bytes(jobState)) == keccak256(bytes(\"completed\"))\n        ) {\n            // _destinationAddresses.push(_addressToSend);\n            // distributor.sendToMany(chain, _addressToSend, _destinationAddresses, 'aUSDC', contractAddress.balance);\n            // string memory _addressToSend2 = bytes(_addressToSend);\n            IERC20(_addressToSend).approve(address(gateway), contractAddress.balance);\n            gateway.sendToken(chain, toAsciiString(_addressToSend), \"DEV\", contractAddress.balance);\n        }\n        // msg.sender.transfer(address(this).balance);\n    }\n\n    function toAsciiString(address x) internal pure returns (string memory) {\n        bytes memory s = new bytes(40);\n        for (uint i = 0; i < 20; i++) {\n            bytes1 b = bytes1(uint8(uint(uint160(x)) / (2**(8*(19 - i)))));\n            bytes1 hi = bytes1(uint8(b) / 16);\n            bytes1 lo = bytes1(uint8(b) - 16 * uint8(hi));\n            s[2*i] = char(hi);\n            s[2*i+1] = char(lo);            \n        }\n        return string(s);\n    }\n    \n    function char(bytes1 b) internal pure returns (bytes1 c) {\n        if (uint8(b) < 10) return bytes1(uint8(b) + 0x30);\n        else return bytes1(uint8(b) + 0x57);\n    }\n    \n\n    function jobParticipate(address _participantAddress) external {\n        bool existed = false;\n        if (Participants.length == 0) {\n            Participants.push(_participantAddress);\n        } else {\n            for (uint256 i = 0; i < Participants.length; i++) {\n                if (Participants[i] == _participantAddress) {\n                    existed = true;\n                }\n            }\n            if (!existed) {\n                Participants.push(_participantAddress);\n            }\n        }\n        // emit OneEventForAll2(contractAddress);\n    }\n\n    function jobStateChange(\n        address payable _participantAddress,\n        string memory _state\n    ) external {\n        if (keccak256(bytes(_state)) == keccak256(bytes(\"agreed\"))) {\n            jobState = \"agreed\";\n            participantAddress = _participantAddress;\n        } else if (keccak256(bytes(_state)) == keccak256(bytes(\"progress\"))) {\n            jobState = \"progress\";\n        } else if (keccak256(bytes(_state)) == keccak256(bytes(\"review\"))) {\n            jobState = \"review\";\n        } else if (keccak256(bytes(_state)) == keccak256(bytes(\"completed\"))) {\n            jobState = \"completed\";\n        } else if (keccak256(bytes(_state)) == keccak256(bytes(\"canceled\"))) {\n            jobState = \"canceled\";\n        }\n\n        // emit OneEventForAll2(contractAddress);\n    }\n\n    // function jobReview(address _participantAddress) external {\n    //     if (participantAddress == _participantAddress) {\n    //         jobState = \"review\";\n    //     }\n    // }\n\n    // function jobParticiantAgreed(address _participantAddress) external {\n    //     jobState = \"agreed\";\n    //     participantAddress = _participantAddress;\n\n    //     // for (uint256 i = 0; i < Participants.length; i++) {\n    //     //     if (Participants[i] == _participantAddress) {\n    //     //         jobState = \"agreed\";\n    //     //         participantAddress = _participantAddress;\n    //     //     }\n    //     // }\n    // }\n\n    // function jobInProgress() external {\n    //     jobState = \"progress\";\n    // }\n\n    // function jobCompleted() external {\n    //     jobState = \"completed\";\n    // }\n\n    // function jobCanceled() external {\n    //     jobState = \"canceled\";\n    // }\n\n    receive() external payable {}\n\n    // fallback () external payable    {\n\n    // }\n\n    // constructor(string memory _name, address _owner) {\n    //     name = _name;\n    //     owner = _owner;\n    // }\n}\n",
  "sourcePath": "/home/user/Documents/mainstream/devopsdao/contracts/Factory.sol",
  "compiler": {
    "name": "solc",
    "version": "0.8.12+commit.f00d7308.Emscripten.clang"
  },
  "schemaVersion": "3.4.9",
  "updatedAt": "2022-09-09T17:00:50.524Z",
  "networkType": "ethereum",
  "devdoc": {
    "kind": "dev",
    "methods": {},
    "version": 1
  },
  "userdoc": {
    "kind": "user",
    "methods": {},
    "version": 1
  }
}