{
  "contractName": "Factory",
  "abi": [
    {
      "inputs": [],
      "stateMutability": "nonpayable",
      "type": "constructor"
    },
    {
      "anonymous": false,
      "inputs": [
        {
          "indexed": false,
          "internalType": "string",
          "name": "nanoId",
          "type": "string"
        },
        {
          "indexed": false,
          "internalType": "address",
          "name": "jobAddress",
          "type": "address"
        },
        {
          "indexed": false,
          "internalType": "address",
          "name": "jobOwner",
          "type": "address"
        },
        {
          "indexed": false,
          "internalType": "string",
          "name": "title",
          "type": "string"
        },
        {
          "indexed": false,
          "internalType": "string",
          "name": "description",
          "type": "string"
        },
        {
          "indexed": false,
          "internalType": "string",
          "name": "symbol",
          "type": "string"
        },
        {
          "indexed": false,
          "internalType": "uint256",
          "name": "amount",
          "type": "uint256"
        }
      ],
      "name": "JobContractCreated",
      "type": "event"
    },
    {
      "anonymous": false,
      "inputs": [
        {
          "indexed": false,
          "internalType": "address",
          "name": "contractAdr",
          "type": "address"
        },
        {
          "indexed": false,
          "internalType": "uint256",
          "name": "index",
          "type": "uint256"
        }
      ],
      "name": "OneEventForAll",
      "type": "event"
    },
    {
      "inputs": [],
      "name": "countNew",
      "outputs": [
        {
          "internalType": "uint256",
          "name": "",
          "type": "uint256"
        }
      ],
      "stateMutability": "view",
      "type": "function",
      "constant": true
    },
    {
      "inputs": [],
      "name": "gateway",
      "outputs": [
        {
          "internalType": "contract IAxelarGateway",
          "name": "",
          "type": "address"
        }
      ],
      "stateMutability": "view",
      "type": "function",
      "constant": true
    },
    {
      "inputs": [
        {
          "internalType": "uint256",
          "name": "",
          "type": "uint256"
        }
      ],
      "name": "jobArray",
      "outputs": [
        {
          "internalType": "contract Job",
          "name": "",
          "type": "address"
        }
      ],
      "stateMutability": "view",
      "type": "function",
      "constant": true
    },
    {
      "inputs": [
        {
          "internalType": "string",
          "name": "_nanoId",
          "type": "string"
        },
        {
          "internalType": "string",
          "name": "_title",
          "type": "string"
        },
        {
          "internalType": "string",
          "name": "_description",
          "type": "string"
        },
        {
          "internalType": "string",
          "name": "_symbol",
          "type": "string"
        },
        {
          "internalType": "uint256",
          "name": "_amount",
          "type": "uint256"
        }
      ],
      "name": "createJobContract",
      "outputs": [],
      "stateMutability": "payable",
      "type": "function",
      "payable": true
    },
    {
      "inputs": [],
      "name": "allJobs",
      "outputs": [
        {
          "internalType": "contract Job[]",
          "name": "_jobs",
          "type": "address[]"
        }
      ],
      "stateMutability": "view",
      "type": "function",
      "constant": true
    },
    {
      "inputs": [
        {
          "internalType": "contract Job",
          "name": "job",
          "type": "address"
        }
      ],
      "name": "jobParticipate",
      "outputs": [],
      "stateMutability": "nonpayable",
      "type": "function"
    },
    {
      "inputs": [
        {
          "internalType": "contract Job",
          "name": "job",
          "type": "address"
        },
        {
          "internalType": "address payable",
          "name": "_participantAddress",
          "type": "address"
        },
        {
          "internalType": "string",
          "name": "_state",
          "type": "string"
        }
      ],
      "name": "jobStateChange",
      "outputs": [],
      "stateMutability": "nonpayable",
      "type": "function"
    },
    {
      "inputs": [
        {
          "internalType": "contract Job",
          "name": "job",
          "type": "address"
        },
        {
          "internalType": "address payable",
          "name": "addressToSend",
          "type": "address"
        }
      ],
      "name": "transferToaddress",
      "outputs": [],
      "stateMutability": "payable",
      "type": "function",
      "payable": true
    },
    {
      "inputs": [
        {
          "internalType": "contract Job",
          "name": "job",
          "type": "address"
        },
        {
          "internalType": "address payable",
          "name": "addressToSend",
          "type": "address"
        },
        {
          "internalType": "string",
          "name": "chain",
          "type": "string"
        }
      ],
      "name": "transferToaddressChain",
      "outputs": [],
      "stateMutability": "payable",
      "type": "function",
      "payable": true
    },
    {
      "inputs": [
        {
          "internalType": "contract Job",
          "name": "job",
          "type": "address"
        },
        {
          "internalType": "address payable",
          "name": "addressToSend",
          "type": "address"
        },
        {
          "internalType": "string",
          "name": "chain",
          "type": "string"
        }
      ],
      "name": "transferToaddressChain2",
      "outputs": [],
      "stateMutability": "payable",
      "type": "function",
      "payable": true
    },
    {
      "inputs": [
        {
          "internalType": "uint256",
          "name": "_classIndex",
          "type": "uint256"
        }
      ],
      "name": "getBalance",
      "outputs": [
        {
          "internalType": "uint256",
          "name": "",
          "type": "uint256"
        }
      ],
      "stateMutability": "view",
      "type": "function",
      "constant": true
    },
    {
      "inputs": [
        {
          "internalType": "uint256",
          "name": "_classIndex",
          "type": "uint256"
        }
      ],
      "name": "getJobInfo",
      "outputs": [
        {
          "internalType": "string",
          "name": "",
          "type": "string"
        },
        {
          "internalType": "string",
          "name": "",
          "type": "string"
        },
        {
          "internalType": "address",
          "name": "",
          "type": "address"
        },
        {
          "internalType": "address",
          "name": "",
          "type": "address"
        },
        {
          "internalType": "address",
          "name": "",
          "type": "address"
        },
        {
          "internalType": "uint256",
          "name": "",
          "type": "uint256"
        },
        {
          "internalType": "uint256",
          "name": "",
          "type": "uint256"
        },
        {
          "internalType": "string",
          "name": "",
          "type": "string"
        },
        {
          "internalType": "address[]",
          "name": "",
          "type": "address[]"
        },
        {
          "internalType": "address",
          "name": "",
          "type": "address"
        },
        {
          "internalType": "string",
          "name": "",
          "type": "string"
        },
        {
          "internalType": "string",
          "name": "",
          "type": "string"
        }
      ],
      "stateMutability": "view",
      "type": "function",
      "constant": true
    }
  ],
  "bytecode": "0x60a06040523462000332576000600190808255806002558060035580600455600590808255806006556200003560075462000337565b91601f92838111620002e6575b506006626e657760e81b016007556008546200005e9062000337565b8381116200029a575b50600c651859dc99595960d21b01600855600954620000869062000337565b8381116200024e575b507f70726f6772657373000000000000000000000000000000000000000000000010600955600a54620000c29062000337565b83811162000202575b50600c6572657669657760d01b01600a55600b54620000ea9062000337565b838111620001b6575b507f636f6d706c657465640000000000000000000000000000000000000000000012600b55600c54620001269062000337565b928084116200018c575b7f63616e63656c6564000000000000000000000000000000000000000000000010600c55735769d84dd62a6fd969856c75c7d321b84d45592960805260405161366b90816200037582396080518181816108c00152610fdf0152f35b600c8352602083209301901c8201915b828110620001ab578062000130565b81815583016200019c565b600b83528301811c7f0175b7a638427703f0dbe7bb9bbf987a2551717b34e79f33b5b1008d1fa01db99081019085905b828110620001f6575050620000f3565b848155018590620001e6565b600a83528301811c7fc65a7bb8d6351c1cf70c95a316cc6a92839c986682d98bc35f958f4883f9d2a89081019085905b82811062000242575050620000cb565b84815501859062000232565b600983528301811c7f6e1540171b6c0c960b71a7020d9f60077f6af931a8bbf590da0223dacf75c7af9081019085905b8281106200028e5750506200008f565b8481550185906200027e565b600883528301811c7ff3f7a9fe364faab93b216da50a3214154f22a0a2b415b23a84c8169e8b636ee39081019085905b828110620002da57505062000067565b848155018590620002ca565b600783528301811c7fa66cc928b5edb82af9bd49922954155ab7b0942694bea4ce44661d9a8736c6889081019085905b8281106200032657505062000042565b84815501859062000316565b600080fd5b90600182811c9216801562000369575b60208310146200035357565b634e487b7160e01b600052602260045260246000fd5b91607f16916200034756fe6080806040526004803610156200001557600080fd5b600091823560e01c908163116191b61462000fc9575080631e0104391462000f31578063437a4f141462000de3578063527ded4d1462000d1a5780637f4497d81462000a1d5780637f7d7e6c14620005d05780638c7bf1a7146200058a578063a696ee0614620004c7578063a7e595b8146200039e578063c8d1b6aa146200028c578063d69a588e14620002695763fcd3f19614620000b357600080fd5b34620002655760208060031936011262000226576001600160a01b038381620000db6200100e565b169160405190632986c0e560e01b9182815285818881885afa908115620001ed5784916200022a575b50620001109062001180565b90549060031b1c16803b156200022657828091602460405180968193637e69f8cb60e11b8352338c8401525af192831562000219578593620001f8575b5050604051948591825281845afa918215620001ed578492620001a3575b50604080516001600160a01b039092168252602082019290925260008051602062003616833981519152925090819081015b0390a180f35b90915082813d8311620001e5575b620001bd818362001050565b81010312620001e05760008051602062003616833981519152915190386200016b565b600080fd5b503d620001b1565b6040513d86823e3d90fd5b620002069192935062001025565b6200021557829085386200014d565b8480fd5b50604051903d90823e3d90fd5b8280fd5b809450868092503d83116200025d575b62000246818362001050565b81010312620001e057620001108793519062000104565b503d6200023a565b5080fd5b823462000289578060031936011262000289576020600154604051908152f35b80fd5b50346200026557816003193601126200026557815490620002ad8262001206565b92620002bd604051948562001050565b828452620002cb8362001206565b6020938585019391601f190136853782805b82821062000332575050505060405193838594850191818652518092526040850193925b8281106200031157505050500390f35b83516001600160a01b03168552869550938101939281019260010162000301565b6200034282989697959862001180565b905487518310156200038b5760039190911b1c6001600160a01b0316600582901b87018601526200037f906200037890620011e0565b91620011e0565b909693959496620002dd565b634e487b7160e01b8a526032865260248afd5b50620003aa36620010dd565b604051632986c0e560e01b8082526020946001600160a01b039081169491928892919087818a818a5afa908115620001ed5784916200048c575b50620003f09062001180565b90549060031b1c1693843b15620002265762000425948392838a6040519889958694859362bc30f960e01b855284016200121f565b03925af192831562000219578593620001f8575050604051948591825281845afa918215620001ed578492620001a35750604080516001600160a01b039092168252602082019290925260008051602062003616833981519152925090819081016200019d565b809450888092503d8311620004bf575b620004a8818362001050565b81010312620001e057620003f089935190620003e4565b503d6200049c565b50620004d336620010dd565b604051632986c0e560e01b8082526020946001600160a01b039081169491928892919087818a818a5afa908115620001ed5784916200054f575b50620005199062001180565b90549060031b1c1693843b15620002265762000425948392838a6040519889958694859363554137b560e11b855284016200121f565b809450888092503d831162000582575b6200056b818362001050565b81010312620001e05762000519899351906200050d565b503d6200055f565b50346200026557602036600319011262000265573590805482101562000289576020620005b78362001180565b905460405160039290921b1c6001600160a01b03168152f35b5060a0366003190112620002655767ffffffffffffffff813581811162000a195762000600903690840162001090565b90602491823582811162000a15576200061d903690860162001090565b60443583811162000a115762000637903690870162001090565b60643584811162000a0d5762000651903690880162001090565b90608435928854966040516123889889820199828b108a8c1117620009fb579082916200128e833960c08b526200068c60c08c018a62001159565b9a620006c9620006ba620006ab60209e8f858203908601528962001159565b83810360408501528962001159565b82810360608401528962001159565b91608082015260a033910152039034f0968715620009f0578451898601209060405190604082019082821090821117620009dc57604052600381526208aa8960eb1b908a01527f55514145c7ef4e1948f87e0eb4d28d3e34763f4d4cdf3bc449800860a9d0a00c016200088b575b895490680100000000000000008210156200087a57509262000808620007df9593620007f9620008179462000795888f60017f10b01725a6653b5982623f022d74dfbd10c151e56edb1f114e6cf9915861c05f9d9b01905562001180565b81546001600160a01b0360039290921b82811b801990921692909e169d8e901b16179055600154620007c790620011e0565b60015560405198899860e08a5260e08a019062001159565b908b8d8a01523360408a015288820360608a015262001159565b90868203608088015262001159565b9084820360a086015262001159565b9060c08301520390a1816040518094632986c0e560e01b825281845afa918215620001ed578492620001a35750604080516001600160a01b039092168252602082019290925260008051602062003616833981519152925090819081016200019d565b634e487b7160e01b8b5260418a528afd5b6040516349ad89fb60e11b815289810189905280620008ad8382018762001159565b6001600160a01b0392918b9183919003817f000000000000000000000000000000000000000000000000000000000000000086165afa908c8215620009d0578c81858e948e949662000986575b50606493949560405197889687956323b872dd60e01b8752339087015216898501528c6044850152165af180156200097b5762000939575b5062000737565b8881813d831162000973575b62000951818362001050565b810103126200096f5751801515036200096b573862000932565b8980fd5b8a80fd5b503d62000945565b6040513d8d823e3d90fd5b9493505093505081813d8311620009c8575b620009a4818362001050565b81010312620002655760648c8c9385620009bf8e95620011cb565b959493620008fa565b503d62000998565b604051903d90823e3d90fd5b8360418d634e487b7160e01b600052526000fd5b6040513d8c823e3d90fd5b634e487b7160e01b8d5260418c52838dfd5b8780fd5b8680fd5b8580fd5b8380fd5b5090346200028957602036600319011262000289578062000a3f833562001180565b905460405163dd28e14d60e01b81529485929091839160031b1c6001600160a01b03165afa908115620009d05780928182809381908283908493859886978799889c62000b80575b509b9a999897969594939291906040519c8d9c8d610180908181520162000aae9162001159565b8d810360208f015262000ac19162001159565b6001600160a01b0395861660408e015290851660608d0152931660808b015260a08a015260c089015287810360e089015262000afd9162001159565b86810361010088015284519081815260200194602001915b81811062000b5d575050506001600160a01b031661012085015283820361014085015262000b59929162000b499162001159565b9083820361016085015262001159565b0390f35b82516001600160a01b031686528897506020958601959092019160010162000b15565b9b505050505050505094505050503d8083833e62000b9f818362001050565b81019061018081830312620002265780519067ffffffffffffffff9182811162000215578362000bd191830162001243565b90602081015183811162000a15578462000bed91830162001243565b9462000bfc60408301620011cb565b9462000c0b60608401620011cb565b62000c1960808501620011cb565b60a085015160c08601519060e087015189811162000a11578562000c3f91890162001243565b926101008801518a811162000a0d5788019580601f8801121562000a0d5786519662000c6b8862001206565b9762000c7b604051998a62001050565b8089526020808a019160051b830101918383116200096f57602001905b82821062000cff5750505062000cb26101208a01620011cb565b9a6101408a01518181116200096b578262000ccf918c0162001243565b996101608101519182116200096b5762000ceb92910162001243565b989b9a9490919293959997989a3862000a87565b6020809162000d0e84620011cb565b81520191019062000c98565b5034620002655762000d2c36620010dd565b604051632986c0e560e01b8082526020946001600160a01b039081169491928892919087818a818a5afa908115620001ed57849162000da8575b5062000d729062001180565b90549060031b1c1693843b15620002265762000425948392838a60405198899586948593631c472b5b60e31b855284016200121f565b809450888092503d831162000ddb575b62000dc4818362001050565b81010312620001e05762000d728993519062000d66565b503d62000db8565b506040366003190112620002655762000dfb6200100e565b6001600160a01b03602435818116929083900362000215578116908460405193632986c0e560e01b9283865260209586818981895afa8015620001ed57849062000efb575b62000e4c915062001180565b90549060031b1c16803b156200022657602483926040519485938492632d6c745760e11b84528b8401525af1801562000ef05762000eda575b508290604051948591825281845afa918215620001ed578492620001a35750604080516001600160a01b039092168252602082019290925260008051602062003616833981519152925090819081016200019d565b9462000ee884929662001025565b949062000e85565b6040513d88823e3d90fd5b508681813d831162000f29575b62000f14818362001050565b8101031262000a195762000e4c905162000e40565b503d62000f08565b50903462000289576020918260031936011262000265578262000f55823562001180565b9054604051629032ff60e51b81529384929091839160031b1c6001600160a01b03165afa918215620009d057809262000f93575b5050604051908152f35b9091508282813d831162000fc1575b62000fae818362001050565b8101031262000289575051388062000f89565b503d62000fa2565b83903462000265578160031936011262000265577f00000000000000000000000000000000000000000000000000000000000000006001600160a01b03168152602090f35b600435906001600160a01b0382168203620001e057565b67ffffffffffffffff81116200103a57604052565b634e487b7160e01b600052604160045260246000fd5b90601f8019910116810190811067ffffffffffffffff8211176200103a57604052565b67ffffffffffffffff81116200103a57601f01601f191660200190565b81601f82011215620001e057803590620010aa8262001073565b92620010ba604051948562001050565b82845260208383010111620001e057816000926020809301838601378301015290565b6060600319820112620001e0576001600160a01b03916004358381168103620001e057926024359081168103620001e057916044359067ffffffffffffffff8211620001e057620011319160040162001090565b90565b60005b838110620011485750506000910152565b818101518382015260200162001137565b90602091620011748151809281855285808601910162001134565b601f01601f1916010190565b906000918254811015620011b7578280527f290decd9548b62a8d60345a988386fc84ba6bc95484008f6362f93160ef3e563019190565b634e487b7160e01b83526032600452602483fd5b51906001600160a01b0382168203620001e057565b6000198114620011f05760010190565b634e487b7160e01b600052601160045260246000fd5b67ffffffffffffffff81116200103a5760051b60200190565b6001600160a01b039091168152604060208201819052620011319291019062001159565b81601f82011215620001e05780516200125c8162001073565b926200126c604051948562001050565b81845260208284010111620001e0576200113191602080850191016200113456fe60c0604052620023888038038062000017816200058e565b928339810160c082820312620005895781516001600160401b03919082811162000589578162000049918501620005b4565b6020938481015184811162000589578362000066918301620005b4565b94604082015185811162000589578462000082918401620005b4565b9360608301519086821162000589576200009e918401620005b4565b9160a0608082015191015160018060a01b0381168091036200058957845197878911620003525760019880620000d58b5462000626565b97601f9889811162000557575b508690898311600114620004e657600092620004da575b5050600019600383901b1c1916908a1b1789555b81608052805190888211620003525781906200012b60025462000626565b888111620004a7575b5085908883116001146200043d5760009262000431575b5050600019600383901b1c191690891b176002555b6200016d60045462000626565b8581116200040d575b506006626e657760e81b0160045560018060a01b03193081600954161760095533816008541617600855600a541617600a5542600c556005558351858111620003525780600395620001c9875462000626565b868111620003db575b508390868311600114620003745760009262000368575b505060001982871b1c191690871b1784555b8151948511620003525762000212600e5462000626565b83811162000314575b5080928511600114620002a4575093839491849260009562000298575b50501b92600019911b1c191617600e555b735769d84dd62a6fd969856c75c7d321b84d45592960a052604051611d0b90816200067d823960805181818161088e0152610a5f015260a051818181611039015281816112cd01526115910152f35b01519350388062000238565b92919084601f198116600e60005285600020956000905b89838310620002f95750505010620002de575b50505050811b01600e5562000249565b01519060f884600019921b161c1916905538808080620002ce565b858701518955909701969485019488935090810190620002bb565b6200034190600e600052826000208580890160051c820192858a1062000348575b0160051c019062000663565b386200021b565b9250819262000335565b634e487b7160e01b600052604160045260246000fd5b015190503880620001e9565b90899350601f1983169188600052856000209260005b87828210620003c45750508411620003ab575b505050811b018455620001fb565b015160001983891b60f8161c191690553880806200039d565b8385015186558d979095019493840193016200038a565b620004069088600052856000208880860160051c82019288871062000348570160051c019062000663565b38620001d2565b6200042a9060046000528685600020910160051c81019062000663565b3862000176565b0151905038806200014b565b908b9350601f198316916002600052876000209260005b8982821062000490575050841162000476575b505050811b0160025562000160565b015160001960f88460031b161c1916905538808062000467565b8385015186558f9790950194938401930162000454565b620004d3906002600052876000208a80860160051c8201928a871062000348570160051c019062000663565b3862000134565b015190503880620000f9565b908c9350601f1983169184600052886000209260005b8a8282106200053757505084116200051d575b505050811b0189556200010d565b015160001960f88460031b161c191690553880806200050f565b91929395968291958786015181550195019301908e9594939291620004fc565b62000582908d600052886000208b80860160051c8201928b871062000348570160051c019062000663565b38620000e2565b600080fd5b6040519190601f01601f191682016001600160401b038111838210176200035257604052565b919080601f84011215620005895782516001600160401b0381116200035257602090620005ea601f8201601f191683016200058e565b92818452828287010111620005895760005b8181106200061257508260009394955001015290565b8581018301518482018401528201620005fc565b90600182811c9216801562000658575b60208310146200064257565b634e487b7160e01b600052602260045260246000fd5b91607f169162000636565b8181106200066f575050565b600081556001016200066356fe608060405260048036101561001d575b50361561001b57600080fd5b005b600090813560e01c8062bc30f91461114f57806305747a1f1461110e57806306fdde0314611068578063116191b61461102357806312065fe014610ff95780632986c0e514610fdb5780634327a9f414610fb25780634a79d50c14610f0c57806354ddcc3a14610e6957806359ff6ba814610e405780635ad8e8ae14610d7e57806361dcd7ab14610d605780637284e41614610cba578063853828b614610ca657806395d89b4114610bd857806398cfc1a614610ba8578063a035b1fe14610b8a578063aa826f6a14610917578063bed5572f146108bd578063bfe1092814610878578063ce606ee01461084f578063dd28e14d146103ea578063e2395ad814610202578063f6b4dfb4146101d65763fcd3f1961461013c575061000f565b346101d25760203660031901126101d257356001600160a01b03808216908183036101ce578391845491821560001461017f575050505061017c90611b78565b80f35b855b83811061019e575050505015610195575080f35b61017c90611b78565b82826101a983611882565b90549060031b1c16146101c5575b6101c090611bf3565b610181565b600194506101b7565b8380fd5b5080fd5b82346101ff57806003193601126101ff576009546040516001600160a01b039091168152602090f35b80fd5b50346101d257610211366117fc565b809291925190602091817f6c7b0b1c2030be2c643396fd6dc3924ed2cca787e91e5b7b0d3ad68dbf3730168480940192832060405161024f816117be565b60068152651859dc99595960d21b9601869052036102a557505050600c9061027f61027a84546118cc565b611c81565b01905560018060a01b03166bffffffffffffffffffffffff60a01b600b541617600b5580f35b90919394508392507ff9277228123ef6174480588e3c39104edb4957fab3fd5fbf6d6beb66bd614804815183206040516102de816117be565b600881526770726f677265737360c01b9601869052036103115750505060109061030b61027a84546118cc565b01905580f35b8293507f7aa61f7d41f5fab2b7227198d10b8e1d66c06c49409fec49270e545030a3cdfb81518320604051610345816117be565b600681526572657669657760d01b950185905203610370575050600c915061030b61027a84546118cc565b8091925051822061037f611b53565b805190850120036103af5750505061039a61027a82546118cc565b60126818dbdb5c1b195d195960ba1b01905580f35b519020906103bb611b2f565b8051910120146103c9575080f35b6103d661027a82546118cc565b60106718d85b98d95b195960c21b01905580f35b82346101ff57806003193601126101ff57600954600854600a54600c54600554600b5460405160025490976001600160a01b0397881697949685169592851694909216929088600061043b836118cc565b808352926001811690811561083057506001146107d0575b61045f925003896117da565b610467611906565b97604051916000836003549161047c836118cc565b80835292600181169081156107b15750600114610750575b6104a0925003846117da565b60405197889560206000549a8b81520199878b600080527f290decd9548b62a8d60345a988386fc84ba6bc95484008f6362f93160ef3e5639260005b81811061072e5750506104f1925003886117da565b6040519860008a600e5491610505836118cc565b808352926001811690811561070f57506001146106af575b6105299250038b6117da565b6040519b60008d6001549161053d836118cc565b80835292600181169081156106925750600114610635575b909d9c9b9a989796959493929f9e915003610570908d6117da565b6040519d8e9d8e966101808089528801610589916119c4565b878103602089015261059a916119c4565b956040015260608d015260808c015260a08b015260c08a015288810360e08a01526105c4916119c4565b90878203610100890152519081815260200194915b8181106106135750505061012085015283820361014085015261060f9291610600916119c4565b908382036101608501526119c4565b0390f35b82516001600160a01b03168652889750602095860195909201916001016105d9565b509060016000527fb10e2d527612073b26eecdfd717e6a320cf44b4afac2b0732d9fcbe2b7fa0cf6906000915b81831061067757505060208291820101610555565b80602092948385600194549201015201910190918f92610662565b602092508394915060ff191682840152151560051b820101610555565b5090600e6000527fbb7b4a454dc3493923482f07822329ed19e8244eff582cc204f8554c3620c3fd906000915b8183106106f45750509060206105299282010161051d565b80602092948385600194549201015201910190918c926106dc565b6020925061052994915060ff191682840152151560051b82010161051d565b84546001600160a01b031683526001948501948c9450602090930192016104dc565b509060036000527fc2575a0e9e593c00f959f8c92f12db2869c3395a3b0502d05e2516446f71f85b906000915b8183106107955750509060206104a092820101610494565b6020919350806001915483858a0101520191019091859261077d565b602092506104a094915060ff191682840152151560051b820101610494565b509060026000527f405787fa12a823e0f2b7631cc41b3ba8828b3321ca811111fa75cd3aa3bb5ace906000915b81831061081557505090602061045f92820101610453565b80602092948385600194549201015201910190918a926107fd565b6020925061045f94915060ff191682840152151560051b820101610453565b82346101ff57806003193601126101ff57600a546040516001600160a01b039091168152602090f35b82346101ff57806003193601126101ff576040517f00000000000000000000000000000000000000000000000000000000000000006001600160a01b03168152602090f35b50346101d25760203660031901126101d25735600d548110156101d257600d6000527fd7b6990105719101dabeb77144f2a3385c8033acd3af97e9423a695e81ad1eb501546040516001600160a01b039091168152602090f35b5090610922366117fc565b6040519361093a8561093381611a04565b03866117da565b845160208096012061094a611b2f565b805190870120036109b1575050600a5491925082916001600160a01b03918216908216811461097a575b50505080f35b8280929181926009541631908282156109a8575bf11561099c57803880610974565b604051903d90823e3d90fd5b506108fc61098e565b90916040516109ca816109c381611a04565b03826117da565b8581519101206109d8611b53565b868151910120146109ec575b505050905080f35b600b54600d546001600160a01b039691871693600160401b821015610b755760019485830180600d55831015610b6057600d6000527fd7b6990105719101dabeb77144f2a3385c8033acd3af97e9423a695e81ad1eb5928301906bffffffffffffffffffffffff60a01b825416179055877f0000000000000000000000000000000000000000000000000000000000000000169488600954163194863b15610b5c57989081610ab26040519963bd97f00760e01b8b5260a0868c015260a48b01906119c4565b9a166024890152600319998a8982030160448a015285600d54918281520194600d600052926000905b828210610b45575050505050604087988795630ae8aa8960e31b8a9896868a968a80990395860160648a015281520152608485015201925af18015610b3a57610b26575b80806109e4565b610b2f90611794565b6101ff578038610b1f565b6040513d84823e3d90fd5b845481168752958701959383019390830190610adb565b8880fd5b603282634e487b7160e01b6000525260246000fd5b604190634e487b7160e01b6000525260246000fd5b82346101ff57806003193601126101ff576020600754604051908152f35b82346101ff57806003193601126101ff5761060f610bc4611906565b6040519182916020835260208301906119c4565b82346101ff57806003193601126101ff576040516000600e54610bfa816118cc565b80845290600190818116908115610c7f5750600114610c24575b61060f84610bc4818603826117da565b600e600090815292507fbb7b4a454dc3493923482f07822329ed19e8244eff582cc204f8554c3620c3fd5b828410610c67575050508101602001610bc482610c14565b80546020858701810191909152909301928101610c4f565b60ff191660208087019190915292151560051b85019092019250610bc49150839050610c14565b82346101ff57806003193601126101ff5780f35b82346101ff57806003193601126101ff576040516000600354610cdc816118cc565b80845290600190818116908115610c7f5750600114610d055761060f84610bc4818603826117da565b6003600090815292507fc2575a0e9e593c00f959f8c92f12db2869c3395a3b0502d05e2516446f71f85b5b828410610d48575050508101602001610bc482610c14565b80546020858701810191909152909301928101610d30565b82346101ff57806003193601126101ff576020600c54604051908152f35b5060203660031901126101d257356001600160a01b0381811691829003610e3b578291604051610db1816109c381611a04565b60208151910120610dc0611b2f565b6020815191012014600014610de05781600a5416811461097a5750505080f35b50604051610df1816109c381611a04565b60208151910120610e00611b53565b6020815191012014610e1157505080f35b8180828193600b541690600954163190828215610e32575bf11561099c5780f35b506108fc610e29565b600080fd5b82346101ff57806003193601126101ff57600b546040516001600160a01b039091168152602090f35b82346101ff57806003193601126101ff5760405160006001805490610e8d826118cc565b80855291818116908115610c7f5750600114610eb35761060f84610bc4818603826117da565b600081815292507fb10e2d527612073b26eecdfd717e6a320cf44b4afac2b0732d9fcbe2b7fa0cf65b828410610ef4575050508101602001610bc482610c14565b80546020858701810191909152909301928101610edc565b82346101ff57806003193601126101ff576040516000600254610f2e816118cc565b80845290600190818116908115610c7f5750600114610f575761060f84610bc4818603826117da565b6002600090815292507f405787fa12a823e0f2b7631cc41b3ba8828b3321ca811111fa75cd3aa3bb5ace5b828410610f9a575050508101602001610bc482610c14565b80546020858701810191909152909301928101610f82565b82346101ff57806003193601126101ff576008546040516001600160a01b039091168152602090f35b82346101ff57806003193601126101ff576020600554604051908152f35b82346101ff57806003193601126101ff576009546040516001600160a01b03909116318152602090f35b82346101ff57806003193601126101ff576040517f00000000000000000000000000000000000000000000000000000000000000006001600160a01b03168152602090f35b82346101ff57806003193601126101ff57604051600060065461108a816118cc565b80845290600190818116908115610c7f57506001146110b35761060f84610bc4818603826117da565b6006600090815292507ff652222313e28459528d920b65115c16c04f3efc82aaedc97be59f3f377c0d3f5b8284106110f6575050508101602001610bc482610c14565b805460208587018101919091529093019281016110de565b50346101d25760203660031901126101d257359080548210156101ff57602061113683611882565b905460405160039290921b1c6001600160a01b03168152f35b509061115a366117fc565b60405161116a816109c381611a04565b805160208092012061117a611b2f565b805190830120036111a9575050600a5491925082916001600160a01b03918216908216811461097a5750505080f35b90916040516111bb816109c381611a04565b8281519101206111c9611b53565b838151910120146111dc57505050905080f35b604051946111f4866111ed81611aa8565b03876117da565b855180611203575b50506109e4565b838701908120967faaaebeba3810b1e6b70781f14b2d72c1cb89c0b2b320c43bb67ff79f562f5ff4604051986112388a6117be565b6208aa8960eb1b8760039b8c81520152146000146112925750505050505080808080945060018060a01b0380600b541690600954163190828215611289575bf11561099c575b8038808080806111fc565b506108fc611277565b8051822061129e611bba565b8681519101201480611746575b1561154d5750506009546040805163095ea7b360e01b81526001600160a01b037f00000000000000000000000000000000000000000000000000000000000000008116858301818152948216316020860152958116969390928491839182910103818b8a5af1801561154257611515575b50604051946060860186811067ffffffffffffffff821117611502576040526028865260403684880137875b601481106113eb575050869750600996959654163190833b156113e757608094869264615553444360d81b6040936113ad61139a86519c8d9b8c9a6326ef699d60e01b8c528b015260848a01906119c4565b60031995868a83030160248b01526119c4565b8781039485016044890152600581520152606485015201925af18015610b3a576113d8575b5061127e565b6113e190611794565b386113d2565b8580fd5b60138181039081116114ef57808b1b906001600160fd1b038116036114ef5760ff908181116114a35760019081811b156114dc5784901c60f08116838216039283116114c9576114439060f41b600f60f81b16611c3f565b83821b92906001600160ff1b03851685036114b6579061147c918d1a611469858d611c18565b5360f81b6001600160f81b031916611c3f565b9082018092116114a3579061149861149e93928c1a918a611c18565b53611bf3565b611348565b634e487b7160e01b8b526011875260248bfd5b634e487b7160e01b8d526011895260248dfd5b634e487b7160e01b8c526011885260248cfd5b634e487b7160e01b8c526012885260248cfd5b634e487b7160e01b8a526011865260248afd5b634e487b7160e01b895260418552602489fd5b61153490833d851161153b575b61152c81836117da565b810190611bdb565b503861131c565b503d611522565b6040513d8a823e3d90fd5b9250929495509250519020611560611bba565b83815191012014611573575b505061127e565b6040516349ad89fb60e11b81528082018390526001600160a01b03917f00000000000000000000000000000000000000000000000000000000000000008316918481806115c260248201611aa8565b0381865afa80156116d2578491879161170c575b506009546040516370a0823160e01b8152951683860152168484602481845afa9384156116d25786946116dd575b5083600f55604051936323b872dd60e01b855233838601523060248601526044850152848460648189855af19283156116d25761167d9486946116b5575b50600f546040805163095ea7b360e01b81526001600160a01b0390931694830194855260208501919091529094859384928992849290910190565b03925af180156116aa571561156c57816116a292903d1061153b5761152c81836117da565b50388061156c565b6040513d85823e3d90fd5b6116cb90853d871161153b5761152c81836117da565b5038611642565b6040513d88823e3d90fd5b9093508481813d8311611705575b6116f581836117da565b810103126113e757519238611604565b503d6116eb565b809250868092503d831161173f575b61172581836117da565b810103126113e7575183811681036113e7578390386115d6565b503d61171b565b507f6f3c53069778183912da77a05fe67c3d6edb208ffdf1ca0161d51543035e3c68865186880120674d6f6f6e6261736560c01b87604051611787816117be565b60088152015214156112ab565b67ffffffffffffffff81116117a857604052565b634e487b7160e01b600052604160045260246000fd5b6040810190811067ffffffffffffffff8211176117a857604052565b90601f8019910116810190811067ffffffffffffffff8211176117a857604052565b906040600319830112610e3b576004356001600160a01b0381168103610e3b579167ffffffffffffffff602435818111610e3b5782602382011215610e3b5780600401359182116117a8576040519261185f601f8401601f1916602001856117da565b82845260248383010111610e3b5781600092602460209301838601378301015290565b9060009182548110156118b8578280527f290decd9548b62a8d60345a988386fc84ba6bc95484008f6362f93160ef3e563019190565b634e487b7160e01b83526032600452602483fd5b90600182811c921680156118fc575b60208310146118e657565b634e487b7160e01b600052602260045260246000fd5b91607f16916118db565b604051906000826004549161191a836118cc565b808352926001908181169081156119a25750600114611943575b50611941925003836117da565b565b6004600090815291507f8a35acfbc15ff81a39ae7d344fd709f28e8600b4aa8c65c6b64bfe7fe36bd19b5b8483106119875750611941935050810160200138611934565b81935090816020925483858a0101520191019091859261196e565b90506020925061194194915060ff191682840152151560051b82010138611934565b919082519283825260005b8481106119f0575050826000602080949584010152601f8019910116010190565b6020818301810151848301820152016119cf565b60045460009291611a14826118cc565b80825291600190818116908115611a8b5750600114611a3257505050565b9192935060046000527f8a35acfbc15ff81a39ae7d344fd709f28e8600b4aa8c65c6b64bfe7fe36bd19b916000925b848410611a7357505060209250010190565b80546020858501810191909152909301928101611a61565b915050602093945060ff929192191683830152151560051b010190565b600e5460009291611ab8826118cc565b80825291600190818116908115611a8b5750600114611ad657505050565b91929350600e6000527fbb7b4a454dc3493923482f07822329ed19e8244eff582cc204f8554c3620c3fd916000925b848410611b1757505060209250010190565b80546020858501810191909152909301928101611b05565b60405190611b3c826117be565b600882526718d85b98d95b195960c21b6020830152565b60405190611b60826117be565b600982526818dbdb5c1b195d195960ba1b6020830152565b600054600160401b8110156117a857806001611b979201600055611882565b819291549060031b9160018060a01b039283811b93849216901b16911916179055565b60405190611bc7826117be565b6005825264615553444360d81b6020830152565b90816020910312610e3b57518015158103610e3b5790565b6000198114611c025760010190565b634e487b7160e01b600052601160045260246000fd5b908151811015611c29570160200190565b634e487b7160e01b600052603260045260246000fd5b60f81c600a811015611c665760300160ff8111611c025760f81b6001600160f81b03191690565b60570160ff8111611c025760f81b6001600160f81b03191690565b601f8111611c8c5750565b600060048152601f7f8a35acfbc15ff81a39ae7d344fd709f28e8600b4aa8c65c6b64bfe7fe36bd19b920160051c8201915b828110611cca57505050565b818155600101611cbe56fea2646970667358221220afcf3e68beb1305edcaa609e3a30c1910e8a274c9dd80cc5479d995afd98ac2d64736f6c634300081100339bae9a5cb21b2c8bcdab1612a93a658a295cc73028d28d9dc4555387605185b0a26469706673582212202879af4e88400cbc798510d908b6c3f519f0bb6fde4ed162744fc95a9481bd6e64736f6c63430008110033",
  "immutableReferences": {
    "832": [
      {
        "length": 32,
        "start": 2240
      },
      {
        "length": 32,
        "start": 4063
      }
    ]
  },
  "source": "// SPDX-License-Identifier: MIT\npragma solidity ^0.8.12;\n\nimport { IDistributionExecutable } from './IDistributionExecutable.sol';\n\n\nimport { AxelarExecutable } from '@axelar-network/axelar-gmp-sdk-solidity/contracts/executables/AxelarExecutable.sol';\nimport { IAxelarGateway } from '@axelar-network/axelar-gmp-sdk-solidity/contracts/interfaces/IAxelarGateway.sol';\nimport { IERC20 } from '@axelar-network/axelar-gmp-sdk-solidity/contracts/interfaces/IERC20.sol';\nimport { IAxelarGasService } from '@axelar-network/axelar-gmp-sdk-solidity/contracts/interfaces/IAxelarGasService.sol';\n\ncontract Factory {\n    IAxelarGateway public immutable gateway;\n\n\n    Job[] public jobArray;\n    // address contractOwner;\n    uint256 public countNew = 0;\n    uint256 countAgreed = 0;\n    uint256 countProgress = 0;\n    uint256 countReview = 0;\n    uint256 countCompleted = 0;\n    uint256 countCanceled = 0;\n    string stateNew = \"new\";\n    string stateAgreed = \"agreed\";\n    string stateProgress = \"progress\";\n    string stateReview = \"review\";\n    string stateCompleted = \"completed\";\n    string stateCanceled = \"canceled\";\n\n    event OneEventForAll(address contractAdr, uint256 index);\n\n    event JobContractCreated(\n        string nanoId,\n        address jobAddress,\n        address jobOwner,\n        string title,\n        string description,\n        string symbol,\n        uint256 amount\n    );\n\n\n    constructor() {\n        address gateway_ = 0x5769D84DD62a6fD969856c75c7D321b84d455929;\n        gateway = IAxelarGateway(gateway_);\n    }\n\n    // initial: new, contractor choosed: agreed, work in progress: progress, completed: completed, canceled\n\n    // function indexCalculation(string memory _state) public returns (uint256) {}\n\n    function createJobContract(string memory _nanoId, string memory _title, string memory _description, string memory _symbol, uint256 _amount)\n    external\n    payable\n    {\n        Job job = new Job{value: msg.value}(\n            _nanoId,\n            _title,\n            _description,\n            _symbol,\n            jobArray.length,\n            msg.sender\n        );\n\n        if (keccak256(bytes(_symbol)) != keccak256(bytes(\"ETH\"))) {\n            address tokenAddress = gateway.tokenAddresses(_symbol);\n            // amount = IERC20(tokenAddress).balanceOf(contractAddress);\n            IERC20(tokenAddress).transferFrom(msg.sender, address(job), _amount);\n        }\n        // IERC20(tokenAddress).approve(address(gateway), _amount);\n\n        jobArray.push(job);\n        countNew++;\n        emit JobContractCreated(_nanoId, address(job), msg.sender, _title, _description, _symbol, _amount);\n        emit OneEventForAll(address(job), job.index());\n    }\n\n    // function findJobs(uint256 _myIndex) external view returns (address) {\n    //     return address(jobArray[_myIndex]);\n    // }\n\n    function allJobs() external view returns (Job[] memory _jobs) {\n        _jobs = new Job[](jobArray.length);\n        uint256 count;\n        for (uint256 i = 0; i < jobArray.length; i++) {\n            _jobs[count] = jobArray[i];\n            count++;\n        }\n    }\n\n\n    function jobParticipate(Job job) external {\n        jobArray[job.index()].jobParticipate(msg.sender);\n        emit OneEventForAll(address(job), job.index());\n    }\n\n\n    function jobStateChange(\n        Job job,\n        address payable _participantAddress,\n        string memory _state\n    ) external {\n        jobArray[job.index()].jobStateChange(_participantAddress, _state);\n\n        // if (keccak256(bytes(_state)) == keccak256(bytes(\"agreed\"))) {\n        //     countAgreed++;\n        // } else if (keccak256(bytes(_state)) == keccak256(bytes(\"progress\"))) {\n        //     countProgress++;\n        // } else if (keccak256(bytes(_state)) == keccak256(bytes(\"review\"))) {\n        //     countReview++;\n        // } else if (keccak256(bytes(_state)) == keccak256(bytes(\"completed\"))) {\n        //     countCompleted++;\n        // } else if (keccak256(bytes(_state)) == keccak256(bytes(\"canceled\"))) {\n        //     countCanceled++;\n        // }\n\n        emit OneEventForAll(address(job), job.index());\n    }\n\n    // function jobReview(Job job, address _participantAddress) external {\n    //     jobArray[job.index()].jobReview(_participantAddress);\n    //     countProgress++;\n    // }\n\n    // function jobConfimation(Job job, address _participantAddress) external {\n    //     jobArray[job.index()].jobConfimation(_participantAddress);\n    //     countReview++;\n    // }\n\n    function transferToaddress(Job job, address payable addressToSend)\n    external\n    payable\n    {\n        // addressToSend.transfer(0.5 ether);\n        jobArray[job.index()].transferToaddress(addressToSend);\n        emit OneEventForAll(address(job), job.index());\n    }\n\n    function transferToaddressChain(Job job, address payable addressToSend, string memory chain)\n    external\n    payable\n    {\n        jobArray[job.index()].transferToaddressChain(addressToSend, chain);\n        emit OneEventForAll(address(job), job.index());\n    }\n\n    function transferToaddressChain2(Job job, address payable addressToSend, string memory chain)\n    external\n    payable\n    {\n        jobArray[job.index()].transferToaddressChain2(addressToSend, chain);\n        emit OneEventForAll(address(job), job.index());\n    }\n\n\n    // function jobCanceled(Job job) external {\n    //     jobArray[job.index()].jobCanceled();\n    //     countCanceled++;\n    // }\n\n    // function getContractAdr(uint256 _classIndex)\n    //     external\n    //     view\n    //     returns (address)\n    // {\n    //     Job _retBal = Job(payable(address(jobArray[_classIndex])));\n    //     return _retBal.returnContractAddress();\n    // }\n\n    function getBalance(uint256 _classIndex) external view returns (uint256) {\n        Job _retBal = Job(payable(address(jobArray[_classIndex])));\n        return _retBal.getBalance();\n    }\n\n    // function thisContract() external view returns (address) {\n    //     address thisConr = address(this);\n    //     return thisConr;\n    // }\n\n    function getJobInfo(uint256 _classIndex)\n    external\n    view\n    returns (\n        string memory,\n        string memory,\n        address,\n        address,\n        address,\n        uint256,\n        uint256,\n        string memory,\n        address[] memory,\n        address,\n        string memory,\n        string memory\n        \n    )\n    {\n        Job _retBal = Job(payable(address(jobArray[_classIndex])));\n        return _retBal.getJob();\n    }\n\n    // receive() external payable {}\n}\n\ncontract Job {\n    IDistributionExecutable public immutable distributor;\n\n    IAxelarGateway public immutable gateway;\n\n\n    address[] public Participants;\n    // uint256 public data;\n    string public nanoId;\n    string public title;\n    string public description;\n    string public jobState;\n    uint256 public index;\n\n    string public name;\n    uint256 public price;\n    address public contractParent;\n    address public contractAddress;\n    address public contractOwner;\n    address payable public participantAddress;\n    uint256 public createTime;\n    address[] public _destinationAddresses;\n    string public symbol;\n    uint256 amount;\n\n    constructor(\n        string memory _nanoId,\n        string memory _title,\n        string memory _description,\n        string memory _symbol,\n        uint256 _index,\n        address _contractOwner\n    ) payable {\n        // data = _data;\n        nanoId = _nanoId;\n        distributor = IDistributionExecutable(_contractOwner);\n        title = _title;\n        jobState = \"new\";\n        contractAddress = address(this);\n        contractParent = msg.sender;\n        contractOwner = _contractOwner;\n        createTime = block.timestamp;\n        index = _index;\n        description = _description;\n        symbol = _symbol;\n\n        address gateway_ = 0x5769D84DD62a6fD969856c75c7D321b84d455929;\n        gateway = IAxelarGateway(gateway_);\n        // balance = contractAddress.balance;\n        // createJob(_content, _index);\n        // myStruct = jobStructData(\n        //     _data,\n        //     true,\n        //     address(this),\n        //     msg.sender,\n        //     block.timestamp,\n        //     _index\n        // );\n    }\n\n    // event OneEventForAll2(address contractAdr);\n\n    // function createJob(string memory _content, uint256 _index) public {\n    //     jobStructDataArray.push();\n\n    //     jobStructData(\n    //         _content,\n    //         true,\n    //         address(this),\n    //         msg.sender,\n    //         block.timestamp\n    //     );\n    //     emit jobCreated(_content, _index);\n    // }\n\n    function getJob()\n    public\n    view\n    returns (\n        string memory _content,\n        string memory _jobState,\n        address _contractAddress,\n        address _contractParent,\n        address _contractOwner,\n        uint256 _createTime,\n        uint256 _index,\n        string memory _description,\n        address[] memory _participants,\n        address _participantAddress,\n        string memory _symbol,\n        string memory _nanoId\n    )\n    {\n        return (\n        title,\n        jobState,\n        contractAddress,\n        contractParent,\n        contractOwner,\n        createTime,\n        index,\n        description,\n        Participants,\n        participantAddress,\n        symbol,\n        nanoId\n        );\n    }\n\n    function withdrawAll() external {\n        // jobState = true;\n    }\n\n    // function getContractInfo() public view returns (uint256) {\n    //     return contractAddress.balance;\n    // }\n\n    function getBalance() public view returns (uint256) {\n        return contractAddress.balance;\n    }\n\n    function transferToaddress(address payable _addressToSend) public payable {\n        if (keccak256(bytes(jobState)) == keccak256(bytes(\"canceled\"))) {\n            if (_addressToSend == contractOwner) {\n                _addressToSend.transfer(contractAddress.balance);\n            }\n        } else if (\n            keccak256(bytes(jobState)) == keccak256(bytes(\"completed\"))\n        ) {\n\n            participantAddress.transfer(contractAddress.balance);\n        }\n        // msg.sender.transfer(address(this).balance);\n    }\n\n    function transferToaddressChain(address payable _addressToSend, string memory chain) public payable {\n        if (keccak256(bytes(jobState)) == keccak256(bytes(\"canceled\"))) {\n            if (_addressToSend == contractOwner) {\n                _addressToSend.transfer(contractAddress.balance);\n            }\n        } else if (\n            keccak256(bytes(jobState)) == keccak256(bytes(\"completed\"))\n        ) {\n            _destinationAddresses.push(participantAddress);\n            distributor.sendToMany(chain, _addressToSend, _destinationAddresses, 'WETH', contractAddress.balance);\n        }\n        // msg.sender.transfer(address(this).balance);\n    }\n\n    function transferToaddressChain2(address payable _addressToSend, string memory chain) public payable {\n        if (keccak256(bytes(jobState)) == keccak256(bytes(\"canceled\"))) {\n            if (_addressToSend == contractOwner) {\n                _addressToSend.transfer(contractAddress.balance);\n            }\n        } else if (\n            keccak256(bytes(jobState)) == keccak256(bytes(\"completed\"))\n        ) {\n            bytes memory symbolBytes = bytes(symbol);\n            bytes memory chainBytes = bytes(chain);\n            if (symbolBytes.length == 0) {\n                // do nothing\n            } else if (keccak256(symbolBytes) == keccak256(bytes(\"ETH\"))) {\n                participantAddress.transfer(contractAddress.balance);\n            } else if (keccak256(symbolBytes) == keccak256(bytes(\"aUSDC\")) && keccak256(chainBytes) != keccak256(bytes(\"Moonbase\"))) {\n                // _destinationAddresses.push(_addressToSend);\n                // distributor.sendToMany(chain, _addressToSend, _destinationAddresses, 'aUSDC', contractAddress.balance);\n                // string memory _addressToSend2 = bytes(_addressToSend);\n                IERC20(_addressToSend).approve(address(gateway), contractAddress.balance);\n                gateway.sendToken(chain, toAsciiString(_addressToSend), \"aUSDC\", contractAddress.balance);\n            } else if (keccak256(symbolBytes) == keccak256(bytes(\"aUSDC\"))) {\n                address tokenAddress = gateway.tokenAddresses(symbol);\n                amount = IERC20(tokenAddress).balanceOf(contractAddress);\n                IERC20(tokenAddress).transferFrom(msg.sender, address(this), amount);\n                IERC20(tokenAddress).approve(address(gateway), amount);\n            }\n        }\n        // msg.sender.transfer(address(this).balance);\n    }\n\n    function toAsciiString(address x) internal pure returns (string memory) {\n        bytes memory s = new bytes(40);\n        for (uint i = 0; i < 20; i++) {\n            bytes1 b = bytes1(uint8(uint(uint160(x)) / (2**(8*(19 - i)))));\n            bytes1 hi = bytes1(uint8(b) / 16);\n            bytes1 lo = bytes1(uint8(b) - 16 * uint8(hi));\n            s[2*i] = char(hi);\n            s[2*i+1] = char(lo);\n        }\n        return string(s);\n    }\n\n    function char(bytes1 b) internal pure returns (bytes1 c) {\n        if (uint8(b) < 10) return bytes1(uint8(b) + 0x30);\n        else return bytes1(uint8(b) + 0x57);\n    }\n\n\n    function jobParticipate(address _participantAddress) external {\n        bool existed = false;\n        if (Participants.length == 0) {\n            Participants.push(_participantAddress);\n        } else {\n            for (uint256 i = 0; i < Participants.length; i++) {\n                if (Participants[i] == _participantAddress) {\n                    existed = true;\n                }\n            }\n            if (!existed) {\n                Participants.push(_participantAddress);\n            }\n        }\n        // emit OneEventForAll2(contractAddress);\n    }\n\n    function jobStateChange(\n        address payable _participantAddress,\n        string memory _state\n    ) external {\n        if (keccak256(bytes(_state)) == keccak256(bytes(\"agreed\"))) {\n            jobState = \"agreed\";\n            participantAddress = _participantAddress;\n        } else if (keccak256(bytes(_state)) == keccak256(bytes(\"progress\"))) {\n            jobState = \"progress\";\n        } else if (keccak256(bytes(_state)) == keccak256(bytes(\"review\"))) {\n            jobState = \"review\";\n        } else if (keccak256(bytes(_state)) == keccak256(bytes(\"completed\"))) {\n            jobState = \"completed\";\n        } else if (keccak256(bytes(_state)) == keccak256(bytes(\"canceled\"))) {\n            jobState = \"canceled\";\n        }\n\n        // emit OneEventForAll2(contractAddress);\n    }\n\n    // function jobReview(address _participantAddress) external {\n    //     if (participantAddress == _participantAddress) {\n    //         jobState = \"review\";\n    //     }\n    // }\n\n    // function jobParticiantAgreed(address _participantAddress) external {\n    //     jobState = \"agreed\";\n    //     participantAddress = _participantAddress;\n\n    //     // for (uint256 i = 0; i < Participants.length; i++) {\n    //     //     if (Participants[i] == _participantAddress) {\n    //     //         jobState = \"agreed\";\n    //     //         participantAddress = _participantAddress;\n    //     //     }\n    //     // }\n    // }\n\n    // function jobInProgress() external {\n    //     jobState = \"progress\";\n    // }\n\n    // function jobCompleted() external {\n    //     jobState = \"completed\";\n    // }\n\n    // function jobCanceled() external {\n    //     jobState = \"canceled\";\n    // }\n\n    receive() external payable {}\n\n    // fallback () external payable    {\n\n    // }\n\n    // constructor(string memory _name, address _owner) {\n    //     name = _name;\n    //     owner = _owner;\n    // }\n}\n",
  "sourcePath": "/home/user/Documents/mainstream/devopsdao/contracts/Factory.sol",
  "compiler": {
    "name": "solc",
    "version": "0.8.17+commit.8df45f5f.Emscripten.clang"
  },
  "schemaVersion": "3.4.10",
  "updatedAt": "2022-09-16T18:16:19.046Z",
  "networkType": "ethereum",
  "devdoc": {
    "kind": "dev",
    "methods": {},
    "version": 1
  },
  "userdoc": {
    "kind": "user",
    "methods": {},
    "version": 1
  }
}