{
  "contractName": "Factory",
  "abi": [
    {
      "inputs": [],
      "stateMutability": "nonpayable",
      "type": "constructor"
    },
    {
      "anonymous": false,
      "inputs": [
        {
          "indexed": false,
          "internalType": "address",
          "name": "jobAddress",
          "type": "address"
        },
        {
          "indexed": false,
          "internalType": "string",
          "name": "title",
          "type": "string"
        },
        {
          "indexed": false,
          "internalType": "string",
          "name": "description",
          "type": "string"
        },
        {
          "indexed": false,
          "internalType": "string",
          "name": "symbol",
          "type": "string"
        }
      ],
      "name": "JobContractCreated",
      "type": "event"
    },
    {
      "anonymous": false,
      "inputs": [
        {
          "indexed": false,
          "internalType": "address",
          "name": "contractAdr",
          "type": "address"
        },
        {
          "indexed": false,
          "internalType": "uint256",
          "name": "index",
          "type": "uint256"
        }
      ],
      "name": "OneEventForAll",
      "type": "event"
    },
    {
      "inputs": [],
      "name": "countNew",
      "outputs": [
        {
          "internalType": "uint256",
          "name": "",
          "type": "uint256"
        }
      ],
      "stateMutability": "view",
      "type": "function",
      "constant": true
    },
    {
      "inputs": [],
      "name": "gateway",
      "outputs": [
        {
          "internalType": "contract IAxelarGateway",
          "name": "",
          "type": "address"
        }
      ],
      "stateMutability": "view",
      "type": "function",
      "constant": true
    },
    {
      "inputs": [
        {
          "internalType": "uint256",
          "name": "",
          "type": "uint256"
        }
      ],
      "name": "jobArray",
      "outputs": [
        {
          "internalType": "contract Job",
          "name": "",
          "type": "address"
        }
      ],
      "stateMutability": "view",
      "type": "function",
      "constant": true
    },
    {
      "inputs": [
        {
          "internalType": "string",
          "name": "_title",
          "type": "string"
        },
        {
          "internalType": "string",
          "name": "_description",
          "type": "string"
        },
        {
          "internalType": "string",
          "name": "_symbol",
          "type": "string"
        },
        {
          "internalType": "uint256",
          "name": "_amount",
          "type": "uint256"
        }
      ],
      "name": "createJobContract",
      "outputs": [],
      "stateMutability": "payable",
      "type": "function",
      "payable": true
    },
    {
      "inputs": [],
      "name": "allJobs",
      "outputs": [
        {
          "internalType": "contract Job[]",
          "name": "_jobs",
          "type": "address[]"
        }
      ],
      "stateMutability": "view",
      "type": "function",
      "constant": true
    },
    {
      "inputs": [
        {
          "internalType": "contract Job",
          "name": "job",
          "type": "address"
        }
      ],
      "name": "jobParticipate",
      "outputs": [],
      "stateMutability": "nonpayable",
      "type": "function"
    },
    {
      "inputs": [
        {
          "internalType": "contract Job",
          "name": "job",
          "type": "address"
        },
        {
          "internalType": "address payable",
          "name": "_participantAddress",
          "type": "address"
        },
        {
          "internalType": "string",
          "name": "_state",
          "type": "string"
        }
      ],
      "name": "jobStateChange",
      "outputs": [],
      "stateMutability": "nonpayable",
      "type": "function"
    },
    {
      "inputs": [
        {
          "internalType": "contract Job",
          "name": "job",
          "type": "address"
        },
        {
          "internalType": "address payable",
          "name": "addressToSend",
          "type": "address"
        }
      ],
      "name": "transferToaddress",
      "outputs": [],
      "stateMutability": "payable",
      "type": "function",
      "payable": true
    },
    {
      "inputs": [
        {
          "internalType": "contract Job",
          "name": "job",
          "type": "address"
        },
        {
          "internalType": "address payable",
          "name": "addressToSend",
          "type": "address"
        },
        {
          "internalType": "string",
          "name": "chain",
          "type": "string"
        }
      ],
      "name": "transferToaddressChain",
      "outputs": [],
      "stateMutability": "payable",
      "type": "function",
      "payable": true
    },
    {
      "inputs": [
        {
          "internalType": "contract Job",
          "name": "job",
          "type": "address"
        },
        {
          "internalType": "address payable",
          "name": "addressToSend",
          "type": "address"
        },
        {
          "internalType": "string",
          "name": "chain",
          "type": "string"
        }
      ],
      "name": "transferToaddressChain2",
      "outputs": [],
      "stateMutability": "payable",
      "type": "function",
      "payable": true
    },
    {
      "inputs": [
        {
          "internalType": "uint256",
          "name": "_classIndex",
          "type": "uint256"
        }
      ],
      "name": "getBalance",
      "outputs": [
        {
          "internalType": "uint256",
          "name": "",
          "type": "uint256"
        }
      ],
      "stateMutability": "view",
      "type": "function",
      "constant": true
    },
    {
      "inputs": [
        {
          "internalType": "uint256",
          "name": "_classIndex",
          "type": "uint256"
        }
      ],
      "name": "getJobInfo",
      "outputs": [
        {
          "internalType": "string",
          "name": "",
          "type": "string"
        },
        {
          "internalType": "string",
          "name": "",
          "type": "string"
        },
        {
          "internalType": "address",
          "name": "",
          "type": "address"
        },
        {
          "internalType": "address",
          "name": "",
          "type": "address"
        },
        {
          "internalType": "address",
          "name": "",
          "type": "address"
        },
        {
          "internalType": "uint256",
          "name": "",
          "type": "uint256"
        },
        {
          "internalType": "uint256",
          "name": "",
          "type": "uint256"
        },
        {
          "internalType": "string",
          "name": "",
          "type": "string"
        },
        {
          "internalType": "address[]",
          "name": "",
          "type": "address[]"
        },
        {
          "internalType": "address",
          "name": "",
          "type": "address"
        },
        {
          "internalType": "string",
          "name": "",
          "type": "string"
        }
      ],
      "stateMutability": "view",
      "type": "function",
      "constant": true
    }
  ],
  "bytecode": "0x60a06040526000600155600060025560006003556000600455600060055560006006556040518060400160405280600381526020017f6e65770000000000000000000000000000000000000000000000000000000000815250600790805190602001906200006f92919062000258565b506040518060400160405280600681526020017f616772656564000000000000000000000000000000000000000000000000000081525060089080519060200190620000bd92919062000258565b506040518060400160405280600881526020017f70726f6772657373000000000000000000000000000000000000000000000000815250600990805190602001906200010b92919062000258565b506040518060400160405280600681526020017f7265766965770000000000000000000000000000000000000000000000000000815250600a90805190602001906200015992919062000258565b506040518060400160405280600981526020017f636f6d706c657465640000000000000000000000000000000000000000000000815250600b9080519060200190620001a792919062000258565b506040518060400160405280600881526020017f63616e63656c6564000000000000000000000000000000000000000000000000815250600c9080519060200190620001f592919062000258565b503480156200020357600080fd5b506000735769d84dd62a6fd969856c75c7d321b84d45592990508073ffffffffffffffffffffffffffffffffffffffff1660808173ffffffffffffffffffffffffffffffffffffffff1681525050506200036d565b828054620002669062000337565b90600052602060002090601f0160209004810192826200028a5760008555620002d6565b82601f10620002a557805160ff1916838001178555620002d6565b82800160010185558215620002d6579182015b82811115620002d5578251825591602001919060010190620002b8565b5b509050620002e59190620002e9565b5090565b5b8082111562000304576000816000905550600101620002ea565b5090565b7f4e487b7100000000000000000000000000000000000000000000000000000000600052602260045260246000fd5b600060028204905060018216806200035057607f821691505b6020821081141562000367576200036662000308565b5b50919050565b608051615abb62000390600039600081816102ff0152610de10152615abb6000f3fe608060405260043610620000b65760003560e01c8063a696ee06116200006d578063a696ee06146200020f578063a7e595b8146200022f578063c8d1b6aa146200024f578063d69a588e146200027f578063fc18bfde14620002af578063fcd3f19614620002cf57620000b6565b8063116191b614620000bb5780631e01043914620000eb578063437a4f14146200012f578063527ded4d146200014f5780637f4497d8146200017d5780638c7bf1a714620001cb575b600080fd5b348015620000c857600080fd5b50620000d3620002fd565b604051620000e29190620012df565b60405180910390f35b348015620000f857600080fd5b506200011760048036038101906200011191906200134b565b62000321565b6040516200012691906200138e565b60405180910390f35b6200014d600480360381019062000147919062001435565b620003e2565b005b3480156200015c57600080fd5b506200017b6004803603810190620001759190620015de565b620005b3565b005b3480156200018a57600080fd5b50620001a96004803603810190620001a391906200134b565b62000787565b604051620001c29b9a99989796959493929190620017df565b60405180910390f35b348015620001d857600080fd5b50620001f76004803603810190620001f191906200134b565b6200087b565b604051620002069190620018fc565b60405180910390f35b6200022d6004803603810190620002279190620015de565b620008bb565b005b6200024d6004803603810190620002479190620015de565b62000a8f565b005b3480156200025c57600080fd5b506200026762000c62565b604051620002769190620019e7565b60405180910390f35b3480156200028c57600080fd5b506200029762000d8b565b604051620002a691906200138e565b60405180910390f35b620002cd6004803603810190620002c7919062001a0b565b62000d91565b005b348015620002dc57600080fd5b50620002fb6004803603810190620002f5919062001ada565b62001076565b005b7f000000000000000000000000000000000000000000000000000000000000000081565b600080600083815481106200033b576200033a62001b0c565b5b9060005260206000200160009054906101000a900473ffffffffffffffffffffffffffffffffffffffff1690508073ffffffffffffffffffffffffffffffffffffffff166312065fe06040518163ffffffff1660e01b8152600401602060405180830381865afa158015620003b4573d6000803e3d6000fd5b505050506040513d601f19601f82011682018060405250810190620003da919062001b52565b915050919050565b60008273ffffffffffffffffffffffffffffffffffffffff16632986c0e56040518163ffffffff1660e01b8152600401602060405180830381865afa15801562000430573d6000803e3d6000fd5b505050506040513d601f19601f8201168201806040525081019062000456919062001b52565b815481106200046a576200046962001b0c565b5b9060005260206000200160009054906101000a900473ffffffffffffffffffffffffffffffffffffffff1673ffffffffffffffffffffffffffffffffffffffff16635ad8e8ae826040518263ffffffff1660e01b8152600401620004cf919062001b95565b600060405180830381600087803b158015620004ea57600080fd5b505af1158015620004ff573d6000803e3d6000fd5b505050507f9bae9a5cb21b2c8bcdab1612a93a658a295cc73028d28d9dc4555387605185b0828373ffffffffffffffffffffffffffffffffffffffff16632986c0e56040518163ffffffff1660e01b8152600401602060405180830381865afa15801562000571573d6000803e3d6000fd5b505050506040513d601f19601f8201168201806040525081019062000597919062001b52565b604051620005a792919062001bb2565b60405180910390a15050565b60008373ffffffffffffffffffffffffffffffffffffffff16632986c0e56040518163ffffffff1660e01b8152600401602060405180830381865afa15801562000601573d6000803e3d6000fd5b505050506040513d601f19601f8201168201806040525081019062000627919062001b52565b815481106200063b576200063a62001b0c565b5b9060005260206000200160009054906101000a900473ffffffffffffffffffffffffffffffffffffffff1673ffffffffffffffffffffffffffffffffffffffff1663e2395ad883836040518363ffffffff1660e01b8152600401620006a292919062001bdf565b600060405180830381600087803b158015620006bd57600080fd5b505af1158015620006d2573d6000803e3d6000fd5b505050507f9bae9a5cb21b2c8bcdab1612a93a658a295cc73028d28d9dc4555387605185b0838473ffffffffffffffffffffffffffffffffffffffff16632986c0e56040518163ffffffff1660e01b8152600401602060405180830381865afa15801562000744573d6000803e3d6000fd5b505050506040513d601f19601f820116820180604052508101906200076a919062001b52565b6040516200077a92919062001bb2565b60405180910390a1505050565b6060806000806000806000606080600060606000808d81548110620007b157620007b062001b0c565b5b9060005260206000200160009054906101000a900473ffffffffffffffffffffffffffffffffffffffff1690508073ffffffffffffffffffffffffffffffffffffffff1663dd28e14d6040518163ffffffff1660e01b8152600401600060405180830381865afa1580156200082a573d6000803e3d6000fd5b505050506040513d6000823e3d601f19601f8201168201806040525081019062000855919062001d9d565b9b509b509b509b509b509b509b509b509b509b509b505091939597999b90929496989a50565b600081815481106200088c57600080fd5b906000526020600020016000915054906101000a900473ffffffffffffffffffffffffffffffffffffffff1681565b60008373ffffffffffffffffffffffffffffffffffffffff16632986c0e56040518163ffffffff1660e01b8152600401602060405180830381865afa15801562000909573d6000803e3d6000fd5b505050506040513d601f19601f820116820180604052508101906200092f919062001b52565b8154811062000943576200094262001b0c565b5b9060005260206000200160009054906101000a900473ffffffffffffffffffffffffffffffffffffffff1673ffffffffffffffffffffffffffffffffffffffff1663aa826f6a83836040518363ffffffff1660e01b8152600401620009aa92919062001bdf565b600060405180830381600087803b158015620009c557600080fd5b505af1158015620009da573d6000803e3d6000fd5b505050507f9bae9a5cb21b2c8bcdab1612a93a658a295cc73028d28d9dc4555387605185b0838473ffffffffffffffffffffffffffffffffffffffff16632986c0e56040518163ffffffff1660e01b8152600401602060405180830381865afa15801562000a4c573d6000803e3d6000fd5b505050506040513d601f19601f8201168201806040525081019062000a72919062001b52565b60405162000a8292919062001bb2565b60405180910390a1505050565b60008373ffffffffffffffffffffffffffffffffffffffff16632986c0e56040518163ffffffff1660e01b8152600401602060405180830381865afa15801562000add573d6000803e3d6000fd5b505050506040513d601f19601f8201168201806040525081019062000b03919062001b52565b8154811062000b175762000b1662001b0c565b5b9060005260206000200160009054906101000a900473ffffffffffffffffffffffffffffffffffffffff1673ffffffffffffffffffffffffffffffffffffffff1662bc30f983836040518363ffffffff1660e01b815260040162000b7d92919062001bdf565b600060405180830381600087803b15801562000b9857600080fd5b505af115801562000bad573d6000803e3d6000fd5b505050507f9bae9a5cb21b2c8bcdab1612a93a658a295cc73028d28d9dc4555387605185b0838473ffffffffffffffffffffffffffffffffffffffff16632986c0e56040518163ffffffff1660e01b8152600401602060405180830381865afa15801562000c1f573d6000803e3d6000fd5b505050506040513d601f19601f8201168201806040525081019062000c45919062001b52565b60405162000c5592919062001bb2565b60405180910390a1505050565b606060008054905067ffffffffffffffff81111562000c865762000c8562001497565b5b60405190808252806020026020018201604052801562000cb55781602001602082028036833780820191505090505b509050600080600090505b60008054905081101562000d86576000818154811062000ce55762000ce462001b0c565b5b9060005260206000200160009054906101000a900473ffffffffffffffffffffffffffffffffffffffff1683838151811062000d265762000d2562001b0c565b5b602002602001019073ffffffffffffffffffffffffffffffffffffffff16908173ffffffffffffffffffffffffffffffffffffffff1681525050818062000d6d9062001f74565b925050808062000d7d9062001f74565b91505062000cc0565b505090565b60015481565b6000348585856000805490503360405162000dac9062001246565b62000dbc95949392919062001fc2565b6040518091039082f090508015801562000dda573d6000803e3d6000fd5b50905060007f000000000000000000000000000000000000000000000000000000000000000073ffffffffffffffffffffffffffffffffffffffff1663935b13f6856040518263ffffffff1660e01b815260040162000e3a919062002034565b602060405180830381865afa15801562000e58573d6000803e3d6000fd5b505050506040513d601f19601f8201168201806040525081019062000e7e919062002058565b90508073ffffffffffffffffffffffffffffffffffffffff166323b872dd3384866040518463ffffffff1660e01b815260040162000ebf939291906200208a565b6020604051808303816000875af115801562000edf573d6000803e3d6000fd5b505050506040513d601f19601f8201168201806040525081019062000f05919062002104565b506000829080600181540180825580915050600190039060005260206000200160009091909190916101000a81548173ffffffffffffffffffffffffffffffffffffffff021916908373ffffffffffffffffffffffffffffffffffffffff1602179055506001600081548092919062000f7e9062001f74565b91905055507fa07ad24a152b4d00b10df1cbfd531203446a77213c6ae9e0ad1152d501f18f338287878760405162000fba949392919062002136565b60405180910390a17f9bae9a5cb21b2c8bcdab1612a93a658a295cc73028d28d9dc4555387605185b0828373ffffffffffffffffffffffffffffffffffffffff16632986c0e56040518163ffffffff1660e01b8152600401602060405180830381865afa15801562001030573d6000803e3d6000fd5b505050506040513d601f19601f8201168201806040525081019062001056919062001b52565b6040516200106692919062001bb2565b60405180910390a1505050505050565b60008173ffffffffffffffffffffffffffffffffffffffff16632986c0e56040518163ffffffff1660e01b8152600401602060405180830381865afa158015620010c4573d6000803e3d6000fd5b505050506040513d601f19601f82011682018060405250810190620010ea919062001b52565b81548110620010fe57620010fd62001b0c565b5b9060005260206000200160009054906101000a900473ffffffffffffffffffffffffffffffffffffffff1673ffffffffffffffffffffffffffffffffffffffff1663fcd3f196336040518263ffffffff1660e01b815260040162001163919062002198565b600060405180830381600087803b1580156200117e57600080fd5b505af115801562001193573d6000803e3d6000fd5b505050507f9bae9a5cb21b2c8bcdab1612a93a658a295cc73028d28d9dc4555387605185b0818273ffffffffffffffffffffffffffffffffffffffff16632986c0e56040518163ffffffff1660e01b8152600401602060405180830381865afa15801562001205573d6000803e3d6000fd5b505050506040513d601f19601f820116820180604052508101906200122b919062001b52565b6040516200123b92919062001bb2565b60405180910390a150565b6138d080620021b683390190565b600073ffffffffffffffffffffffffffffffffffffffff82169050919050565b6000819050919050565b60006200129f62001299620012938462001254565b62001274565b62001254565b9050919050565b6000620012b3826200127e565b9050919050565b6000620012c782620012a6565b9050919050565b620012d981620012ba565b82525050565b6000602082019050620012f66000830184620012ce565b92915050565b6000604051905090565b600080fd5b600080fd5b6000819050919050565b620013258162001310565b81146200133157600080fd5b50565b60008135905062001345816200131a565b92915050565b60006020828403121562001364576200136362001306565b5b6000620013748482850162001334565b91505092915050565b620013888162001310565b82525050565b6000602082019050620013a560008301846200137d565b92915050565b6000620013b88262001254565b9050919050565b6000620013cc82620013ab565b9050919050565b620013de81620013bf565b8114620013ea57600080fd5b50565b600081359050620013fe81620013d3565b92915050565b6200140f81620013ab565b81146200141b57600080fd5b50565b6000813590506200142f8162001404565b92915050565b600080604083850312156200144f576200144e62001306565b5b60006200145f85828601620013ed565b925050602062001472858286016200141e565b9150509250929050565b600080fd5b600080fd5b6000601f19601f8301169050919050565b7f4e487b7100000000000000000000000000000000000000000000000000000000600052604160045260246000fd5b620014d18262001486565b810181811067ffffffffffffffff82111715620014f357620014f262001497565b5b80604052505050565b600062001508620012fc565b9050620015168282620014c6565b919050565b600067ffffffffffffffff82111562001539576200153862001497565b5b620015448262001486565b9050602081019050919050565b82818337600083830152505050565b60006200157762001571846200151b565b620014fc565b90508281526020810184848401111562001596576200159562001481565b5b620015a384828562001551565b509392505050565b600082601f830112620015c357620015c26200147c565b5b8135620015d584826020860162001560565b91505092915050565b600080600060608486031215620015fa57620015f962001306565b5b60006200160a86828701620013ed565b93505060206200161d868287016200141e565b925050604084013567ffffffffffffffff8111156200164157620016406200130b565b5b6200164f86828701620015ab565b9150509250925092565b600081519050919050565b600082825260208201905092915050565b60005b838110156200169557808201518184015260208101905062001678565b83811115620016a5576000848401525b50505050565b6000620016b88262001659565b620016c4818562001664565b9350620016d681856020860162001675565b620016e18162001486565b840191505092915050565b6000620016f98262001254565b9050919050565b6200170b81620016ec565b82525050565b600081519050919050565b600082825260208201905092915050565b6000819050602082019050919050565b6200174881620016ec565b82525050565b60006200175c83836200173d565b60208301905092915050565b6000602082019050919050565b6000620017828262001711565b6200178e81856200171c565b93506200179b836200172d565b8060005b83811015620017d2578151620017b688826200174e565b9750620017c38362001768565b9250506001810190506200179f565b5085935050505092915050565b6000610160820190508181036000830152620017fc818e620016ab565b9050818103602083015262001812818d620016ab565b905062001823604083018c62001700565b62001832606083018b62001700565b62001841608083018a62001700565b6200185060a08301896200137d565b6200185f60c08301886200137d565b81810360e0830152620018738187620016ab565b90508181036101008301526200188a818662001775565b90506200189c61012083018562001700565b818103610140830152620018b18184620016ab565b90509c9b505050505050505050505050565b6000620018d0826200127e565b9050919050565b6000620018e482620018c3565b9050919050565b620018f681620018d7565b82525050565b6000602082019050620019136000830184620018eb565b92915050565b600081519050919050565b600082825260208201905092915050565b6000819050602082019050919050565b6200195081620018d7565b82525050565b600062001964838362001945565b60208301905092915050565b6000602082019050919050565b60006200198a8262001919565b62001996818562001924565b9350620019a38362001935565b8060005b83811015620019da578151620019be888262001956565b9750620019cb8362001970565b925050600181019050620019a7565b5085935050505092915050565b6000602082019050818103600083015262001a0381846200197d565b905092915050565b6000806000806080858703121562001a285762001a2762001306565b5b600085013567ffffffffffffffff81111562001a495762001a486200130b565b5b62001a5787828801620015ab565b945050602085013567ffffffffffffffff81111562001a7b5762001a7a6200130b565b5b62001a8987828801620015ab565b935050604085013567ffffffffffffffff81111562001aad5762001aac6200130b565b5b62001abb87828801620015ab565b925050606062001ace8782880162001334565b91505092959194509250565b60006020828403121562001af35762001af262001306565b5b600062001b0384828501620013ed565b91505092915050565b7f4e487b7100000000000000000000000000000000000000000000000000000000600052603260045260246000fd5b60008151905062001b4c816200131a565b92915050565b60006020828403121562001b6b5762001b6a62001306565b5b600062001b7b8482850162001b3b565b91505092915050565b62001b8f81620013ab565b82525050565b600060208201905062001bac600083018462001b84565b92915050565b600060408201905062001bc9600083018562001700565b62001bd860208301846200137d565b9392505050565b600060408201905062001bf6600083018562001b84565b818103602083015262001c0a8184620016ab565b90509392505050565b600062001c2a62001c24846200151b565b620014fc565b90508281526020810184848401111562001c495762001c4862001481565b5b62001c5684828562001675565b509392505050565b600082601f83011262001c765762001c756200147c565b5b815162001c8884826020860162001c13565b91505092915050565b62001c9c81620016ec565b811462001ca857600080fd5b50565b60008151905062001cbc8162001c91565b92915050565b600067ffffffffffffffff82111562001ce05762001cdf62001497565b5b602082029050602081019050919050565b600080fd5b600062001d0d62001d078462001cc2565b620014fc565b9050808382526020820190506020840283018581111562001d335762001d3262001cf1565b5b835b8181101562001d60578062001d4b888262001cab565b84526020840193505060208101905062001d35565b5050509392505050565b600082601f83011262001d825762001d816200147c565b5b815162001d9484826020860162001cf6565b91505092915050565b60008060008060008060008060008060006101608c8e03121562001dc65762001dc562001306565b5b60008c015167ffffffffffffffff81111562001de75762001de66200130b565b5b62001df58e828f0162001c5e565b9b505060208c015167ffffffffffffffff81111562001e195762001e186200130b565b5b62001e278e828f0162001c5e565b9a5050604062001e3a8e828f0162001cab565b995050606062001e4d8e828f0162001cab565b985050608062001e608e828f0162001cab565b97505060a062001e738e828f0162001b3b565b96505060c062001e868e828f0162001b3b565b95505060e08c015167ffffffffffffffff81111562001eaa5762001ea96200130b565b5b62001eb88e828f0162001c5e565b9450506101008c015167ffffffffffffffff81111562001edd5762001edc6200130b565b5b62001eeb8e828f0162001d6a565b93505061012062001eff8e828f0162001cab565b9250506101408c015167ffffffffffffffff81111562001f245762001f236200130b565b5b62001f328e828f0162001c5e565b9150509295989b509295989b9093969950565b7f4e487b7100000000000000000000000000000000000000000000000000000000600052601160045260246000fd5b600062001f818262001310565b91507fffffffffffffffffffffffffffffffffffffffffffffffffffffffffffffffff82141562001fb75762001fb662001f45565b5b600182019050919050565b600060a082019050818103600083015262001fde8188620016ab565b9050818103602083015262001ff48187620016ab565b905081810360408301526200200a8186620016ab565b90506200201b60608301856200137d565b6200202a608083018462001700565b9695505050505050565b60006020820190508181036000830152620020508184620016ab565b905092915050565b60006020828403121562002071576200207062001306565b5b6000620020818482850162001cab565b91505092915050565b6000606082019050620020a1600083018662001700565b620020b0602083018562001700565b620020bf60408301846200137d565b949350505050565b60008115159050919050565b620020de81620020c7565b8114620020ea57600080fd5b50565b600081519050620020fe81620020d3565b92915050565b6000602082840312156200211d576200211c62001306565b5b60006200212d84828501620020ed565b91505092915050565b60006080820190506200214d600083018762001700565b8181036020830152620021618186620016ab565b90508181036040830152620021778185620016ab565b905081810360608301526200218d8184620016ab565b905095945050505050565b6000602082019050620021af600083018462001700565b9291505056fe60c0604052604051620038d0380380620038d083398181016040528101906200002991906200050d565b8073ffffffffffffffffffffffffffffffffffffffff1660808173ffffffffffffffffffffffffffffffffffffffff168152505084600190805190602001906200007592919062000220565b506040518060400160405280600381526020017f6e6577000000000000000000000000000000000000000000000000000000000081525060039080519060200190620000c392919062000220565b5030600860006101000a81548173ffffffffffffffffffffffffffffffffffffffff021916908373ffffffffffffffffffffffffffffffffffffffff16021790555033600760006101000a81548173ffffffffffffffffffffffffffffffffffffffff021916908373ffffffffffffffffffffffffffffffffffffffff16021790555080600960006101000a81548173ffffffffffffffffffffffffffffffffffffffff021916908373ffffffffffffffffffffffffffffffffffffffff16021790555042600b81905550816004819055508360029080519060200190620001ad92919062000220565b5082600d9080519060200190620001c692919062000220565b506000735769d84dd62a6fd969856c75c7d321b84d45592990508073ffffffffffffffffffffffffffffffffffffffff1660a08173ffffffffffffffffffffffffffffffffffffffff168152505050505050505062000657565b8280546200022e9062000621565b90600052602060002090601f0160209004810192826200025257600085556200029e565b82601f106200026d57805160ff19168380011785556200029e565b828001600101855582156200029e579182015b828111156200029d57825182559160200191906001019062000280565b5b509050620002ad9190620002b1565b5090565b5b80821115620002cc576000816000905550600101620002b2565b5090565b6000604051905090565b600080fd5b600080fd5b600080fd5b600080fd5b6000601f19601f8301169050919050565b7f4e487b7100000000000000000000000000000000000000000000000000000000600052604160045260246000fd5b6200033982620002ee565b810181811067ffffffffffffffff821117156200035b576200035a620002ff565b5b80604052505050565b600062000370620002d0565b90506200037e82826200032e565b919050565b600067ffffffffffffffff821115620003a157620003a0620002ff565b5b620003ac82620002ee565b9050602081019050919050565b60005b83811015620003d9578082015181840152602081019050620003bc565b83811115620003e9576000848401525b50505050565b600062000406620004008462000383565b62000364565b905082815260208101848484011115620004255762000424620002e9565b5b62000432848285620003b9565b509392505050565b600082601f830112620004525762000451620002e4565b5b815162000464848260208601620003ef565b91505092915050565b6000819050919050565b62000482816200046d565b81146200048e57600080fd5b50565b600081519050620004a28162000477565b92915050565b600073ffffffffffffffffffffffffffffffffffffffff82169050919050565b6000620004d582620004a8565b9050919050565b620004e781620004c8565b8114620004f357600080fd5b50565b6000815190506200050781620004dc565b92915050565b600080600080600060a086880312156200052c576200052b620002da565b5b600086015167ffffffffffffffff8111156200054d576200054c620002df565b5b6200055b888289016200043a565b955050602086015167ffffffffffffffff8111156200057f576200057e620002df565b5b6200058d888289016200043a565b945050604086015167ffffffffffffffff811115620005b157620005b0620002df565b5b620005bf888289016200043a565b9350506060620005d28882890162000491565b9250506080620005e588828901620004f6565b9150509295509295909350565b7f4e487b7100000000000000000000000000000000000000000000000000000000600052602260045260246000fd5b600060028204905060018216806200063a57607f821691505b60208210811415620006515762000650620005f2565b5b50919050565b60805160a051613230620006a0600039600081816108d40152818161099001528181610ab201528181610c900152610dee015260008181611537015261164701526132306000f3fe60806040526004361061014e5760003560e01c8063853828b6116100b6578063bfe109281161006f578063bfe1092814610443578063ce606ee01461046e578063dd28e14d14610499578063e2395ad8146104ce578063f6b4dfb4146104f7578063fcd3f1961461052257610155565b8063853828b61461035257806395d89b411461036957806398cfc1a614610394578063a035b1fe146103bf578063aa826f6a146103ea578063bed5572f1461040657610155565b80634327a9f4116101085780634327a9f41461025f5780634a79d50c1461028a57806359ff6ba8146102b55780635ad8e8ae146102e057806361dcd7ab146102fc5780637284e4161461032757610155565b8062bc30f91461015a57806305747a1f1461017657806306fdde03146101b3578063116191b6146101de57806312065fe0146102095780632986c0e51461023457610155565b3661015557005b600080fd5b610174600480360381019061016f9190612372565b61054b565b005b34801561018257600080fd5b5061019d60048036038101906101989190612404565b610d1f565b6040516101aa9190612452565b60405180910390f35b3480156101bf57600080fd5b506101c8610d5e565b6040516101d591906124f5565b60405180910390f35b3480156101ea57600080fd5b506101f3610dec565b6040516102009190612576565b60405180910390f35b34801561021557600080fd5b5061021e610e10565b60405161022b91906125a0565b60405180910390f35b34801561024057600080fd5b50610249610e51565b60405161025691906125a0565b60405180910390f35b34801561026b57600080fd5b50610274610e57565b6040516102819190612452565b60405180910390f35b34801561029657600080fd5b5061029f610e7d565b6040516102ac91906124f5565b60405180910390f35b3480156102c157600080fd5b506102ca610f0b565b6040516102d791906125ca565b60405180910390f35b6102fa60048036038101906102f591906125e5565b610f31565b005b34801561030857600080fd5b50610311611168565b60405161031e91906125a0565b60405180910390f35b34801561033357600080fd5b5061033c61116e565b60405161034991906124f5565b60405180910390f35b34801561035e57600080fd5b506103676111fc565b005b34801561037557600080fd5b5061037e6111fe565b60405161038b91906124f5565b60405180910390f35b3480156103a057600080fd5b506103a961128c565b6040516103b691906124f5565b60405180910390f35b3480156103cb57600080fd5b506103d461131a565b6040516103e191906125a0565b60405180910390f35b61040460048036038101906103ff9190612372565b611320565b005b34801561041257600080fd5b5061042d60048036038101906104289190612404565b611606565b60405161043a9190612452565b60405180910390f35b34801561044f57600080fd5b50610458611645565b6040516104659190612633565b60405180910390f35b34801561047a57600080fd5b50610483611669565b6040516104909190612452565b60405180910390f35b3480156104a557600080fd5b506104ae61168f565b6040516104c59b9a9998979695949392919061270c565b60405180910390f35b3480156104da57600080fd5b506104f560048036038101906104f09190612372565b611a18565b005b34801561050357600080fd5b5061050c611d69565b6040516105199190612452565b60405180910390f35b34801561052e57600080fd5b5061054960048036038101906105449190612806565b611d8f565b005b6040518060400160405280600881526020017f63616e63656c65640000000000000000000000000000000000000000000000008152508051906020012060036040516105979190612933565b6040518091039020141561068157600960009054906101000a900473ffffffffffffffffffffffffffffffffffffffff1673ffffffffffffffffffffffffffffffffffffffff168273ffffffffffffffffffffffffffffffffffffffff16141561067c578173ffffffffffffffffffffffffffffffffffffffff166108fc600860009054906101000a900473ffffffffffffffffffffffffffffffffffffffff1673ffffffffffffffffffffffffffffffffffffffff16319081150290604051600060405180830381858888f1935050505015801561067a573d6000803e3d6000fd5b505b610d1b565b6040518060400160405280600981526020017f636f6d706c6574656400000000000000000000000000000000000000000000008152508051906020012060036040516106cd9190612933565b60405180910390201415610d1a576000600d80546106ea90612862565b80601f016020809104026020016040519081016040528092919081815260200182805461071690612862565b80156107635780601f1061073857610100808354040283529160200191610763565b820191906000526020600020905b81548152906001019060200180831161074657829003601f168201915b5050505050905060008151141561077957610d18565b6040518060400160405280600381526020017f4574680000000000000000000000000000000000000000000000000000000000815250805190602001208180519060200120141561086b57600a60009054906101000a900473ffffffffffffffffffffffffffffffffffffffff1673ffffffffffffffffffffffffffffffffffffffff166108fc600860009054906101000a900473ffffffffffffffffffffffffffffffffffffffff1673ffffffffffffffffffffffffffffffffffffffff16319081150290604051600060405180830381858888f19350505050158015610865573d6000803e3d6000fd5b50610d17565b6040518060400160405280600481526020017f57444556000000000000000000000000000000000000000000000000000000008152508051906020012081805190602001201415610a63578273ffffffffffffffffffffffffffffffffffffffff1663095ea7b37f0000000000000000000000000000000000000000000000000000000000000000600860009054906101000a900473ffffffffffffffffffffffffffffffffffffffff1673ffffffffffffffffffffffffffffffffffffffff16316040518363ffffffff1660e01b815260040161094a92919061294a565b6020604051808303816000875af1158015610969573d6000803e3d6000fd5b505050506040513d601f19601f8201168201806040525081019061098d91906129ab565b507f000000000000000000000000000000000000000000000000000000000000000073ffffffffffffffffffffffffffffffffffffffff166326ef699d836109d486611f0e565b600860009054906101000a900473ffffffffffffffffffffffffffffffffffffffff1673ffffffffffffffffffffffffffffffffffffffff16316040518463ffffffff1660e01b8152600401610a2c93929190612a24565b600060405180830381600087803b158015610a4657600080fd5b505af1158015610a5a573d6000803e3d6000fd5b50505050610d16565b6040518060400160405280600581526020017f61555344430000000000000000000000000000000000000000000000000000008152508051906020012081805190602001201415610d155760007f000000000000000000000000000000000000000000000000000000000000000073ffffffffffffffffffffffffffffffffffffffff1663935b13f6600d6040518263ffffffff1660e01b8152600401610b0a9190612b11565b602060405180830381865afa158015610b27573d6000803e3d6000fd5b505050506040513d601f19601f82011682018060405250810190610b4b9190612b48565b90508073ffffffffffffffffffffffffffffffffffffffff166370a08231600860009054906101000a900473ffffffffffffffffffffffffffffffffffffffff166040518263ffffffff1660e01b8152600401610ba89190612452565b602060405180830381865afa158015610bc5573d6000803e3d6000fd5b505050506040513d601f19601f82011682018060405250810190610be99190612b8a565b600e819055508073ffffffffffffffffffffffffffffffffffffffff166323b872dd3330600e546040518463ffffffff1660e01b8152600401610c2e93929190612bb7565b6020604051808303816000875af1158015610c4d573d6000803e3d6000fd5b505050506040513d601f19601f82011682018060405250810190610c7191906129ab565b508073ffffffffffffffffffffffffffffffffffffffff1663095ea7b37f0000000000000000000000000000000000000000000000000000000000000000600e546040518363ffffffff1660e01b8152600401610ccf92919061294a565b6020604051808303816000875af1158015610cee573d6000803e3d6000fd5b505050506040513d601f19601f82011682018060405250810190610d1291906129ab565b50505b5b5b5b505b5b5050565b60008181548110610d2f57600080fd5b906000526020600020016000915054906101000a900473ffffffffffffffffffffffffffffffffffffffff1681565b60058054610d6b90612862565b80601f0160208091040260200160405190810160405280929190818152602001828054610d9790612862565b8015610de45780601f10610db957610100808354040283529160200191610de4565b820191906000526020600020905b815481529060010190602001808311610dc757829003601f168201915b505050505081565b7f000000000000000000000000000000000000000000000000000000000000000081565b6000600860009054906101000a900473ffffffffffffffffffffffffffffffffffffffff1673ffffffffffffffffffffffffffffffffffffffff1631905090565b60045481565b600760009054906101000a900473ffffffffffffffffffffffffffffffffffffffff1681565b60018054610e8a90612862565b80601f0160208091040260200160405190810160405280929190818152602001828054610eb690612862565b8015610f035780601f10610ed857610100808354040283529160200191610f03565b820191906000526020600020905b815481529060010190602001808311610ee657829003601f168201915b505050505081565b600a60009054906101000a900473ffffffffffffffffffffffffffffffffffffffff1681565b6040518060400160405280600881526020017f63616e63656c6564000000000000000000000000000000000000000000000000815250805190602001206003604051610f7d9190612933565b6040518091039020141561106757600960009054906101000a900473ffffffffffffffffffffffffffffffffffffffff1673ffffffffffffffffffffffffffffffffffffffff168173ffffffffffffffffffffffffffffffffffffffff161415611062578073ffffffffffffffffffffffffffffffffffffffff166108fc600860009054906101000a900473ffffffffffffffffffffffffffffffffffffffff1673ffffffffffffffffffffffffffffffffffffffff16319081150290604051600060405180830381858888f19350505050158015611060573d6000803e3d6000fd5b505b611165565b6040518060400160405280600981526020017f636f6d706c6574656400000000000000000000000000000000000000000000008152508051906020012060036040516110b39190612933565b6040518091039020141561116457600a60009054906101000a900473ffffffffffffffffffffffffffffffffffffffff1673ffffffffffffffffffffffffffffffffffffffff166108fc600860009054906101000a900473ffffffffffffffffffffffffffffffffffffffff1673ffffffffffffffffffffffffffffffffffffffff16319081150290604051600060405180830381858888f19350505050158015611162573d6000803e3d6000fd5b505b5b50565b600b5481565b6002805461117b90612862565b80601f01602080910402602001604051908101604052809291908181526020018280546111a790612862565b80156111f45780601f106111c9576101008083540402835291602001916111f4565b820191906000526020600020905b8154815290600101906020018083116111d757829003601f168201915b505050505081565b565b600d805461120b90612862565b80601f016020809104026020016040519081016040528092919081815260200182805461123790612862565b80156112845780601f1061125957610100808354040283529160200191611284565b820191906000526020600020905b81548152906001019060200180831161126757829003601f168201915b505050505081565b6003805461129990612862565b80601f01602080910402602001604051908101604052809291908181526020018280546112c590612862565b80156113125780601f106112e757610100808354040283529160200191611312565b820191906000526020600020905b8154815290600101906020018083116112f557829003601f168201915b505050505081565b60065481565b6040518060400160405280600881526020017f63616e63656c656400000000000000000000000000000000000000000000000081525080519060200120600360405161136c9190612933565b6040518091039020141561145657600960009054906101000a900473ffffffffffffffffffffffffffffffffffffffff1673ffffffffffffffffffffffffffffffffffffffff168273ffffffffffffffffffffffffffffffffffffffff161415611451578173ffffffffffffffffffffffffffffffffffffffff166108fc600860009054906101000a900473ffffffffffffffffffffffffffffffffffffffff1673ffffffffffffffffffffffffffffffffffffffff16319081150290604051600060405180830381858888f1935050505015801561144f573d6000803e3d6000fd5b505b611602565b6040518060400160405280600981526020017f636f6d706c6574656400000000000000000000000000000000000000000000008152508051906020012060036040516114a29190612933565b6040518091039020141561160157600c600a60009054906101000a900473ffffffffffffffffffffffffffffffffffffffff169080600181540180825580915050600190039060005260206000200160009091909190916101000a81548173ffffffffffffffffffffffffffffffffffffffff021916908373ffffffffffffffffffffffffffffffffffffffff1602179055507f000000000000000000000000000000000000000000000000000000000000000073ffffffffffffffffffffffffffffffffffffffff1663bd97f0078284600c600860009054906101000a900473ffffffffffffffffffffffffffffffffffffffff1673ffffffffffffffffffffffffffffffffffffffff16316040518563ffffffff1660e01b81526004016115ce9493929190612d47565b600060405180830381600087803b1580156115e857600080fd5b505af11580156115fc573d6000803e3d6000fd5b505050505b5b5050565b600c818154811061161657600080fd5b906000526020600020016000915054906101000a900473ffffffffffffffffffffffffffffffffffffffff1681565b7f000000000000000000000000000000000000000000000000000000000000000081565b600960009054906101000a900473ffffffffffffffffffffffffffffffffffffffff1681565b60608060008060008060006060806000606060016003600860009054906101000a900473ffffffffffffffffffffffffffffffffffffffff16600760009054906101000a900473ffffffffffffffffffffffffffffffffffffffff16600960009054906101000a900473ffffffffffffffffffffffffffffffffffffffff16600b5460045460026000600a60009054906101000a900473ffffffffffffffffffffffffffffffffffffffff16600d8a805461174990612862565b80601f016020809104026020016040519081016040528092919081815260200182805461177590612862565b80156117c25780601f10611797576101008083540402835291602001916117c2565b820191906000526020600020905b8154815290600101906020018083116117a557829003601f168201915b50505050509a508980546117d590612862565b80601f016020809104026020016040519081016040528092919081815260200182805461180190612862565b801561184e5780601f106118235761010080835404028352916020019161184e565b820191906000526020600020905b81548152906001019060200180831161183157829003601f168201915b5050505050995083805461186190612862565b80601f016020809104026020016040519081016040528092919081815260200182805461188d90612862565b80156118da5780601f106118af576101008083540402835291602001916118da565b820191906000526020600020905b8154815290600101906020018083116118bd57829003601f168201915b505050505093508280548060200260200160405190810160405280929190818152602001828054801561196257602002820191906000526020600020905b8160009054906101000a900473ffffffffffffffffffffffffffffffffffffffff1673ffffffffffffffffffffffffffffffffffffffff1681526020019060010190808311611918575b5050505050925080805461197590612862565b80601f01602080910402602001604051908101604052809291908181526020018280546119a190612862565b80156119ee5780601f106119c3576101008083540402835291602001916119ee565b820191906000526020600020905b8154815290600101906020018083116119d157829003601f168201915b505050505090509a509a509a509a509a509a509a509a509a509a509a50909192939495969798999a565b6040518060400160405280600681526020017f61677265656400000000000000000000000000000000000000000000000000008152508051906020012081805190602001201415611af5576040518060400160405280600681526020017f616772656564000000000000000000000000000000000000000000000000000081525060039080519060200190611aae929190612117565b5081600a60006101000a81548173ffffffffffffffffffffffffffffffffffffffff021916908373ffffffffffffffffffffffffffffffffffffffff160217905550611d65565b6040518060400160405280600881526020017f70726f67726573730000000000000000000000000000000000000000000000008152508051906020012081805190602001201415611b91576040518060400160405280600881526020017f70726f677265737300000000000000000000000000000000000000000000000081525060039080519060200190611b8b929190612117565b50611d64565b6040518060400160405280600681526020017f72657669657700000000000000000000000000000000000000000000000000008152508051906020012081805190602001201415611c2d576040518060400160405280600681526020017f726576696577000000000000000000000000000000000000000000000000000081525060039080519060200190611c27929190612117565b50611d63565b6040518060400160405280600981526020017f636f6d706c6574656400000000000000000000000000000000000000000000008152508051906020012081805190602001201415611cc9576040518060400160405280600981526020017f636f6d706c65746564000000000000000000000000000000000000000000000081525060039080519060200190611cc3929190612117565b50611d62565b6040518060400160405280600881526020017f63616e63656c65640000000000000000000000000000000000000000000000008152508051906020012081805190602001201415611d61576040518060400160405280600881526020017f63616e63656c656400000000000000000000000000000000000000000000000081525060039080519060200190611d5f929190612117565b505b5b5b5b5b5050565b600860009054906101000a900473ffffffffffffffffffffffffffffffffffffffff1681565b60008080805490501415611e05576000829080600181540180825580915050600190039060005260206000200160009091909190916101000a81548173ffffffffffffffffffffffffffffffffffffffff021916908373ffffffffffffffffffffffffffffffffffffffff160217905550611f0a565b60005b600080549050811015611e9f578273ffffffffffffffffffffffffffffffffffffffff1660008281548110611e4057611e3f612dad565b5b9060005260206000200160009054906101000a900473ffffffffffffffffffffffffffffffffffffffff1673ffffffffffffffffffffffffffffffffffffffff161415611e8c57600191505b8080611e9790612e0b565b915050611e08565b5080611f09576000829080600181540180825580915050600190039060005260206000200160009091909190916101000a81548173ffffffffffffffffffffffffffffffffffffffff021916908373ffffffffffffffffffffffffffffffffffffffff1602179055505b5b5050565b60606000602867ffffffffffffffff811115611f2d57611f2c612247565b5b6040519080825280601f01601f191660200182016040528015611f5f5781602001600182028036833780820191505090505b50905060005b60148110156120c7576000816013611f7d9190612e54565b6008611f899190612e88565b6002611f959190613015565b8573ffffffffffffffffffffffffffffffffffffffff16611fb6919061308f565b60f81b9050600060108260f81c611fcd91906130cd565b60f81b905060008160f81c6010611fe491906130fe565b8360f81c611ff29190613139565b60f81b9050612000826120d1565b8585600261200e9190612e88565b8151811061201f5761201e612dad565b5b60200101907effffffffffffffffffffffffffffffffffffffffffffffffffffffffffffff1916908160001a905350612057816120d1565b8560018660026120679190612e88565b612071919061316d565b8151811061208257612081612dad565b5b60200101907effffffffffffffffffffffffffffffffffffffffffffffffffffffffffffff1916908160001a90535050505080806120bf90612e0b565b915050611f65565b5080915050919050565b6000600a8260f81c60ff1610156120fc5760308260f81c6120f291906131c3565b60f81b9050612112565b60578260f81c61210c91906131c3565b60f81b90505b919050565b82805461212390612862565b90600052602060002090601f016020900481019282612145576000855561218c565b82601f1061215e57805160ff191683800117855561218c565b8280016001018555821561218c579182015b8281111561218b578251825591602001919060010190612170565b5b509050612199919061219d565b5090565b5b808211156121b657600081600090555060010161219e565b5090565b6000604051905090565b600080fd5b600080fd5b600073ffffffffffffffffffffffffffffffffffffffff82169050919050565b60006121f9826121ce565b9050919050565b612209816121ee565b811461221457600080fd5b50565b60008135905061222681612200565b92915050565b600080fd5b600080fd5b6000601f19601f8301169050919050565b7f4e487b7100000000000000000000000000000000000000000000000000000000600052604160045260246000fd5b61227f82612236565b810181811067ffffffffffffffff8211171561229e5761229d612247565b5b80604052505050565b60006122b16121ba565b90506122bd8282612276565b919050565b600067ffffffffffffffff8211156122dd576122dc612247565b5b6122e682612236565b9050602081019050919050565b82818337600083830152505050565b6000612315612310846122c2565b6122a7565b90508281526020810184848401111561233157612330612231565b5b61233c8482856122f3565b509392505050565b600082601f8301126123595761235861222c565b5b8135612369848260208601612302565b91505092915050565b60008060408385031215612389576123886121c4565b5b600061239785828601612217565b925050602083013567ffffffffffffffff8111156123b8576123b76121c9565b5b6123c485828601612344565b9150509250929050565b6000819050919050565b6123e1816123ce565b81146123ec57600080fd5b50565b6000813590506123fe816123d8565b92915050565b60006020828403121561241a576124196121c4565b5b6000612428848285016123ef565b91505092915050565b600061243c826121ce565b9050919050565b61244c81612431565b82525050565b60006020820190506124676000830184612443565b92915050565b600081519050919050565b600082825260208201905092915050565b60005b838110156124a757808201518184015260208101905061248c565b838111156124b6576000848401525b50505050565b60006124c78261246d565b6124d18185612478565b93506124e1818560208601612489565b6124ea81612236565b840191505092915050565b6000602082019050818103600083015261250f81846124bc565b905092915050565b6000819050919050565b600061253c612537612532846121ce565b612517565b6121ce565b9050919050565b600061254e82612521565b9050919050565b600061256082612543565b9050919050565b61257081612555565b82525050565b600060208201905061258b6000830184612567565b92915050565b61259a816123ce565b82525050565b60006020820190506125b56000830184612591565b92915050565b6125c4816121ee565b82525050565b60006020820190506125df60008301846125bb565b92915050565b6000602082840312156125fb576125fa6121c4565b5b600061260984828501612217565b91505092915050565b600061261d82612543565b9050919050565b61262d81612612565b82525050565b60006020820190506126486000830184612624565b92915050565b600081519050919050565b600082825260208201905092915050565b6000819050602082019050919050565b61268381612431565b82525050565b6000612695838361267a565b60208301905092915050565b6000602082019050919050565b60006126b98261264e565b6126c38185612659565b93506126ce8361266a565b8060005b838110156126ff5781516126e68882612689565b97506126f1836126a1565b9250506001810190506126d2565b5085935050505092915050565b6000610160820190508181036000830152612727818e6124bc565b9050818103602083015261273b818d6124bc565b905061274a604083018c612443565b612757606083018b612443565b612764608083018a612443565b61277160a0830189612591565b61277e60c0830188612591565b81810360e083015261279081876124bc565b90508181036101008301526127a581866126ae565b90506127b5610120830185612443565b8181036101408301526127c881846124bc565b90509c9b505050505050505050505050565b6127e381612431565b81146127ee57600080fd5b50565b600081359050612800816127da565b92915050565b60006020828403121561281c5761281b6121c4565b5b600061282a848285016127f1565b91505092915050565b7f4e487b7100000000000000000000000000000000000000000000000000000000600052602260045260246000fd5b6000600282049050600182168061287a57607f821691505b6020821081141561288e5761288d612833565b5b50919050565b600081905092915050565b60008190508160005260206000209050919050565b600081546128c181612862565b6128cb8186612894565b945060018216600081146128e657600181146128f75761292a565b60ff1983168652818601935061292a565b6129008561289f565b60005b8381101561292257815481890152600182019150602081019050612903565b838801955050505b50505092915050565b600061293f82846128b4565b915081905092915050565b600060408201905061295f6000830185612443565b61296c6020830184612591565b9392505050565b60008115159050919050565b61298881612973565b811461299357600080fd5b50565b6000815190506129a58161297f565b92915050565b6000602082840312156129c1576129c06121c4565b5b60006129cf84828501612996565b91505092915050565b7f5744455600000000000000000000000000000000000000000000000000000000600082015250565b6000612a0e600483612478565b9150612a19826129d8565b602082019050919050565b60006080820190508181036000830152612a3e81866124bc565b90508181036020830152612a5281856124bc565b90508181036040830152612a6581612a01565b9050612a746060830184612591565b949350505050565b60008190508160005260206000209050919050565b60008154612a9e81612862565b612aa88186612478565b94506001821660008114612ac35760018114612ad557612b08565b60ff1983168652602086019350612b08565b612ade85612a7c565b60005b83811015612b0057815481890152600182019150602081019050612ae1565b808801955050505b50505092915050565b60006020820190508181036000830152612b2b8184612a91565b905092915050565b600081519050612b42816127da565b92915050565b600060208284031215612b5e57612b5d6121c4565b5b6000612b6c84828501612b33565b91505092915050565b600081519050612b84816123d8565b92915050565b600060208284031215612ba057612b9f6121c4565b5b6000612bae84828501612b75565b91505092915050565b6000606082019050612bcc6000830186612443565b612bd96020830185612443565b612be66040830184612591565b949350505050565b6000612bf982612543565b9050919050565b612c0981612bee565b82525050565b600081549050919050565b60008190508160005260206000209050919050565b60008160001c9050919050565b600073ffffffffffffffffffffffffffffffffffffffff82169050919050565b6000612c6f612c6a83612c2f565b612c3c565b9050919050565b6000612c828254612c5c565b9050919050565b6000600182019050919050565b6000612ca182612c0f565b612cab8185612659565b9350612cb683612c1a565b8060005b83811015612cee57612ccb82612c76565b612cd58882612689565b9750612ce083612c89565b925050600181019050612cba565b5085935050505092915050565b7f4445560000000000000000000000000000000000000000000000000000000000600082015250565b6000612d31600383612478565b9150612d3c82612cfb565b602082019050919050565b600060a0820190508181036000830152612d6181876124bc565b9050612d706020830186612c00565b8181036040830152612d828185612c96565b90508181036060830152612d9581612d24565b9050612da46080830184612591565b95945050505050565b7f4e487b7100000000000000000000000000000000000000000000000000000000600052603260045260246000fd5b7f4e487b7100000000000000000000000000000000000000000000000000000000600052601160045260246000fd5b6000612e16826123ce565b91507fffffffffffffffffffffffffffffffffffffffffffffffffffffffffffffffff821415612e4957612e48612ddc565b5b600182019050919050565b6000612e5f826123ce565b9150612e6a836123ce565b925082821015612e7d57612e7c612ddc565b5b828203905092915050565b6000612e93826123ce565b9150612e9e836123ce565b9250817fffffffffffffffffffffffffffffffffffffffffffffffffffffffffffffffff0483118215151615612ed757612ed6612ddc565b5b828202905092915050565b60008160011c9050919050565b6000808291508390505b6001851115612f3957808604811115612f1557612f14612ddc565b5b6001851615612f245780820291505b8081029050612f3285612ee2565b9450612ef9565b94509492505050565b600082612f52576001905061300e565b81612f60576000905061300e565b8160018114612f765760028114612f8057612faf565b600191505061300e565b60ff841115612f9257612f91612ddc565b5b8360020a915084821115612fa957612fa8612ddc565b5b5061300e565b5060208310610133831016604e8410600b8410161715612fe45782820a905083811115612fdf57612fde612ddc565b5b61300e565b612ff18484846001612eef565b9250905081840481111561300857613007612ddc565b5b81810290505b9392505050565b6000613020826123ce565b915061302b836123ce565b92506130587fffffffffffffffffffffffffffffffffffffffffffffffffffffffffffffffff8484612f42565b905092915050565b7f4e487b7100000000000000000000000000000000000000000000000000000000600052601260045260246000fd5b600061309a826123ce565b91506130a5836123ce565b9250826130b5576130b4613060565b5b828204905092915050565b600060ff82169050919050565b60006130d8826130c0565b91506130e3836130c0565b9250826130f3576130f2613060565b5b828204905092915050565b6000613109826130c0565b9150613114836130c0565b92508160ff048311821515161561312e5761312d612ddc565b5b828202905092915050565b6000613144826130c0565b915061314f836130c0565b92508282101561316257613161612ddc565b5b828203905092915050565b6000613178826123ce565b9150613183836123ce565b9250827fffffffffffffffffffffffffffffffffffffffffffffffffffffffffffffffff038211156131b8576131b7612ddc565b5b828201905092915050565b60006131ce826130c0565b91506131d9836130c0565b92508260ff038211156131ef576131ee612ddc565b5b82820190509291505056fea2646970667358221220dd7a05871add102e10b47de48a5292aee4ff3fc7d0a005757d64d07f9bb0b36a64736f6c634300080c0033a26469706673582212207c03e21082c1197c50092747bd047c9ee9f3281489cc656e74946d81e8338e0964736f6c634300080c0033",
  "immutableReferences": {
    "832": [
      {
        "length": 32,
        "start": 767
      },
      {
        "length": 32,
        "start": 3553
      }
    ]
  },
  "source": "// SPDX-License-Identifier: MIT\npragma solidity ^0.8.12;\n\nimport { IDistributionExecutable } from './IDistributionExecutable.sol';\n\n\nimport { AxelarExecutable } from '@axelar-network/axelar-gmp-sdk-solidity/contracts/executables/AxelarExecutable.sol';\nimport { IAxelarGateway } from '@axelar-network/axelar-gmp-sdk-solidity/contracts/interfaces/IAxelarGateway.sol';\nimport { IERC20 } from '@axelar-network/axelar-gmp-sdk-solidity/contracts/interfaces/IERC20.sol';\nimport { IAxelarGasService } from '@axelar-network/axelar-gmp-sdk-solidity/contracts/interfaces/IAxelarGasService.sol';\n\ncontract Factory {\n    IAxelarGateway public immutable gateway;\n\n\n    Job[] public jobArray;\n    // address contractOwner;\n    uint256 public countNew = 0;\n    uint256 countAgreed = 0;\n    uint256 countProgress = 0;\n    uint256 countReview = 0;\n    uint256 countCompleted = 0;\n    uint256 countCanceled = 0;\n    string stateNew = \"new\";\n    string stateAgreed = \"agreed\";\n    string stateProgress = \"progress\";\n    string stateReview = \"review\";\n    string stateCompleted = \"completed\";\n    string stateCanceled = \"canceled\";\n\n    event OneEventForAll(address contractAdr, uint256 index);\n\n    event JobContractCreated(\n        address jobAddress,\n        string title,\n        string description,\n        string symbol\n\n    );\n\n\n    constructor() {\n        address gateway_ = 0x5769D84DD62a6fD969856c75c7D321b84d455929;\n        gateway = IAxelarGateway(gateway_);\n    }\n\n    // initial: new, contractor choosed: agreed, work in progress: progress, completed: completed, canceled\n\n    // function indexCalculation(string memory _state) public returns (uint256) {}\n\n    function createJobContract(string memory _title, string memory _description, string memory _symbol, uint256 _amount)\n    external\n    payable\n    {\n        Job job = new Job{value: msg.value}(\n            _title,\n            _description,\n            _symbol,\n            jobArray.length,\n            msg.sender\n        );\n\n        address tokenAddress = gateway.tokenAddresses(_symbol);\n        // amount = IERC20(tokenAddress).balanceOf(contractAddress);\n        IERC20(tokenAddress).transferFrom(msg.sender, address(job), _amount);\n        // IERC20(tokenAddress).approve(address(gateway), _amount);\n\n        jobArray.push(job);\n        countNew++;\n        emit JobContractCreated(address(job), _title, _description, _symbol);\n        emit OneEventForAll(address(job), job.index());\n    }\n\n    // function findJobs(uint256 _myIndex) external view returns (address) {\n    //     return address(jobArray[_myIndex]);\n    // }\n\n    function allJobs() external view returns (Job[] memory _jobs) {\n        _jobs = new Job[](jobArray.length);\n        uint256 count;\n        for (uint256 i = 0; i < jobArray.length; i++) {\n            _jobs[count] = jobArray[i];\n            count++;\n        }\n    }\n\n\n    function jobParticipate(Job job) external {\n        jobArray[job.index()].jobParticipate(msg.sender);\n        emit OneEventForAll(address(job), job.index());\n    }\n\n\n    function jobStateChange(\n        Job job,\n        address payable _participantAddress,\n        string memory _state\n    ) external {\n        jobArray[job.index()].jobStateChange(_participantAddress, _state);\n\n        // if (keccak256(bytes(_state)) == keccak256(bytes(\"agreed\"))) {\n        //     countAgreed++;\n        // } else if (keccak256(bytes(_state)) == keccak256(bytes(\"progress\"))) {\n        //     countProgress++;\n        // } else if (keccak256(bytes(_state)) == keccak256(bytes(\"review\"))) {\n        //     countReview++;\n        // } else if (keccak256(bytes(_state)) == keccak256(bytes(\"completed\"))) {\n        //     countCompleted++;\n        // } else if (keccak256(bytes(_state)) == keccak256(bytes(\"canceled\"))) {\n        //     countCanceled++;\n        // }\n\n        emit OneEventForAll(address(job), job.index());\n    }\n\n    // function jobReview(Job job, address _participantAddress) external {\n    //     jobArray[job.index()].jobReview(_participantAddress);\n    //     countProgress++;\n    // }\n\n    // function jobConfimation(Job job, address _participantAddress) external {\n    //     jobArray[job.index()].jobConfimation(_participantAddress);\n    //     countReview++;\n    // }\n\n    function transferToaddress(Job job, address payable addressToSend)\n    external\n    payable\n    {\n        // addressToSend.transfer(0.5 ether);\n        jobArray[job.index()].transferToaddress(addressToSend);\n        emit OneEventForAll(address(job), job.index());\n    }\n\n    function transferToaddressChain(Job job, address payable addressToSend, string memory chain)\n    external\n    payable\n    {\n        jobArray[job.index()].transferToaddressChain(addressToSend, chain);\n        emit OneEventForAll(address(job), job.index());\n    }\n\n    function transferToaddressChain2(Job job, address payable addressToSend, string memory chain)\n    external\n    payable\n    {\n        jobArray[job.index()].transferToaddressChain2(addressToSend, chain);\n        emit OneEventForAll(address(job), job.index());\n    }\n\n\n    // function jobCanceled(Job job) external {\n    //     jobArray[job.index()].jobCanceled();\n    //     countCanceled++;\n    // }\n\n    // function getContractAdr(uint256 _classIndex)\n    //     external\n    //     view\n    //     returns (address)\n    // {\n    //     Job _retBal = Job(payable(address(jobArray[_classIndex])));\n    //     return _retBal.returnContractAddress();\n    // }\n\n    function getBalance(uint256 _classIndex) external view returns (uint256) {\n        Job _retBal = Job(payable(address(jobArray[_classIndex])));\n        return _retBal.getBalance();\n    }\n\n    // function thisContract() external view returns (address) {\n    //     address thisConr = address(this);\n    //     return thisConr;\n    // }\n\n    function getJobInfo(uint256 _classIndex)\n    external\n    view\n    returns (\n        string memory,\n        string memory,\n        address,\n        address,\n        address,\n        uint256,\n        uint256,\n        string memory,\n        address[] memory,\n        address,\n        string memory\n    )\n    {\n        Job _retBal = Job(payable(address(jobArray[_classIndex])));\n        return _retBal.getJob();\n    }\n\n    // receive() external payable {}\n}\n\ncontract Job {\n    IDistributionExecutable public immutable distributor;\n\n    IAxelarGateway public immutable gateway;\n\n\n    address[] public Participants;\n    // uint256 public data;\n    string public title;\n    string public description;\n    string public jobState;\n    uint256 public index;\n\n    string public name;\n    uint256 public price;\n    address public contractParent;\n    address public contractAddress;\n    address public contractOwner;\n    address payable public participantAddress;\n    uint256 public createTime;\n    address[] public _destinationAddresses;\n    string public symbol;\n    uint256 amount;\n\n    // uint256 public balance;\n\n    // struct jobStructData {\n    //     uint256 data;\n    //     bool jobState;\n    //     address contractAddress;\n    //     address contractParent;\n    //     uint256 createTime;\n    //     uint256 index;\n    // }\n\n    // jobStructData public myStruct;\n\n    constructor(\n        string memory _title,\n        string memory _description,\n        string memory _symbol,\n        uint256 _index,\n        address _contractOwner\n    ) payable {\n        // data = _data;\n        distributor = IDistributionExecutable(_contractOwner);\n        title = _title;\n        jobState = \"new\";\n        contractAddress = address(this);\n        contractParent = msg.sender;\n        contractOwner = _contractOwner;\n        createTime = block.timestamp;\n        index = _index;\n        description = _description;\n        symbol = _symbol;\n\n        address gateway_ = 0x5769D84DD62a6fD969856c75c7D321b84d455929;\n        gateway = IAxelarGateway(gateway_);\n        // balance = contractAddress.balance;\n        // createJob(_content, _index);\n        // myStruct = jobStructData(\n        //     _data,\n        //     true,\n        //     address(this),\n        //     msg.sender,\n        //     block.timestamp,\n        //     _index\n        // );\n    }\n\n    // event OneEventForAll2(address contractAdr);\n\n    // function createJob(string memory _content, uint256 _index) public {\n    //     jobStructDataArray.push();\n\n    //     jobStructData(\n    //         _content,\n    //         true,\n    //         address(this),\n    //         msg.sender,\n    //         block.timestamp\n    //     );\n    //     emit jobCreated(_content, _index);\n    // }\n\n    function getJob()\n    public\n    view\n    returns (\n        string memory _content,\n        string memory _jobState,\n        address _contractAddress,\n        address _contractParent,\n        address _contractOwner,\n        uint256 _createTime,\n        uint256 _index,\n        string memory _description,\n        address[] memory _participants,\n        address _participantAddress,\n        string memory _symbol\n    )\n    {\n        return (\n        title,\n        jobState,\n        contractAddress,\n        contractParent,\n        contractOwner,\n        createTime,\n        index,\n        description,\n        Participants,\n        participantAddress,\n        symbol\n        );\n    }\n\n    function withdrawAll() external {\n        // jobState = true;\n    }\n\n    // function getContractInfo() public view returns (uint256) {\n    //     return contractAddress.balance;\n    // }\n\n    function getBalance() public view returns (uint256) {\n        return contractAddress.balance;\n    }\n\n    function transferToaddress(address payable _addressToSend) public payable {\n        if (keccak256(bytes(jobState)) == keccak256(bytes(\"canceled\"))) {\n            if (_addressToSend == contractOwner) {\n                _addressToSend.transfer(contractAddress.balance);\n            }\n        } else if (\n            keccak256(bytes(jobState)) == keccak256(bytes(\"completed\"))\n        ) {\n\n            participantAddress.transfer(contractAddress.balance);\n        }\n        // msg.sender.transfer(address(this).balance);\n    }\n\n    function transferToaddressChain(address payable _addressToSend, string memory chain) public payable {\n        if (keccak256(bytes(jobState)) == keccak256(bytes(\"canceled\"))) {\n            if (_addressToSend == contractOwner) {\n                _addressToSend.transfer(contractAddress.balance);\n            }\n        } else if (\n            keccak256(bytes(jobState)) == keccak256(bytes(\"completed\"))\n        ) {\n            _destinationAddresses.push(participantAddress);\n            distributor.sendToMany(chain, _addressToSend, _destinationAddresses, 'DEV', contractAddress.balance);\n        }\n        // msg.sender.transfer(address(this).balance);\n    }\n\n    function transferToaddressChain2(address payable _addressToSend, string memory chain) public payable {\n        if (keccak256(bytes(jobState)) == keccak256(bytes(\"canceled\"))) {\n            if (_addressToSend == contractOwner) {\n                _addressToSend.transfer(contractAddress.balance);\n            }\n        } else if (\n            keccak256(bytes(jobState)) == keccak256(bytes(\"completed\"))\n        ) {\n            bytes memory symbolTest = bytes(symbol);\n            if (symbolTest.length == 0) {\n                // do nothing\n            } else if (keccak256(symbolTest) == keccak256(bytes(\"Eth\"))) {\n                participantAddress.transfer(contractAddress.balance);\n            } else if (keccak256(symbolTest) == keccak256(bytes(\"WDEV\"))) {\n                // _destinationAddresses.push(_addressToSend);\n                // distributor.sendToMany(chain, _addressToSend, _destinationAddresses, 'aUSDC', contractAddress.balance);\n                // string memory _addressToSend2 = bytes(_addressToSend);\n                IERC20(_addressToSend).approve(address(gateway), contractAddress.balance);\n                gateway.sendToken(chain, toAsciiString(_addressToSend), \"WDEV\", contractAddress.balance);\n            } else if (keccak256(symbolTest) == keccak256(bytes(\"aUSDC\"))) {\n                address tokenAddress = gateway.tokenAddresses(symbol);\n                amount = IERC20(tokenAddress).balanceOf(contractAddress);\n                IERC20(tokenAddress).transferFrom(msg.sender, address(this), amount);\n                IERC20(tokenAddress).approve(address(gateway), amount);\n            }\n\n        }\n        // msg.sender.transfer(address(this).balance);\n    }\n\n    function toAsciiString(address x) internal pure returns (string memory) {\n        bytes memory s = new bytes(40);\n        for (uint i = 0; i < 20; i++) {\n            bytes1 b = bytes1(uint8(uint(uint160(x)) / (2**(8*(19 - i)))));\n            bytes1 hi = bytes1(uint8(b) / 16);\n            bytes1 lo = bytes1(uint8(b) - 16 * uint8(hi));\n            s[2*i] = char(hi);\n            s[2*i+1] = char(lo);\n        }\n        return string(s);\n    }\n\n    function char(bytes1 b) internal pure returns (bytes1 c) {\n        if (uint8(b) < 10) return bytes1(uint8(b) + 0x30);\n        else return bytes1(uint8(b) + 0x57);\n    }\n\n\n    function jobParticipate(address _participantAddress) external {\n        bool existed = false;\n        if (Participants.length == 0) {\n            Participants.push(_participantAddress);\n        } else {\n            for (uint256 i = 0; i < Participants.length; i++) {\n                if (Participants[i] == _participantAddress) {\n                    existed = true;\n                }\n            }\n            if (!existed) {\n                Participants.push(_participantAddress);\n            }\n        }\n        // emit OneEventForAll2(contractAddress);\n    }\n\n    function jobStateChange(\n        address payable _participantAddress,\n        string memory _state\n    ) external {\n        if (keccak256(bytes(_state)) == keccak256(bytes(\"agreed\"))) {\n            jobState = \"agreed\";\n            participantAddress = _participantAddress;\n        } else if (keccak256(bytes(_state)) == keccak256(bytes(\"progress\"))) {\n            jobState = \"progress\";\n        } else if (keccak256(bytes(_state)) == keccak256(bytes(\"review\"))) {\n            jobState = \"review\";\n        } else if (keccak256(bytes(_state)) == keccak256(bytes(\"completed\"))) {\n            jobState = \"completed\";\n        } else if (keccak256(bytes(_state)) == keccak256(bytes(\"canceled\"))) {\n            jobState = \"canceled\";\n        }\n\n        // emit OneEventForAll2(contractAddress);\n    }\n\n    // function jobReview(address _participantAddress) external {\n    //     if (participantAddress == _participantAddress) {\n    //         jobState = \"review\";\n    //     }\n    // }\n\n    // function jobParticiantAgreed(address _participantAddress) external {\n    //     jobState = \"agreed\";\n    //     participantAddress = _participantAddress;\n\n    //     // for (uint256 i = 0; i < Participants.length; i++) {\n    //     //     if (Participants[i] == _participantAddress) {\n    //     //         jobState = \"agreed\";\n    //     //         participantAddress = _participantAddress;\n    //     //     }\n    //     // }\n    // }\n\n    // function jobInProgress() external {\n    //     jobState = \"progress\";\n    // }\n\n    // function jobCompleted() external {\n    //     jobState = \"completed\";\n    // }\n\n    // function jobCanceled() external {\n    //     jobState = \"canceled\";\n    // }\n\n    receive() external payable {}\n\n    // fallback () external payable    {\n\n    // }\n\n    // constructor(string memory _name, address _owner) {\n    //     name = _name;\n    //     owner = _owner;\n    // }\n}\n",
  "sourcePath": "/home/user/Documents/mainstream/devopsdao/contracts/Factory.sol",
  "compiler": {
    "name": "solc",
    "version": "0.8.12+commit.f00d7308.Emscripten.clang"
  },
  "schemaVersion": "3.4.9",
  "updatedAt": "2022-09-12T16:03:06.707Z",
  "networkType": "ethereum",
  "devdoc": {
    "kind": "dev",
    "methods": {},
    "version": 1
  },
  "userdoc": {
    "kind": "user",
    "methods": {},
    "version": 1
  }
}