{
  "contractName": "Factory",
  "abi": [
    {
      "inputs": [],
      "stateMutability": "nonpayable",
      "type": "constructor"
    },
    {
      "anonymous": false,
      "inputs": [
        {
          "indexed": false,
          "internalType": "string",
          "name": "nanoId",
          "type": "string"
        },
        {
          "indexed": false,
          "internalType": "address",
          "name": "jobAddress",
          "type": "address"
        },
        {
          "indexed": false,
          "internalType": "address",
          "name": "jobOwner",
          "type": "address"
        },
        {
          "indexed": false,
          "internalType": "string",
          "name": "title",
          "type": "string"
        },
        {
          "indexed": false,
          "internalType": "string",
          "name": "description",
          "type": "string"
        },
        {
          "indexed": false,
          "internalType": "string",
          "name": "symbol",
          "type": "string"
        },
        {
          "indexed": false,
          "internalType": "uint256",
          "name": "amount",
          "type": "uint256"
        }
      ],
      "name": "JobContractCreated",
      "type": "event"
    },
    {
      "anonymous": false,
      "inputs": [
        {
          "indexed": false,
          "internalType": "address",
          "name": "contractAdr",
          "type": "address"
        },
        {
          "indexed": false,
          "internalType": "uint256",
          "name": "index",
          "type": "uint256"
        }
      ],
      "name": "OneEventForAll",
      "type": "event"
    },
    {
      "inputs": [],
      "name": "countNew",
      "outputs": [
        {
          "internalType": "uint256",
          "name": "",
          "type": "uint256"
        }
      ],
      "stateMutability": "view",
      "type": "function",
      "constant": true
    },
    {
      "inputs": [],
      "name": "gateway",
      "outputs": [
        {
          "internalType": "contract IAxelarGateway",
          "name": "",
          "type": "address"
        }
      ],
      "stateMutability": "view",
      "type": "function",
      "constant": true
    },
    {
      "inputs": [
        {
          "internalType": "uint256",
          "name": "",
          "type": "uint256"
        }
      ],
      "name": "jobArray",
      "outputs": [
        {
          "internalType": "contract Job",
          "name": "",
          "type": "address"
        }
      ],
      "stateMutability": "view",
      "type": "function",
      "constant": true
    },
    {
      "inputs": [
        {
          "internalType": "string",
          "name": "_nanoId",
          "type": "string"
        },
        {
          "internalType": "string",
          "name": "_title",
          "type": "string"
        },
        {
          "internalType": "string",
          "name": "_description",
          "type": "string"
        },
        {
          "internalType": "string",
          "name": "_symbol",
          "type": "string"
        },
        {
          "internalType": "uint256",
          "name": "_amount",
          "type": "uint256"
        }
      ],
      "name": "createJobContract",
      "outputs": [],
      "stateMutability": "payable",
      "type": "function",
      "payable": true
    },
    {
      "inputs": [],
      "name": "allJobs",
      "outputs": [
        {
          "internalType": "contract Job[]",
          "name": "_jobs",
          "type": "address[]"
        }
      ],
      "stateMutability": "view",
      "type": "function",
      "constant": true
    },
    {
      "inputs": [
        {
          "internalType": "contract Job",
          "name": "job",
          "type": "address"
        }
      ],
      "name": "jobParticipate",
      "outputs": [],
      "stateMutability": "nonpayable",
      "type": "function"
    },
    {
      "inputs": [
        {
          "internalType": "contract Job",
          "name": "job",
          "type": "address"
        },
        {
          "internalType": "address payable",
          "name": "_participantAddress",
          "type": "address"
        },
        {
          "internalType": "string",
          "name": "_state",
          "type": "string"
        }
      ],
      "name": "jobStateChange",
      "outputs": [],
      "stateMutability": "nonpayable",
      "type": "function"
    },
    {
      "inputs": [
        {
          "internalType": "contract Job",
          "name": "job",
          "type": "address"
        },
        {
          "internalType": "address payable",
          "name": "addressToSend",
          "type": "address"
        }
      ],
      "name": "transferToaddress",
      "outputs": [],
      "stateMutability": "payable",
      "type": "function",
      "payable": true
    },
    {
      "inputs": [
        {
          "internalType": "contract Job",
          "name": "job",
          "type": "address"
        },
        {
          "internalType": "address payable",
          "name": "addressToSend",
          "type": "address"
        },
        {
          "internalType": "string",
          "name": "chain",
          "type": "string"
        }
      ],
      "name": "transferToaddressChain2",
      "outputs": [],
      "stateMutability": "payable",
      "type": "function",
      "payable": true
    },
    {
      "inputs": [
        {
          "internalType": "uint256",
          "name": "_classIndex",
          "type": "uint256"
        }
      ],
      "name": "getBalance",
      "outputs": [
        {
          "internalType": "uint256",
          "name": "",
          "type": "uint256"
        }
      ],
      "stateMutability": "view",
      "type": "function",
      "constant": true
    },
    {
      "inputs": [
        {
          "internalType": "uint256",
          "name": "_classIndex",
          "type": "uint256"
        }
      ],
      "name": "getJobInfo",
      "outputs": [
        {
          "internalType": "string",
          "name": "",
          "type": "string"
        },
        {
          "internalType": "string",
          "name": "",
          "type": "string"
        },
        {
          "internalType": "address",
          "name": "",
          "type": "address"
        },
        {
          "internalType": "address",
          "name": "",
          "type": "address"
        },
        {
          "internalType": "address",
          "name": "",
          "type": "address"
        },
        {
          "internalType": "uint256",
          "name": "",
          "type": "uint256"
        },
        {
          "internalType": "uint256",
          "name": "",
          "type": "uint256"
        },
        {
          "internalType": "string",
          "name": "",
          "type": "string"
        },
        {
          "internalType": "address[]",
          "name": "",
          "type": "address[]"
        },
        {
          "internalType": "address",
          "name": "",
          "type": "address"
        },
        {
          "internalType": "string",
          "name": "",
          "type": "string"
        },
        {
          "internalType": "string",
          "name": "",
          "type": "string"
        }
      ],
      "stateMutability": "view",
      "type": "function",
      "constant": true
    }
  ],
  "bytecode": "0x60a06040523462000332576000600190808255806002558060035580600455600590808255806006556200003560075462000337565b91601f92838111620002e6575b506006626e657760e81b016007556008546200005e9062000337565b8381116200029a575b50600c651859dc99595960d21b01600855600954620000869062000337565b8381116200024e575b507f70726f6772657373000000000000000000000000000000000000000000000010600955600a54620000c29062000337565b83811162000202575b50600c6572657669657760d01b01600a55600b54620000ea9062000337565b838111620001b6575b507f636f6d706c657465640000000000000000000000000000000000000000000012600b55600c54620001269062000337565b928084116200018c575b7f63616e63656c6564000000000000000000000000000000000000000000000010600c55735769d84dd62a6fd969856c75c7d321b84d455929608052604051613f1890816200037582396080518181816107f10152610f100152f35b600c8352602083209301901c8201915b828110620001ab578062000130565b81815583016200019c565b600b83528301811c7f0175b7a638427703f0dbe7bb9bbf987a2551717b34e79f33b5b1008d1fa01db99081019085905b828110620001f6575050620000f3565b848155018590620001e6565b600a83528301811c7fc65a7bb8d6351c1cf70c95a316cc6a92839c986682d98bc35f958f4883f9d2a89081019085905b82811062000242575050620000cb565b84815501859062000232565b600983528301811c7f6e1540171b6c0c960b71a7020d9f60077f6af931a8bbf590da0223dacf75c7af9081019085905b8281106200028e5750506200008f565b8481550185906200027e565b600883528301811c7ff3f7a9fe364faab93b216da50a3214154f22a0a2b415b23a84c8169e8b636ee39081019085905b828110620002da57505062000067565b848155018590620002ca565b600783528301811c7fa66cc928b5edb82af9bd49922954155ab7b0942694bea4ce44661d9a8736c6889081019085905b8281106200032657505062000042565b84815501859062000316565b600080fd5b90600182811c9216801562000369575b60208310146200035357565b634e487b7160e01b600052602260045260246000fd5b91607f16916200034756fe6080806040526004803610156200001557600080fd5b600091823560e01c908163116191b61462000efa575080631e0104391462000e62578063437a4f141462000d14578063527ded4d1462000c4b5780637f4497d8146200094e5780637f7d7e6c14620005015780638c7bf1a714620004bb578063a7e595b81462000392578063c8d1b6aa1462000280578063d69a588e146200025d5763fcd3f19614620000a757600080fd5b3462000259576020806003193601126200021a576001600160a01b038381620000cf62000f3f565b169160405190632986c0e560e01b9182815285818881885afa908115620001e15784916200021e575b506200010490620010b1565b90549060031b1c16803b156200021a57828091602460405180968193637e69f8cb60e11b8352338c8401525af19283156200020d578593620001ec575b5050604051948591825281845afa918215620001e157849262000197575b50604080516001600160a01b039092168252602082019290925260008051602062003ec3833981519152925090819081015b0390a180f35b90915082813d8311620001d9575b620001b1818362000f81565b81010312620001d45760008051602062003ec3833981519152915190386200015f565b600080fd5b503d620001a5565b6040513d86823e3d90fd5b620001fa9192935062000f56565b62000209578290853862000141565b8480fd5b50604051903d90823e3d90fd5b8280fd5b809450868092503d831162000251575b6200023a818362000f81565b81010312620001d4576200010487935190620000f8565b503d6200022e565b5080fd5b82346200027d57806003193601126200027d576020600154604051908152f35b80fd5b50346200025957816003193601126200025957815490620002a18262001137565b92620002b1604051948562000f81565b828452620002bf8362001137565b6020938585019391601f190136853782805b82821062000326575050505060405193838594850191818652518092526040850193925b8281106200030557505050500390f35b83516001600160a01b031685528695509381019392810192600101620002f5565b62000336829896979598620010b1565b905487518310156200037f5760039190911b1c6001600160a01b0316600582901b870186015262000373906200036c9062001111565b9162001111565b909693959496620002d1565b634e487b7160e01b8a526032865260248afd5b506200039e366200100e565b604051632986c0e560e01b8082526020946001600160a01b039081169491928892919087818a818a5afa908115620001e157849162000480575b50620003e490620010b1565b90549060031b1c1693843b156200021a5762000419948392838a6040519889958694859362bc30f960e01b8552840162001150565b03925af19283156200020d578593620001ec575050604051948591825281845afa918215620001e1578492620001975750604080516001600160a01b039092168252602082019290925260008051602062003ec38339815191529250908190810162000191565b809450888092503d8311620004b3575b6200049c818362000f81565b81010312620001d457620003e489935190620003d8565b503d62000490565b5034620002595760203660031901126200025957359080548210156200027d576020620004e883620010b1565b905460405160039290921b1c6001600160a01b03168152f35b5060a0366003190112620002595767ffffffffffffffff81358181116200094a5762000531903690840162000fc1565b90602491823582811162000946576200054e903690860162000fc1565b604435838111620009425762000568903690870162000fc1565b6064358481116200093e5762000582903690880162000fc1565b9060843592885496604051612d049889820199828b108a8c11176200092c57908291620011bf833960c08b52620005bd60c08c018a6200108a565b9a620005fa620005eb620005dc60209e8f85820390860152896200108a565b8381036040850152896200108a565b8281036060840152896200108a565b91608082015260a033910152039034f0968715620009215784518986012090604051906040820190828210908211176200090d57604052600381526208aa8960eb1b908a01527f55514145c7ef4e1948f87e0eb4d28d3e34763f4d4cdf3bc449800860a9d0a00c01620007bc575b89549068010000000000000000821015620007ab575092620007396200071095936200072a6200074894620006c6888f60017f10b01725a6653b5982623f022d74dfbd10c151e56edb1f114e6cf9915861c05f9d9b019055620010b1565b81546001600160a01b0360039290921b82811b801990921692909e169d8e901b16179055600154620006f89062001111565b60015560405198899860e08a5260e08a01906200108a565b908b8d8a01523360408a015288820360608a01526200108a565b9086820360808801526200108a565b9084820360a08601526200108a565b9060c08301520390a1816040518094632986c0e560e01b825281845afa918215620001e1578492620001975750604080516001600160a01b039092168252602082019290925260008051602062003ec38339815191529250908190810162000191565b634e487b7160e01b8b5260418a528afd5b6040516349ad89fb60e11b815289810189905280620007de838201876200108a565b6001600160a01b0392918b9183919003817f000000000000000000000000000000000000000000000000000000000000000086165afa908c821562000901578c81858e948e9496620008b7575b50606493949560405197889687956323b872dd60e01b8752339087015216898501528c6044850152165af18015620008ac576200086a575b5062000668565b8881813d8311620008a4575b62000882818362000f81565b81010312620008a05751801515036200089c573862000863565b8980fd5b8a80fd5b503d62000876565b6040513d8d823e3d90fd5b9493505093505081813d8311620008f9575b620008d5818362000f81565b81010312620002595760648c8c9385620008f08e95620010fc565b9594936200082b565b503d620008c9565b604051903d90823e3d90fd5b8360418d634e487b7160e01b600052526000fd5b6040513d8c823e3d90fd5b634e487b7160e01b8d5260418c52838dfd5b8780fd5b8680fd5b8580fd5b8380fd5b5090346200027d5760203660031901126200027d5780620009708335620010b1565b905460405163dd28e14d60e01b81529485929091839160031b1c6001600160a01b03165afa908115620009015780928182809381908283908493859886978799889c62000ab1575b509b9a999897969594939291906040519c8d9c8d6101809081815201620009df916200108a565b8d810360208f0152620009f2916200108a565b6001600160a01b0395861660408e015290851660608d0152931660808b015260a08a015260c089015287810360e089015262000a2e916200108a565b86810361010088015284519081815260200194602001915b81811062000a8e575050506001600160a01b031661012085015283820361014085015262000a8a929162000a7a916200108a565b908382036101608501526200108a565b0390f35b82516001600160a01b031686528897506020958601959092019160010162000a46565b9b505050505050505094505050503d8083833e62000ad0818362000f81565b810190610180818303126200021a5780519067ffffffffffffffff9182811162000209578362000b0291830162001174565b90602081015183811162000946578462000b1e91830162001174565b9462000b2d60408301620010fc565b9462000b3c60608401620010fc565b62000b4a60808501620010fc565b60a085015160c08601519060e087015189811162000942578562000b7091890162001174565b926101008801518a81116200093e5788019580601f880112156200093e5786519662000b9c8862001137565b9762000bac604051998a62000f81565b8089526020808a019160051b83010191838311620008a057602001905b82821062000c305750505062000be36101208a01620010fc565b9a6101408a01518181116200089c578262000c00918c0162001174565b996101608101519182116200089c5762000c1c92910162001174565b989b9a9490919293959997989a38620009b8565b6020809162000c3f84620010fc565b81520191019062000bc9565b5034620002595762000c5d366200100e565b604051632986c0e560e01b8082526020946001600160a01b039081169491928892919087818a818a5afa908115620001e157849162000cd9575b5062000ca390620010b1565b90549060031b1c1693843b156200021a5762000419948392838a60405198899586948593631c472b5b60e31b8552840162001150565b809450888092503d831162000d0c575b62000cf5818362000f81565b81010312620001d45762000ca38993519062000c97565b503d62000ce9565b506040366003190112620002595762000d2c62000f3f565b6001600160a01b03602435818116929083900362000209578116908460405193632986c0e560e01b9283865260209586818981895afa8015620001e157849062000e2c575b62000d7d9150620010b1565b90549060031b1c16803b156200021a57602483926040519485938492632d6c745760e11b84528b8401525af1801562000e215762000e0b575b508290604051948591825281845afa918215620001e1578492620001975750604080516001600160a01b039092168252602082019290925260008051602062003ec38339815191529250908190810162000191565b9462000e1984929662000f56565b949062000db6565b6040513d88823e3d90fd5b508681813d831162000e5a575b62000e45818362000f81565b810103126200094a5762000d7d905162000d71565b503d62000e39565b5090346200027d576020918260031936011262000259578262000e868235620010b1565b9054604051629032ff60e51b81529384929091839160031b1c6001600160a01b03165afa9182156200090157809262000ec4575b5050604051908152f35b9091508282813d831162000ef2575b62000edf818362000f81565b810103126200027d575051388062000eba565b503d62000ed3565b83903462000259578160031936011262000259577f00000000000000000000000000000000000000000000000000000000000000006001600160a01b03168152602090f35b600435906001600160a01b0382168203620001d457565b67ffffffffffffffff811162000f6b57604052565b634e487b7160e01b600052604160045260246000fd5b90601f8019910116810190811067ffffffffffffffff82111762000f6b57604052565b67ffffffffffffffff811162000f6b57601f01601f191660200190565b81601f82011215620001d45780359062000fdb8262000fa4565b9262000feb604051948562000f81565b82845260208383010111620001d457816000926020809301838601378301015290565b6060600319820112620001d4576001600160a01b03916004358381168103620001d457926024359081168103620001d457916044359067ffffffffffffffff8211620001d457620010629160040162000fc1565b90565b60005b838110620010795750506000910152565b818101518382015260200162001068565b90602091620010a58151809281855285808601910162001065565b601f01601f1916010190565b906000918254811015620010e8578280527f290decd9548b62a8d60345a988386fc84ba6bc95484008f6362f93160ef3e563019190565b634e487b7160e01b83526032600452602483fd5b51906001600160a01b0382168203620001d457565b6000198114620011215760010190565b634e487b7160e01b600052601160045260246000fd5b67ffffffffffffffff811162000f6b5760051b60200190565b6001600160a01b03909116815260406020820181905262001062929101906200108a565b81601f82011215620001d45780516200118d8162000fa4565b926200119d604051948562000f81565b81845260208284010111620001d4576200106291602080850191016200106556fe60c060405262002d0480380380620000178162000595565b928339810160c082820312620005905781516001600160401b03919082811162000590578162000049918501620005bb565b6020938481015184811162000590578362000066918301620005bb565b94604082015185811162000590578462000082918401620005bb565b9360608301519086821162000590576200009e918401620005bb565b9160a0608082015191015160018060a01b0381168091036200059057845197878911620003595760019880620000d58b546200062d565b97601f988981116200055e575b508690898311600114620004ed57600092620004e1575b5050600019600383901b1c1916908a1b1789555b81608052805190888211620003595781906200012b6002546200062d565b888111620004ae575b508590888311600114620004445760009262000438575b5050600019600383901b1c191690891b176002555b6200016d6004546200062d565b85811162000414575b506006626e657760e81b0160045560018060a01b03193081600954161760095533816008541617600855600a541617600a5542600c556005558351858111620003595780600395620001c987546200062d565b868111620003e2575b5083908683116001146200037b576000926200036f575b505060001982871b1c191690871b1784555b8151948511620003595762000212600e546200062d565b8381116200031b575b5080928511600114620002ab57509383949184926000956200029f575b50501b92600019911b1c191617600e555b735769d84dd62a6fd969856c75c7d321b84d45592960a0526040516126809081620006848239608051818181610896015261157c015260a0518181816110450152818161150d015281816118b00152611b810152f35b01519350388062000238565b92919084601f198116600e60005285600020956000905b89838310620003005750505010620002e5575b50505050811b01600e5562000249565b01519060f884600019921b161c1916905538808080620002d5565b858701518955909701969485019488935090810190620002c2565b6200034890600e600052826000208580890160051c820192858a106200034f575b0160051c01906200066a565b386200021b565b925081926200033c565b634e487b7160e01b600052604160045260246000fd5b015190503880620001e9565b90899350601f1983169188600052856000209260005b87828210620003cb5750508411620003b2575b505050811b018455620001fb565b015160001983891b60f8161c19169055388080620003a4565b8385015186558d9790950194938401930162000391565b6200040d9088600052856000208880860160051c8201928887106200034f570160051c01906200066a565b38620001d2565b620004319060046000528685600020910160051c8101906200066a565b3862000176565b0151905038806200014b565b908b9350601f198316916002600052876000209260005b898282106200049757505084116200047d575b505050811b0160025562000160565b015160001960f88460031b161c191690553880806200046e565b8385015186558f979095019493840193016200045b565b620004da906002600052876000208a80860160051c8201928a87106200034f570160051c01906200066a565b3862000134565b015190503880620000f9565b908c9350601f1983169184600052886000209260005b8a8282106200053e575050841162000524575b505050811b0189556200010d565b015160001960f88460031b161c1916905538808062000516565b91929395968291958786015181550195019301908e959493929162000503565b62000589908d600052886000208b80860160051c8201928b87106200034f570160051c01906200066a565b38620000e2565b600080fd5b6040519190601f01601f191682016001600160401b038111838210176200035957604052565b919080601f84011215620005905782516001600160401b0381116200035957602090620005f1601f8201601f1916830162000595565b92818452828287010111620005905760005b8181106200061957508260009394955001015290565b858101830151848201840152820162000603565b90600182811c921680156200065f575b60208310146200064957565b634e487b7160e01b600052602260045260246000fd5b91607f16916200063d565b81811062000676575050565b600081556001016200066a56fe60a060405260048036101561001d575b50361561001b57600080fd5b005b600060805260003560e01c8062bc30f91461115f57806305747a1f1461111c57806306fdde0314611074578063116191b61461102d57806312065fe0146110015780632986c0e514610fe15780634327a9f414610fb65780634a79d50c14610f0e57806354ddcc3a14610e6957806359ff6ba814610e3e5780635ad8e8ae14610d445780635e57966d14610b0d57806361dcd7ab14610aed5780637284e41614610a45578063853828b614610a2f57806395d89b411461097157806398cfc1a61461093f578063a035b1fe1461091f578063bed5572f146108c5578063bfe109281461087e578063ce606ee014610853578063dd28e14d14610401578063e2395ad81461020d578063f6b4dfb4146101df5763fcd3f1960361000f57346101d95760203660031901126101d957356001600160a01b03808216908183036101d957608051918254918215600014610181575050505061017b90612574565b60805180f35b835b8381106101a957505050501561019a575b5061017b565b6101a390612574565b38610194565b82826101b4836120ab565b90549060031b1c16146101d0575b6101cb906122a5565b610183565b600194506101c2565b60805180fd5b346101d9576080518060031936011261020a576009546040516001600160a01b039091168152602090f35b80fd5b50346101d95761021c3661202d565b809291925190602091817f6c7b0b1c2030be2c643396fd6dc3924ed2cca787e91e5b7b0d3ad68dbf3730168480940192832060405161025a81611fd3565b60068152651859dc99595960d21b9601869052036102b357505050600c9061028a61028584546120f5565b6125b6565b01905560018060a01b03166bffffffffffffffffffffffff60a01b600b541617600b5560805180f35b90919394508392507ff9277228123ef6174480588e3c39104edb4957fab3fd5fbf6d6beb66bd614804815183206040516102ec81611fd3565b600881526770726f677265737360c01b9601869052036103215750505060109061031961028584546120f5565b01905561017b565b8293507f7aa61f7d41f5fab2b7227198d10b8e1d66c06c49409fec49270e545030a3cdfb8151832060405161035581611fd3565b600681526572657669657760d01b950185905203610380575050600c915061031961028584546120f5565b8091925051822061038f612259565b805190850120036103c1575050506103aa61028582546120f5565b60126818dbdb5c1b195d195960ba1b01905561017b565b519020906103cd612235565b8051910120146103dd575061017b565b6103ea61028582546120f5565b60106718d85b98d95b195960c21b01905538610194565b346101d9576080518060031936011261020a57600954600854600a54600c54600554600b5460405160025490966001600160a01b03908116969495948116949281169392169190876000610454836120f5565b808352926001811690811561083457506001146107d4575b61047892500388611fef565b61048061212f565b956040519160008360035491610495836120f5565b80835292600181169081156107b55750600114610754575b6104b992500384611fef565b6040519687946020600054998a81520198868a600080527f290decd9548b62a8d60345a988386fc84ba6bc95484008f6362f93160ef3e5639260005b81811061073257505061050a92500387611fef565b60405197600089600e549161051e836120f5565b808352926001811690811561071357506001146106c5575b6105429250038a611fef565b6040519a8b6000600154610555816120f5565b80845290600181169081156106a9575060011461064f575b509d9c9b9a9998979695949392919d03610587908c611fef565b6040519c8d9c8d610180908181520161059f91612210565b8d810360208f01526105b091612210565b9460408d015260608c015260808b015260a08a015260c089015287810360e08901526105db91612210565b90868203610100880152519081815260200193906080515b81811061062d57505050610120850152838203610140850152610629929161061a91612210565b90838203610160850152612210565b0390f35b82516001600160a01b03168652889750602095860195909201916001016105f3565b6001600090815291507fb10e2d527612073b26eecdfd717e6a320cf44b4afac2b0732d9fcbe2b7fa0cf65b81831061068e57505081016020018f61056d565b80602092948385600194549201015201910190918e9261067a565b90506020925060ff191682840152151560051b8201018f61056d565b5090600e60005260008051602061260b833981519152906000915b8183106106f857505090602061054292820101610536565b80602092948385600194549201015201910190918b926106e0565b6020925061054294915060ff191682840152151560051b820101610536565b84546001600160a01b031683526001948501948b9450602090930192016104f5565b509060036000527fc2575a0e9e593c00f959f8c92f12db2869c3395a3b0502d05e2516446f71f85b906000915b8183106107995750509060206104b9928201016104ad565b6020919350806001915483858a01015201910190918592610781565b602092506104b994915060ff191682840152151560051b8201016104ad565b509060026000527f405787fa12a823e0f2b7631cc41b3ba8828b3321ca811111fa75cd3aa3bb5ace906000915b8183106108195750509060206104789282010161046c565b80602092948385600194549201015201910190918992610801565b6020925061047894915060ff191682840152151560051b82010161046c565b346101d9576080518060031936011261020a57600a546040516001600160a01b039091168152602090f35b346101d9576080518060031936011261020a576040517f00000000000000000000000000000000000000000000000000000000000000006001600160a01b03168152602090f35b50346101d95760203660031901126101d95735600d548110156101d957600d6000527fd7b6990105719101dabeb77144f2a3385c8033acd3af97e9423a695e81ad1eb501546040516001600160a01b039091168152602090f35b346101d9576080518060031936011261020a576020600754604051908152f35b346101d9576080518060031936011261020a5761062961095d61212f565b604051918291602083526020830190612210565b346101d9576080518060031936011261020a576040516000600e54610995816120f5565b80845290600190818116908115610a0857506001146109bf575b6106298461095d81860382611fef565b600e6000908152925060008051602061260b8339815191525b8284106109f057505050810160200161095d826109af565b805460208587018101919091529093019281016109d8565b60ff191660208087019190915292151560051b8501909201925061095d91508390506109af565b346101d9576080518060031936011261020a5780f35b346101d9576080518060031936011261020a576040516000600354610a69816120f5565b80845290600190818116908115610a085750600114610a92576106298461095d81860382611fef565b6003600090815292507fc2575a0e9e593c00f959f8c92f12db2869c3395a3b0502d05e2516446f71f85b5b828410610ad557505050810160200161095d826109af565b80546020858701810191909152909301928101610abd565b346101d9576080518060031936011261020a576020600c54604051908152f35b50346101d957602090816003193601126101d9578035916001600160a01b03831683036101d957604051926bffffffffffffffffffffffff199060601b168184015260148352610b5c83611fd3565b60405191610b6983611fd3565b601083526f181899199a1a9b1b9c1cb0b131b232b360811b8284015283519060019180831b600291808204831490151715610d2d57810194858211610d2d57610bca610bb487612011565b96610bc26040519889611fef565b808852612011565b86860190601f1901368237865115610d1657603090538551841015610cff57839660786021880153608051975b610c0f575b604051868152806106298189018a612210565b8051881015610cfa576001600160f81b031980610c39610c2f8b8561227e565b5160fc1c8561227e565b51169089871b918a830486148b151715610ce35782860190818711610ccc57610c67906080511a918b61227e565b53610c82600f610c778c8661227e565b5160f81c168561227e565b51166003918201809211610cb55798610cad91610ca788999a9b6080511a918c61227e565b536122a5565b979695610bf7565b601186634e487b7160e01b60805152526024608051fd5b601188634e487b7160e01b60805152526024608051fd5b601187634e487b7160e01b60805152526024608051fd5b610bfc565b603283634e487b7160e01b60805152526024608051fd5b603284634e487b7160e01b60805152526024608051fd5b601183634e487b7160e01b60805152526024608051fd5b5060203660031901126101d957356001600160a01b0381811691829003610e3957610d6d61212f565b60208151910120610d7c612235565b6020815191012014600014610ddb5780600a54168214610d9f575b505060805180f35b6009541631906080518083819493829493839415610dd2575bf115610dc5573880610d97565b6040513d608051823e3d90fd5b506108fc610db8565b9050610de561212f565b60208151910120610df4612259565b6020815191012014610e06575061017b565b600b5460095460805192839283928392908116319116828215610e30575bf115610dc55738610194565b506108fc610e24565b600080fd5b346101d9576080518060031936011261020a57600b546040516001600160a01b039091168152602090f35b346101d9576080518060031936011261020a5760405160006001805490610e8f826120f5565b80855291818116908115610a085750600114610eb5576106298461095d81860382611fef565b600081815292507fb10e2d527612073b26eecdfd717e6a320cf44b4afac2b0732d9fcbe2b7fa0cf65b828410610ef657505050810160200161095d826109af565b80546020858701810191909152909301928101610ede565b346101d9576080518060031936011261020a576040516000600254610f32816120f5565b80845290600190818116908115610a085750600114610f5b576106298461095d81860382611fef565b6002600090815292507f405787fa12a823e0f2b7631cc41b3ba8828b3321ca811111fa75cd3aa3bb5ace5b828410610f9e57505050810160200161095d826109af565b80546020858701810191909152909301928101610f86565b346101d9576080518060031936011261020a576008546040516001600160a01b039091168152602090f35b346101d9576080518060031936011261020a576020600554604051908152f35b346101d9576080518060031936011261020a576009546040516001600160a01b03909116318152602090f35b346101d9576080518060031936011261020a576040517f00000000000000000000000000000000000000000000000000000000000000006001600160a01b03168152602090f35b346101d9576080518060031936011261020a576040516000600654611098816120f5565b80845290600190818116908115610a0857506001146110c1576106298461095d81860382611fef565b6006600090815292507ff652222313e28459528d920b65115c16c04f3efc82aaedc97be59f3f377c0d3f5b82841061110457505050810160200161095d826109af565b805460208587018101919091529093019281016110ec565b50346101d95760203660031901126101d95735608051805482101561020a576020611146836120ab565b905460405160039290921b1c6001600160a01b03168152f35b506111693661202d565b61117161212f565b918251602080940120611182612235565b805190850120036111b5575050600b54600a546001600160a01b03918216935090915081168214610d9f57505060805180f35b6111bd61212f565b8381519101206111cb612259565b848151910120148015611fa1575b6111e7575b5050505061017b565b60405191608051600e54936111fb856120f5565b8082528187810193600197898982169182600014611f86575050600114611f38575b61122992500382611fef565b805180611263576040516303c4b96f60e41b8152808901889052600b60248201526a32b6b83a3c903a37b5b2b760a91b6044820152606490fd5b7faaaebeba3810b1e6b70781f14b2d72c1cb89c0b2b320c43bb67ff79f562f5ff49083206208aa8960eb1b8860405161129b81611fd3565b600381520152036113d057505050505060018060a01b0390816009541691600b5416928360405191635e57966d60e01b835282015260805181602481305afa8015610dc55760008051602061262b8339815191529261137692608051926113a6575b5060166113699160405193816b03bb4ba34323930bbb4b733960a51b869384015261135961132d602c8501612371565b91750103a379022ba3432b932bab69030b2323932b9b99d160551b8352835193849187850191016121ed565b0103600919810184520182611fef565b6040519182918583612503565b0390a160805191829182918291319082821561139d575bf115610dc5575b388080806111de565b506108fc61138d565b6113c860169161136993943d8091833e6113c08183611fef565b81019061230f565b9291506112fd565b809695929394965182206113e26122ca565b8481519101201480611f1d575b15611818575050600954600b54604051635e57966d60e01b8082526001600160a01b03928316888301526080519098602495909490939290831691818781305afa908115610dc5576730b2323932b9b99d60c11b611369600c8a60008051602061262b833981519152958e6114e496608051926117fd575b506040519586937f7769746864726177696e67207669612073656e64546f4d616e790000000000008d8601528c6114bd6114a3603a8801612371565b91630103a37960e51b8352835193849187850191016121ed565b01918201526114d4825180938d87850191016121ed565b0103601319810184520182611fef565b0390a16040516349ad89fb60e11b8152888101849052838180611508898201612544565b0381867f0000000000000000000000000000000000000000000000000000000000000000165afa8015610dc5578391608051916117d0575b501696604051916370a0823160e01b835289830152838287818b5afa8015610dc55760805185916117a1575b6040805163095ea7b360e01b81527f000000000000000000000000000000000000000000000000000000000000000087166001600160a01b0381168e830190815260208101949094529b9095508592909183918291015b0391608051905af1918215610dc5578392611774575b501694600d5495600160401b8710156117605784870180600d5587101561174c57600d6000527fd7b6990105719101dabeb77144f2a3385c8033acd3af97e9423a695e81ad1eb596870180546001600160a01b03191682179055604051998a52888a0152608051898681305afa988915610dc55760805199611731575b5081600954163198873b156101d95761168c61169f9260a06040979697519b63fbd9497b60e01b8d528c015260a48b0190612210565b9060031996878b840301908b0152612210565b908488830301604489015283600d54928381520195600d600052936000915b83831061171a5750505050505083946116e4838695949386809503016064850152612544565b90608483015260805194859103925af18015610dc557611705575b50611394565b61170e90611fa9565b60805180156116ff5780fd5b8554811688529681019694840194918401916116be565b61174591993d8091833e6113c08183611fef565b9738611656565b8560328a634e487b7160e01b600052526000fd5b8560418a634e487b7160e01b600052526000fd5b61179390853d871161179a575b61178b8183611fef565b81019061255c565b50386115d9565b503d611781565b5082813d83116117c9575b6117b68183611fef565b81010312610e3957836115c3925161156c565b503d6117ac565b6117f09150853d87116117f6575b6117e88183611fef565b810190612525565b38611540565b503d6117de565b61181191923d8091833e6113c08183611fef565b9038611467565b919350919394508051822061182b6122ca565b8481519101201480611db1575b15611ac757505060018060a01b039081600954169382600b541692604051635e57966d60e01b948582528382015260805181602481305afa8015610dc55761189d6118aa9160008051602061262b8339815191529360805191611aae575b50886123ee565b6040519182918a83612503565b0390a1807f000000000000000000000000000000000000000000000000000000000000000016926040516349ad89fb60e11b815281848201528181806118f260248201612544565b0381885afa8015610dc557839160805191611a91575b5016604051976370a0823160e01b8952848901528188602481845afa978815610dc55760805198611a62575b506040805163095ea7b360e01b81526001600160a01b038716868201908152602081018b905290928492849283918291010391608051905af18015610dc557611a44575b5050600b54166040519384528184015260805183602481305afa928315610dc55760805193611a29575b50813b156101d9576119d8946119fa6080946119eb604051988998899889976326ef699d60e01b89528801526084870190612210565b6003199283878303016024880152612210565b90848203016044850152612544565b90606483015260805194859103925af18015610dc557611a1a5750611394565b611a2390611fa9565b386116ff565b611a3d91933d8091833e6113c08183611fef565b91386119a2565b81611a5a92903d1061179a5761178b8183611fef565b503880611978565b9097508181813d8311611a8a575b611a7a8183611fef565b810103126101d957519638611934565b503d611a70565b611aa89150833d85116117f6576117e88183611fef565b38611908565b611ac1913d8091833e6113c08183611fef565b38611896565b939193519020611ad56122ca565b8481519101201480611d64575b15611d1357600954600b54604051635e57966d60e01b81526001600160a01b039182168482015260805192821694919290919082602481305afa918215610dc55760008051602061262b83398151915292611b5792611b4a9260805192611cf8575b506123ee565b6040519182918783612503565b0390a16040516349ad89fb60e11b8152828101859052848180611b7c60248201612544565b0381857f0000000000000000000000000000000000000000000000000000000000000000165afa8015610dc557829160805191611cdb575b5016604051926370a0823160e01b845284818501528584602481855afa938415610dc557869060805195611caa575b506040805163095ea7b360e01b81526001600160a01b039097168388019081526020810187905295969586918291015b0381608051865af1918215610dc5578694606493611c8d575b50836009541693600b54169560405196879586946323b872dd60e01b865285015260248401526044830152608051905af18015610dc557611c6f575b5050611394565b81611c8592903d1061179a5761178b8183611fef565b503880611c68565b611ca390863d881161179a5761178b8183611fef565b5038611c2c565b809550813d8311611cd4575b611cc08183611fef565b810103126101d95785611c13945194611be3565b503d611cb6565b611cf29150863d88116117f6576117e88183611fef565b38611bb4565b611d0c91923d8091833e6113c08183611fef565b9038611b44565b6040516303c4b96f60e41b81529081018390526024808201527f696e76616c69642064657374696e6174696f6e206e6574776f726b206f72207460448201526337b5b2b760e11b6064820152608490fd5b507f6f3c53069778183912da77a05fe67c3d6edb208ffdf1ca0161d51543035e3c68825184840120674d6f6f6e6261736560c01b85604051611da581611fd3565b60088152015214611ae2565b508351838501908120611dc26122eb565b85815191012014908115611ed1575b8115611e86575b8115611e38575b8115611dec575b50611838565b7f890af8db8ca1aa1e915857edbc2717639ebd8a22c786f9e0e776d6a1aacb5e71915085519020662837b63cb3b7b760c91b85604051611e2b81611fd3565b6007815201521438611de6565b90507f6585177c3aba6cb7ffc0a37e831a958c4ee9278e4c62c7bdad7175ca09883c4085518220684176616c616e63686560b81b86604051611e7981611fd3565b6009815201521490611ddf565b90507fcbf2a723bab3288b57db0bfae9d136af04a5c70c9acd46aad23acb67ef5fe179855182206546616e746f6d60d01b86604051611ec481611fd3565b6006815201521490611dd8565b90507f1de46e819416afc37058fd1cf806b9bcf96fa5d23b3ae565d6c72f0e19be9a9e855182206642696e616e636560c81b86604051611f1081611fd3565b6007815201521490611dd1565b50835183850120611f2c6122eb565b848151910120146113ef565b5050600e60805152818760008051602061260b83398151915288608051915b858310611f6d575050611229935082010161121d565b8091929450548385880101520191018890888593611f57565b60ff1916875261122994151560051b840101915061121d9050565b5060016111d9565b67ffffffffffffffff8111611fbd57604052565b634e487b7160e01b600052604160045260246000fd5b6040810190811067ffffffffffffffff821117611fbd57604052565b90601f8019910116810190811067ffffffffffffffff821117611fbd57604052565b67ffffffffffffffff8111611fbd57601f01601f191660200190565b906040600319830112610e39576004356001600160a01b0381168103610e39579160243567ffffffffffffffff8111610e395781602382011215610e395780600401359061207a82612011565b926120886040519485611fef565b82845260248383010111610e395781600092602460209301838601378301015290565b9060009182548110156120e1578280527f290decd9548b62a8d60345a988386fc84ba6bc95484008f6362f93160ef3e563019190565b634e487b7160e01b83526032600452602483fd5b90600182811c92168015612125575b602083101461210f57565b634e487b7160e01b600052602260045260246000fd5b91607f1691612104565b6040519060008260045491612143836120f5565b808352926001908181169081156121cb575060011461216c575b5061216a92500383611fef565b565b6004600090815291507f8a35acfbc15ff81a39ae7d344fd709f28e8600b4aa8c65c6b64bfe7fe36bd19b5b8483106121b0575061216a93505081016020013861215d565b81935090816020925483858a01015201910190918592612197565b90506020925061216a94915060ff191682840152151560051b8201013861215d565b60005b8381106122005750506000910152565b81810151838201526020016121f0565b90602091612229815180928185528580860191016121ed565b601f01601f1916010190565b6040519061224282611fd3565b600882526718d85b98d95b195960c21b6020830152565b6040519061226682611fd3565b600982526818dbdb5c1b195d195960ba1b6020830152565b90815181101561228f570160200190565b634e487b7160e01b600052603260045260246000fd5b60001981146122b45760010190565b634e487b7160e01b600052601160045260246000fd5b604051906122d782611fd3565b6005825264615553444360d81b6020830152565b604051906122f882611fd3565b6008825267457468657265756d60c01b6020830152565b602081830312610e395780519067ffffffffffffffff8211610e39570181601f82011215610e3957805161234281612011565b926123506040519485611fef565b81845260208284010111610e395761236e91602080850191016121ed565b90565b600e5460009291612381826120f5565b916001908181169081156123db575060011461239c57505050565b9091929350600e60005260008051602061260b833981519152906000915b8483106123c8575050500190565b81816020925485870152019201916123ba565b60ff191683525050811515909102019150565b919060405180936020906b03bb4ba34323930bbb4b733960a51b828401526000600e5461241a816120f5565b906001908181169081156124da575060011461248f575b50509161247f61216a959284630103a37960e51b600c97965261245d82518093866004850191016121ed565b01916730b2323932b9b99d60c11b6004840152835193849187850191016121ed565b0103601319810185520183611fef565b600e600090815291925060008051602061260b8339815191525b8383106124c3575050508301602c0161247f61216a612431565b80548a8401602c01528996509185019181016124a9565b60ff1916602c808901919091528315159093028701909201925061247f915061216a9050612431565b6001600160a01b03909116815260406020820181905261236e92910190612210565b90816020910312610e3957516001600160a01b0381168103610e395790565b6005815264615553444360d81b602082015260400190565b90816020910312610e3957518015158103610e395790565b600054600160401b811015611fbd5780600161259392016000556120ab565b819291549060031b9160018060a01b039283811b93849216901b16911916179055565b601f81116125c15750565b600060048152601f7f8a35acfbc15ff81a39ae7d344fd709f28e8600b4aa8c65c6b64bfe7fe36bd19b920160051c8201915b8281106125ff57505050565b8181556001016125f356febb7b4a454dc3493923482f07822329ed19e8244eff582cc204f8554c3620c3fdf914ca0348190fe49c31ec3901a60069cc792666a05ee2db257a8491cbad2b1ea2646970667358221220501212a0de06d0b95fa986e0d37d8e92ad91f3084217a30e3a7bb4c34e03b96364736f6c634300081100339bae9a5cb21b2c8bcdab1612a93a658a295cc73028d28d9dc4555387605185b0a26469706673582212202b8fc490b5d80fe2e0b2a9b73cd584f9cb44e0970279236a82f00b4595e21cce64736f6c63430008110033",
  "immutableReferences": {
    "1070": [
      {
        "length": 32,
        "start": 2033
      },
      {
        "length": 32,
        "start": 3856
      }
    ]
  },
  "source": "// SPDX-License-Identifier: MIT\npragma solidity ^0.8.12;\n\nimport { IDistributionExecutable } from './IDistributionExecutable.sol';\n\n\nimport { AxelarExecutable } from '@axelar-network/axelar-gmp-sdk-solidity/contracts/executables/AxelarExecutable.sol';\nimport { IAxelarGateway } from '@axelar-network/axelar-gmp-sdk-solidity/contracts/interfaces/IAxelarGateway.sol';\nimport { IERC20 } from '@axelar-network/axelar-gmp-sdk-solidity/contracts/interfaces/IERC20.sol';\nimport { IAxelarGasService } from '@axelar-network/axelar-gmp-sdk-solidity/contracts/interfaces/IAxelarGasService.sol';\nimport { StringToAddress, AddressToString } from '@axelar-network/axelar-gmp-sdk-solidity/contracts/StringAddressUtils.sol';\n\nerror RevertReason (string message);\n\ncontract Factory {\n    IAxelarGateway public immutable gateway;\n\n\n    Job[] public jobArray;\n    // address contractOwner;\n    uint256 public countNew = 0;\n    uint256 countAgreed = 0;\n    uint256 countProgress = 0;\n    uint256 countReview = 0;\n    uint256 countCompleted = 0;\n    uint256 countCanceled = 0;\n    string stateNew = \"new\";\n    string stateAgreed = \"agreed\";\n    string stateProgress = \"progress\";\n    string stateReview = \"review\";\n    string stateCompleted = \"completed\";\n    string stateCanceled = \"canceled\";\n\n    event OneEventForAll(address contractAdr, uint256 index);\n\n\n    event JobContractCreated(\n        string nanoId,\n        address jobAddress,\n        address jobOwner,\n        string title,\n        string description,\n        string symbol,\n        uint256 amount\n    );\n\n\n    constructor() {\n        address gateway_ = 0x5769D84DD62a6fD969856c75c7D321b84d455929;\n        gateway = IAxelarGateway(gateway_);\n    }\n\n    // initial: new, contractor choosed: agreed, work in progress: progress, completed: completed, canceled\n\n    // function indexCalculation(string memory _state) public returns (uint256) {}\n\n    function createJobContract(string memory _nanoId, string memory _title, string memory _description, string memory _symbol, uint256 _amount)\n    external\n    payable\n    {\n        Job job = new Job{value: msg.value}(\n            _nanoId,\n            _title,\n            _description,\n            _symbol,\n            jobArray.length,\n            msg.sender\n        );\n\n        if (keccak256(bytes(_symbol)) != keccak256(bytes(\"ETH\"))) {\n            address tokenAddress = gateway.tokenAddresses(_symbol);\n            // amount = IERC20(tokenAddress).balanceOf(contractAddress);\n            IERC20(tokenAddress).transferFrom(msg.sender, address(job), _amount);\n        }\n        // IERC20(tokenAddress).approve(address(gateway), _amount);\n\n        jobArray.push(job);\n        countNew++;\n        emit JobContractCreated(_nanoId, address(job), msg.sender, _title, _description, _symbol, _amount);\n        emit OneEventForAll(address(job), job.index());\n    }\n\n    // function findJobs(uint256 _myIndex) external view returns (address) {\n    //     return address(jobArray[_myIndex]);\n    // }\n\n    function allJobs() external view returns (Job[] memory _jobs) {\n        _jobs = new Job[](jobArray.length);\n        uint256 count;\n        for (uint256 i = 0; i < jobArray.length; i++) {\n            _jobs[count] = jobArray[i];\n            count++;\n        }\n    }\n\n\n    function jobParticipate(Job job) external {\n        jobArray[job.index()].jobParticipate(msg.sender);\n        emit OneEventForAll(address(job), job.index());\n    }\n\n\n    function jobStateChange(\n        Job job,\n        address payable _participantAddress,\n        string memory _state\n    ) external {\n        jobArray[job.index()].jobStateChange(_participantAddress, _state);\n\n        // if (keccak256(bytes(_state)) == keccak256(bytes(\"agreed\"))) {\n        //     countAgreed++;\n        // } else if (keccak256(bytes(_state)) == keccak256(bytes(\"progress\"))) {\n        //     countProgress++;\n        // } else if (keccak256(bytes(_state)) == keccak256(bytes(\"review\"))) {\n        //     countReview++;\n        // } else if (keccak256(bytes(_state)) == keccak256(bytes(\"completed\"))) {\n        //     countCompleted++;\n        // } else if (keccak256(bytes(_state)) == keccak256(bytes(\"canceled\"))) {\n        //     countCanceled++;\n        // }\n\n        emit OneEventForAll(address(job), job.index());\n    }\n\n    // function jobReview(Job job, address _participantAddress) external {\n    //     jobArray[job.index()].jobReview(_participantAddress);\n    //     countProgress++;\n    // }\n\n    // function jobConfimation(Job job, address _participantAddress) external {\n    //     jobArray[job.index()].jobConfimation(_participantAddress);\n    //     countReview++;\n    // }\n\n    function transferToaddress(Job job, address payable addressToSend)\n    external\n    payable\n    {\n        // addressToSend.transfer(0.5 ether);\n        jobArray[job.index()].transferToaddress(addressToSend);\n        emit OneEventForAll(address(job), job.index());\n    }\n\n    // function transferToaddressChain(Job job, address payable addressToSend, string memory chain)\n    // external\n    // payable\n    // {\n    //     jobArray[job.index()].transferToaddressChain(addressToSend, chain);\n    //     emit OneEventForAll(address(job), job.index());\n    // }\n\n    function transferToaddressChain2(Job job, address payable addressToSend, string memory chain)\n    external\n    payable\n    {\n        jobArray[job.index()].transferToaddressChain2(addressToSend, chain);\n        emit OneEventForAll(address(job), job.index());\n    }\n\n\n    // function jobCanceled(Job job) external {\n    //     jobArray[job.index()].jobCanceled();\n    //     countCanceled++;\n    // }\n\n    // function getContractAdr(uint256 _classIndex)\n    //     external\n    //     view\n    //     returns (address)\n    // {\n    //     Job _retBal = Job(payable(address(jobArray[_classIndex])));\n    //     return _retBal.returnContractAddress();\n    // }\n\n    function getBalance(uint256 _classIndex) external view returns (uint256) {\n        Job _retBal = Job(payable(address(jobArray[_classIndex])));\n        return _retBal.getBalance();\n    }\n\n    // function thisContract() external view returns (address) {\n    //     address thisConr = address(this);\n    //     return thisConr;\n    // }\n\n    function getJobInfo(uint256 _classIndex)\n    external\n    view\n    returns (\n        string memory,\n        string memory,\n        address,\n        address,\n        address,\n        uint256,\n        uint256,\n        string memory,\n        address[] memory,\n        address,\n        string memory,\n        string memory\n        \n    )\n    {\n        Job _retBal = Job(payable(address(jobArray[_classIndex])));\n        return _retBal.getJob();\n    }\n\n    // receive() external payable {}\n}\n\ncontract Job {\n    IDistributionExecutable public immutable distributor;\n\n    IAxelarGateway public immutable gateway;\n    using AddressToString for address;\n    using StringToAddress for string;\n\n    address[] public Participants;\n    // uint256 public data;\n    string public nanoId;\n    string public title;\n    string public description;\n    string public jobState;\n    uint256 public index;\n\n    string public name;\n    uint256 public price;\n    address public contractParent;\n    address public contractAddress;\n    address public contractOwner;\n    address payable public participantAddress;\n    uint256 public createTime;\n    address[] public _destinationAddresses;\n    string public symbol;\n    uint256 amount;\n\n    event Logs(address contractAdr, string message);\n\n    constructor(\n        string memory _nanoId,\n        string memory _title,\n        string memory _description,\n        string memory _symbol,\n        uint256 _index,\n        address _contractOwner\n    ) payable {\n        // data = _data;\n        nanoId = _nanoId;\n        distributor = IDistributionExecutable(_contractOwner);\n        title = _title;\n        jobState = \"new\";\n        contractAddress = address(this);\n        contractParent = msg.sender;\n        contractOwner = _contractOwner;\n        createTime = block.timestamp;\n        index = _index;\n        description = _description;\n        symbol = _symbol;\n\n        address gateway_ = 0x5769D84DD62a6fD969856c75c7D321b84d455929;\n        gateway = IAxelarGateway(gateway_);\n        // balance = contractAddress.balance;\n        // createJob(_content, _index);\n        // myStruct = jobStructData(\n        //     _data,\n        //     true,\n        //     address(this),\n        //     msg.sender,\n        //     block.timestamp,\n        //     _index\n        // );\n    }\n\n    // event OneEventForAll2(address contractAdr);\n\n    // function createJob(string memory _content, uint256 _index) public {\n    //     jobStructDataArray.push();\n\n    //     jobStructData(\n    //         _content,\n    //         true,\n    //         address(this),\n    //         msg.sender,\n    //         block.timestamp\n    //     );\n    //     emit jobCreated(_content, _index);\n    // }\n\n    function getJob()\n    public\n    view\n    returns (\n        string memory _content,\n        string memory _jobState,\n        address _contractAddress,\n        address _contractParent,\n        address _contractOwner,\n        uint256 _createTime,\n        uint256 _index,\n        string memory _description,\n        address[] memory _participants,\n        address _participantAddress,\n        string memory _symbol,\n        string memory _nanoId\n    )\n    {\n        return (\n        title,\n        jobState,\n        contractAddress,\n        contractParent,\n        contractOwner,\n        createTime,\n        index,\n        description,\n        Participants,\n        participantAddress,\n        symbol,\n        nanoId\n        );\n    }\n\n    function withdrawAll() external {\n        // jobState = true;\n    }\n\n    // function getContractInfo() public view returns (uint256) {\n    //     return contractAddress.balance;\n    // }\n\n    function getBalance() public view returns (uint256) {\n        return contractAddress.balance;\n    }\n\n    function transferToaddress(address payable _addressToSend) public payable {\n        if (keccak256(bytes(jobState)) == keccak256(bytes(\"canceled\"))) {\n            if (_addressToSend == contractOwner) {\n                _addressToSend.transfer(contractAddress.balance);\n            }\n        } else if (\n            keccak256(bytes(jobState)) == keccak256(bytes(\"completed\"))\n        ) {\n\n            participantAddress.transfer(contractAddress.balance);\n        }\n        // msg.sender.transfer(address(this).balance);\n    }\n\n    // function transferToaddressChain(address payable _addressToSend, string memory chain) public payable {\n    //     if (keccak256(bytes(jobState)) == keccak256(bytes(\"canceled\"))) {\n    //         if (_addressToSend == contractOwner) {\n    //             _addressToSend.transfer(contractAddress.balance);\n    //         }\n    //     } else if (\n    //         keccak256(bytes(jobState)) == keccak256(bytes(\"completed\"))\n    //     ) {\n    //         _destinationAddresses.push(participantAddress);\n    //         distributor.sendToMany(chain, _addressToSend, _destinationAddresses, 'WETH', contractAddress.balance);\n    //     }\n    //     // msg.sender.transfer(address(this).balance);\n    // }\n\n    function addressToString(address address_) external pure returns (string memory) {\n        return address_.toString();\n    }\n\n    function transferToaddressChain2(address payable _addressToSend, string memory chain) public payable {\n        if (keccak256(bytes(jobState)) == keccak256(bytes(\"canceled\"))) {\n            if (participantAddress == contractOwner) {\n                participantAddress.transfer(contractAddress.balance);\n            }\n        } else if (\n            keccak256(bytes(jobState)) == keccak256(bytes(\"completed\")) || 1==1\n        ) {\n            bytes memory symbolBytes = bytes(symbol);\n            bytes memory chainBytes = bytes(chain);\n            if (symbolBytes.length == 0) {\n                revert RevertReason({\n                    message: \"empty token\"\n                });\n                // do nothing\n            } else if (keccak256(symbolBytes) == keccak256(bytes(\"ETH\"))) {\n                emit Logs(address(contractAddress), string.concat(\"withdrawing \", symbol, \" to Ethereum address: \",this.addressToString(participantAddress)));\n                participantAddress.transfer(contractAddress.balance);\n            } \n            else if (keccak256(symbolBytes) == keccak256(bytes(\"aUSDC\")) && (\n                keccak256(chainBytes) == keccak256(bytes(\"Ethereum\"))\n            )) {\n                emit Logs(address(contractAddress), string.concat(\"withdrawing via sendToMany\", symbol, \" to \", chain, \"address:\",this.addressToString(participantAddress)));\n                // string memory _addressToSend2 = bytes(_addressToSend);\n                address tokenAddress = gateway.tokenAddresses(\"aUSDC\");\n                uint256 contractAmount = IERC20(tokenAddress).balanceOf(contractAddress);\n                IERC20(tokenAddress).approve(address(distributor), contractAmount);\n\n                _destinationAddresses.push(_addressToSend);\n                distributor.sendToMany(chain, this.addressToString(_addressToSend), _destinationAddresses, 'aUSDC', contractAddress.balance);\n            }\n            else if (keccak256(symbolBytes) == keccak256(bytes(\"aUSDC\")) && (\n                keccak256(chainBytes) == keccak256(bytes(\"Ethereum\")) || \n                keccak256(chainBytes) == keccak256(bytes(\"Binance\")) ||\n                keccak256(chainBytes) == keccak256(bytes(\"Fantom\")) ||\n                keccak256(chainBytes) == keccak256(bytes(\"Avalanche\")) ||\n                keccak256(chainBytes) == keccak256(bytes(\"Polygon\"))\n            )) {\n                emit Logs(address(contractAddress), string.concat(\"withdrawing \", symbol, \" to \", chain, \"address:\",this.addressToString(participantAddress)));\n                // _destinationAddresses.push(_addressToSend);\n                // distributor.sendToMany(chain, _addressToSend, _destinationAddresses, 'aUSDC', contractAddress.balance);\n                // string memory _addressToSend2 = bytes(_addressToSend);\n                address tokenAddress = gateway.tokenAddresses(\"aUSDC\");\n                uint256 contractAmount = IERC20(tokenAddress).balanceOf(contractAddress);\n                IERC20(tokenAddress).approve(address(gateway), contractAmount);\n                // gateway.sendToken(chain, toAsciiString(participantAddress), \"aUSDC\", amount);\n                gateway.sendToken(chain, this.addressToString(participantAddress), \"aUSDC\", contractAmount);\n            } else if (keccak256(symbolBytes) == keccak256(bytes(\"aUSDC\")) && keccak256(chainBytes) == keccak256(bytes(\"Moonbase\"))) {\n                // revert InvalidToken({\n                //     token: string.concat(\"we are in moonbase, participantAddress\",this.addressToString(participantAddress))\n                // });\n                emit Logs(address(contractAddress), string.concat(\"withdrawing \", symbol, \" to \", chain, \"address:\",this.addressToString(participantAddress)));\n                address tokenAddress = gateway.tokenAddresses(\"aUSDC\");\n                uint256 contractAmount = IERC20(tokenAddress).balanceOf(contractAddress);\n                IERC20(tokenAddress).approve(contractAddress, contractAmount);\n                IERC20(tokenAddress).transferFrom(contractAddress, participantAddress, contractAmount);\n                // IERC20(tokenAddress).approve(address(gateway), amount);\n            }\n            else{\n                revert RevertReason({\n                    message: \"invalid destination network or token\"\n                });\n            }\n        }\n        // msg.sender.transfer(address(this).balance);\n    }\n\n    function toAsciiString(address x) internal pure returns (string memory) {\n        bytes memory s = new bytes(40);\n        for (uint i = 0; i < 20; i++) {\n            bytes1 b = bytes1(uint8(uint(uint160(x)) / (2**(8*(19 - i)))));\n            bytes1 hi = bytes1(uint8(b) / 16);\n            bytes1 lo = bytes1(uint8(b) - 16 * uint8(hi));\n            s[2*i] = char(hi);\n            s[2*i+1] = char(lo);\n        }\n        return string(s);\n    }\n\n    function char(bytes1 b) internal pure returns (bytes1 c) {\n        if (uint8(b) < 10) return bytes1(uint8(b) + 0x30);\n        else return bytes1(uint8(b) + 0x57);\n    }\n\n\n    function jobParticipate(address _participantAddress) external {\n        bool existed = false;\n        if (Participants.length == 0) {\n            Participants.push(_participantAddress);\n        } else {\n            for (uint256 i = 0; i < Participants.length; i++) {\n                if (Participants[i] == _participantAddress) {\n                    existed = true;\n                }\n            }\n            if (!existed) {\n                Participants.push(_participantAddress);\n            }\n        }\n        // emit OneEventForAll2(contractAddress);\n    }\n\n    function jobStateChange(\n        address payable _participantAddress,\n        string memory _state\n    ) external {\n        if (keccak256(bytes(_state)) == keccak256(bytes(\"agreed\"))) {\n            jobState = \"agreed\";\n            participantAddress = _participantAddress;\n        } else if (keccak256(bytes(_state)) == keccak256(bytes(\"progress\"))) {\n            jobState = \"progress\";\n        } else if (keccak256(bytes(_state)) == keccak256(bytes(\"review\"))) {\n            jobState = \"review\";\n        } else if (keccak256(bytes(_state)) == keccak256(bytes(\"completed\"))) {\n            jobState = \"completed\";\n        } else if (keccak256(bytes(_state)) == keccak256(bytes(\"canceled\"))) {\n            jobState = \"canceled\";\n        }\n\n        // emit OneEventForAll2(contractAddress);\n    }\n\n    // function jobReview(address _participantAddress) external {\n    //     if (participantAddress == _participantAddress) {\n    //         jobState = \"review\";\n    //     }\n    // }\n\n    // function jobParticiantAgreed(address _participantAddress) external {\n    //     jobState = \"agreed\";\n    //     participantAddress = _participantAddress;\n\n    //     // for (uint256 i = 0; i < Participants.length; i++) {\n    //     //     if (Participants[i] == _participantAddress) {\n    //     //         jobState = \"agreed\";\n    //     //         participantAddress = _participantAddress;\n    //     //     }\n    //     // }\n    // }\n\n    // function jobInProgress() external {\n    //     jobState = \"progress\";\n    // }\n\n    // function jobCompleted() external {\n    //     jobState = \"completed\";\n    // }\n\n    // function jobCanceled() external {\n    //     jobState = \"canceled\";\n    // }\n\n    receive() external payable {}\n\n    // fallback () external payable    {\n\n    // }\n\n    // constructor(string memory _name, address _owner) {\n    //     name = _name;\n    //     owner = _owner;\n    // }\n}\n",
  "sourcePath": "/home/user/Documents/mainstream/devopsdao/contracts/Factory.sol",
  "compiler": {
    "name": "solc",
    "version": "0.8.17+commit.8df45f5f.Emscripten.clang"
  },
  "schemaVersion": "3.4.10",
  "updatedAt": "2022-09-22T17:35:15.037Z",
  "networkType": "ethereum",
  "devdoc": {
    "kind": "dev",
    "methods": {},
    "version": 1
  },
  "userdoc": {
    "kind": "user",
    "methods": {},
    "version": 1
  }
}