{
  "contractName": "Factory",
  "abi": [
    {
      "anonymous": false,
      "inputs": [
        {
          "indexed": false,
          "internalType": "address",
          "name": "jobAddress",
          "type": "address"
        },
        {
          "indexed": false,
          "internalType": "string",
          "name": "title",
          "type": "string"
        },
        {
          "indexed": false,
          "internalType": "string",
          "name": "description",
          "type": "string"
        }
      ],
      "name": "JobContractCreated",
      "type": "event"
    },
    {
      "anonymous": false,
      "inputs": [
        {
          "indexed": false,
          "internalType": "address",
          "name": "contractAdr",
          "type": "address"
        },
        {
          "indexed": false,
          "internalType": "uint256",
          "name": "index",
          "type": "uint256"
        }
      ],
      "name": "OneEventForAll",
      "type": "event"
    },
    {
      "inputs": [],
      "name": "countNew",
      "outputs": [
        {
          "internalType": "uint256",
          "name": "",
          "type": "uint256"
        }
      ],
      "stateMutability": "view",
      "type": "function"
    },
    {
      "inputs": [
        {
          "internalType": "uint256",
          "name": "",
          "type": "uint256"
        }
      ],
      "name": "jobArray",
      "outputs": [
        {
          "internalType": "contract Job",
          "name": "",
          "type": "address"
        }
      ],
      "stateMutability": "view",
      "type": "function"
    },
    {
      "inputs": [
        {
          "internalType": "string",
          "name": "_title",
          "type": "string"
        },
        {
          "internalType": "string",
          "name": "_description",
          "type": "string"
        }
      ],
      "name": "createJobContract",
      "outputs": [],
      "stateMutability": "payable",
      "type": "function"
    },
    {
      "inputs": [],
      "name": "allJobs",
      "outputs": [
        {
          "internalType": "contract Job[]",
          "name": "_jobs",
          "type": "address[]"
        }
      ],
      "stateMutability": "view",
      "type": "function"
    },
    {
      "inputs": [
        {
          "internalType": "contract Job",
          "name": "job",
          "type": "address"
        }
      ],
      "name": "jobParticipate",
      "outputs": [],
      "stateMutability": "nonpayable",
      "type": "function"
    },
    {
      "inputs": [
        {
          "internalType": "contract Job",
          "name": "job",
          "type": "address"
        },
        {
          "internalType": "address payable",
          "name": "_participantAddress",
          "type": "address"
        },
        {
          "internalType": "string",
          "name": "_state",
          "type": "string"
        }
      ],
      "name": "jobStateChange",
      "outputs": [],
      "stateMutability": "nonpayable",
      "type": "function"
    },
    {
      "inputs": [
        {
          "internalType": "contract Job",
          "name": "job",
          "type": "address"
        },
        {
          "internalType": "address payable",
          "name": "addressToSend",
          "type": "address"
        }
      ],
      "name": "transferToaddress",
      "outputs": [],
      "stateMutability": "payable",
      "type": "function"
    },
    {
      "inputs": [
        {
          "internalType": "contract Job",
          "name": "job",
          "type": "address"
        },
        {
          "internalType": "address payable",
          "name": "addressToSend",
          "type": "address"
        },
        {
          "internalType": "string",
          "name": "chain",
          "type": "string"
        }
      ],
      "name": "transferToaddressChain",
      "outputs": [],
      "stateMutability": "payable",
      "type": "function"
    },
    {
      "inputs": [
        {
          "internalType": "uint256",
          "name": "_classIndex",
          "type": "uint256"
        }
      ],
      "name": "getBalance",
      "outputs": [
        {
          "internalType": "uint256",
          "name": "",
          "type": "uint256"
        }
      ],
      "stateMutability": "view",
      "type": "function"
    },
    {
      "inputs": [
        {
          "internalType": "uint256",
          "name": "_classIndex",
          "type": "uint256"
        }
      ],
      "name": "getJobInfo",
      "outputs": [
        {
          "internalType": "string",
          "name": "",
          "type": "string"
        },
        {
          "internalType": "string",
          "name": "",
          "type": "string"
        },
        {
          "internalType": "address",
          "name": "",
          "type": "address"
        },
        {
          "internalType": "address",
          "name": "",
          "type": "address"
        },
        {
          "internalType": "address",
          "name": "",
          "type": "address"
        },
        {
          "internalType": "uint256",
          "name": "",
          "type": "uint256"
        },
        {
          "internalType": "uint256",
          "name": "",
          "type": "uint256"
        },
        {
          "internalType": "string",
          "name": "",
          "type": "string"
        },
        {
          "internalType": "address[]",
          "name": "",
          "type": "address[]"
        },
        {
          "internalType": "address",
          "name": "",
          "type": "address"
        }
      ],
      "stateMutability": "view",
      "type": "function"
    }
  ],
  "bytecode": "0x60806040526000600155600060025560006003556000600455600060055560006006556040518060400160405280600381526020017f6e65770000000000000000000000000000000000000000000000000000000000815250600790805190602001906200006f9291906200020a565b506040518060400160405280600681526020017f616772656564000000000000000000000000000000000000000000000000000081525060089080519060200190620000bd9291906200020a565b506040518060400160405280600881526020017f70726f6772657373000000000000000000000000000000000000000000000000815250600990805190602001906200010b9291906200020a565b506040518060400160405280600681526020017f7265766965770000000000000000000000000000000000000000000000000000815250600a9080519060200190620001599291906200020a565b506040518060400160405280600981526020017f636f6d706c657465640000000000000000000000000000000000000000000000815250600b9080519060200190620001a79291906200020a565b506040518060400160405280600881526020017f63616e63656c6564000000000000000000000000000000000000000000000000815250600c9080519060200190620001f59291906200020a565b503480156200020357600080fd5b506200031f565b8280546200021890620002e9565b90600052602060002090601f0160209004810192826200023c576000855562000288565b82601f106200025757805160ff191683800117855562000288565b8280016001018555821562000288579182015b82811115620002875782518255916020019190600101906200026a565b5b5090506200029791906200029b565b5090565b5b80821115620002b65760008160009055506001016200029c565b5090565b7f4e487b7100000000000000000000000000000000000000000000000000000000600052602260045260246000fd5b600060028204905060018216806200030257607f821691505b60208210811415620003195762000318620002ba565b5b50919050565b614bab806200032f6000396000f3fe6080604052600436106200009e5760003560e01c80638c7bf1a711620000615780638c7bf1a714620001a2578063a696ee0614620001e6578063c8d1b6aa1462000206578063d69a588e1462000236578063fcd3f1961462000266576200009e565b80631c80405114620000a35780631e01043914620000c3578063437a4f141462000107578063527ded4d14620001275780637f4497d81462000155575b600080fd5b620000c16004803603810190620000bb919062001034565b62000294565b005b348015620000d057600080fd5b50620000ef6004803603810190620000e99190620010f4565b62000449565b604051620000fe919062001137565b60405180910390f35b6200012560048036038101906200011f9190620011fe565b6200050a565b005b3480156200013457600080fd5b506200015360048036038101906200014d919062001245565b620006db565b005b3480156200016257600080fd5b506200018160048036038101906200017b9190620010f4565b620008af565b604051620001999a9998979695949392919062001446565b60405180910390f35b348015620001af57600080fd5b50620001ce6004803603810190620001c89190620010f4565b6200099d565b604051620001dd91906200157d565b60405180910390f35b620002046004803603810190620001fe919062001245565b620009dd565b005b3480156200021357600080fd5b506200021e62000bb1565b6040516200022d919062001668565b60405180910390f35b3480156200024357600080fd5b506200024e62000cda565b6040516200025d919062001137565b60405180910390f35b3480156200027357600080fd5b506200029260048036038101906200028c91906200168c565b62000ce0565b005b600034838360008054905033604051620002ae9062000eb0565b620002bd9493929190620016be565b6040518091039082f0905080158015620002db573d6000803e3d6000fd5b5090506000819080600181540180825580915050600190039060005260206000200160009091909190916101000a81548173ffffffffffffffffffffffffffffffffffffffff021916908373ffffffffffffffffffffffffffffffffffffffff16021790555060016000815480929190620003569062001748565b91905055507fdbd47b425a67d7853b85090bfc3053905bcb304828ec29c6c608e446d069b883818484604051620003909392919062001796565b60405180910390a17f9bae9a5cb21b2c8bcdab1612a93a658a295cc73028d28d9dc4555387605185b0818273ffffffffffffffffffffffffffffffffffffffff16632986c0e56040518163ffffffff1660e01b8152600401602060405180830381865afa15801562000406573d6000803e3d6000fd5b505050506040513d601f19601f820116820180604052508101906200042c9190620017f8565b6040516200043c9291906200182a565b60405180910390a1505050565b6000806000838154811062000463576200046262001857565b5b9060005260206000200160009054906101000a900473ffffffffffffffffffffffffffffffffffffffff1690508073ffffffffffffffffffffffffffffffffffffffff166312065fe06040518163ffffffff1660e01b8152600401602060405180830381865afa158015620004dc573d6000803e3d6000fd5b505050506040513d601f19601f82011682018060405250810190620005029190620017f8565b915050919050565b60008273ffffffffffffffffffffffffffffffffffffffff16632986c0e56040518163ffffffff1660e01b8152600401602060405180830381865afa15801562000558573d6000803e3d6000fd5b505050506040513d601f19601f820116820180604052508101906200057e9190620017f8565b8154811062000592576200059162001857565b5b9060005260206000200160009054906101000a900473ffffffffffffffffffffffffffffffffffffffff1673ffffffffffffffffffffffffffffffffffffffff16635ad8e8ae826040518263ffffffff1660e01b8152600401620005f7919062001897565b600060405180830381600087803b1580156200061257600080fd5b505af115801562000627573d6000803e3d6000fd5b505050507f9bae9a5cb21b2c8bcdab1612a93a658a295cc73028d28d9dc4555387605185b0828373ffffffffffffffffffffffffffffffffffffffff16632986c0e56040518163ffffffff1660e01b8152600401602060405180830381865afa15801562000699573d6000803e3d6000fd5b505050506040513d601f19601f82011682018060405250810190620006bf9190620017f8565b604051620006cf9291906200182a565b60405180910390a15050565b60008373ffffffffffffffffffffffffffffffffffffffff16632986c0e56040518163ffffffff1660e01b8152600401602060405180830381865afa15801562000729573d6000803e3d6000fd5b505050506040513d601f19601f820116820180604052508101906200074f9190620017f8565b8154811062000763576200076262001857565b5b9060005260206000200160009054906101000a900473ffffffffffffffffffffffffffffffffffffffff1673ffffffffffffffffffffffffffffffffffffffff1663e2395ad883836040518363ffffffff1660e01b8152600401620007ca929190620018b4565b600060405180830381600087803b158015620007e557600080fd5b505af1158015620007fa573d6000803e3d6000fd5b505050507f9bae9a5cb21b2c8bcdab1612a93a658a295cc73028d28d9dc4555387605185b0838473ffffffffffffffffffffffffffffffffffffffff16632986c0e56040518163ffffffff1660e01b8152600401602060405180830381865afa1580156200086c573d6000803e3d6000fd5b505050506040513d601f19601f82011682018060405250810190620008929190620017f8565b604051620008a29291906200182a565b60405180910390a1505050565b606080600080600080600060608060008060008c81548110620008d757620008d662001857565b5b9060005260206000200160009054906101000a900473ffffffffffffffffffffffffffffffffffffffff1690508073ffffffffffffffffffffffffffffffffffffffff1663dd28e14d6040518163ffffffff1660e01b8152600401600060405180830381865afa15801562000950573d6000803e3d6000fd5b505050506040513d6000823e3d601f19601f820116820180604052508101906200097b919062001a72565b9a509a509a509a509a509a509a509a509a509a50509193959799509193959799565b60008181548110620009ae57600080fd5b906000526020600020016000915054906101000a900473ffffffffffffffffffffffffffffffffffffffff1681565b60008373ffffffffffffffffffffffffffffffffffffffff16632986c0e56040518163ffffffff1660e01b8152600401602060405180830381865afa15801562000a2b573d6000803e3d6000fd5b505050506040513d601f19601f8201168201806040525081019062000a519190620017f8565b8154811062000a655762000a6462001857565b5b9060005260206000200160009054906101000a900473ffffffffffffffffffffffffffffffffffffffff1673ffffffffffffffffffffffffffffffffffffffff1663aa826f6a83836040518363ffffffff1660e01b815260040162000acc929190620018b4565b600060405180830381600087803b15801562000ae757600080fd5b505af115801562000afc573d6000803e3d6000fd5b505050507f9bae9a5cb21b2c8bcdab1612a93a658a295cc73028d28d9dc4555387605185b0838473ffffffffffffffffffffffffffffffffffffffff16632986c0e56040518163ffffffff1660e01b8152600401602060405180830381865afa15801562000b6e573d6000803e3d6000fd5b505050506040513d601f19601f8201168201806040525081019062000b949190620017f8565b60405162000ba49291906200182a565b60405180910390a1505050565b606060008054905067ffffffffffffffff81111562000bd55762000bd462000eed565b5b60405190808252806020026020018201604052801562000c045781602001602082028036833780820191505090505b509050600080600090505b60008054905081101562000cd5576000818154811062000c345762000c3362001857565b5b9060005260206000200160009054906101000a900473ffffffffffffffffffffffffffffffffffffffff1683838151811062000c755762000c7462001857565b5b602002602001019073ffffffffffffffffffffffffffffffffffffffff16908173ffffffffffffffffffffffffffffffffffffffff1681525050818062000cbc9062001748565b925050808062000ccc9062001748565b91505062000c0f565b505090565b60015481565b60008173ffffffffffffffffffffffffffffffffffffffff16632986c0e56040518163ffffffff1660e01b8152600401602060405180830381865afa15801562000d2e573d6000803e3d6000fd5b505050506040513d601f19601f8201168201806040525081019062000d549190620017f8565b8154811062000d685762000d6762001857565b5b9060005260206000200160009054906101000a900473ffffffffffffffffffffffffffffffffffffffff1673ffffffffffffffffffffffffffffffffffffffff1663fcd3f196336040518263ffffffff1660e01b815260040162000dcd919062001be4565b600060405180830381600087803b15801562000de857600080fd5b505af115801562000dfd573d6000803e3d6000fd5b505050507f9bae9a5cb21b2c8bcdab1612a93a658a295cc73028d28d9dc4555387605185b0818273ffffffffffffffffffffffffffffffffffffffff16632986c0e56040518163ffffffff1660e01b8152600401602060405180830381865afa15801562000e6f573d6000803e3d6000fd5b505050506040513d601f19601f8201168201806040525081019062000e959190620017f8565b60405162000ea59291906200182a565b60405180910390a150565b612f748062001c0283390190565b6000604051905090565b600080fd5b600080fd5b600080fd5b600080fd5b6000601f19601f8301169050919050565b7f4e487b7100000000000000000000000000000000000000000000000000000000600052604160045260246000fd5b62000f278262000edc565b810181811067ffffffffffffffff8211171562000f495762000f4862000eed565b5b80604052505050565b600062000f5e62000ebe565b905062000f6c828262000f1c565b919050565b600067ffffffffffffffff82111562000f8f5762000f8e62000eed565b5b62000f9a8262000edc565b9050602081019050919050565b82818337600083830152505050565b600062000fcd62000fc78462000f71565b62000f52565b90508281526020810184848401111562000fec5762000feb62000ed7565b5b62000ff984828562000fa7565b509392505050565b600082601f83011262001019576200101862000ed2565b5b81356200102b84826020860162000fb6565b91505092915050565b600080604083850312156200104e576200104d62000ec8565b5b600083013567ffffffffffffffff8111156200106f576200106e62000ecd565b5b6200107d8582860162001001565b925050602083013567ffffffffffffffff811115620010a157620010a062000ecd565b5b620010af8582860162001001565b9150509250929050565b6000819050919050565b620010ce81620010b9565b8114620010da57600080fd5b50565b600081359050620010ee81620010c3565b92915050565b6000602082840312156200110d576200110c62000ec8565b5b60006200111d84828501620010dd565b91505092915050565b6200113181620010b9565b82525050565b60006020820190506200114e600083018462001126565b92915050565b600073ffffffffffffffffffffffffffffffffffffffff82169050919050565b6000620011818262001154565b9050919050565b6000620011958262001174565b9050919050565b620011a78162001188565b8114620011b357600080fd5b50565b600081359050620011c7816200119c565b92915050565b620011d88162001174565b8114620011e457600080fd5b50565b600081359050620011f881620011cd565b92915050565b6000806040838503121562001218576200121762000ec8565b5b60006200122885828601620011b6565b92505060206200123b85828601620011e7565b9150509250929050565b60008060006060848603121562001261576200126062000ec8565b5b60006200127186828701620011b6565b93505060206200128486828701620011e7565b925050604084013567ffffffffffffffff811115620012a857620012a762000ecd565b5b620012b68682870162001001565b9150509250925092565b600081519050919050565b600082825260208201905092915050565b60005b83811015620012fc578082015181840152602081019050620012df565b838111156200130c576000848401525b50505050565b60006200131f82620012c0565b6200132b8185620012cb565b93506200133d818560208601620012dc565b620013488162000edc565b840191505092915050565b6000620013608262001154565b9050919050565b620013728162001353565b82525050565b600081519050919050565b600082825260208201905092915050565b6000819050602082019050919050565b620013af8162001353565b82525050565b6000620013c38383620013a4565b60208301905092915050565b6000602082019050919050565b6000620013e98262001378565b620013f5818562001383565b9350620014028362001394565b8060005b83811015620014395781516200141d8882620013b5565b97506200142a83620013cf565b92505060018101905062001406565b5085935050505092915050565b600061014082019050818103600083015262001463818d62001312565b9050818103602083015262001479818c62001312565b90506200148a604083018b62001367565b62001499606083018a62001367565b620014a8608083018962001367565b620014b760a083018862001126565b620014c660c083018762001126565b81810360e0830152620014da818662001312565b9050818103610100830152620014f18185620013dc565b90506200150361012083018462001367565b9b9a5050505050505050505050565b6000819050919050565b60006200153d62001537620015318462001154565b62001512565b62001154565b9050919050565b600062001551826200151c565b9050919050565b6000620015658262001544565b9050919050565b620015778162001558565b82525050565b60006020820190506200159460008301846200156c565b92915050565b600081519050919050565b600082825260208201905092915050565b6000819050602082019050919050565b620015d18162001558565b82525050565b6000620015e58383620015c6565b60208301905092915050565b6000602082019050919050565b60006200160b826200159a565b620016178185620015a5565b93506200162483620015b6565b8060005b838110156200165b5781516200163f8882620015d7565b97506200164c83620015f1565b92505060018101905062001628565b5085935050505092915050565b60006020820190508181036000830152620016848184620015fe565b905092915050565b600060208284031215620016a557620016a462000ec8565b5b6000620016b584828501620011b6565b91505092915050565b60006080820190508181036000830152620016da818762001312565b90508181036020830152620016f0818662001312565b905062001701604083018562001126565b62001710606083018462001367565b95945050505050565b7f4e487b7100000000000000000000000000000000000000000000000000000000600052601160045260246000fd5b60006200175582620010b9565b91507fffffffffffffffffffffffffffffffffffffffffffffffffffffffffffffffff8214156200178b576200178a62001719565b5b600182019050919050565b6000606082019050620017ad600083018662001367565b8181036020830152620017c1818562001312565b90508181036040830152620017d7818462001312565b9050949350505050565b600081519050620017f281620010c3565b92915050565b60006020828403121562001811576200181062000ec8565b5b60006200182184828501620017e1565b91505092915050565b600060408201905062001841600083018562001367565b62001850602083018462001126565b9392505050565b7f4e487b7100000000000000000000000000000000000000000000000000000000600052603260045260246000fd5b620018918162001174565b82525050565b6000602082019050620018ae600083018462001886565b92915050565b6000604082019050620018cb600083018562001886565b8181036020830152620018df818462001312565b90509392505050565b6000620018ff620018f98462000f71565b62000f52565b9050828152602081018484840111156200191e576200191d62000ed7565b5b6200192b848285620012dc565b509392505050565b600082601f8301126200194b576200194a62000ed2565b5b81516200195d848260208601620018e8565b91505092915050565b620019718162001353565b81146200197d57600080fd5b50565b600081519050620019918162001966565b92915050565b600067ffffffffffffffff821115620019b557620019b462000eed565b5b602082029050602081019050919050565b600080fd5b6000620019e2620019dc8462001997565b62000f52565b9050808382526020820190506020840283018581111562001a085762001a07620019c6565b5b835b8181101562001a35578062001a20888262001980565b84526020840193505060208101905062001a0a565b5050509392505050565b600082601f83011262001a575762001a5662000ed2565b5b815162001a69848260208601620019cb565b91505092915050565b6000806000806000806000806000806101408b8d03121562001a995762001a9862000ec8565b5b60008b015167ffffffffffffffff81111562001aba5762001ab962000ecd565b5b62001ac88d828e0162001933565b9a505060208b015167ffffffffffffffff81111562001aec5762001aeb62000ecd565b5b62001afa8d828e0162001933565b995050604062001b0d8d828e0162001980565b985050606062001b208d828e0162001980565b975050608062001b338d828e0162001980565b96505060a062001b468d828e01620017e1565b95505060c062001b598d828e01620017e1565b94505060e08b015167ffffffffffffffff81111562001b7d5762001b7c62000ecd565b5b62001b8b8d828e0162001933565b9350506101008b015167ffffffffffffffff81111562001bb05762001baf62000ecd565b5b62001bbe8d828e0162001a3f565b92505061012062001bd28d828e0162001980565b9150509295989b9194979a5092959850565b600060208201905062001bfb600083018462001367565b9291505056fe60c060405260405162002f7438038062002f748339818101604052810190620000299190620004f3565b8073ffffffffffffffffffffffffffffffffffffffff1660808173ffffffffffffffffffffffffffffffffffffffff168152505083600190805190602001906200007592919062000206565b506040518060400160405280600381526020017f6e6577000000000000000000000000000000000000000000000000000000000081525060039080519060200190620000c392919062000206565b5030600860006101000a81548173ffffffffffffffffffffffffffffffffffffffff021916908373ffffffffffffffffffffffffffffffffffffffff16021790555033600760006101000a81548173ffffffffffffffffffffffffffffffffffffffff021916908373ffffffffffffffffffffffffffffffffffffffff16021790555080600960006101000a81548173ffffffffffffffffffffffffffffffffffffffff021916908373ffffffffffffffffffffffffffffffffffffffff16021790555042600b81905550816004819055508260029080519060200190620001ad92919062000206565b506000735769d84dd62a6fd969856c75c7d321b84d45592990508073ffffffffffffffffffffffffffffffffffffffff1660a08173ffffffffffffffffffffffffffffffffffffffff1681525050505050505062000608565b8280546200021490620005d2565b90600052602060002090601f01602090048101928262000238576000855562000284565b82601f106200025357805160ff191683800117855562000284565b8280016001018555821562000284579182015b828111156200028357825182559160200191906001019062000266565b5b50905062000293919062000297565b5090565b5b80821115620002b257600081600090555060010162000298565b5090565b6000604051905090565b600080fd5b600080fd5b600080fd5b600080fd5b6000601f19601f8301169050919050565b7f4e487b7100000000000000000000000000000000000000000000000000000000600052604160045260246000fd5b6200031f82620002d4565b810181811067ffffffffffffffff82111715620003415762000340620002e5565b5b80604052505050565b600062000356620002b6565b905062000364828262000314565b919050565b600067ffffffffffffffff821115620003875762000386620002e5565b5b6200039282620002d4565b9050602081019050919050565b60005b83811015620003bf578082015181840152602081019050620003a2565b83811115620003cf576000848401525b50505050565b6000620003ec620003e68462000369565b6200034a565b9050828152602081018484840111156200040b576200040a620002cf565b5b620004188482856200039f565b509392505050565b600082601f830112620004385762000437620002ca565b5b81516200044a848260208601620003d5565b91505092915050565b6000819050919050565b620004688162000453565b81146200047457600080fd5b50565b60008151905062000488816200045d565b92915050565b600073ffffffffffffffffffffffffffffffffffffffff82169050919050565b6000620004bb826200048e565b9050919050565b620004cd81620004ae565b8114620004d957600080fd5b50565b600081519050620004ed81620004c2565b92915050565b6000806000806080858703121562000510576200050f620002c0565b5b600085015167ffffffffffffffff811115620005315762000530620002c5565b5b6200053f8782880162000420565b945050602085015167ffffffffffffffff811115620005635762000562620002c5565b5b620005718782880162000420565b9350506040620005848782880162000477565b92505060606200059787828801620004dc565b91505092959194509250565b7f4e487b7100000000000000000000000000000000000000000000000000000000600052602260045260246000fd5b60006002820490506001821680620005eb57607f821691505b60208210811415620006025762000601620005a3565b5b50919050565b60805160a0516129386200063c600039600081816106a60152610814015260008181610ead0152610fbd01526129386000f3fe6080604052600436106101435760003560e01c80637284e416116100b6578063bfe109281161006f578063bfe109281461040d578063ce606ee014610438578063dd28e14d14610463578063e2395ad814610497578063f6b4dfb4146104c0578063fcd3f196146104eb5761014a565b80637284e4161461031c578063853828b61461034757806398cfc1a61461035e578063a035b1fe14610389578063aa826f6a146103b4578063bed5572f146103d05761014a565b80632986c0e5116101085780632986c0e5146102295780634327a9f4146102545780634a79d50c1461027f57806359ff6ba8146102aa5780635ad8e8ae146102d557806361dcd7ab146102f15761014a565b8062bc30f91461014f57806305747a1f1461016b57806306fdde03146101a8578063116191b6146101d357806312065fe0146101fe5761014a565b3661014a57005b600080fd5b61016960048036038101906101649190611c55565b610514565b005b34801561017757600080fd5b50610192600480360381019061018d9190611ce7565b610745565b60405161019f9190611d35565b60405180910390f35b3480156101b457600080fd5b506101bd610784565b6040516101ca9190611dd8565b60405180910390f35b3480156101df57600080fd5b506101e8610812565b6040516101f59190611e59565b60405180910390f35b34801561020a57600080fd5b50610213610836565b6040516102209190611e83565b60405180910390f35b34801561023557600080fd5b5061023e610877565b60405161024b9190611e83565b60405180910390f35b34801561026057600080fd5b5061026961087d565b6040516102769190611d35565b60405180910390f35b34801561028b57600080fd5b506102946108a3565b6040516102a19190611dd8565b60405180910390f35b3480156102b657600080fd5b506102bf610931565b6040516102cc9190611ead565b60405180910390f35b6102ef60048036038101906102ea9190611ec8565b610957565b005b3480156102fd57600080fd5b50610306610b8e565b6040516103139190611e83565b60405180910390f35b34801561032857600080fd5b50610331610b94565b60405161033e9190611dd8565b60405180910390f35b34801561035357600080fd5b5061035c610c22565b005b34801561036a57600080fd5b50610373610c24565b6040516103809190611dd8565b60405180910390f35b34801561039557600080fd5b5061039e610cb2565b6040516103ab9190611e83565b60405180910390f35b6103ce60048036038101906103c99190611c55565b610cb8565b005b3480156103dc57600080fd5b506103f760048036038101906103f29190611ce7565b610f7c565b6040516104049190611d35565b60405180910390f35b34801561041957600080fd5b50610422610fbb565b60405161042f9190611f16565b60405180910390f35b34801561044457600080fd5b5061044d610fdf565b60405161045a9190611d35565b60405180910390f35b34801561046f57600080fd5b50610478611005565b60405161048e9a99989796959493929190611fef565b60405180910390f35b3480156104a357600080fd5b506104be60048036038101906104b99190611c55565b6112fb565b005b3480156104cc57600080fd5b506104d561164c565b6040516104e29190611d35565b60405180910390f35b3480156104f757600080fd5b50610512600480360381019061050d91906120d3565b611672565b005b6040518060400160405280600881526020017f63616e63656c65640000000000000000000000000000000000000000000000008152508051906020012060036040516105609190612200565b6040518091039020141561064a57600960009054906101000a900473ffffffffffffffffffffffffffffffffffffffff1673ffffffffffffffffffffffffffffffffffffffff168273ffffffffffffffffffffffffffffffffffffffff161415610645578173ffffffffffffffffffffffffffffffffffffffff166108fc600860009054906101000a900473ffffffffffffffffffffffffffffffffffffffff1673ffffffffffffffffffffffffffffffffffffffff16319081150290604051600060405180830381858888f19350505050158015610643573d6000803e3d6000fd5b505b610741565b6040518060400160405280600981526020017f636f6d706c6574656400000000000000000000000000000000000000000000008152508051906020012060036040516106969190612200565b60405180910390201415610740577f000000000000000000000000000000000000000000000000000000000000000073ffffffffffffffffffffffffffffffffffffffff166326ef699d826106ea856117f1565b6305f5e1006040518463ffffffff1660e01b815260040161070d9392919061229e565b600060405180830381600087803b15801561072757600080fd5b505af115801561073b573d6000803e3d6000fd5b505050505b5b5050565b6000818154811061075557600080fd5b906000526020600020016000915054906101000a900473ffffffffffffffffffffffffffffffffffffffff1681565b600580546107919061212f565b80601f01602080910402602001604051908101604052809291908181526020018280546107bd9061212f565b801561080a5780601f106107df5761010080835404028352916020019161080a565b820191906000526020600020905b8154815290600101906020018083116107ed57829003601f168201915b505050505081565b7f000000000000000000000000000000000000000000000000000000000000000081565b6000600860009054906101000a900473ffffffffffffffffffffffffffffffffffffffff1673ffffffffffffffffffffffffffffffffffffffff1631905090565b60045481565b600760009054906101000a900473ffffffffffffffffffffffffffffffffffffffff1681565b600180546108b09061212f565b80601f01602080910402602001604051908101604052809291908181526020018280546108dc9061212f565b80156109295780601f106108fe57610100808354040283529160200191610929565b820191906000526020600020905b81548152906001019060200180831161090c57829003601f168201915b505050505081565b600a60009054906101000a900473ffffffffffffffffffffffffffffffffffffffff1681565b6040518060400160405280600881526020017f63616e63656c65640000000000000000000000000000000000000000000000008152508051906020012060036040516109a39190612200565b60405180910390201415610a8d57600960009054906101000a900473ffffffffffffffffffffffffffffffffffffffff1673ffffffffffffffffffffffffffffffffffffffff168173ffffffffffffffffffffffffffffffffffffffff161415610a88578073ffffffffffffffffffffffffffffffffffffffff166108fc600860009054906101000a900473ffffffffffffffffffffffffffffffffffffffff1673ffffffffffffffffffffffffffffffffffffffff16319081150290604051600060405180830381858888f19350505050158015610a86573d6000803e3d6000fd5b505b610b8b565b6040518060400160405280600981526020017f636f6d706c657465640000000000000000000000000000000000000000000000815250805190602001206003604051610ad99190612200565b60405180910390201415610b8a57600a60009054906101000a900473ffffffffffffffffffffffffffffffffffffffff1673ffffffffffffffffffffffffffffffffffffffff166108fc600860009054906101000a900473ffffffffffffffffffffffffffffffffffffffff1673ffffffffffffffffffffffffffffffffffffffff16319081150290604051600060405180830381858888f19350505050158015610b88573d6000803e3d6000fd5b505b5b50565b600b5481565b60028054610ba19061212f565b80601f0160208091040260200160405190810160405280929190818152602001828054610bcd9061212f565b8015610c1a5780601f10610bef57610100808354040283529160200191610c1a565b820191906000526020600020905b815481529060010190602001808311610bfd57829003601f168201915b505050505081565b565b60038054610c319061212f565b80601f0160208091040260200160405190810160405280929190818152602001828054610c5d9061212f565b8015610caa5780601f10610c7f57610100808354040283529160200191610caa565b820191906000526020600020905b815481529060010190602001808311610c8d57829003601f168201915b505050505081565b60065481565b6040518060400160405280600881526020017f63616e63656c6564000000000000000000000000000000000000000000000000815250805190602001206003604051610d049190612200565b60405180910390201415610dee57600960009054906101000a900473ffffffffffffffffffffffffffffffffffffffff1673ffffffffffffffffffffffffffffffffffffffff168273ffffffffffffffffffffffffffffffffffffffff161415610de9578173ffffffffffffffffffffffffffffffffffffffff166108fc600860009054906101000a900473ffffffffffffffffffffffffffffffffffffffff1673ffffffffffffffffffffffffffffffffffffffff16319081150290604051600060405180830381858888f19350505050158015610de7573d6000803e3d6000fd5b505b610f78565b6040518060400160405280600981526020017f636f6d706c657465640000000000000000000000000000000000000000000000815250805190602001206003604051610e3a9190612200565b60405180910390201415610f7757600c829080600181540180825580915050600190039060005260206000200160009091909190916101000a81548173ffffffffffffffffffffffffffffffffffffffff021916908373ffffffffffffffffffffffffffffffffffffffff1602179055507f000000000000000000000000000000000000000000000000000000000000000073ffffffffffffffffffffffffffffffffffffffff1663bd97f0078284600c600860009054906101000a900473ffffffffffffffffffffffffffffffffffffffff1673ffffffffffffffffffffffffffffffffffffffff16316040518563ffffffff1660e01b8152600401610f44949392919061244f565b600060405180830381600087803b158015610f5e57600080fd5b505af1158015610f72573d6000803e3d6000fd5b505050505b5b5050565b600c8181548110610f8c57600080fd5b906000526020600020016000915054906101000a900473ffffffffffffffffffffffffffffffffffffffff1681565b7f000000000000000000000000000000000000000000000000000000000000000081565b600960009054906101000a900473ffffffffffffffffffffffffffffffffffffffff1681565b6060806000806000806000606080600060016003600860009054906101000a900473ffffffffffffffffffffffffffffffffffffffff16600760009054906101000a900473ffffffffffffffffffffffffffffffffffffffff16600960009054906101000a900473ffffffffffffffffffffffffffffffffffffffff16600b5460045460026000600a60009054906101000a900473ffffffffffffffffffffffffffffffffffffffff168980546110bb9061212f565b80601f01602080910402602001604051908101604052809291908181526020018280546110e79061212f565b80156111345780601f1061110957610100808354040283529160200191611134565b820191906000526020600020905b81548152906001019060200180831161111757829003601f168201915b505050505099508880546111479061212f565b80601f01602080910402602001604051908101604052809291908181526020018280546111739061212f565b80156111c05780601f10611195576101008083540402835291602001916111c0565b820191906000526020600020905b8154815290600101906020018083116111a357829003601f168201915b505050505098508280546111d39061212f565b80601f01602080910402602001604051908101604052809291908181526020018280546111ff9061212f565b801561124c5780601f106112215761010080835404028352916020019161124c565b820191906000526020600020905b81548152906001019060200180831161122f57829003601f168201915b50505050509250818054806020026020016040519081016040528092919081815260200182805480156112d457602002820191906000526020600020905b8160009054906101000a900473ffffffffffffffffffffffffffffffffffffffff1673ffffffffffffffffffffffffffffffffffffffff168152602001906001019080831161128a575b50505050509150995099509950995099509950995099509950995090919293949596979899565b6040518060400160405280600681526020017f616772656564000000000000000000000000000000000000000000000000000081525080519060200120818051906020012014156113d8576040518060400160405280600681526020017f6167726565640000000000000000000000000000000000000000000000000000815250600390805190602001906113919291906119fa565b5081600a60006101000a81548173ffffffffffffffffffffffffffffffffffffffff021916908373ffffffffffffffffffffffffffffffffffffffff160217905550611648565b6040518060400160405280600881526020017f70726f67726573730000000000000000000000000000000000000000000000008152508051906020012081805190602001201415611474576040518060400160405280600881526020017f70726f67726573730000000000000000000000000000000000000000000000008152506003908051906020019061146e9291906119fa565b50611647565b6040518060400160405280600681526020017f72657669657700000000000000000000000000000000000000000000000000008152508051906020012081805190602001201415611510576040518060400160405280600681526020017f72657669657700000000000000000000000000000000000000000000000000008152506003908051906020019061150a9291906119fa565b50611646565b6040518060400160405280600981526020017f636f6d706c65746564000000000000000000000000000000000000000000000081525080519060200120818051906020012014156115ac576040518060400160405280600981526020017f636f6d706c657465640000000000000000000000000000000000000000000000815250600390805190602001906115a69291906119fa565b50611645565b6040518060400160405280600881526020017f63616e63656c65640000000000000000000000000000000000000000000000008152508051906020012081805190602001201415611644576040518060400160405280600881526020017f63616e63656c6564000000000000000000000000000000000000000000000000815250600390805190602001906116429291906119fa565b505b5b5b5b5b5050565b600860009054906101000a900473ffffffffffffffffffffffffffffffffffffffff1681565b600080808054905014156116e8576000829080600181540180825580915050600190039060005260206000200160009091909190916101000a81548173ffffffffffffffffffffffffffffffffffffffff021916908373ffffffffffffffffffffffffffffffffffffffff1602179055506117ed565b60005b600080549050811015611782578273ffffffffffffffffffffffffffffffffffffffff1660008281548110611723576117226124b5565b5b9060005260206000200160009054906101000a900473ffffffffffffffffffffffffffffffffffffffff1673ffffffffffffffffffffffffffffffffffffffff16141561176f57600191505b808061177a90612513565b9150506116eb565b50806117ec576000829080600181540180825580915050600190039060005260206000200160009091909190916101000a81548173ffffffffffffffffffffffffffffffffffffffff021916908373ffffffffffffffffffffffffffffffffffffffff1602179055505b5b5050565b60606000602867ffffffffffffffff8111156118105761180f611b2a565b5b6040519080825280601f01601f1916602001820160405280156118425781602001600182028036833780820191505090505b50905060005b60148110156119aa576000816013611860919061255c565b600861186c9190612590565b6002611878919061271d565b8573ffffffffffffffffffffffffffffffffffffffff166118999190612797565b60f81b9050600060108260f81c6118b091906127d5565b60f81b905060008160f81c60106118c79190612806565b8360f81c6118d59190612841565b60f81b90506118e3826119b4565b858560026118f19190612590565b81518110611902576119016124b5565b5b60200101907effffffffffffffffffffffffffffffffffffffffffffffffffffffffffffff1916908160001a90535061193a816119b4565b85600186600261194a9190612590565b6119549190612875565b81518110611965576119646124b5565b5b60200101907effffffffffffffffffffffffffffffffffffffffffffffffffffffffffffff1916908160001a90535050505080806119a290612513565b915050611848565b5080915050919050565b6000600a8260f81c60ff1610156119df5760308260f81c6119d591906128cb565b60f81b90506119f5565b60578260f81c6119ef91906128cb565b60f81b90505b919050565b828054611a069061212f565b90600052602060002090601f016020900481019282611a285760008555611a6f565b82601f10611a4157805160ff1916838001178555611a6f565b82800160010185558215611a6f579182015b82811115611a6e578251825591602001919060010190611a53565b5b509050611a7c9190611a80565b5090565b5b80821115611a99576000816000905550600101611a81565b5090565b6000604051905090565b600080fd5b600080fd5b600073ffffffffffffffffffffffffffffffffffffffff82169050919050565b6000611adc82611ab1565b9050919050565b611aec81611ad1565b8114611af757600080fd5b50565b600081359050611b0981611ae3565b92915050565b600080fd5b600080fd5b6000601f19601f8301169050919050565b7f4e487b7100000000000000000000000000000000000000000000000000000000600052604160045260246000fd5b611b6282611b19565b810181811067ffffffffffffffff82111715611b8157611b80611b2a565b5b80604052505050565b6000611b94611a9d565b9050611ba08282611b59565b919050565b600067ffffffffffffffff821115611bc057611bbf611b2a565b5b611bc982611b19565b9050602081019050919050565b82818337600083830152505050565b6000611bf8611bf384611ba5565b611b8a565b905082815260208101848484011115611c1457611c13611b14565b5b611c1f848285611bd6565b509392505050565b600082601f830112611c3c57611c3b611b0f565b5b8135611c4c848260208601611be5565b91505092915050565b60008060408385031215611c6c57611c6b611aa7565b5b6000611c7a85828601611afa565b925050602083013567ffffffffffffffff811115611c9b57611c9a611aac565b5b611ca785828601611c27565b9150509250929050565b6000819050919050565b611cc481611cb1565b8114611ccf57600080fd5b50565b600081359050611ce181611cbb565b92915050565b600060208284031215611cfd57611cfc611aa7565b5b6000611d0b84828501611cd2565b91505092915050565b6000611d1f82611ab1565b9050919050565b611d2f81611d14565b82525050565b6000602082019050611d4a6000830184611d26565b92915050565b600081519050919050565b600082825260208201905092915050565b60005b83811015611d8a578082015181840152602081019050611d6f565b83811115611d99576000848401525b50505050565b6000611daa82611d50565b611db48185611d5b565b9350611dc4818560208601611d6c565b611dcd81611b19565b840191505092915050565b60006020820190508181036000830152611df28184611d9f565b905092915050565b6000819050919050565b6000611e1f611e1a611e1584611ab1565b611dfa565b611ab1565b9050919050565b6000611e3182611e04565b9050919050565b6000611e4382611e26565b9050919050565b611e5381611e38565b82525050565b6000602082019050611e6e6000830184611e4a565b92915050565b611e7d81611cb1565b82525050565b6000602082019050611e986000830184611e74565b92915050565b611ea781611ad1565b82525050565b6000602082019050611ec26000830184611e9e565b92915050565b600060208284031215611ede57611edd611aa7565b5b6000611eec84828501611afa565b91505092915050565b6000611f0082611e26565b9050919050565b611f1081611ef5565b82525050565b6000602082019050611f2b6000830184611f07565b92915050565b600081519050919050565b600082825260208201905092915050565b6000819050602082019050919050565b611f6681611d14565b82525050565b6000611f788383611f5d565b60208301905092915050565b6000602082019050919050565b6000611f9c82611f31565b611fa68185611f3c565b9350611fb183611f4d565b8060005b83811015611fe2578151611fc98882611f6c565b9750611fd483611f84565b925050600181019050611fb5565b5085935050505092915050565b600061014082019050818103600083015261200a818d611d9f565b9050818103602083015261201e818c611d9f565b905061202d604083018b611d26565b61203a606083018a611d26565b6120476080830189611d26565b61205460a0830188611e74565b61206160c0830187611e74565b81810360e08301526120738186611d9f565b90508181036101008301526120888185611f91565b9050612098610120830184611d26565b9b9a5050505050505050505050565b6120b081611d14565b81146120bb57600080fd5b50565b6000813590506120cd816120a7565b92915050565b6000602082840312156120e9576120e8611aa7565b5b60006120f7848285016120be565b91505092915050565b7f4e487b7100000000000000000000000000000000000000000000000000000000600052602260045260246000fd5b6000600282049050600182168061214757607f821691505b6020821081141561215b5761215a612100565b5b50919050565b600081905092915050565b60008190508160005260206000209050919050565b6000815461218e8161212f565b6121988186612161565b945060018216600081146121b357600181146121c4576121f7565b60ff198316865281860193506121f7565b6121cd8561216c565b60005b838110156121ef578154818901526001820191506020810190506121d0565b838801955050505b50505092915050565b600061220c8284612181565b915081905092915050565b7f4445560000000000000000000000000000000000000000000000000000000000600082015250565b600061224d600383611d5b565b915061225882612217565b602082019050919050565b6000819050919050565b600061228861228361227e84612263565b611dfa565b611cb1565b9050919050565b6122988161226d565b82525050565b600060808201905081810360008301526122b88186611d9f565b905081810360208301526122cc8185611d9f565b905081810360408301526122df81612240565b90506122ee606083018461228f565b949350505050565b600061230182611e26565b9050919050565b612311816122f6565b82525050565b600081549050919050565b60008190508160005260206000209050919050565b60008160001c9050919050565b600073ffffffffffffffffffffffffffffffffffffffff82169050919050565b600061237761237283612337565b612344565b9050919050565b600061238a8254612364565b9050919050565b6000600182019050919050565b60006123a982612317565b6123b38185611f3c565b93506123be83612322565b8060005b838110156123f6576123d38261237e565b6123dd8882611f6c565b97506123e883612391565b9250506001810190506123c2565b5085935050505092915050565b7f6155534443000000000000000000000000000000000000000000000000000000600082015250565b6000612439600583611d5b565b915061244482612403565b602082019050919050565b600060a08201905081810360008301526124698187611d9f565b90506124786020830186612308565b818103604083015261248a818561239e565b9050818103606083015261249d8161242c565b90506124ac6080830184611e74565b95945050505050565b7f4e487b7100000000000000000000000000000000000000000000000000000000600052603260045260246000fd5b7f4e487b7100000000000000000000000000000000000000000000000000000000600052601160045260246000fd5b600061251e82611cb1565b91507fffffffffffffffffffffffffffffffffffffffffffffffffffffffffffffffff821415612551576125506124e4565b5b600182019050919050565b600061256782611cb1565b915061257283611cb1565b925082821015612585576125846124e4565b5b828203905092915050565b600061259b82611cb1565b91506125a683611cb1565b9250817fffffffffffffffffffffffffffffffffffffffffffffffffffffffffffffffff04831182151516156125df576125de6124e4565b5b828202905092915050565b60008160011c9050919050565b6000808291508390505b60018511156126415780860481111561261d5761261c6124e4565b5b600185161561262c5780820291505b808102905061263a856125ea565b9450612601565b94509492505050565b60008261265a5760019050612716565b816126685760009050612716565b816001811461267e5760028114612688576126b7565b6001915050612716565b60ff84111561269a576126996124e4565b5b8360020a9150848211156126b1576126b06124e4565b5b50612716565b5060208310610133831016604e8410600b84101617156126ec5782820a9050838111156126e7576126e66124e4565b5b612716565b6126f984848460016125f7565b925090508184048111156127105761270f6124e4565b5b81810290505b9392505050565b600061272882611cb1565b915061273383611cb1565b92506127607fffffffffffffffffffffffffffffffffffffffffffffffffffffffffffffffff848461264a565b905092915050565b7f4e487b7100000000000000000000000000000000000000000000000000000000600052601260045260246000fd5b60006127a282611cb1565b91506127ad83611cb1565b9250826127bd576127bc612768565b5b828204905092915050565b600060ff82169050919050565b60006127e0826127c8565b91506127eb836127c8565b9250826127fb576127fa612768565b5b828204905092915050565b6000612811826127c8565b915061281c836127c8565b92508160ff0483118215151615612836576128356124e4565b5b828202905092915050565b600061284c826127c8565b9150612857836127c8565b92508282101561286a576128696124e4565b5b828203905092915050565b600061288082611cb1565b915061288b83611cb1565b9250827fffffffffffffffffffffffffffffffffffffffffffffffffffffffffffffffff038211156128c0576128bf6124e4565b5b828201905092915050565b60006128d6826127c8565b91506128e1836127c8565b92508260ff038211156128f7576128f66124e4565b5b82820190509291505056fea2646970667358221220d49fd1740100dc5d99e07650d1323187905d02acf9583caf6b9b4c7a6709a3a664736f6c634300080c0033a2646970667358221220e57a4fde1cf1fd1b3bad1f2f40766449610888202478b2d88d7f32116059400064736f6c634300080c0033",
  "immutableReferences": {},
  "source": "// SPDX-License-Identifier: MIT\npragma solidity ^0.8.12;\n\nimport { IDistributionExecutable } from './IDistributionExecutable.sol';\n\n\nimport { AxelarExecutable } from '@axelar-network/axelar-gmp-sdk-solidity/contracts/executables/AxelarExecutable.sol';\nimport { IAxelarGateway } from '@axelar-network/axelar-gmp-sdk-solidity/contracts/interfaces/IAxelarGateway.sol';\nimport { IERC20 } from '@axelar-network/axelar-gmp-sdk-solidity/contracts/interfaces/IERC20.sol';\nimport { IAxelarGasService } from '@axelar-network/axelar-gmp-sdk-solidity/contracts/interfaces/IAxelarGasService.sol';\n\ncontract Factory {\n    \n\n    Job[] public jobArray;\n    // address contractOwner;\n    uint256 public countNew = 0;\n    uint256 countAgreed = 0;\n    uint256 countProgress = 0;\n    uint256 countReview = 0;\n    uint256 countCompleted = 0;\n    uint256 countCanceled = 0;\n    string stateNew = \"new\";\n    string stateAgreed = \"agreed\";\n    string stateProgress = \"progress\";\n    string stateReview = \"review\";\n    string stateCompleted = \"completed\";\n    string stateCanceled = \"canceled\";\n\n    event OneEventForAll(address contractAdr, uint256 index);\n\n    event JobContractCreated(\n        address jobAddress,\n        string title,\n        string description\n        \n    );\n\n\n    // constructor(address gateway_) {\n    //     if (gateway_ == address(0)) revert InvalidAddress();\n\n    //     gateway = IAxelarGateway(gateway_);\n    // }\n\n    // initial: new, contractor choosed: agreed, work in progress: progress, completed: completed, canceled\n\n    // function indexCalculation(string memory _state) public returns (uint256) {}\n\n    function createJobContract(string memory _title, string memory _description)\n        external\n        payable\n    {\n        Job job = new Job{value: msg.value}(\n            _title,\n            _description,\n            jobArray.length,\n            msg.sender\n        );\n        jobArray.push(job);\n        countNew++;\n        emit JobContractCreated(address(job), _title, _description);\n        emit OneEventForAll(address(job), job.index());\n    }\n\n    // function findJobs(uint256 _myIndex) external view returns (address) {\n    //     return address(jobArray[_myIndex]);\n    // }\n\n    function allJobs() external view returns (Job[] memory _jobs) {\n        _jobs = new Job[](jobArray.length);\n        uint256 count;\n        for (uint256 i = 0; i < jobArray.length; i++) {\n            _jobs[count] = jobArray[i];\n            count++;\n        }\n    }\n\n    // function allJobsNew() external view returns (Job[] memory _jobs) {\n    //     // _jobs = new Job[](jobArray.length - indexCalculation(\"new\"));\n    //     _jobs = new Job[](countNew);\n\n    //     uint256 count;\n    //     for (uint256 i = 0; i < jobArray.length; i++) {\n    //         if (\n    //             keccak256(bytes(jobArray[i].jobState())) ==\n    //             keccak256(bytes(\"new\"))\n    //         ) {\n    //             _jobs[count] = jobArray[i];\n    //             count++;\n    //         }\n    //     }\n    // }\n\n    // function allCompletedJobs() external view returns (Job[] memory _jobs) {\n    //     _jobs = new Job[](countCompleted);\n    //     uint256 count;\n    //     for (uint256 i = 0; i < jobArray.length; i++) {\n    //         if (\n    //             keccak256(bytes(jobArray[i].jobState())) !=\n    //             keccak256(bytes(\"completed\"))\n    //         ) {\n    //             _jobs[count] = jobArray[i];\n    //             count++;\n    //         }\n    //     }\n    // }\n\n    function jobParticipate(Job job) external {\n        jobArray[job.index()].jobParticipate(msg.sender);\n        emit OneEventForAll(address(job), job.index());\n    }\n\n\n    function jobStateChange(\n        Job job,\n        address payable _participantAddress,\n        string memory _state\n    ) external {\n        jobArray[job.index()].jobStateChange(_participantAddress, _state);\n\n        // if (keccak256(bytes(_state)) == keccak256(bytes(\"agreed\"))) {\n        //     countAgreed++;\n        // } else if (keccak256(bytes(_state)) == keccak256(bytes(\"progress\"))) {\n        //     countProgress++;\n        // } else if (keccak256(bytes(_state)) == keccak256(bytes(\"review\"))) {\n        //     countReview++;\n        // } else if (keccak256(bytes(_state)) == keccak256(bytes(\"completed\"))) {\n        //     countCompleted++;\n        // } else if (keccak256(bytes(_state)) == keccak256(bytes(\"canceled\"))) {\n        //     countCanceled++;\n        // }\n\n        emit OneEventForAll(address(job), job.index());\n    }\n\n    // function jobReview(Job job, address _participantAddress) external {\n    //     jobArray[job.index()].jobReview(_participantAddress);\n    //     countProgress++;\n    // }\n\n    // function jobConfimation(Job job, address _participantAddress) external {\n    //     jobArray[job.index()].jobConfimation(_participantAddress);\n    //     countReview++;\n    // }\n\n    function transferToaddress(Job job, address payable addressToSend)\n        external\n        payable\n    {\n        // addressToSend.transfer(0.5 ether);\n        jobArray[job.index()].transferToaddress(addressToSend);\n        emit OneEventForAll(address(job), job.index());\n    }\n\n    function transferToaddressChain(Job job, address payable addressToSend, string memory chain)\n        external\n        payable\n    {\n        jobArray[job.index()].transferToaddressChain(addressToSend, chain);\n        emit OneEventForAll(address(job), job.index());\n    }\n\n    // function jobCanceled(Job job) external {\n    //     jobArray[job.index()].jobCanceled();\n    //     countCanceled++;\n    // }\n\n    // function getContractAdr(uint256 _classIndex)\n    //     external\n    //     view\n    //     returns (address)\n    // {\n    //     Job _retBal = Job(payable(address(jobArray[_classIndex])));\n    //     return _retBal.returnContractAddress();\n    // }\n\n    function getBalance(uint256 _classIndex) external view returns (uint256) {\n        Job _retBal = Job(payable(address(jobArray[_classIndex])));\n        return _retBal.getBalance();\n    }\n\n    // function thisContract() external view returns (address) {\n    //     address thisConr = address(this);\n    //     return thisConr;\n    // }\n\n    function getJobInfo(uint256 _classIndex)\n        external\n        view\n        returns (\n            string memory,\n            string memory,\n            address,\n            address,\n            address,\n            uint256,\n            uint256,\n            string memory,\n            address[] memory,\n            address\n        )\n    {\n        Job _retBal = Job(payable(address(jobArray[_classIndex])));\n        return _retBal.getJob();\n    }\n\n    // receive() external payable {}\n}\n\ncontract Job {\n    IDistributionExecutable public immutable distributor;\n\t\n    IAxelarGateway public immutable gateway;\n\t\n\n    address[] public Participants;\n    // uint256 public data;\n    string public title;\n    string public description;\n    string public jobState;\n    uint256 public index;\n\n    string public name;\n    uint256 public price;\n    address public contractParent;\n    address public contractAddress;\n    address public contractOwner;\n    address payable public participantAddress;\n    uint256 public createTime;\n    address[] public _destinationAddresses;\n\n    // uint256 public balance;\n\n    // struct jobStructData {\n    //     uint256 data;\n    //     bool jobState;\n    //     address contractAddress;\n    //     address contractParent;\n    //     uint256 createTime;\n    //     uint256 index;\n    // }\n\n    // jobStructData public myStruct;\n\n    constructor(\n        string memory _title,\n        string memory _description,\n        uint256 _index,\n        address _contractOwner\n    ) payable {\n        // data = _data;\n        distributor = IDistributionExecutable(_contractOwner);\n        title = _title;\n        jobState = \"new\";\n        contractAddress = address(this);\n        contractParent = msg.sender;\n        contractOwner = _contractOwner;\n        createTime = block.timestamp;\n        index = _index;\n        description = _description;\n\n        address gateway_ = 0x5769D84DD62a6fD969856c75c7D321b84d455929;\n        gateway = IAxelarGateway(gateway_);\n        // balance = contractAddress.balance;\n        // createJob(_content, _index);\n        // myStruct = jobStructData(\n        //     _data,\n        //     true,\n        //     address(this),\n        //     msg.sender,\n        //     block.timestamp,\n        //     _index\n        // );\n    }\n\n    // event OneEventForAll2(address contractAdr);\n\n    // function createJob(string memory _content, uint256 _index) public {\n    //     jobStructDataArray.push();\n\n    //     jobStructData(\n    //         _content,\n    //         true,\n    //         address(this),\n    //         msg.sender,\n    //         block.timestamp\n    //     );\n    //     emit jobCreated(_content, _index);\n    // }\n\n    function getJob()\n        public\n        view\n        returns (\n            string memory _content,\n            string memory _jobState,\n            address _contractAddress,\n            address _contractParent,\n            address _contractOwner,\n            uint256 _createTime,\n            uint256 _index,\n            string memory _description,\n            address[] memory _participants,\n            address _participantAddress\n        )\n    {\n        return (\n            title,\n            jobState,\n            contractAddress,\n            contractParent,\n            contractOwner,\n            createTime,\n            index,\n            description,\n            Participants,\n            participantAddress\n        );\n    }\n\n    function withdrawAll() external {\n        // jobState = true;\n    }\n\n    // function getContractInfo() public view returns (uint256) {\n    //     return contractAddress.balance;\n    // }\n\n    function getBalance() public view returns (uint256) {\n        return contractAddress.balance;\n    }\n\n    function transferToaddress(address payable _addressToSend) public payable {\n        if (keccak256(bytes(jobState)) == keccak256(bytes(\"canceled\"))) {\n            if (_addressToSend == contractOwner) {\n                _addressToSend.transfer(contractAddress.balance);\n            }\n        } else if (\n            keccak256(bytes(jobState)) == keccak256(bytes(\"completed\"))\n        ) {\n            participantAddress.transfer(contractAddress.balance);\n        }\n        // msg.sender.transfer(address(this).balance);\n    }\n\n    function transferToaddressChain(address payable _addressToSend, string memory chain) public payable {\n        if (keccak256(bytes(jobState)) == keccak256(bytes(\"canceled\"))) {\n            if (_addressToSend == contractOwner) {\n                _addressToSend.transfer(contractAddress.balance);\n            }\n        } else if (\n            keccak256(bytes(jobState)) == keccak256(bytes(\"completed\"))\n        ) {\n            _destinationAddresses.push(_addressToSend);\n            distributor.sendToMany(chain, _addressToSend, _destinationAddresses, 'aUSDC', contractAddress.balance);\n        }\n        // msg.sender.transfer(address(this).balance);\n    }\n\n    function transferToaddressChain2(address payable _addressToSend, string memory chain) public payable {\n        if (keccak256(bytes(jobState)) == keccak256(bytes(\"canceled\"))) {\n            if (_addressToSend == contractOwner) {\n                _addressToSend.transfer(contractAddress.balance);\n            }\n        } else if (\n            keccak256(bytes(jobState)) == keccak256(bytes(\"completed\"))\n        ) {\n            // _destinationAddresses.push(_addressToSend);\n            // distributor.sendToMany(chain, _addressToSend, _destinationAddresses, 'aUSDC', contractAddress.balance);\n            // string memory _addressToSend2 = bytes(_addressToSend);\n            gateway.sendToken(chain, toAsciiString(_addressToSend), \"DEV\", 100e6);\n        }\n        // msg.sender.transfer(address(this).balance);\n    }\n\n    function toAsciiString(address x) internal pure returns (string memory) {\n        bytes memory s = new bytes(40);\n        for (uint i = 0; i < 20; i++) {\n            bytes1 b = bytes1(uint8(uint(uint160(x)) / (2**(8*(19 - i)))));\n            bytes1 hi = bytes1(uint8(b) / 16);\n            bytes1 lo = bytes1(uint8(b) - 16 * uint8(hi));\n            s[2*i] = char(hi);\n            s[2*i+1] = char(lo);            \n        }\n        return string(s);\n    }\n    \n    function char(bytes1 b) internal pure returns (bytes1 c) {\n        if (uint8(b) < 10) return bytes1(uint8(b) + 0x30);\n        else return bytes1(uint8(b) + 0x57);\n    }\n    \n\n    function jobParticipate(address _participantAddress) external {\n        bool existed = false;\n        if (Participants.length == 0) {\n            Participants.push(_participantAddress);\n        } else {\n            for (uint256 i = 0; i < Participants.length; i++) {\n                if (Participants[i] == _participantAddress) {\n                    existed = true;\n                }\n            }\n            if (!existed) {\n                Participants.push(_participantAddress);\n            }\n        }\n        // emit OneEventForAll2(contractAddress);\n    }\n\n    function jobStateChange(\n        address payable _participantAddress,\n        string memory _state\n    ) external {\n        if (keccak256(bytes(_state)) == keccak256(bytes(\"agreed\"))) {\n            jobState = \"agreed\";\n            participantAddress = _participantAddress;\n        } else if (keccak256(bytes(_state)) == keccak256(bytes(\"progress\"))) {\n            jobState = \"progress\";\n        } else if (keccak256(bytes(_state)) == keccak256(bytes(\"review\"))) {\n            jobState = \"review\";\n        } else if (keccak256(bytes(_state)) == keccak256(bytes(\"completed\"))) {\n            jobState = \"completed\";\n        } else if (keccak256(bytes(_state)) == keccak256(bytes(\"canceled\"))) {\n            jobState = \"canceled\";\n        }\n\n        // emit OneEventForAll2(contractAddress);\n    }\n\n    // function jobReview(address _participantAddress) external {\n    //     if (participantAddress == _participantAddress) {\n    //         jobState = \"review\";\n    //     }\n    // }\n\n    // function jobParticiantAgreed(address _participantAddress) external {\n    //     jobState = \"agreed\";\n    //     participantAddress = _participantAddress;\n\n    //     // for (uint256 i = 0; i < Participants.length; i++) {\n    //     //     if (Participants[i] == _participantAddress) {\n    //     //         jobState = \"agreed\";\n    //     //         participantAddress = _participantAddress;\n    //     //     }\n    //     // }\n    // }\n\n    // function jobInProgress() external {\n    //     jobState = \"progress\";\n    // }\n\n    // function jobCompleted() external {\n    //     jobState = \"completed\";\n    // }\n\n    // function jobCanceled() external {\n    //     jobState = \"canceled\";\n    // }\n\n    receive() external payable {}\n\n    // fallback () external payable    {\n\n    // }\n\n    // constructor(string memory _name, address _owner) {\n    //     name = _name;\n    //     owner = _owner;\n    // }\n}\n",
  "sourcePath": "/home/user/Documents/mainstream/devopsdao/contracts/Factory.sol",
  "compiler": {
    "name": "solc",
    "version": "0.8.12+commit.f00d7308.Emscripten.clang"
  },
  "schemaVersion": "3.4.9",
  "updatedAt": "2022-09-07T17:52:58.067Z",
  "devdoc": {
    "kind": "dev",
    "methods": {},
    "version": 1
  },
  "userdoc": {
    "kind": "user",
    "methods": {},
    "version": 1
  }
}