{
  "contractName": "Factory",
  "abi": [
    {
      "inputs": [],
      "stateMutability": "nonpayable",
      "type": "constructor"
    },
    {
      "anonymous": false,
      "inputs": [
        {
          "indexed": false,
          "internalType": "string",
          "name": "nanoId",
          "type": "string"
        },
        {
          "indexed": false,
          "internalType": "address",
          "name": "jobAddress",
          "type": "address"
        },
        {
          "indexed": false,
          "internalType": "address",
          "name": "jobOwner",
          "type": "address"
        },
        {
          "indexed": false,
          "internalType": "string",
          "name": "title",
          "type": "string"
        },
        {
          "indexed": false,
          "internalType": "string",
          "name": "description",
          "type": "string"
        },
        {
          "indexed": false,
          "internalType": "string",
          "name": "symbol",
          "type": "string"
        },
        {
          "indexed": false,
          "internalType": "uint256",
          "name": "amount",
          "type": "uint256"
        }
      ],
      "name": "JobContractCreated",
      "type": "event"
    },
    {
      "anonymous": false,
      "inputs": [
        {
          "indexed": false,
          "internalType": "address",
          "name": "contractAdr",
          "type": "address"
        },
        {
          "indexed": false,
          "internalType": "uint256",
          "name": "index",
          "type": "uint256"
        }
      ],
      "name": "OneEventForAll",
      "type": "event"
    },
    {
      "inputs": [],
      "name": "countNew",
      "outputs": [
        {
          "internalType": "uint256",
          "name": "",
          "type": "uint256"
        }
      ],
      "stateMutability": "view",
      "type": "function"
    },
    {
      "inputs": [],
      "name": "gateway",
      "outputs": [
        {
          "internalType": "contract IAxelarGateway",
          "name": "",
          "type": "address"
        }
      ],
      "stateMutability": "view",
      "type": "function"
    },
    {
      "inputs": [
        {
          "internalType": "uint256",
          "name": "",
          "type": "uint256"
        }
      ],
      "name": "jobArray",
      "outputs": [
        {
          "internalType": "contract Job",
          "name": "",
          "type": "address"
        }
      ],
      "stateMutability": "view",
      "type": "function"
    },
    {
      "inputs": [
        {
          "internalType": "string",
          "name": "_nanoId",
          "type": "string"
        },
        {
          "internalType": "string",
          "name": "_title",
          "type": "string"
        },
        {
          "internalType": "string",
          "name": "_description",
          "type": "string"
        },
        {
          "internalType": "string",
          "name": "_symbol",
          "type": "string"
        },
        {
          "internalType": "uint256",
          "name": "_amount",
          "type": "uint256"
        }
      ],
      "name": "createJobContract",
      "outputs": [],
      "stateMutability": "payable",
      "type": "function"
    },
    {
      "inputs": [],
      "name": "allJobs",
      "outputs": [
        {
          "internalType": "contract Job[]",
          "name": "_jobs",
          "type": "address[]"
        }
      ],
      "stateMutability": "view",
      "type": "function"
    },
    {
      "inputs": [
        {
          "internalType": "contract Job",
          "name": "job",
          "type": "address"
        }
      ],
      "name": "jobParticipate",
      "outputs": [],
      "stateMutability": "nonpayable",
      "type": "function"
    },
    {
      "inputs": [
        {
          "internalType": "contract Job",
          "name": "job",
          "type": "address"
        }
      ],
      "name": "jobAuditParticipate",
      "outputs": [],
      "stateMutability": "nonpayable",
      "type": "function"
    },
    {
      "inputs": [
        {
          "internalType": "contract Job",
          "name": "job",
          "type": "address"
        },
        {
          "internalType": "uint256",
          "name": "_score",
          "type": "uint256"
        }
      ],
      "name": "jobRating",
      "outputs": [],
      "stateMutability": "nonpayable",
      "type": "function"
    },
    {
      "inputs": [
        {
          "internalType": "contract Job",
          "name": "job",
          "type": "address"
        },
        {
          "internalType": "address payable",
          "name": "_participantAddress",
          "type": "address"
        },
        {
          "internalType": "string",
          "name": "_state",
          "type": "string"
        }
      ],
      "name": "jobStateChange",
      "outputs": [],
      "stateMutability": "nonpayable",
      "type": "function"
    },
    {
      "inputs": [
        {
          "internalType": "contract Job",
          "name": "job",
          "type": "address"
        },
        {
          "internalType": "string",
          "name": "_favour",
          "type": "string"
        }
      ],
      "name": "jobAuditStateChange",
      "outputs": [],
      "stateMutability": "nonpayable",
      "type": "function"
    },
    {
      "inputs": [
        {
          "internalType": "contract Job",
          "name": "job",
          "type": "address"
        },
        {
          "internalType": "address payable",
          "name": "addressToSend",
          "type": "address"
        }
      ],
      "name": "transferToaddress",
      "outputs": [],
      "stateMutability": "payable",
      "type": "function"
    },
    {
      "inputs": [
        {
          "internalType": "contract Job",
          "name": "job",
          "type": "address"
        },
        {
          "internalType": "address payable",
          "name": "addressToSend",
          "type": "address"
        },
        {
          "internalType": "string",
          "name": "chain",
          "type": "string"
        }
      ],
      "name": "transferToaddressChain2",
      "outputs": [],
      "stateMutability": "payable",
      "type": "function"
    },
    {
      "inputs": [
        {
          "internalType": "uint256",
          "name": "_classIndex",
          "type": "uint256"
        }
      ],
      "name": "getBalance",
      "outputs": [
        {
          "internalType": "uint256",
          "name": "",
          "type": "uint256"
        }
      ],
      "stateMutability": "view",
      "type": "function"
    },
    {
      "inputs": [
        {
          "internalType": "uint256",
          "name": "_classIndex",
          "type": "uint256"
        }
      ],
      "name": "getJobInfo",
      "outputs": [
        {
          "internalType": "string",
          "name": "",
          "type": "string"
        },
        {
          "internalType": "string",
          "name": "",
          "type": "string"
        },
        {
          "internalType": "address",
          "name": "",
          "type": "address"
        },
        {
          "internalType": "address",
          "name": "",
          "type": "address"
        },
        {
          "internalType": "address",
          "name": "",
          "type": "address"
        },
        {
          "internalType": "uint256",
          "name": "",
          "type": "uint256"
        },
        {
          "internalType": "uint256",
          "name": "",
          "type": "uint256"
        },
        {
          "internalType": "string",
          "name": "",
          "type": "string"
        },
        {
          "internalType": "address[]",
          "name": "",
          "type": "address[]"
        },
        {
          "internalType": "address",
          "name": "",
          "type": "address"
        },
        {
          "internalType": "string",
          "name": "",
          "type": "string"
        },
        {
          "internalType": "string",
          "name": "",
          "type": "string"
        },
        {
          "internalType": "uint256",
          "name": "",
          "type": "uint256"
        },
        {
          "internalType": "address[]",
          "name": "",
          "type": "address[]"
        },
        {
          "internalType": "string",
          "name": "",
          "type": "string"
        },
        {
          "internalType": "address",
          "name": "",
          "type": "address"
        }
      ],
      "stateMutability": "view",
      "type": "function"
    }
  ],
  "bytecode": "0x60a06040523462000332576000600190808255806002558060035580600455600590808255806006556200003560075462000337565b91601f92838111620002e6575b506006626e657760e81b016007556008546200005e9062000337565b8381116200029a575b50600c651859dc99595960d21b01600855600954620000869062000337565b8381116200024e575b507f70726f6772657373000000000000000000000000000000000000000000000010600955600a54620000c29062000337565b83811162000202575b50600c6572657669657760d01b01600a55600b54620000ea9062000337565b838111620001b6575b507f636f6d706c657465640000000000000000000000000000000000000000000012600b55600c54620001269062000337565b928084116200018c575b7f63616e63656c6564000000000000000000000000000000000000000000000010600c55735769d84dd62a6fd969856c75c7d321b84d4559296080526040516150c3908162000375823960805181818161095301526113f40152f35b600c8352602083209301901c8201915b828110620001ab578062000130565b81815583016200019c565b600b83528301811c7f0175b7a638427703f0dbe7bb9bbf987a2551717b34e79f33b5b1008d1fa01db99081019085905b828110620001f6575050620000f3565b848155018590620001e6565b600a83528301811c7fc65a7bb8d6351c1cf70c95a316cc6a92839c986682d98bc35f958f4883f9d2a89081019085905b82811062000242575050620000cb565b84815501859062000232565b600983528301811c7f6e1540171b6c0c960b71a7020d9f60077f6af931a8bbf590da0223dacf75c7af9081019085905b8281106200028e5750506200008f565b8481550185906200027e565b600883528301811c7ff3f7a9fe364faab93b216da50a3214154f22a0a2b415b23a84c8169e8b636ee39081019085905b828110620002da57505062000067565b848155018590620002ca565b600783528301811c7fa66cc928b5edb82af9bd49922954155ab7b0942694bea4ce44661d9a8736c6889081019085905b8281106200032657505062000042565b84815501859062000316565b600080fd5b90600182811c9216801562000369575b60208310146200035357565b634e487b7160e01b600052602260045260246000fd5b91607f16916200034756fe60c0806040526004803610156200001557600080fd5b600091823560e01c908163116191b614620013de575080631e01043914620013465780631f04dbc014620011fb578063437a4f1414620010b7578063527ded4d1462000f72578063606f70721462000e055780637f4497d81462000aac5780637f7d7e6c14620006635780638398eff8146200053a5780638c7bf1a714620004f4578063a7e595b814620003b6578063c8d1b6aa14620002a4578063d69a588e14620002815763fcd3f19614620000cb57600080fd5b346200027d576020806003193601126200023e576001600160a01b038381620000f362001423565b169160405190632986c0e560e01b9182815285818881885afa9081156200020557849162000242575b506200012890620015d4565b90549060031b1c16803b156200023e57828091602460405180968193637e69f8cb60e11b8352338c8401525af19283156200023157859362000210575b5050604051948591825281845afa91821562000205578492620001bb575b50604080516001600160a01b03909216825260208201929092526000805160206200506e833981519152925090819081015b0390a180f35b90915082813d8311620001fd575b620001d5818362001465565b81010312620001f8576000805160206200506e8339815191529151903862000183565b600080fd5b503d620001c9565b6040513d86823e3d90fd5b6200021e919293506200143a565b6200022d578290853862000165565b8480fd5b50604051903d90823e3d90fd5b8280fd5b809450868092503d831162000275575b6200025e818362001465565b81010312620001f85762000128879351906200011c565b503d62000252565b5080fd5b8234620002a15780600319360112620002a1576020600154604051908152f35b80fd5b50346200027d57816003193601126200027d57815490620002c5826200165a565b92620002d5604051948562001465565b828452620002e3836200165a565b6020938585019391601f190136853782805b8282106200034a575050505060405193838594850191818652518092526040850193925b8281106200032957505050500390f35b83516001600160a01b03168552869550938101939281019260010162000319565b6200035a829896979598620015d4565b90548751831015620003a35760039190911b1c6001600160a01b0316600582901b87018601526200039790620003909062001634565b9162001634565b909693959496620002f5565b634e487b7160e01b8a526032865260248afd5b50620003c236620014f2565b604051632986c0e560e01b8082526020946001600160a01b03908116949093919288929087818a818a5afa8015620002055786918591620004b8575b506200040a90620015d4565b90549060031b1c16803b15620004b4576200044b9584936040519788948593849362bc30f960e01b8552168d8401526040602484015260448301906200156e565b039134905af19283156200023157859362000210575050604051948591825281845afa91821562000205578492620001bb5750604080516001600160a01b03909216825260208201929092526000805160206200506e83398151915292509081908101620001b5565b8380fd5b945050508683813d8311620004ec575b620004d4818362001465565b81010312620001f857846200040a8a945190620003fe565b503d620004c8565b50346200027d5760203660031901126200027d5735908054821015620002a15760206200052183620015d4565b905460405160039290921b1c6001600160a01b03168152f35b50346200027d576020806003193601126200023e576001600160a01b0383816200056362001423565b169160405190632986c0e560e01b9182815285818881885afa9081156200020557849162000628575b506200059890620015d4565b90549060031b1c16803b156200023e578280916024604051809681936310731dff60e31b8352338c8401525af19283156200023157859362000210575050604051948591825281845afa91821562000205578492620001bb5750604080516001600160a01b03909216825260208201929092526000805160206200506e83398151915292509081908101620001b5565b809450868092503d83116200065b575b62000644818362001465565b81010312620001f85762000598879351906200058c565b503d62000638565b5060a03660031901126200027d5767ffffffffffffffff8135818111620004b457620006939036908401620014a5565b90602491823582811162000aa857620006b09036908601620014a5565b60443583811162000aa457620006ca9036908701620014a5565b60643584811162000aa057620006e49036908801620014a5565b90608435928854966040516139409889820199828b108a8c111762000a8e579082916200172e833960c08b526200071f60c08c018a6200156e565b9a6200075c6200074d6200073e60209e8f85820390860152896200156e565b8381036040850152896200156e565b8281036060840152896200156e565b91608082015260a033910152039034f096871562000a8357845189860120906040519060408201908282109082111762000a6f57604052600381526208aa8960eb1b908a01527f55514145c7ef4e1948f87e0eb4d28d3e34763f4d4cdf3bc449800860a9d0a00c016200091e575b895490680100000000000000008210156200090d5750926200089b6200087295936200088c620008aa9462000828888f60017f10b01725a6653b5982623f022d74dfbd10c151e56edb1f114e6cf9915861c05f9d9b019055620015d4565b81546001600160a01b0360039290921b82811b801990921692909e169d8e901b161790556001546200085a9062001634565b60015560405198899860e08a5260e08a01906200156e565b908b8d8a01523360408a015288820360608a01526200156e565b9086820360808801526200156e565b9084820360a08601526200156e565b9060c08301520390a1816040518094632986c0e560e01b825281845afa91821562000205578492620001bb5750604080516001600160a01b03909216825260208201929092526000805160206200506e83398151915292509081908101620001b5565b634e487b7160e01b8b5260418a528afd5b6040516349ad89fb60e11b81528981018990528062000940838201876200156e565b6001600160a01b0392918b9183919003817f000000000000000000000000000000000000000000000000000000000000000086165afa908c821562000a63578c81858e948e949662000a19575b50606493949560405197889687956323b872dd60e01b8752339087015216898501528c6044850152165af1801562000a0e57620009cc575b50620007ca565b8881813d831162000a06575b620009e4818362001465565b8101031262000a02575180151503620009fe5738620009c5565b8980fd5b8a80fd5b503d620009d8565b6040513d8d823e3d90fd5b9493505093505081813d831162000a5b575b62000a37818362001465565b810103126200027d5760648c8c938562000a528e956200161f565b9594936200098d565b503d62000a2b565b604051903d90823e3d90fd5b8360418d634e487b7160e01b600052526000fd5b6040513d8c823e3d90fd5b634e487b7160e01b8d5260418c52838dfd5b8780fd5b8680fd5b8580fd5b509034620002a1576020366003190112620002a1578062000ace8335620015d4565b905460405163dd28e14d60e01b81529485929091839160031b1c6001600160a01b03165afa60a05260a0511562000a635780809281809481829083908485869187948896899d8a998b9c8c9e9f60a05162000c5d575b50509562000c439e9f9562000bdf9562000c309e9d9c9a9562000bcc9562000b8062000c029c9662000c159f9c62000b6e906040518060805261020080915260805101906200156e565b9060805160208184039101526200156e565b9560018060a01b03166040608051015260018060a01b03166060608051015260018060a01b031660808051015260a0608051015260c0608051015260805160e08184039101526200156e565b9060805161010081840391015262001595565b9160018060a01b031661012060805101526080516101408184039101526200156e565b906080516101608184039101526200156e565b9161018060805101526080516101a081840391015262001595565b906080516101c08184039101526200156e565b9060018060a01b03166101e0608051015260805180910390f35b9f509f5050505050505050505050505050503d8082843e62000c80818462001465565b82019061020083830312620002a15782519167ffffffffffffffff928381116200023e578162000cb291860162001673565b9160208501518481116200027d578262000cce91870162001673565b9462000cdd604082016200161f565b9462000cec606083016200161f565b9062000cfb608084016200161f565b60a08401519260c08501519660e086015184811162000aa0578162000d2291880162001673565b9961010087015185811162000e01578262000d3f918901620016bd565b9b62000d4f61012089016200161f565b9061014089015187811162000a02578462000d6c918b0162001673565b946101608a015188811162000dfd578562000d89918c0162001673565b946101808b0151986101a08c015181811162000df9578262000dad918e01620016bd565b9c6101c08d0151918211620002a157508b019062000dcb9162001673565b996101e00162000ddb906200161f565b959e959d999c979b9499929895979396929593909190388062000b24565b8d80fd5b8b80fd5b8880fd5b50346200027d5760403660031901126200027d5762000e2362001423565b60243567ffffffffffffffff8111620004b45762000e459036908401620014a5565b604051632986c0e560e01b8082526020936001600160a01b03908116939287919086818981895afa90811562000f6757839162000f2c575b5062000e8990620015d4565b90549060031b1c16803b156200027d5762000ec593829187838a60405198899586948593639c36c30560e01b855284015260248301906200156e565b03925af19283156200023157859362000210575050604051948591825281845afa91821562000205578492620001bb5750604080516001600160a01b03909216825260208201929092526000805160206200506e83398151915292509081908101620001b5565b809350878092503d831162000f5f575b62000f48818362001465565b81010312620001f85762000e898892519062000e7d565b503d62000f3c565b6040513d85823e3d90fd5b50346200027d5762000f8436620014f2565b604051632986c0e560e01b8082526020946001600160a01b0390811694919288929087818a818a5afa908115620002055784916200107b575b5062000fca8391620015d4565b90549060031b1c16803b15620004b4578392838a936200100e604051998a968795869463e3b02b3160e01b865216908401526060602484015260648301906200156e565b33604483015203925af19283156200023157859362000210575050604051948591825281845afa91821562000205578492620001bb5750604080516001600160a01b03909216825260208201929092526000805160206200506e83398151915292509081908101620001b5565b809450888092503d8311620010af575b62001097818362001465565b81010312620001f857915188929062000fca62000fbd565b503d6200108b565b5060403660031901126200027d57620010cf62001423565b6001600160a01b036024358181169290839003620001f857604051632986c0e560e01b808252602094928416938793919286818981895afa908115620011f0578591620011b5575b506200112390620015d4565b90549060031b1c1690813b15620004b4578391602483926040519687938492632d6c745760e11b84528c8401525af19283156200023157859362000210575050604051948591825281845afa91821562000205578492620001bb5750604080516001600160a01b03909216825260208201929092526000805160206200506e83398151915292509081908101620001b5565b809550878092503d8311620011e8575b620011d1818362001465565b81010312620001f857620011238894519062001117565b503d620011c5565b6040513d87823e3d90fd5b50346200027d5760403660031901126200027d576001600160a01b03806200122262001423565b166040519184632986c0e560e01b9182855260209485818881885afa801562000f6757839062001310575b620012599150620015d4565b90549060031b1c16803b156200027d57819060446040518094819363dcd521f360e01b83526024358b8401523360248401525af180156200130557620012ef575b508290604051948591825281845afa91821562000205578492620001bb5750604080516001600160a01b03909216825260208201929092526000805160206200506e83398151915292509081908101620001b5565b94620012fd8492966200143a565b94906200129a565b6040513d88823e3d90fd5b508581813d83116200133e575b62001329818362001465565b810103126200023e576200125990516200124d565b503d6200131d565b509034620002a157602091826003193601126200027d57826200136a8235620015d4565b9054604051629032ff60e51b81529384929091839160031b1c6001600160a01b03165afa91821562000a63578092620013a8575b5050604051908152f35b9091508282813d8311620013d6575b620013c3818362001465565b81010312620002a157505138806200139e565b503d620013b7565b8390346200027d57816003193601126200027d577f00000000000000000000000000000000000000000000000000000000000000006001600160a01b03168152602090f35b600435906001600160a01b0382168203620001f857565b67ffffffffffffffff81116200144f57604052565b634e487b7160e01b600052604160045260246000fd5b90601f8019910116810190811067ffffffffffffffff8211176200144f57604052565b67ffffffffffffffff81116200144f57601f01601f191660200190565b81601f82011215620001f857803590620014bf8262001488565b92620014cf604051948562001465565b82845260208383010111620001f857816000926020809301838601378301015290565b6060600319820112620001f8576001600160a01b03916004358381168103620001f857926024359081168103620001f857916044359067ffffffffffffffff8211620001f8576200154691600401620014a5565b90565b60005b8381106200155d5750506000910152565b81810151838201526020016200154c565b90602091620015898151809281855285808601910162001549565b601f01601f1916010190565b90815180825260208080930193019160005b828110620015b6575050505090565b83516001600160a01b031685529381019392810192600101620015a7565b9060009182548110156200160b578280527f290decd9548b62a8d60345a988386fc84ba6bc95484008f6362f93160ef3e563019190565b634e487b7160e01b83526032600452602483fd5b51906001600160a01b0382168203620001f857565b6000198114620016445760010190565b634e487b7160e01b600052601160045260246000fd5b67ffffffffffffffff81116200144f5760051b60200190565b81601f82011215620001f85780516200168c8162001488565b926200169c604051948562001465565b81845260208284010111620001f85762001546916020808501910162001549565b81601f82011215620001f857805191620016d7836200165a565b92620016e7604051948562001465565b808452602092838086019260051b820101928311620001f8578301905b82821062001713575050505090565b83809162001721846200161f565b8152019101906200170456fe60a060405262003940803803806200001781620005a7565b92833981019060c081830312620005a25780516001600160401b039190828111620005a257836200004a918301620005e3565b60209384830151848111620005a2578162000067918501620005e3565b926040810151858111620005a2578262000083918301620005e3565b91606082015190868211620005a2576200009f918301620005e3565b608082015160a09092015190926001600160a01b03821691829003620005a257600092836011558551888111620004e45780620000de60025462000655565b97601f988c8a821162000570575b50508b9089831160011462000504578792620004f8575b50508160011b916000199060031b1c1916176002555b8651888111620004e45780600398620001338a5462000655565b8c8a8211620004a8575b50508b908983116001146200043f57879262000433575b50508160011b91600019908a1b1c19161787555b60059262000177845462000655565b87811162000414575b506006626e657760e81b01845560018060a01b03193081600a541617600a5533816009541617600955600b541617600b5542600d556006558051878111620004005780600492620001d2845462000655565b8b898211620003c6575b50508a908883116001146200035f57869262000353575b50508160011b9160001990891b1c19161781555b83519687116200034057506200021f600f5462000655565b84811162000304575b5050859285116001146200029857849550936200028c575b50508260011b92600019911b1c191617600f555b735769d84dd62a6fd969856c75c7d321b84d4559296080526040516132949081620006ac823960805181818161197b0152611ba50152f35b01519150388062000240565b929190601f19851695600f855280852094905b878210620002eb5750508460019610620002d0575b50505050811b01600f5562000254565b01519060f884600019921b161c1916905538808080620002c0565b80600185978294968601518155019601930190620002ab565b6200032e91600f84528884209086808a01821c8301938b8b1062000336575b01901c019062000692565b388062000228565b9350829362000323565b634e487b7160e01b835260419052602482fd5b015190503880620001f3565b8487528b87209250601f198416875b8d828210620003af57505090846001959493921062000396575b505050811b01815562000207565b0151600019838b1b60f8161c1916905538808062000388565b60018596829396860151815501950193016200036e565b620003ee918689528a828a20918187018a1c8301938710620003f6575b01881c019062000692565b388b620001dc565b92508192620003e3565b634e487b7160e01b84526041600452602484fd5b8486528a86206200042c918901861c81019062000692565b3862000180565b01519050388062000154565b8a88528c88209250601f198416888e5b8282106200048f57505090846001959493921062000476575b505050811b01875562000168565b0151600019838c1b60f8161c1916905538808062000468565b806001869782949787015181550196019401906200044f565b620004d2918c8a528b828b209181870160051c8301938710620004da575b0160051c019062000692565b388c6200013d565b92508192620004c6565b634e487b7160e01b85526041600452602485fd5b01519050388062000103565b600288528c88209250601f198416888e5b828210620005575750509084600195949392106200053d575b505050811b0160025562000119565b015160001960f88460031b161c191690553880806200052e565b8060018697829497870151815501960194019062000515565b6200059a9160028a528b828b209181870160051c8301938710620004da570160051c019062000692565b388c620000ec565b600080fd5b6040519190601f01601f191682016001600160401b03811183821017620005cd57604052565b634e487b7160e01b600052604160045260246000fd5b919080601f84011215620005a25782516001600160401b038111620005cd5760209062000619601f8201601f19168301620005a7565b92818452828287010111620005a25760005b8181106200064157508260009394955001015290565b85810183015184820184015282016200062b565b90600182811c9216801562000687575b60208310146200067157565b634e487b7160e01b600052602260045260246000fd5b91607f169162000665565b8181106200069e575050565b600081556001016200069256fe610100604052600436101561001c575b361561001a57600080fd5b005b6000803560e01c8062bc30f914611a9357806305747a1f14611a5057806306fdde03146119aa578063116191b61461196557806312065fe01461193b57806328d963bf146118a75780632986c0e5146118895780634327a9f4146118605780634a79d50c146117ba5780634c9bb88a1461175e57806354ddcc3a146116b857806359ff6ba81461168f5780635ad8e8ae1461159d5780635e57966d146113c657806361dcd7ab146113a85780637284e4161461138c57806378951a51146113635780638398eff8146112cb578063853828b6146112b75780638f6541751461128e57806395d89b41146111fa57806398cfc1a6146111265780639c36c30514610f0e578063a035b1fe14610ef0578063bed5572f14610e90578063ce606ee014610e67578063dcd521f314610dc7578063dd28e14d14610819578063e3b02b3114610237578063f6b4dfb41461020e5763fcd3f1961461017c575061000f565b3461020b57602036600319011261020b576101956128bc565b81825480156000146101af5750506101ac90612fd5565b80f35b6001600160a01b0383811690855b8381106101db5750505050156101d2575b5080f35b6101ac90612fd5565b82826101e683612987565b90549060031b1c1614610202575b6101fd90612d1f565b6101bd565b600194506101f4565b80fd5b503461020b578060031936011261020b57600a546040516001600160a01b039091168152602090f35b503461020b57606036600319011261020b576102516128bc565b60243567ffffffffffffffff811161081557610271903690600401612940565b6001600160a01b03906044358281169081900361081057600b54831681148080610804575b806107df575b806107c2575b156102e557505050906102be6102b9600554612a08565b613176565b600c651859dc99595960d21b01600555166001600160601b0360a01b600c541617600c5580f35b600c548416821490818061079d575b80610780575b15610328575050505050506103136102b9600554612a08565b60106770726f677265737360c01b0160055580f35b818061075b575b8061073e575b156103615750505050505061034e6102b9600554612a08565b600c6572657669657760d01b0160055580f35b8080610736575b80610711575b806106f4575b156103a35750505050505061038d6102b9600554612a08565b60126818dbdb5c1b195d195960ba1b0160055580f35b6103ab612b85565b9384516020809601206103bc61308c565b86815191012014806106ed575b806106d2575b156103fe57505050505050506103e96102b9600554612a08565b60106718d85b98d95b195960c21b0160055580f35b84815191012061040c613113565b85815191012014610421575b50505050505080f35b806106ca575b8061065a575b156105d557506104416102b9600554612a08565b600a64185d591a5d60da1b01600555601280546001600160a01b031916821790556013546104779061047290612a08565b613134565b6012681c995c5d595cdd195960ba1b016013555b82600b54161490816105b0575b81610558575b508061054d575b6104b3575b80808080610418565b908116825b6001548110156105455781836104cd836129d1565b90549060031b1c16146104e8576104e390612d1f565b6104b8565b50905060056104fa6102b98254612a08565b600a64185d591a5d60da1b0190556014906001600160601b0360a01b82541617815560139061052c6104728354612a08565b69706572666f726d696e6760b01b0190555b38806104aa565b50505061053e565b5060015415156104a5565b7fc8cb8d7e4d3c37d5d6f029af5d593d4c94ed80d2ac3c01b0bec1f7887c7464e09150681c995c5d595cdd195960ba1b610590612c0c565b828151910120916040516105a3816128e6565b600981520152143861049e565b90506105ba612b85565b8181519101206105c8613113565b8281519101201490610498565b80610637575b1561048b576105ee6102b9600554612a08565b600a64185d591a5d60da1b01600555601280546001600160a01b0319168217905560135461061f9061047290612a08565b6012681c995c5d595cdd195960ba1b0160135561048b565b50610640612b85565b82815191012061064e6130f1565b838151910120146105db565b50610663612b85565b8381519101206106716130ab565b8481519101201480156106a7575b8061042d575061068d612b85565b83815191012061069b6130f1565b8481519101201461042d565b506106b0612b85565b8381519101206106be6130cd565b8481519101201461067f565b508015610427565b508051858201206106e1612c93565b868151910120146103cf565b50816103c9565b5083516020850120610704612cb7565b6020815191012014610374565b5061071a612b85565b602081519101206107296130f1565b602081519101201461036e565b508115610368565b508351602085012061074e6130f1565b6020815191012014610335565b50610764612b85565b602081519101206107736130cd565b602081519101201461032f565b50835160208501206107906130cd565b60208151910120146102fa565b506107a6612b85565b602081519101206107b56130ab565b60208151910120146102f4565b50825160208401206107d26130ab565b60208151910120146102a2565b506107e8612b85565b602081519101206107f761308c565b602081519101201461029c565b50838516821415610296565b600080fd5b8280fd5b503461020b578060031936011261020b57600a54600954600b54600d54600654600c5460115460e0526014546040516003546001600160a01b03928316989197959693831695831694918316939092169187600061087683612a08565b8083529260018116908115610da85750600114610d48575b61089a92500388612902565b60405195600087600554916108ae83612a08565b8083529260018116908115610d295750600114610cdb575b6108d292500388612902565b6108da612a42565b926040518060a05260206000549182815201600080527f290decd9548b62a8d60345a988386fc84ba6bc95484008f6362f93160ef3e5639160005b818110610cbc575050610930915060a051900360a051612902565b60405195600087600f549161094483612a08565b8083529260018116908115610c9d5750600114610c4f575b61096892500388612902565b6040519860008a6002549161097c83612a08565b8083529260018116908115610c305750600114610bd0575b6109a09250038b612902565b6040519a8b8c6020600154928381520160016000527fb10e2d527612073b26eecdfd717e6a320cf44b4afac2b0732d9fcbe2b7fa0cf69260005b818110610bab5750506109ef9250038d612902565b60405160c0526000601354610a0381612a08565b908160c05152600181169081600014610b815750600114610b34575b5095610af19995610ac595610ab195610b229f9d99610b0e9f9c96610a6d610adf9d97610a56610a7e9460c051900360c051612902565b604051806080526102008091526080510190612b23565b906080516020818403910152612b23565b95604060805101526060608051015260808051015260a0608051015260c0608051015260805160e0818403910152612b23565b60805161010081830391015260a051612b48565b916101206080510152608051610140818403910152612b23565b90608051610160818403910152612b23565b9060e05161018060805101526080516101a0818403910152612b48565b6080516101c081830391015260c051612b23565b906101e0608051015260805180910390f35b6013600090815291506000805160206131ff8339815191525b818310610b6557505060c05101602001610b22610a1f565b60018160209294939454838560c0510101520191019190610b4d565b60c0805160ff199092166020928301525192151560051b929092019091019150610b229050610a1f565b91600191935060208291828060a01b0387541681520194019101918f929391936109da565b509060026000527f405787fa12a823e0f2b7631cc41b3ba8828b3321ca811111fa75cd3aa3bb5ace906000915b818310610c155750509060206109a092820101610994565b80602092948385600194549201015201910190918c92610bfd565b602092506109a094915060ff191682840152151560051b820101610994565b5090600f60005260008051602061323f833981519152906000915b818310610c825750509060206109689282010161095c565b80602092948385600194549201015201910190918992610c6a565b6020925061096894915060ff191682840152151560051b82010161095c565b83546001600160a01b0316835260019384019360209093019201610915565b509060056000526000805160206131df833981519152906000915b818310610d0e5750509060206108d2928201016108c6565b80602092948385600194549201015201910190918992610cf6565b602092506108d294915060ff191682840152151560051b8201016108c6565b509060036000527fc2575a0e9e593c00f959f8c92f12db2869c3395a3b0502d05e2516446f71f85b906000915b818310610d8d57505090602061089a9282010161088e565b80602092948385600194549201015201910190918992610d75565b6020925061089a94915060ff191682840152151560051b82010161088e565b503461020b57604036600319011261020b576004356001600160a01b036024358181169081900361081057601154159182610e5d575b82610e51575b82610e2a575b82610e1c575b5050156101ce5760115580f35b600b54161490503880610e0f565b9150610e34612b85565b60208151910120610e43612cb7565b602081519101201491610e09565b60058411159250610e03565b8315159250610dfd565b503461020b578060031936011261020b57600b546040516001600160a01b039091168152602090f35b503461020b57602036600319011261020b57600435600e54811015610eec57600e6000527fbb7b4a454dc3493923482f07822329ed19e8244eff582cc204f8554c3620c3fd01546040516001600160a01b039091168152602090f35b5080fd5b503461020b578060031936011261020b576020600854604051908152f35b503461020b57602080600319360112610eec5760043567ffffffffffffffff811161081557610f41903690600401612940565b9060018060a01b038060145416331480611103575b806110e0575b80611093575b611053575b601454163314918261102e575b82611009575b82610fb7575b5050610f895780f35b610f97610472601354612a08565b601067199a5b9a5cda195960c21b0160135561038d6102b9600554612a08565b7f0696ddeb16d054b1889aad63fbf18df685a26622a90070b74520055bf958457192508082683832b93337b936b2b960b91b925191012091604051610ffb816128e6565b600981520152143880610f80565b9150611013612c0c565b8181519101206110216131b8565b8281519101201491610f7a565b9150611038612b85565b818151910120611046613113565b8281519101201491610f74565b611061610472601354612a08565b601067636f6d706c65746560c01b016013556110816102b9600554612a08565b6006626e657760e81b01600555610f67565b507fff92fcfc643524468d06f3b1b0009c6839aa65507d92d305e79e5586a18dcb728351838501206731bab9ba37b6b2b960c11b846040516110d4816128e6565b60088152015214610f62565b506110e9612c0c565b8281519101206110f76131b8565b83815191012014610f5c565b5061110c612b85565b82815191012061111a613113565b83815191012014610f56565b503461020b578060031936011261020b57604051600060055461114881612a08565b808452906001908181169081156111d3575060011461118a575b6111868461117281860382612902565b604051918291602083526020830190612b23565b0390f35b6005600090815292506000805160206131df8339815191525b8284106111bb57505050810160200161117282611162565b805460208587018101919091529093019281016111a3565b60ff191660208087019190915292151560051b850190920192506111729150839050611162565b503461020b578060031936011261020b576040516000600f5461121c81612a08565b808452906001908181169081156111d35750600114611245576111868461117281860382612902565b600f6000908152925060008051602061323f8339815191525b82841061127657505050810160200161117282611162565b8054602085870181019190915290930192810161125e565b503461020b578060031936011261020b576014546040516001600160a01b039091168152602090f35b503461020b578060031936011261020b5780f35b503461020b57602036600319011261020b576112e56128bc565b8160018054156000146112fd5750506101ac90612f93565b8354906001600160a01b0384811690865b84811061132d575b505050505015611324575080f35b6101ac90612f93565b8282611338836129d1565b90549060031b1c16146113535761134e90612d1f565b61130e565b5050509150503880808080611316565b503461020b578060031936011261020b576012546040516001600160a01b039091168152602090f35b503461020b578060031936011261020b57611186611172612a42565b503461020b578060031936011261020b576020600d54604051908152f35b503461020b57602080600319360112610eec576113e16128bc565b91604051926001600160601b03199060601b168284015260148352611405836128e6565b604051611411816128e6565b601081526f181899199a1a9b1b9c1cb0b131b232b360811b83820152835160019181831b6002928082048414901517156115895782018083116115895761145790612cdc565b95865115611575576030868801538651841015611575576078602188015384845b611490575b60405187815280611186818a018b612b23565b8151811015611570576001600160f81b0319806114ba6114b08486612d0e565b5160fc1c86612d0e565b51169082871b9183830487148415171561155c5782870190818811611548576114e6908a1a918c612d0e565b53611501600f6114f68587612d0e565b5160f81c1686612d0e565b51166003918201809211611534579161152b9161152588979695948a1a918c612d0e565b53612d1f565b90919293611478565b634e487b7160e01b88526011600452602488fd5b634e487b7160e01b8a52601160045260248afd5b634e487b7160e01b89526011600452602489fd5b61147d565b634e487b7160e01b85526032600452602485fd5b634e487b7160e01b85526011600452602485fd5b50602036600319011261020b57806115b36128bc565b6115bb612b85565b602081519101206115ca612c93565b602081519101201460001461162e57600b546001600160a01b0391821690821681146115f7575b50505080f35b828092918192600a54163190828215611625575bf115611619578038806115f1565b604051903d90823e3d90fd5b506108fc61160b565b5050611638612b85565b60208151910120611647612cb7565b60208151910120146116565780f35b8080808060018060a01b0380600c541690600a54163190828215611686575bf16101ac57604051903d90823e3d90fd5b506108fc611675565b503461020b578060031936011261020b57600c546040516001600160a01b039091168152602090f35b503461020b578060031936011261020b5760405160006002546116da81612a08565b808452906001908181169081156111d35750600114611703576111868461117281860382612902565b6002600090815292507f405787fa12a823e0f2b7631cc41b3ba8828b3321ca811111fa75cd3aa3bb5ace5b82841061174657505050810160200161117282611162565b8054602085870181019190915290930192810161172e565b503461020b57602036600319011261020b57600435600154811015610eec5760016000527fb10e2d527612073b26eecdfd717e6a320cf44b4afac2b0732d9fcbe2b7fa0cf601546040516001600160a01b039091168152602090f35b503461020b578060031936011261020b5760405160006003546117dc81612a08565b808452906001908181169081156111d35750600114611805576111868461117281860382612902565b6003600090815292507fc2575a0e9e593c00f959f8c92f12db2869c3395a3b0502d05e2516446f71f85b5b82841061184857505050810160200161117282611162565b80546020858701810191909152909301928101611830565b503461020b578060031936011261020b576009546040516001600160a01b039091168152602090f35b503461020b578060031936011261020b576020600654604051908152f35b503461020b578060031936011261020b5760405160006013546118c981612a08565b808452906001908181169081156111d357506001146118f2576111868461117281860382612902565b6013600090815292506000805160206131ff8339815191525b82841061192357505050810160200161117282611162565b8054602085870181019190915290930192810161190b565b503461020b578060031936011261020b57600a546040516001600160a01b03909116318152602090f35b503461020b578060031936011261020b576040517f00000000000000000000000000000000000000000000000000000000000000006001600160a01b03168152602090f35b503461020b578060031936011261020b5760405160006007546119cc81612a08565b808452906001908181169081156111d357506001146119f5576111868461117281860382612902565b6007600090815292507fa66cc928b5edb82af9bd49922954155ab7b0942694bea4ce44661d9a8736c6885b828410611a3857505050810160200161117282611162565b80546020858701810191909152909301928101611a20565b503461020b57602036600319011261020b5760043590805482101561020b576020611a7a83612987565b905460405160039290921b1c6001600160a01b03168152f35b50604036600319011261020b57611aa86128bc565b5060243567ffffffffffffffff8111610eec57611ac9903690600401612940565b90611ad2612b85565b8051602080920120611ae2612c93565b80519083012003611b0e575080915060018060a01b0380600c541681600b541681146115f75750505080f35b611b16612b85565b818151910120611b24612cb7565b82815191012014611b36575b50905080f35b604051928284600f5491611b4983612a08565b928383528560018216918260001461289f575050600114612858575b611b7192500385612902565b6040516349ad89fb60e11b8152600481018390526005602482015264615553444360d81b60448201526001600160a01b03947f000000000000000000000000000000000000000000000000000000000000000086169290918481606481875afa90811561201857908791879161281e575b501692600a9087825416604051906370a0823160e01b825280600483015287826024818a5afa9182156122cd57908492918a926127e8575b5080316126dc575b5004938415158061268a575b156120c6575050548616611c4134612ff4565b9187600c541660405190635e57966d60e01b825260048201528781602481305afa9081156120bb5760008051602061321f833981519152949392611d39926014928b916120a1575b506040519586927f7769746864726177696e67207669612073656e64546f4d616e792000000000008c850152611cc1603b8501612da6565b630103a37960e51b8152611cdf8d8351938491600485019101612b00565b016603b30b63ab29d160cd1b6004820152611d048c8351938491600b85019101612b00565b01681030b2323932b9b99d60b91b600b820152611d29825180938d8785019101612b00565b0103600b19810185520183612902565b611d4860405192839283612e23565b0390a1604051635e57966d60e01b81523360048201528481602481305afa90811561207c577faf0fb12b97da20938bb1d21fd3d221e0e82a44421eaa81ad19ef3e91c22027e691611e0b918791612087575b50611df2603960405180936b036b9b39739b2b73232b91d160a51b8a830152611dcc815180928c602c86019101612b00565b81016c01031b0b636103b30b63ab29d1609d1b602c820152036019810184520182612902565b6040519182913083526060888401526060830190612b23565b3460408301520390a160405163095ea7b360e01b815283816044818873e9f4b6db26f964e5b62fa3bec5115a56b4dbd79a978860048401528760248401525af1801561207c5761204f575b5084600c5416600e5490600160401b821015612039576001820180600e5582101561202357600e6000527fbb7b4a454dc3493923482f07822329ed19e8244eff582cc204f8554c3620c3fd91820180546001600160a01b0319169091179055604051635e57966d60e01b815273eaaa71f74b01617ba2235083334a1c952bac0a6c6004820152938585602481305afa948515612018578695611ff4575b50833b15611ff05760405163fbd9497b60e01b815260a06004820152600760a4820152663837b63cb3b7b760c91b60c482015260e0602482015294611f3c9060e4870190612b23565b858103600319016044870152600e8054808352600091825291830193925b828210611fd757505050508495509183808093611f9788966003198482030160648501526040906005815264615553444360d81b60208201520190565b906084830152039134905af18015611fcc57611fb8575b50505b8038611b30565b611fc1906128d2565b61020b578038611fae565b6040513d84823e3d90fd5b83548a1685529384019360019384019390910190611f5a565b8580fd5b6120119195503d8088833e6120098183612902565b810190612d44565b9338611ef3565b6040513d88823e3d90fd5b634e487b7160e01b600052603260045260246000fd5b634e487b7160e01b600052604160045260246000fd5b61206e90843d8611612075575b6120668183612902565b810190612f7b565b5038611e56565b503d61205c565b6040513d87823e3d90fd5b61209b91503d8089833e6120098183612902565b38611d9a565b6120b591503d808d833e6120098183612902565b38611c89565b6040513d8a823e3d90fd5b9182889993989792959851908381019182206120e0612e45565b85815191012014806124ec575b156122d857505054600c54604051635e57966d60e01b80825291851660048201529096918416908881602481305afa9283156122cd5760008051602061321f833981519152859361214b8c966121909588916122b3575b508a612e66565b9061215b60405192839283612e23565b0390a160405163095ea7b360e01b81526001600160a01b0389166004820152602481018c905293849283919082906044820190565b03925af180156122a85761228a575b5050600c541660405193845260048401528383602481305afa92831561227f578493612263575b50813b1561225f57836121ff9161221196612235604051988997889687956326ef699d60e01b8752608060048801526084870190612b23565b85810360031901602487015290612b23565b8381036003190160448501526005815264615553444360d81b602082015260400190565b90606483015203925af18015611fcc57612250575b50611fb1565b612259906128d2565b3861224a565b8380fd5b6122789193503d8086833e6120098183612902565b91386121c6565b6040513d86823e3d90fd5b816122a092903d10612075576120668183612902565b50388061219f565b6040513d89823e3d90fd5b6122c791503d808a833e6120098183612902565b38612144565b6040513d8b823e3d90fd5b519020919796509493506122ea612e45565b878151910120148061249f575b156124595786818554169282600c541660405190635e57966d60e01b825260048201528281602481305afa9485156124085760008051602061321f833981519152612360612353612394988d968d96899261243d575b50612e66565b6040519182918583612e23565b0390a160405163095ea7b360e01b81526001600160a01b039091166004820152602481019190915293849081906044820190565b038184885af180156124305787956064948492612413575b50541691600c54169360405196879586946323b872dd60e01b86526004860152602485015260448401525af18015612408576123ea575b5050611fb1565b8161240092903d10612075576120668183612902565b5038806123e3565b6040513d85823e3d90fd5b61242990883d8a11612075576120668183612902565b50386123ac565b50604051903d90823e3d90fd5b6124529192503d808b833e6120098183612902565b903861234d565b6040516303c4b96f60e41b815260048101879052601b60248201527f696e76616c69642064657374696e6174696f6e206e6574776f726b00000000006044820152606490fd5b507f6f3c53069778183912da77a05fe67c3d6edb208ffdf1ca0161d51543035e3c68825187840120674d6f6f6e6261736560c01b886040516124e0816128e6565b600881520152146122f7565b5085517f564ccaf7594d66b1eaaea24fe01f0585bf52ee70852af4eac0cc4b04711cd0e285880191822067457468657265756d60c01b8760405161252f816128e6565b6008815201521490811561263e575b81156125f3575b81156125a5575b8115612559575b506120ed565b7f890af8db8ca1aa1e915857edbc2717639ebd8a22c786f9e0e776d6a1aacb5e71915087519020662837b63cb3b7b760c91b86604051612598816128e6565b6007815201521438612553565b90507f6585177c3aba6cb7ffc0a37e831a958c4ee9278e4c62c7bdad7175ca09883c4087518220684176616c616e63686560b81b876040516125e6816128e6565b600981520152149061254c565b90507fcbf2a723bab3288b57db0bfae9d136af04a5c70c9acd46aad23acb67ef5fe179875182206546616e746f6d60d01b87604051612631816128e6565b6006815201521490612545565b90507f1de46e819416afc37058fd1cf806b9bcf96fa5d23b3ae565d6c72f0e19be9a9e875182206642696e616e636560c81b8760405161267d816128e6565b600781520152149061253e565b507f1a6bd43edc4fed0639580a1068f23990a8127e419b84485501428e10beebabb58451888601206c2837b63cb3b7b720bc32b630b960991b896040516126d0816128e6565b600d8152015214611c2e565b600c54604051635e57966d60e01b8152908c16600482018190529293508a81602481305afa9081156127dd578b93849360008051602061321f83398151915261279686958f879687926127ba575b5060166123539160405193816b03bb4ba34323930bbb4b733960a51b869384015261278661275a602c8501612da6565b91750103a379022ba3432b932bab69030b2323932b9b99d160551b835283519384918785019101612b00565b0103600919810184520182612902565b0390a131908282156127b1575bf1156122a857829038611c22565b506108fc6127a3565b6123539192506127d56016913d808b833e6120098183612902565b92915061272a565b6040513d8d823e3d90fd5b89809294508193503d8311612817575b6128028183612902565b810103126128135751839138611c1a565b8880fd5b503d6127f8565b809250868092503d8311612851575b6128378183612902565b81010312611ff057518681168103611ff057869038611be2565b503d61282d565b5050600f845284838560008051602061323f8339815191525b8482106128865750611b719350820101611b65565b6001919350805483858b01015201910184908792612871565b60ff191684820152611b7194151560051b8401019150611b659050565b600435906001600160a01b038216820361081057565b67ffffffffffffffff811161203957604052565b6040810190811067ffffffffffffffff82111761203957604052565b90601f8019910116810190811067ffffffffffffffff82111761203957604052565b67ffffffffffffffff811161203957601f01601f191660200190565b81601f820112156108105780359061295782612924565b926129656040519485612902565b8284526020838301011161081057816000926020809301838601378301015290565b9060009182548110156129bd578280527f290decd9548b62a8d60345a988386fc84ba6bc95484008f6362f93160ef3e563019190565b634e487b7160e01b83526032600452602483fd5b6001548110156120235760016000527fb10e2d527612073b26eecdfd717e6a320cf44b4afac2b0732d9fcbe2b7fa0cf60190600090565b90600182811c92168015612a38575b6020831014612a2257565b634e487b7160e01b600052602260045260246000fd5b91607f1691612a17565b6040519060008260045491612a5683612a08565b80835292600190818116908115612ade5750600114612a7f575b50612a7d92500383612902565b565b6004600090815291507f8a35acfbc15ff81a39ae7d344fd709f28e8600b4aa8c65c6b64bfe7fe36bd19b5b848310612ac35750612a7d935050810160200138612a70565b81935090816020925483858a01015201910190918592612aaa565b905060209250612a7d94915060ff191682840152151560051b82010138612a70565b60005b838110612b135750506000910152565b8181015183820152602001612b03565b90602091612b3c81518092818552858086019101612b00565b601f01601f1916010190565b90815180825260208080930193019160005b828110612b68575050505090565b83516001600160a01b031685529381019392810192600101612b5a565b6040519060008260055491612b9983612a08565b80835292600190818116908115612ade5750600114612bbf5750612a7d92500383612902565b6005600090815291506000805160206131df8339815191525b848310612bf15750612a7d935050810160200138612a70565b81935090816020925483858a01015201910190918592612bd8565b6040519060008260135491612c2083612a08565b80835292600190818116908115612ade5750600114612c465750612a7d92500383612902565b6013600090815291506000805160206131ff8339815191525b848310612c785750612a7d935050810160200138612a70565b81935090816020925483858a01015201910190918592612c5f565b60405190612ca0826128e6565b600882526718d85b98d95b195960c21b6020830152565b60405190612cc4826128e6565b600982526818dbdb5c1b195d195960ba1b6020830152565b90612ce682612924565b612cf36040519182612902565b8281528092612d04601f1991612924565b0190602036910137565b908151811015612023570160200190565b6000198114612d2e5760010190565b634e487b7160e01b600052601160045260246000fd5b6020818303126108105780519067ffffffffffffffff8211610810570181601f82011215610810578051612d7781612924565b92612d856040519485612902565b8184526020828401011161081057612da39160208085019101612b00565b90565b600f5460009291612db682612a08565b91600190818116908115612e105750600114612dd157505050565b9091929350600f60005260008051602061323f833981519152906000915b848310612dfd575050500190565b8181602092548587015201920191612def565b60ff191683525050811515909102019150565b6001600160a01b039091168152604060208201819052612da392910190612b23565b60405190612e52826128e6565b6005825264615553444360d81b6020830152565b919060405180936020906b03bb4ba34323930bbb4b733960a51b828401526000600f54612e9281612a08565b90600190818116908115612f525750600114612f07575b505091612ef7612a7d959284630103a37960e51b600c979652612ed58251809386600485019101612b00565b01916730b2323932b9b99d60c11b600484015283519384918785019101612b00565b0103601319810185520183612902565b600f600090815291925060008051602061323f8339815191525b838310612f3b575050508301602c01612ef7612a7d612ea9565b80548a8401602c0152899650918501918101612f21565b60ff1916602c8089019190915283151590930287019092019250612ef79150612a7d9050612ea9565b90816020910312610810575180151581036108105790565b600154600160401b81101561203957806001612fb292016001556129d1565b819291549060031b9160018060a01b039283811b93849216901b16911916179055565b600054600160401b81101561203957806001612fb29201600055612987565b801561306e5780816000925b61305a575061300e82612cdc565b9190805b61301b57505090565b600a906030928282068401809411612d2e578015612d2e57600019019260f81b6001600160f81b03191660001a6130528486612d0e565b530480613012565b91613066600a91612d1f565b920480613000565b5060405161307b816128e6565b60018152600360fc1b602082015290565b60405190613099826128e6565b60038252626e657760e81b6020830152565b604051906130b8826128e6565b60068252651859dc99595960d21b6020830152565b604051906130da826128e6565b600882526770726f677265737360c01b6020830152565b604051906130fe826128e6565b600682526572657669657760d01b6020830152565b60405190613120826128e6565b6005825264185d591a5d60da1b6020830152565b601f811161313f5750565b600060138152601f6000805160206131ff833981519152920160051c8201915b82811061316b57505050565b81815560010161315f565b601f81116131815750565b600060058152601f6000805160206131df833981519152920160051c8201915b8281106131ad57505050565b8181556001016131a1565b604051906131c5826128e6565b600a825269706572666f726d696e6760b01b602083015256fe036b6384b5eca791c62761152d0c79bb0604c104a5fb6f4eb0703f3154bb3db066de8ffda797e3de9c05e8fc57b3bf0ec28a930d40b0d285d93c06501cf6a090f914ca0348190fe49c31ec3901a60069cc792666a05ee2db257a8491cbad2b1e8d1108e10bcb7c27dddfc02ed9d693a074039d026cf4ea4240b40f7d581ac802a2646970667358221220aaff8561f9d292b19ea1bf36010bd377b69d3be62f59c6166a0b1a628d175f2b64736f6c634300081100339bae9a5cb21b2c8bcdab1612a93a658a295cc73028d28d9dc4555387605185b0a26469706673582212209eb24c31a0ee6fc28946c83575931db080c3fc87f6d19b096d623b7fe0c770cf64736f6c63430008110033",
  "immutableReferences": {
    "679": [
      {
        "length": 32,
        "start": 2387
      },
      {
        "length": 32,
        "start": 5108
      }
    ]
  },
  "source": "// SPDX-License-Identifier: MIT\npragma solidity ^0.8.12;\n\n// import { IDistributionExecutable } from './IDistributionExecutable.sol';\nimport { IDistributionExecutable } from './IDistributionExecutable.sol';\n\n\n// import { AxelarExecutable } from '@axelar-network/axelar-gmp-sdk-solidity/contracts/executables/AxelarExecutable.sol';\nimport { IAxelarGateway } from '@axelar-network/axelar-gmp-sdk-solidity/contracts/interfaces/IAxelarGateway.sol';\nimport { IERC20 } from '@axelar-network/axelar-gmp-sdk-solidity/contracts/interfaces/IERC20.sol';\n// import { IAxelarGasService } from '@axelar-network/axelar-gmp-sdk-solidity/contracts/interfaces/IAxelarGasService.sol';\nimport { StringToAddress, AddressToString } from '@axelar-network/axelar-gmp-sdk-solidity/contracts/StringAddressUtils.sol';\n\nerror RevertReason (string message);\n\ncontract Factory {\n    IAxelarGateway public immutable gateway;\n\n    Job[] public jobArray;\n    // address contractOwner;\n    uint256 public countNew = 0;\n    uint256 countAgreed = 0;\n    uint256 countProgress = 0;\n    uint256 countReview = 0;\n    uint256 countCompleted = 0;\n    uint256 countCanceled = 0;\n    string stateNew = \"new\";\n    string stateAgreed = \"agreed\";\n    string stateProgress = \"progress\";\n    string stateReview = \"review\";\n    string stateCompleted = \"completed\";\n    string stateCanceled = \"canceled\";\n\n    event OneEventForAll(address contractAdr, uint256 index);\n\n\n    event JobContractCreated(\n        string nanoId,\n        address jobAddress,\n        address jobOwner,\n        string title,\n        string description,\n        string symbol,\n        uint256 amount\n    );\n\n\n    constructor() {\n        address gateway_ = 0x5769D84DD62a6fD969856c75c7D321b84d455929;\n        gateway = IAxelarGateway(gateway_);\n    }\n\n    // initial: new, contractor choosed: agreed, work in progress: progress, completed: completed, canceled\n\n    // function indexCalculation(string memory _state) public returns (uint256) {}\n\n    function createJobContract(string memory _nanoId, string memory _title, string memory _description, string memory _symbol, uint256 _amount)\n    external\n    payable\n    {\n        Job job = new Job{value: msg.value}(\n            _nanoId,\n            _title,\n            _description,\n            _symbol,\n            jobArray.length,\n            msg.sender\n        );\n\n        if (keccak256(bytes(_symbol)) != keccak256(bytes(\"ETH\"))) {\n            address tokenAddress = gateway.tokenAddresses(_symbol);\n            // amount = IERC20(tokenAddress).balanceOf(contractAddress);\n            IERC20(tokenAddress).transferFrom(msg.sender, address(job), _amount);\n        }\n        // IERC20(tokenAddress).approve(address(gateway), _amount);\n\n        jobArray.push(job);\n        countNew++;\n        emit JobContractCreated(_nanoId, address(job), msg.sender, _title, _description, _symbol, _amount);\n        emit OneEventForAll(address(job), job.index());\n    }\n\n    // function findJobs(uint256 _myIndex) external view returns (address) {\n    //     return address(jobArray[_myIndex]);\n    // }\n\n    function allJobs() external view returns (Job[] memory _jobs) {\n        _jobs = new Job[](jobArray.length);\n        uint256 count;\n        for (uint256 i = 0; i < jobArray.length; i++) {\n            _jobs[count] = jobArray[i];\n            count++;\n        }\n    }\n\n\n    function jobParticipate(Job job) external {\n        jobArray[job.index()].jobParticipate(msg.sender);\n        emit OneEventForAll(address(job), job.index());\n    }\n\n    function jobAuditParticipate(Job job) external {\n        jobArray[job.index()].jobAuditParticipate(msg.sender);\n        emit OneEventForAll(address(job), job.index());\n    }\n\n    function jobRating(Job job, uint256 _score) external {\n        jobArray[job.index()].jobRate(_score, msg.sender);\n        emit OneEventForAll(address(job), job.index());\n    }\n\n\n    function jobStateChange(\n        Job job,\n        address payable _participantAddress,\n        string memory _state\n    ) external {\n        jobArray[job.index()].jobStateChange(_participantAddress, _state, msg.sender);\n        emit OneEventForAll(address(job), job.index());\n    }\n    \n\n    function jobAuditStateChange(\n        Job job,\n        string memory _favour\n    ) external {\n        jobArray[job.index()].jobAuditDecision(_favour);\n        emit OneEventForAll(address(job), job.index());\n    }\n\n    // function jobReview(Job job, address _participantAddress) external {\n    //     jobArray[job.index()].jobReview(_participantAddress);\n    //     countProgress++;\n    // }\n\n    // function jobConfimation(Job job, address _participantAddress) external {\n    //     jobArray[job.index()].jobConfimation(_participantAddress);\n    //     countReview++;\n    // }\n\n    function transferToaddress(Job job, address payable addressToSend)\n    external\n    payable\n    {\n        // addressToSend.transfer(0.5 ether);\n        jobArray[job.index()].transferToaddress(addressToSend);\n        emit OneEventForAll(address(job), job.index());\n    }\n\n    // function transferToaddressChain(Job job, address payable addressToSend, string memory chain)\n    // external\n    // payable\n    // {\n    //     jobArray[job.index()].transferToaddressChain(addressToSend, chain);\n    //     emit OneEventForAll(address(job), job.index());\n    // }\n\n    function transferToaddressChain2(Job job, address payable addressToSend, string memory chain)\n    external\n    payable\n    {\n        jobArray[job.index()].transferToaddressChain2{value: msg.value}(addressToSend, chain);\n        emit OneEventForAll(address(job), job.index());\n    }\n\n\n    // function jobCanceled(Job job) external {\n    //     jobArray[job.index()].jobCanceled();\n    //     countCanceled++;\n    // }\n\n    // function getContractAdr(uint256 _classIndex)\n    //     external\n    //     view\n    //     returns (address)\n    // {\n    //     Job _retBal = Job(payable(address(jobArray[_classIndex])));\n    //     return _retBal.returnContractAddress();\n    // }\n\n    function getBalance(uint256 _classIndex) external view returns (uint256) {\n        Job _retBal = Job(payable(address(jobArray[_classIndex])));\n        return _retBal.getBalance();\n    }\n\n    // function thisContract() external view returns (address) {\n    //     address thisConr = address(this);\n    //     return thisConr;\n    // }\n\n    function getJobInfo(uint256 _classIndex)\n    external\n    view\n    returns (\n        string memory,\n        string memory,\n        address,\n        address,\n        address,\n        uint256,\n        uint256,\n        string memory,\n        address[] memory,\n        address,\n        string memory,\n        string memory,\n        uint256,\n        address[] memory,\n        string memory,\n        address\n        \n    )\n    {\n        Job _retBal = Job(payable(address(jobArray[_classIndex])));\n        return _retBal.getJob();\n    }\n\n    // receive() external payable {}\n}\n\ncontract Job {\n    // IDistributionExecutable public immutable distributor;\n\n    IAxelarGateway public immutable gateway;\n    using AddressToString for address;\n    using StringToAddress for string;\n\n    address[] public Participants;\n    address[] public AuditParticipants;\n    // uint256 public data;\n    string public nanoId;\n    string public title;\n    string public description;\n    string public jobState;\n    uint256 public index;\n\n    string public name;\n    uint256 public price;\n    address public contractParent;\n    address public contractAddress;\n    address public contractOwner;\n    address payable public participantAddress;\n    uint256 public createTime;\n    address[] public _destinationAddresses;\n    string public symbol;\n    uint256 amount;\n    uint256 rating = 0;\n    address public auditInitiator;\n    string public auditState;\n    address public auditorAddress;\n\n\n    event Logs(address contractAdr, string message);\n    event LogsValue(address contractAdr, string message, uint value);\n\n    constructor(\n        string memory _nanoId,\n        string memory _title,\n        string memory _description,\n        string memory _symbol,\n        uint256 _index,\n        address _contractOwner\n        // uint256 _rating\n    ) payable {\n        // data = _data;\n        nanoId = _nanoId;\n        title = _title;\n        jobState = \"new\";\n        contractAddress = address(this);\n        contractParent = msg.sender;\n        contractOwner = _contractOwner;\n        createTime = block.timestamp;\n        index = _index;\n        description = _description;\n        symbol = _symbol;\n        // rating = _rating;\n\n        address gateway_ = 0x5769D84DD62a6fD969856c75c7D321b84d455929;\n        gateway = IAxelarGateway(gateway_);\n\n        // address distributor_ = 0xE9F4b6dB26f964E5B62Fa3bEC5115a56B4DBd79A;\n        // distributor = IDistributionExecutable(distributor_);\n        // distributor = DistributionExecutable(gateway_);\n        // balance = contractAddress.balance;\n        // createJob(_content, _index);\n        // myStruct = jobStructData(\n        //     _data,\n        //     true,\n        //     address(this),\n        //     msg.sender,\n        //     block.timestamp,\n        //     _index\n        // );\n    }\n\n    // event OneEventForAll2(address contractAdr);\n\n    // function createJob(string memory _content, uint256 _index) public {\n    //     jobStructDataArray.push();\n\n    //     jobStructData(\n    //         _content,\n    //         true,\n    //         address(this),\n    //         msg.sender,\n    //         block.timestamp\n    //     );\n    //     emit jobCreated(_content, _index);\n    // }\n\n    function getJob() public view returns (\n        string memory _content,\n        string memory _jobState,\n        address _contractAddress,\n        address _contractParent,\n        address _contractOwner,\n        uint256 _createTime,\n        uint256 _index,\n        string memory _description,\n        address[] memory _participants,\n        address _participantAddress,\n        string memory _symbol,\n        string memory _nanoId,\n        uint256 _rating,\n        address[] memory _auditParticipants,\n        string memory _auditState,\n        address _auditorAddress\n    )\n    {\n        return (\n            title,\n            jobState,\n            contractAddress,\n            contractParent,\n            contractOwner,\n            createTime,\n            index,\n            description,\n            Participants,\n            participantAddress,\n            symbol,\n            nanoId,\n            rating,\n            AuditParticipants,\n        auditState,\n            auditorAddress\n        );\n    }\n\n    function withdrawAll() external {\n        // jobState = true;\n    }\n\n    // function getContractInfo() public view returns (uint256) {\n    //     return contractAddress.balance;\n    // }\n\n    function getBalance() public view returns (uint256) {\n        return contractAddress.balance;\n    }\n\n    function transferToaddress(address payable _addressToSend) public payable {\n        if (keccak256(bytes(jobState)) == keccak256(bytes(\"canceled\"))) {\n            if (_addressToSend == contractOwner) {\n                _addressToSend.transfer(contractAddress.balance);\n            }\n        } else if (\n            keccak256(bytes(jobState)) == keccak256(bytes(\"completed\"))\n        ) {\n\n            participantAddress.transfer(contractAddress.balance);\n        }\n        // msg.sender.transfer(address(this).balance);\n    }\n\n    // function transferToaddressChain(address payable _addressToSend, string memory chain) public payable {\n    //     if (keccak256(bytes(jobState)) == keccak256(bytes(\"canceled\"))) {\n    //         if (_addressToSend == contractOwner) {\n    //             _addressToSend.transfer(contractAddress.balance);\n    //         }\n    //     } else if (\n    //         keccak256(bytes(jobState)) == keccak256(bytes(\"completed\"))\n    //     ) {\n    //         _destinationAddresses.push(participantAddress);\n    //         distributor.sendToMany(chain, _addressToSend, _destinationAddresses, 'WETH', contractAddress.balance);\n    //     }\n    //     // msg.sender.transfer(address(this).balance);\n    // }\n\n    function addressToString(address address_) external pure returns (string memory) {\n        return address_.toString();\n    }\n\n    function uint2str(\n        uint256 _i\n      )\n        internal\n        pure\n        returns (string memory str)\n      {\n        if (_i == 0)\n        {\n          return \"0\";\n        }\n        uint256 j = _i;\n        uint256 length;\n        while (j != 0)\n        {\n          length++;\n          j /= 10;\n        }\n        bytes memory bstr = new bytes(length);\n        uint256 k = length;\n        j = _i;\n        while (j != 0)\n        {\n          bstr[--k] = bytes1(uint8(48 + j % 10));\n          j /= 10;\n        }\n        str = string(bstr);\n      }\n\n    function transferToaddressChain2(address payable _addressToSend, string memory chain) public payable {\n        if (keccak256(bytes(jobState)) == keccak256(bytes(\"canceled\"))) {\n            if (participantAddress == contractOwner) {\n                participantAddress.transfer(contractAddress.balance);\n            }\n        } else if (\n            keccak256(bytes(jobState)) == keccak256(bytes(\"completed\")) //|| 1==1\n        ) {\n            bytes memory symbolBytes = bytes(symbol);\n            bytes memory chainBytes = bytes(chain);\n\n            //check USDC balance\n            address tokenAddress = gateway.tokenAddresses(\"aUSDC\");\n            uint256 contractUSDCAmount = IERC20(tokenAddress).balanceOf(contractAddress)/10;\n            \n            //check ETH balance\n            if (contractAddress.balance != 0) {\n                emit Logs(address(contractAddress), string.concat(\"withdrawing \", symbol, \" to Ethereum address: \",this.addressToString(participantAddress)));\n                participantAddress.transfer(contractAddress.balance);\n            } \n            if (contractUSDCAmount !=0 && (\n                keccak256(chainBytes) == keccak256(bytes(\"PolygonAxelar\"))\n            )) {\n                emit Logs(address(contractAddress), string.concat(\"withdrawing via sendToMany \", symbol, \" to \", chain, \"value: \", uint2str(msg.value), \" address:\",this.addressToString(participantAddress)));\n                emit LogsValue(address(this), string.concat(\"msg.sender: \", this.addressToString(msg.sender),\" call value: \"), msg.value);\n                // string memory _addressToSend2 = bytes(_addressToSend);\n                IERC20(tokenAddress).approve(0xE9F4b6dB26f964E5B62Fa3bEC5115a56B4DBd79A, contractUSDCAmount);\n                _destinationAddresses.push(participantAddress);\n                IDistributionExecutable(0xE9F4b6dB26f964E5B62Fa3bEC5115a56B4DBd79A).sendToMany{value: msg.value}(\"polygon\", this.addressToString(0xEAAA71f74b01617BA2235083334a1c952BAC0a6C), _destinationAddresses, 'aUSDC', contractUSDCAmount);\n            }\n            else if (keccak256(symbolBytes) == keccak256(bytes(\"aUSDC\")) && (\n                keccak256(chainBytes) == keccak256(bytes(\"Ethereum\")) || \n                keccak256(chainBytes) == keccak256(bytes(\"Binance\")) ||\n                keccak256(chainBytes) == keccak256(bytes(\"Fantom\")) ||\n                keccak256(chainBytes) == keccak256(bytes(\"Avalanche\")) ||\n                keccak256(chainBytes) == keccak256(bytes(\"Polygon\"))\n            )) {\n                emit Logs(address(contractAddress), string.concat(\"withdrawing \", symbol, \" to \", chain, \"address:\",this.addressToString(participantAddress)));\n                // _destinationAddresses.push(_addressToSend);\n                // distributor.sendToMany(chain, _addressToSend, _destinationAddresses, 'aUSDC', contractAddress.balance);\n                // string memory _addressToSend2 = bytes(_addressToSend);\n\n                IERC20(tokenAddress).approve(address(gateway), contractUSDCAmount);\n                // gateway.sendToken(chain, toAsciiString(participantAddress), \"aUSDC\", amount);\n                gateway.sendToken(chain, this.addressToString(participantAddress), \"aUSDC\", contractUSDCAmount);\n            } else if (keccak256(symbolBytes) == keccak256(bytes(\"aUSDC\")) && keccak256(chainBytes) == keccak256(bytes(\"Moonbase\"))) {\n                // revert InvalidToken({\n                //     token: string.concat(\"we are in moonbase, participantAddress\",this.addressToString(participantAddress))\n                // });\n                emit Logs(address(contractAddress), string.concat(\"withdrawing \", symbol, \" to \", chain, \"address:\",this.addressToString(participantAddress)));\n                IERC20(tokenAddress).approve(contractAddress, contractUSDCAmount);\n                IERC20(tokenAddress).transferFrom(contractAddress, participantAddress, contractUSDCAmount);\n                // IERC20(tokenAddress).approve(address(gateway), amount);\n            }\n            else{\n                revert RevertReason({\n                    message: \"invalid destination network\"\n                });\n            }\n        }\n        // msg.sender.transfer(address(this).balance);\n    }\n\n    function toAsciiString(address x) internal pure returns (string memory) {\n        bytes memory s = new bytes(40);\n        for (uint i = 0; i < 20; i++) {\n            bytes1 b = bytes1(uint8(uint(uint160(x)) / (2**(8*(19 - i)))));\n            bytes1 hi = bytes1(uint8(b) / 16);\n            bytes1 lo = bytes1(uint8(b) - 16 * uint8(hi));\n            s[2*i] = char(hi);\n            s[2*i+1] = char(lo);\n        }\n        return string(s);\n    }\n\n    function char(bytes1 b) internal pure returns (bytes1 c) {\n        if (uint8(b) < 10) return bytes1(uint8(b) + 0x30);\n        else return bytes1(uint8(b) + 0x57);\n    }\n\n\n    function jobParticipate(address _participantAddress) external {\n        bool existed = false;\n        if (Participants.length == 0) {\n            Participants.push(_participantAddress);\n        } else {\n            for (uint256 i = 0; i < Participants.length; i++) {\n                if (Participants[i] == _participantAddress) {\n                    existed = true;\n                }\n            }\n            if (!existed) {\n                Participants.push(_participantAddress);\n            }\n        }\n    }\n\n    function jobAuditParticipate(address _auditParticipantAddress) external {\n        // TODO: add NFT based auditor priviledge check\n        bool existed = false;\n        if (AuditParticipants.length == 0) {\n            AuditParticipants.push(_auditParticipantAddress);\n        } else {\n            for (uint256 i = 0; i < Participants.length; i++) {\n                if (AuditParticipants[i] == _auditParticipantAddress) {\n                    existed = true;\n                    break;\n                }\n            }\n            if (!existed) {\n                AuditParticipants.push(_auditParticipantAddress);\n            }\n        }\n    }\n\n    function jobRate(uint _score, address _applicant) external {\n        if (\n            rating == 0 &&\n            _score != 0 &&\n            _score <= 5 &&\n            keccak256(bytes(jobState)) == keccak256(bytes(\"completed\")) &&\n            contractOwner == _applicant\n        ) {\n            rating = _score;\n        } else {\n        }\n    }\n\n    //todo: only allow calling child contract functions from the parent contract!!!\n    function jobStateChange(\n        address payable _participantAddress,\n        string memory _state,\n        address _initiatorAddress\n        // string memory _message\n    ) external {\n        if (_initiatorAddress == contractOwner && _initiatorAddress != _participantAddress && keccak256(bytes(jobState)) == keccak256(bytes(\"new\")) && \n        keccak256(bytes(_state)) == keccak256(bytes(\"agreed\"))) {\n            //TODO: LETS FIX IT!!!!! _participantAddress must be compared with participant list in its contract ************************\n            jobState = \"agreed\";\n            participantAddress = _participantAddress;\n        } else if (_initiatorAddress == participantAddress &&\n            keccak256(bytes(jobState)) == keccak256(bytes(\"agreed\")) && keccak256(bytes(_state)) == keccak256(bytes(\"progress\"))) {\n            jobState = \"progress\";\n        } else if (_initiatorAddress == participantAddress && \n            keccak256(bytes(jobState)) == keccak256(bytes(\"progress\")) && keccak256(bytes(_state)) == keccak256(bytes(\"review\"))) {\n            jobState = \"review\";\n        } else if (_initiatorAddress == contractOwner &&  _initiatorAddress != participantAddress &&\n            keccak256(bytes(jobState)) == keccak256(bytes(\"review\")) && keccak256(bytes(_state)) == keccak256(bytes(\"completed\"))) {\n            jobState = \"completed\";\n        } else if (keccak256(bytes(jobState)) == keccak256(bytes(\"new\")) && _initiatorAddress == contractOwner && keccak256(bytes(_state)) == keccak256(bytes(\"canceled\"))) {\n            jobState = \"canceled\";\n        } else if (keccak256(bytes(_state)) == keccak256(bytes(\"audit\"))){\n            if(_initiatorAddress == contractOwner &&  _initiatorAddress != participantAddress &&\n                (keccak256(bytes(jobState)) == keccak256(bytes(\"agreed\")) || keccak256(bytes(jobState)) == keccak256(bytes(\"progress\")) || keccak256(bytes(jobState)) == keccak256(bytes(\"review\")))){\n                jobState = \"audit\";\n                auditInitiator = _initiatorAddress;\n                auditState = 'requested';\n            }\n            else if(_initiatorAddress == participantAddress &&\n                (keccak256(bytes(jobState)) == keccak256(bytes(\"review\"))))\n\n            {\n                jobState = \"audit\";\n                auditInitiator = _initiatorAddress;\n                auditState = 'requested';\n                //TODO: audit history need to add \n            }\n            if(_initiatorAddress == contractOwner &&\n                keccak256(bytes(jobState)) == keccak256(bytes(\"audit\")) && \n                keccak256(bytes(auditState)) == keccak256(bytes(\"requested\")) &&\n                AuditParticipants.length != 0){\n                for (uint256 i = 0; i < AuditParticipants.length; i++) {\n                    if (AuditParticipants[i] == _participantAddress) {\n                        jobState = \"audit\";\n                        auditorAddress = _participantAddress;\n                        auditState = 'performing';\n                        break;\n                    }\n                }\n\n            }\n        }\n    }\n\n    function jobAuditDecision(\n        // address payable _participantAddress,\n        string memory _favour\n    ) external {\n        // TODO: add NFT based auditor priviledge check\n        if (msg.sender == auditorAddress && keccak256(bytes(jobState)) == keccak256(bytes(\"audit\"))\n        && keccak256(bytes(auditState)) == keccak256(bytes(\"performing\"))\n        && keccak256(bytes(_favour)) == keccak256(bytes(\"customer\"))) {\n            auditState = \"complete\";\n            jobState = \"new\";\n        }\n        if (msg.sender == auditorAddress && keccak256(bytes(jobState)) == keccak256(bytes(\"audit\"))\n        && keccak256(bytes(auditState)) == keccak256(bytes(\"performing\"))\n        && keccak256(bytes(_favour)) == keccak256(bytes(\"performer\"))) {\n            auditState = \"finished\";\n            jobState = \"completed\";\n        }\n    }\n\n    // function jobReview(address _participantAddress) external {\n    //     if (participantAddress == _participantAddress) {\n    //         jobState = \"review\";\n    //     }\n    // }\n\n    // function jobParticiantAgreed(address _participantAddress) external {\n    //     jobState = \"agreed\";\n    //     participantAddress = _participantAddress;\n\n    //     // for (uint256 i = 0; i < Participants.length; i++) {\n    //     //     if (Participants[i] == _participantAddress) {\n    //     //         jobState = \"agreed\";\n    //     //         participantAddress = _participantAddress;\n    //     //     }\n    //     // }\n    // }\n\n    // function jobInProgress() external {\n    //     jobState = \"progress\";\n    // }\n\n    // function jobCompleted() external {\n    //     jobState = \"completed\";\n    // }\n\n    // function jobCanceled() external {\n    //     jobState = \"canceled\";\n    // }\n\n    receive() external payable {}\n\n    // fallback () external payable    {\n\n    // }\n\n    // constructor(string memory _name, address _owner) {\n    //     name = _name;\n    //     owner = _owner;\n    // }\n}\n",
  "sourcePath": "/home/user/Documents/mainstream/devopsdao/contracts/Factory.sol",
  "compiler": {
    "name": "solc",
    "version": "0.8.17+commit.8df45f5f.Emscripten.clang"
  },
  "schemaVersion": "3.4.10",
  "updatedAt": "2022-10-17T10:39:18.835Z",
  "devdoc": {
    "kind": "dev",
    "methods": {},
    "version": 1
  },
  "userdoc": {
    "kind": "user",
    "methods": {},
    "version": 1
  }
}