{
  "contractName": "FirstSC",
  "abi": [
    {
      "inputs": [],
      "stateMutability": "nonpayable",
      "type": "constructor"
    },
    {
      "anonymous": false,
      "inputs": [
        {
          "indexed": false,
          "internalType": "uint256",
          "name": "id",
          "type": "uint256"
        },
        {
          "indexed": false,
          "internalType": "bool",
          "name": "completed",
          "type": "bool"
        }
      ],
      "name": "JobCompleted",
      "type": "event"
    },
    {
      "anonymous": false,
      "inputs": [
        {
          "indexed": false,
          "internalType": "uint256",
          "name": "id",
          "type": "uint256"
        },
        {
          "indexed": false,
          "internalType": "string",
          "name": "content",
          "type": "string"
        },
        {
          "indexed": false,
          "internalType": "bool",
          "name": "completed",
          "type": "bool"
        }
      ],
      "name": "jobCreated",
      "type": "event"
    },
    {
      "inputs": [],
      "name": "balance",
      "outputs": [
        {
          "internalType": "uint256",
          "name": "",
          "type": "uint256"
        }
      ],
      "stateMutability": "view",
      "type": "function",
      "constant": true
    },
    {
      "inputs": [],
      "name": "contractAddress",
      "outputs": [
        {
          "internalType": "address",
          "name": "",
          "type": "address"
        }
      ],
      "stateMutability": "view",
      "type": "function",
      "constant": true
    },
    {
      "inputs": [],
      "name": "contractOwner",
      "outputs": [
        {
          "internalType": "address",
          "name": "",
          "type": "address"
        }
      ],
      "stateMutability": "view",
      "type": "function",
      "constant": true
    },
    {
      "inputs": [],
      "name": "price",
      "outputs": [
        {
          "internalType": "uint256",
          "name": "",
          "type": "uint256"
        }
      ],
      "stateMutability": "view",
      "type": "function",
      "constant": true
    },
    {
      "inputs": [],
      "name": "taskCount",
      "outputs": [
        {
          "internalType": "uint256",
          "name": "",
          "type": "uint256"
        }
      ],
      "stateMutability": "view",
      "type": "function",
      "constant": true
    },
    {
      "inputs": [
        {
          "internalType": "uint256",
          "name": "",
          "type": "uint256"
        }
      ],
      "name": "tasks",
      "outputs": [
        {
          "internalType": "uint256",
          "name": "id",
          "type": "uint256"
        },
        {
          "internalType": "string",
          "name": "content",
          "type": "string"
        },
        {
          "internalType": "bool",
          "name": "completed",
          "type": "bool"
        },
        {
          "internalType": "address",
          "name": "contractOwner",
          "type": "address"
        },
        {
          "internalType": "address",
          "name": "contractAddress",
          "type": "address"
        },
        {
          "internalType": "uint256",
          "name": "price",
          "type": "uint256"
        },
        {
          "internalType": "uint256",
          "name": "balance",
          "type": "uint256"
        }
      ],
      "stateMutability": "view",
      "type": "function",
      "constant": true
    },
    {
      "inputs": [
        {
          "internalType": "string",
          "name": "_content",
          "type": "string"
        },
        {
          "internalType": "uint256",
          "name": "_price",
          "type": "uint256"
        }
      ],
      "name": "createTask",
      "outputs": [],
      "stateMutability": "nonpayable",
      "type": "function"
    },
    {
      "inputs": [
        {
          "internalType": "uint256",
          "name": "_id",
          "type": "uint256"
        }
      ],
      "name": "buttonCompleted",
      "outputs": [],
      "stateMutability": "nonpayable",
      "type": "function"
    },
    {
      "inputs": [],
      "name": "getBalance",
      "outputs": [
        {
          "internalType": "uint256",
          "name": "",
          "type": "uint256"
        }
      ],
      "stateMutability": "view",
      "type": "function",
      "constant": true
    }
  ],
  "bytecode": "0x608060405260008055600060015560006004553480156200001f57600080fd5b5033600260006101000a81548173ffffffffffffffffffffffffffffffffffffffff021916908373ffffffffffffffffffffffffffffffffffffffff16021790555030600360006101000a81548173ffffffffffffffffffffffffffffffffffffffff021916908373ffffffffffffffffffffffffffffffffffffffff1602179055506000600181905550620000f36040518060400160405280600481526020017f7465737400000000000000000000000000000000000000000000000000000000815250600154620000f960201b60201c565b62000676565b6000808154809291906200010d90620004ad565b919050555033600260006101000a81548173ffffffffffffffffffffffffffffffffffffffff021916908373ffffffffffffffffffffffffffffffffffffffff16021790555030600360006101000a81548173ffffffffffffffffffffffffffffffffffffffff021916908373ffffffffffffffffffffffffffffffffffffffff160217905550600360009054906101000a900473ffffffffffffffffffffffffffffffffffffffff1673ffffffffffffffffffffffffffffffffffffffff16316004819055506040518060e001604052806000548152602001838152602001600015158152602001600260009054906101000a900473ffffffffffffffffffffffffffffffffffffffff1673ffffffffffffffffffffffffffffffffffffffff168152602001600360009054906101000a900473ffffffffffffffffffffffffffffffffffffffff1673ffffffffffffffffffffffffffffffffffffffff1681526020018281526020016004548152506005600080548152602001908152602001600020600082015181600001556020820151816001019080519060200190620002ba929190620003c4565b5060408201518160020160006101000a81548160ff02191690831515021790555060608201518160020160016101000a81548173ffffffffffffffffffffffffffffffffffffffff021916908373ffffffffffffffffffffffffffffffffffffffff16021790555060808201518160030160006101000a81548173ffffffffffffffffffffffffffffffffffffffff021916908373ffffffffffffffffffffffffffffffffffffffff16021790555060a0820151816004015560c082015181600501559050507fb9249decb5f179462a0913551c54dc33e5e3f4188e8fd56a0a90d21c670fd8dc600054836000604051620003b893929190620005cd565b60405180910390a15050565b828054620003d29062000640565b90600052602060002090601f016020900481019282620003f6576000855562000442565b82601f106200041157805160ff191683800117855562000442565b8280016001018555821562000442579182015b828111156200044157825182559160200191906001019062000424565b5b50905062000451919062000455565b5090565b5b808211156200047057600081600090555060010162000456565b5090565b7f4e487b7100000000000000000000000000000000000000000000000000000000600052601160045260246000fd5b6000819050919050565b6000620004ba82620004a3565b91507fffffffffffffffffffffffffffffffffffffffffffffffffffffffffffffffff821415620004f057620004ef62000474565b5b600182019050919050565b6200050681620004a3565b82525050565b600081519050919050565b600082825260208201905092915050565b60005b83811015620005485780820151818401526020810190506200052b565b8381111562000558576000848401525b50505050565b6000601f19601f8301169050919050565b60006200057c826200050c565b62000588818562000517565b93506200059a81856020860162000528565b620005a5816200055e565b840191505092915050565b60008115159050919050565b620005c781620005b0565b82525050565b6000606082019050620005e46000830186620004fb565b8181036020830152620005f881856200056f565b9050620006096040830184620005bc565b949350505050565b7f4e487b7100000000000000000000000000000000000000000000000000000000600052602260045260246000fd5b600060028204905060018216806200065957607f821691505b6020821081141562000670576200066f62000611565b5b50919050565b610ef580620006866000396000f3fe608060405234801561001057600080fd5b50600436106100935760003560e01c8063b69ef8a811610066578063b69ef8a814610126578063b6cb58a514610144578063ce606ee014610162578063f4d73ec814610180578063f6b4dfb41461019c57610093565b806304fe2b341461009857806312065fe0146100b45780638d977672146100d2578063a035b1fe14610108575b600080fd5b6100b260048036038101906100ad9190610b57565b6101ba565b005b6100bc61047f565b6040516100c99190610bc2565b60405180910390f35b6100ec60048036038101906100e79190610bdd565b6104c0565b6040516100ff9796959493929190610cee565b60405180910390f35b6101106105d7565b60405161011d9190610bc2565b60405180910390f35b61012e6105dd565b60405161013b9190610bc2565b60405180910390f35b61014c6105e3565b6040516101599190610bc2565b60405180910390f35b61016a6105e9565b6040516101779190610d64565b60405180910390f35b61019a60048036038101906101959190610bdd565b61060f565b005b6101a46108fe565b6040516101b19190610d64565b60405180910390f35b6000808154809291906101cc90610dae565b919050555033600260006101000a81548173ffffffffffffffffffffffffffffffffffffffff021916908373ffffffffffffffffffffffffffffffffffffffff16021790555030600360006101000a81548173ffffffffffffffffffffffffffffffffffffffff021916908373ffffffffffffffffffffffffffffffffffffffff160217905550600360009054906101000a900473ffffffffffffffffffffffffffffffffffffffff1673ffffffffffffffffffffffffffffffffffffffff16316004819055506040518060e001604052806000548152602001838152602001600015158152602001600260009054906101000a900473ffffffffffffffffffffffffffffffffffffffff1673ffffffffffffffffffffffffffffffffffffffff168152602001600360009054906101000a900473ffffffffffffffffffffffffffffffffffffffff1673ffffffffffffffffffffffffffffffffffffffff1681526020018281526020016004548152506005600080548152602001908152602001600020600082015181600001556020820151816001019080519060200190610377929190610924565b5060408201518160020160006101000a81548160ff02191690831515021790555060608201518160020160016101000a81548173ffffffffffffffffffffffffffffffffffffffff021916908373ffffffffffffffffffffffffffffffffffffffff16021790555060808201518160030160006101000a81548173ffffffffffffffffffffffffffffffffffffffff021916908373ffffffffffffffffffffffffffffffffffffffff16021790555060a0820151816004015560c082015181600501559050507fb9249decb5f179462a0913551c54dc33e5e3f4188e8fd56a0a90d21c670fd8dc60005483600060405161047393929190610df7565b60405180910390a15050565b6000600360009054906101000a900473ffffffffffffffffffffffffffffffffffffffff1673ffffffffffffffffffffffffffffffffffffffff1631905090565b60056020528060005260406000206000915090508060000154908060010180546104e990610e64565b80601f016020809104026020016040519081016040528092919081815260200182805461051590610e64565b80156105625780601f1061053757610100808354040283529160200191610562565b820191906000526020600020905b81548152906001019060200180831161054557829003601f168201915b5050505050908060020160009054906101000a900460ff16908060020160019054906101000a900473ffffffffffffffffffffffffffffffffffffffff16908060030160009054906101000a900473ffffffffffffffffffffffffffffffffffffffff16908060040154908060050154905087565b60015481565b60045481565b60005481565b600260009054906101000a900473ffffffffffffffffffffffffffffffffffffffff1681565b6000600560008381526020019081526020016000206040518060e00160405290816000820154815260200160018201805461064990610e64565b80601f016020809104026020016040519081016040528092919081815260200182805461067590610e64565b80156106c25780601f10610697576101008083540402835291602001916106c2565b820191906000526020600020905b8154815290600101906020018083116106a557829003601f168201915b505050505081526020016002820160009054906101000a900460ff161515151581526020016002820160019054906101000a900473ffffffffffffffffffffffffffffffffffffffff1673ffffffffffffffffffffffffffffffffffffffff1673ffffffffffffffffffffffffffffffffffffffff1681526020016003820160009054906101000a900473ffffffffffffffffffffffffffffffffffffffff1673ffffffffffffffffffffffffffffffffffffffff1673ffffffffffffffffffffffffffffffffffffffff16815260200160048201548152602001600582015481525050905080604001511581604001901515908115158152505080600560008481526020019081526020016000206000820151816000015560208201518160010190805190602001906107f7929190610924565b5060408201518160020160006101000a81548160ff02191690831515021790555060608201518160020160016101000a81548173ffffffffffffffffffffffffffffffffffffffff021916908373ffffffffffffffffffffffffffffffffffffffff16021790555060808201518160030160006101000a81548173ffffffffffffffffffffffffffffffffffffffff021916908373ffffffffffffffffffffffffffffffffffffffff16021790555060a0820151816004015560c082015181600501559050507f8a0f1de33684394d5322b20a2935668a10e7e1de0fb1b945a97f442bdf0cc6068282604001516040516108f2929190610e96565b60405180910390a15050565b600360009054906101000a900473ffffffffffffffffffffffffffffffffffffffff1681565b82805461093090610e64565b90600052602060002090601f0160209004810192826109525760008555610999565b82601f1061096b57805160ff1916838001178555610999565b82800160010185558215610999579182015b8281111561099857825182559160200191906001019061097d565b5b5090506109a691906109aa565b5090565b5b808211156109c35760008160009055506001016109ab565b5090565b6000604051905090565b600080fd5b600080fd5b600080fd5b600080fd5b6000601f19601f8301169050919050565b7f4e487b7100000000000000000000000000000000000000000000000000000000600052604160045260246000fd5b610a2e826109e5565b810181811067ffffffffffffffff82111715610a4d57610a4c6109f6565b5b80604052505050565b6000610a606109c7565b9050610a6c8282610a25565b919050565b600067ffffffffffffffff821115610a8c57610a8b6109f6565b5b610a95826109e5565b9050602081019050919050565b82818337600083830152505050565b6000610ac4610abf84610a71565b610a56565b905082815260208101848484011115610ae057610adf6109e0565b5b610aeb848285610aa2565b509392505050565b600082601f830112610b0857610b076109db565b5b8135610b18848260208601610ab1565b91505092915050565b6000819050919050565b610b3481610b21565b8114610b3f57600080fd5b50565b600081359050610b5181610b2b565b92915050565b60008060408385031215610b6e57610b6d6109d1565b5b600083013567ffffffffffffffff811115610b8c57610b8b6109d6565b5b610b9885828601610af3565b9250506020610ba985828601610b42565b9150509250929050565b610bbc81610b21565b82525050565b6000602082019050610bd76000830184610bb3565b92915050565b600060208284031215610bf357610bf26109d1565b5b6000610c0184828501610b42565b91505092915050565b600081519050919050565b600082825260208201905092915050565b60005b83811015610c44578082015181840152602081019050610c29565b83811115610c53576000848401525b50505050565b6000610c6482610c0a565b610c6e8185610c15565b9350610c7e818560208601610c26565b610c87816109e5565b840191505092915050565b60008115159050919050565b610ca781610c92565b82525050565b600073ffffffffffffffffffffffffffffffffffffffff82169050919050565b6000610cd882610cad565b9050919050565b610ce881610ccd565b82525050565b600060e082019050610d03600083018a610bb3565b8181036020830152610d158189610c59565b9050610d246040830188610c9e565b610d316060830187610cdf565b610d3e6080830186610cdf565b610d4b60a0830185610bb3565b610d5860c0830184610bb3565b98975050505050505050565b6000602082019050610d796000830184610cdf565b92915050565b7f4e487b7100000000000000000000000000000000000000000000000000000000600052601160045260246000fd5b6000610db982610b21565b91507fffffffffffffffffffffffffffffffffffffffffffffffffffffffffffffffff821415610dec57610deb610d7f565b5b600182019050919050565b6000606082019050610e0c6000830186610bb3565b8181036020830152610e1e8185610c59565b9050610e2d6040830184610c9e565b949350505050565b7f4e487b7100000000000000000000000000000000000000000000000000000000600052602260045260246000fd5b60006002820490506001821680610e7c57607f821691505b60208210811415610e9057610e8f610e35565b5b50919050565b6000604082019050610eab6000830185610bb3565b610eb86020830184610c9e565b939250505056fea2646970667358221220721d79c70ff9913212e5538891e15c5babb0860bd07443078eba7b00aeb9600864736f6c634300080c0033",
  "immutableReferences": {},
  "source": "// SPDX-License-Identifier: MIT\npragma solidity ^0.8.12;\n\ncontract FirstSC {\n    uint256 public taskCount = 0;\n    uint256 public price = 0;\n    address public contractOwner;\n    address public contractAddress;\n    uint256 public balance = 0;\n\n    struct Task {\n        uint256 id;\n        string content;\n        bool completed;\n        address contractOwner;\n        address contractAddress;\n        uint256 price;\n        uint256 balance;\n    }\n\n    mapping(uint256 => Task) public tasks;\n\n    event jobCreated(uint256 id, string content, bool completed);\n\n    event JobCompleted(uint256 id, bool completed);\n\n    constructor() {\n        contractOwner = msg.sender;\n        contractAddress = address(this);\n        price = 0;\n        createTask(\"test\", price);\n    }\n\n    function createTask(string memory _content, uint256 _price) public {\n        taskCount++;\n        contractOwner = msg.sender;\n        contractAddress = address(this);\n        balance = contractAddress.balance;\n        tasks[taskCount] = Task(\n            taskCount,\n            _content,\n            false,\n            contractOwner,\n            contractAddress,\n            _price,\n            balance\n        );\n        emit jobCreated(taskCount, _content, false);\n    }\n\n    function buttonCompleted(uint256 _id) public {\n        Task memory _task = tasks[_id];\n        _task.completed = !_task.completed;\n        tasks[_id] = _task;\n        emit JobCompleted(_id, _task.completed);\n    }\n\n    // view meant readonly\n    function getBalance() public view returns (uint256) {\n        return contractAddress.balance;\n    }\n\n    // receive() external payable {}\n}\n",
  "sourcePath": "/home/user/Documents/mainstream/devopsdao/contracts/FirstSC.sol",
  "compiler": {
    "name": "solc",
    "version": "0.8.12+commit.f00d7308.Emscripten.clang"
  },
  "schemaVersion": "3.4.8",
  "updatedAt": "2022-07-25T16:02:02.047Z",
  "networkType": "ethereum",
  "devdoc": {
    "kind": "dev",
    "methods": {},
    "version": 1
  },
  "userdoc": {
    "kind": "user",
    "methods": {},
    "version": 1
  }
}