{
  "contractName": "Job",
  "abi": [
    {
      "inputs": [
        {
          "internalType": "string",
          "name": "_nanoId",
          "type": "string"
        },
        {
          "internalType": "string",
          "name": "_title",
          "type": "string"
        },
        {
          "internalType": "string",
          "name": "_description",
          "type": "string"
        },
        {
          "internalType": "string",
          "name": "_symbol",
          "type": "string"
        },
        {
          "internalType": "uint256",
          "name": "_index",
          "type": "uint256"
        },
        {
          "internalType": "address",
          "name": "_contractOwner",
          "type": "address"
        }
      ],
      "stateMutability": "payable",
      "type": "constructor"
    },
    {
      "inputs": [
        {
          "internalType": "string",
          "name": "message",
          "type": "string"
        }
      ],
      "name": "RevertReason",
      "type": "error"
    },
    {
      "anonymous": false,
      "inputs": [
        {
          "indexed": false,
          "internalType": "address",
          "name": "contractAdr",
          "type": "address"
        },
        {
          "indexed": false,
          "internalType": "string",
          "name": "message",
          "type": "string"
        }
      ],
      "name": "Logs",
      "type": "event"
    },
    {
      "anonymous": false,
      "inputs": [
        {
          "indexed": false,
          "internalType": "address",
          "name": "contractAdr",
          "type": "address"
        },
        {
          "indexed": false,
          "internalType": "string",
          "name": "message",
          "type": "string"
        },
        {
          "indexed": false,
          "internalType": "uint256",
          "name": "value",
          "type": "uint256"
        }
      ],
      "name": "LogsValue",
      "type": "event"
    },
    {
      "inputs": [
        {
          "internalType": "uint256",
          "name": "",
          "type": "uint256"
        }
      ],
      "name": "AuditParticipants",
      "outputs": [
        {
          "internalType": "address",
          "name": "",
          "type": "address"
        }
      ],
      "stateMutability": "view",
      "type": "function"
    },
    {
      "inputs": [
        {
          "internalType": "uint256",
          "name": "",
          "type": "uint256"
        }
      ],
      "name": "Participants",
      "outputs": [
        {
          "internalType": "address",
          "name": "",
          "type": "address"
        }
      ],
      "stateMutability": "view",
      "type": "function"
    },
    {
      "inputs": [
        {
          "internalType": "uint256",
          "name": "",
          "type": "uint256"
        }
      ],
      "name": "_destinationAddresses",
      "outputs": [
        {
          "internalType": "address",
          "name": "",
          "type": "address"
        }
      ],
      "stateMutability": "view",
      "type": "function"
    },
    {
      "inputs": [],
      "name": "auditInitiator",
      "outputs": [
        {
          "internalType": "address",
          "name": "",
          "type": "address"
        }
      ],
      "stateMutability": "view",
      "type": "function"
    },
    {
      "inputs": [],
      "name": "auditState",
      "outputs": [
        {
          "internalType": "string",
          "name": "",
          "type": "string"
        }
      ],
      "stateMutability": "view",
      "type": "function"
    },
    {
      "inputs": [],
      "name": "auditorAddress",
      "outputs": [
        {
          "internalType": "address",
          "name": "",
          "type": "address"
        }
      ],
      "stateMutability": "view",
      "type": "function"
    },
    {
      "inputs": [],
      "name": "contractAddress",
      "outputs": [
        {
          "internalType": "address",
          "name": "",
          "type": "address"
        }
      ],
      "stateMutability": "view",
      "type": "function"
    },
    {
      "inputs": [],
      "name": "contractOwner",
      "outputs": [
        {
          "internalType": "address",
          "name": "",
          "type": "address"
        }
      ],
      "stateMutability": "view",
      "type": "function"
    },
    {
      "inputs": [],
      "name": "contractParent",
      "outputs": [
        {
          "internalType": "address",
          "name": "",
          "type": "address"
        }
      ],
      "stateMutability": "view",
      "type": "function"
    },
    {
      "inputs": [],
      "name": "createTime",
      "outputs": [
        {
          "internalType": "uint256",
          "name": "",
          "type": "uint256"
        }
      ],
      "stateMutability": "view",
      "type": "function"
    },
    {
      "inputs": [],
      "name": "description",
      "outputs": [
        {
          "internalType": "string",
          "name": "",
          "type": "string"
        }
      ],
      "stateMutability": "view",
      "type": "function"
    },
    {
      "inputs": [],
      "name": "gateway",
      "outputs": [
        {
          "internalType": "contract IAxelarGateway",
          "name": "",
          "type": "address"
        }
      ],
      "stateMutability": "view",
      "type": "function"
    },
    {
      "inputs": [],
      "name": "index",
      "outputs": [
        {
          "internalType": "uint256",
          "name": "",
          "type": "uint256"
        }
      ],
      "stateMutability": "view",
      "type": "function"
    },
    {
      "inputs": [],
      "name": "jobState",
      "outputs": [
        {
          "internalType": "string",
          "name": "",
          "type": "string"
        }
      ],
      "stateMutability": "view",
      "type": "function"
    },
    {
      "inputs": [],
      "name": "name",
      "outputs": [
        {
          "internalType": "string",
          "name": "",
          "type": "string"
        }
      ],
      "stateMutability": "view",
      "type": "function"
    },
    {
      "inputs": [],
      "name": "nanoId",
      "outputs": [
        {
          "internalType": "string",
          "name": "",
          "type": "string"
        }
      ],
      "stateMutability": "view",
      "type": "function"
    },
    {
      "inputs": [],
      "name": "participantAddress",
      "outputs": [
        {
          "internalType": "address payable",
          "name": "",
          "type": "address"
        }
      ],
      "stateMutability": "view",
      "type": "function"
    },
    {
      "inputs": [],
      "name": "price",
      "outputs": [
        {
          "internalType": "uint256",
          "name": "",
          "type": "uint256"
        }
      ],
      "stateMutability": "view",
      "type": "function"
    },
    {
      "inputs": [],
      "name": "symbol",
      "outputs": [
        {
          "internalType": "string",
          "name": "",
          "type": "string"
        }
      ],
      "stateMutability": "view",
      "type": "function"
    },
    {
      "inputs": [],
      "name": "title",
      "outputs": [
        {
          "internalType": "string",
          "name": "",
          "type": "string"
        }
      ],
      "stateMutability": "view",
      "type": "function"
    },
    {
      "stateMutability": "payable",
      "type": "receive"
    },
    {
      "inputs": [],
      "name": "getJob",
      "outputs": [
        {
          "internalType": "string",
          "name": "_content",
          "type": "string"
        },
        {
          "internalType": "string",
          "name": "_jobState",
          "type": "string"
        },
        {
          "internalType": "address",
          "name": "_contractAddress",
          "type": "address"
        },
        {
          "internalType": "address",
          "name": "_contractParent",
          "type": "address"
        },
        {
          "internalType": "address",
          "name": "_contractOwner",
          "type": "address"
        },
        {
          "internalType": "uint256",
          "name": "_createTime",
          "type": "uint256"
        },
        {
          "internalType": "uint256",
          "name": "_index",
          "type": "uint256"
        },
        {
          "internalType": "string",
          "name": "_description",
          "type": "string"
        },
        {
          "internalType": "address[]",
          "name": "_participants",
          "type": "address[]"
        },
        {
          "internalType": "address",
          "name": "_participantAddress",
          "type": "address"
        },
        {
          "internalType": "string",
          "name": "_symbol",
          "type": "string"
        },
        {
          "internalType": "string",
          "name": "_nanoId",
          "type": "string"
        },
        {
          "internalType": "uint256",
          "name": "_rating",
          "type": "uint256"
        },
        {
          "internalType": "address[]",
          "name": "_auditParticipants",
          "type": "address[]"
        },
        {
          "internalType": "string",
          "name": "_auditState",
          "type": "string"
        },
        {
          "internalType": "address",
          "name": "_auditorAddress",
          "type": "address"
        }
      ],
      "stateMutability": "view",
      "type": "function"
    },
    {
      "inputs": [],
      "name": "withdrawAll",
      "outputs": [],
      "stateMutability": "nonpayable",
      "type": "function"
    },
    {
      "inputs": [],
      "name": "getBalance",
      "outputs": [
        {
          "internalType": "uint256",
          "name": "",
          "type": "uint256"
        }
      ],
      "stateMutability": "view",
      "type": "function"
    },
    {
      "inputs": [
        {
          "internalType": "address payable",
          "name": "_addressToSend",
          "type": "address"
        }
      ],
      "name": "transferToaddress",
      "outputs": [],
      "stateMutability": "payable",
      "type": "function"
    },
    {
      "inputs": [
        {
          "internalType": "address",
          "name": "address_",
          "type": "address"
        }
      ],
      "name": "addressToString",
      "outputs": [
        {
          "internalType": "string",
          "name": "",
          "type": "string"
        }
      ],
      "stateMutability": "pure",
      "type": "function"
    },
    {
      "inputs": [
        {
          "internalType": "address payable",
          "name": "_addressToSend",
          "type": "address"
        },
        {
          "internalType": "string",
          "name": "chain",
          "type": "string"
        }
      ],
      "name": "transferToaddressChain2",
      "outputs": [],
      "stateMutability": "payable",
      "type": "function"
    },
    {
      "inputs": [
        {
          "internalType": "address",
          "name": "_participantAddress",
          "type": "address"
        }
      ],
      "name": "jobParticipate",
      "outputs": [],
      "stateMutability": "nonpayable",
      "type": "function"
    },
    {
      "inputs": [
        {
          "internalType": "address",
          "name": "_auditParticipantAddress",
          "type": "address"
        }
      ],
      "name": "jobAuditParticipate",
      "outputs": [],
      "stateMutability": "nonpayable",
      "type": "function"
    },
    {
      "inputs": [
        {
          "internalType": "uint256",
          "name": "_score",
          "type": "uint256"
        },
        {
          "internalType": "address",
          "name": "_applicant",
          "type": "address"
        }
      ],
      "name": "jobRate",
      "outputs": [],
      "stateMutability": "nonpayable",
      "type": "function"
    },
    {
      "inputs": [
        {
          "internalType": "address payable",
          "name": "_participantAddress",
          "type": "address"
        },
        {
          "internalType": "string",
          "name": "_state",
          "type": "string"
        }
      ],
      "name": "jobStateChange",
      "outputs": [],
      "stateMutability": "nonpayable",
      "type": "function"
    },
    {
      "inputs": [
        {
          "internalType": "string",
          "name": "_favour",
          "type": "string"
        }
      ],
      "name": "jobAuditDecision",
      "outputs": [],
      "stateMutability": "nonpayable",
      "type": "function"
    }
  ],
  "bytecode": "0x60a0604052620036b7803803806200001781620005a7565b92833981019060c081830312620005a25780516001600160401b039190828111620005a257836200004a918301620005e3565b60209384830151848111620005a2578162000067918501620005e3565b926040810151858111620005a2578262000083918301620005e3565b91606082015190868211620005a2576200009f918301620005e3565b608082015160a09092015190926001600160a01b03821691829003620005a257600092836011558551888111620004e45780620000de60025462000655565b97601f988c8a821162000570575b50508b9089831160011462000504578792620004f8575b50508160011b916000199060031b1c1916176002555b8651888111620004e45780600398620001338a5462000655565b8c8a8211620004a8575b50508b908983116001146200043f57879262000433575b50508160011b91600019908a1b1c19161787555b60059262000177845462000655565b87811162000414575b506006626e657760e81b01845560018060a01b03193081600a541617600a5533816009541617600955600b541617600b5542600d556006558051878111620004005780600492620001d2845462000655565b8b898211620003c6575b50508a908883116001146200035f57869262000353575b50508160011b9160001990891b1c19161781555b83519687116200034057506200021f600f5462000655565b84811162000304575b5050859285116001146200029857849550936200028c575b50508260011b92600019911b1c191617600f555b735769d84dd62a6fd969856c75c7d321b84d45592960805260405161300b9081620006ac823960805181818161176201526119310152f35b01519150388062000240565b929190601f19851695600f855280852094905b878210620002eb5750508460019610620002d0575b50505050811b01600f5562000254565b01519060f884600019921b161c1916905538808080620002c0565b80600185978294968601518155019601930190620002ab565b6200032e91600f84528884209086808a01821c8301938b8b1062000336575b01901c019062000692565b388062000228565b9350829362000323565b634e487b7160e01b835260419052602482fd5b015190503880620001f3565b8487528b87209250601f198416875b8d828210620003af57505090846001959493921062000396575b505050811b01815562000207565b0151600019838b1b60f8161c1916905538808062000388565b60018596829396860151815501950193016200036e565b620003ee918689528a828a20918187018a1c8301938710620003f6575b01881c019062000692565b388b620001dc565b92508192620003e3565b634e487b7160e01b84526041600452602484fd5b8486528a86206200042c918901861c81019062000692565b3862000180565b01519050388062000154565b8a88528c88209250601f198416888e5b8282106200048f57505090846001959493921062000476575b505050811b01875562000168565b0151600019838c1b60f8161c1916905538808062000468565b806001869782949787015181550196019401906200044f565b620004d2918c8a528b828b209181870160051c8301938710620004da575b0160051c019062000692565b388c6200013d565b92508192620004c6565b634e487b7160e01b85526041600452602485fd5b01519050388062000103565b600288528c88209250601f198416888e5b828210620005575750509084600195949392106200053d575b505050811b0160025562000119565b015160001960f88460031b161c191690553880806200052e565b8060018697829497870151815501960194019062000515565b6200059a9160028a528b828b209181870160051c8301938710620004da570160051c019062000692565b388c620000ec565b600080fd5b6040519190601f01601f191682016001600160401b03811183821017620005cd57604052565b634e487b7160e01b600052604160045260246000fd5b919080601f84011215620005a25782516001600160401b038111620005cd5760209062000619601f8201601f19168301620005a7565b92818452828287010111620005a25760005b8181106200064157508260009394955001015290565b85810183015184820184015282016200062b565b90600182811c9216801562000687575b60208310146200067157565b634e487b7160e01b600052602260045260246000fd5b91607f169162000665565b8181106200069e575050565b600081556001016200069256fe60c060405260048036101561001d575b50361561001b57600080fd5b005b600090813560e01c908162bc30f91461187957816305747a1f1461183757816306fdde0314611791578163116191b61461174c57816312065fe01461172257816328d963bf1461167c5781632986c0e51461165e5781634327a9f4146116355781634a79d50c1461158f5781634c9bb88a1461153457816354ddcc3a1461148e57816359ff6ba8146114655781635ad8e8ae146113735781635e57966d1461119657816361dcd7ab146111785781637284e4161461115c57816378951a51146111335781638398eff81461109b578163853828b6146110875781638f6541751461105e57816395d89b4114610fb857816398cfc1a614610ed25781639c36c30514610cb3578163a035b1fe14610c95578163bed5572f14610c3a578163ce606ee014610c11578163dcd521f314610b6957508063dd28e14d146107b2578063e2395ad814610235578063f6b4dfb41461020c5763fcd3f1960361000f5734610209576020366003190112610209576101936125e6565b81825480156000146101ad5750506101aa90612da7565b80f35b6001600160a01b0383811690855b8381106101d95750505050156101d0575b5080f35b6101aa90612da7565b82826101e48361270a565b90549060031b1c1614610200575b6101fb90612b75565b6101bb565b600194506101f2565b80fd5b5034610209578060031936011261020957600a546040516001600160a01b039091168152602090f35b503461020957610244366126c7565b600b546001600160a01b03929190831633148080610795575b1561029e5750506102776102726005546127a1565b612f3b565b600c651859dc99595960d21b01600555166001600160601b0360a01b600c541617600c5580f35b83600c94929454163314808091610770575b80610753575b156102e35750505050506102ce6102726005546127a1565b60106770726f677265737360c01b0160055580f35b808061072e575b80610711575b1561031b5750505050506103086102726005546127a1565b600c6572657669657760d01b0160055580f35b81806106ec575b806106cf575b156103565750505050506103406102726005546127a1565b60126818dbdb5c1b195d195960ba1b0160055580f35b61035e612899565b918251602080940120957f41e691fcbdc41a0c9c62caec68dbbdb99b245cbb72f06df6f40fa1bd1b4d97d96040519761039689612626565b626e657760e81b8660039a8b8152015214806106c8575b806106ad575b156103e257505050505050506103cd6102726005546127a1565b60106718d85b98d95b195960c21b0160055580f35b8381519101206103f0612ec6565b84815191012014610405575b50505050505080f35b8061063d575b156105b8575061041f6102726005546127a1565b600a64185d591a5d60da1b01600555601280546001600160a01b0319163317905560135461045590610450906127a1565b612ee7565b6012681c995c5d595cdd195960ba1b016013555b81600b541633149081610593575b8161053b575b5080610530575b610491575b8080806103fc565b835b60015481101561052757816104a782612754565b905490861b1c168284168091146104c757506104c290612b75565b610493565b935050505060056104db61027282546127a1565b600a64185d591a5d60da1b0190556014906001600160601b0360a01b82541617815560139061050d61045083546127a1565b69706572666f726d696e6760b01b0190555b388080610489565b5050505061051f565b506001541515610484565b7fc8cb8d7e4d3c37d5d6f029af5d593d4c94ed80d2ac3c01b0bec1f7887c7464e09150681c995c5d595cdd195960ba1b6105736129cb565b8281519101209160405161058681612626565b600981520152143861047d565b905061059d612899565b8181519101206105ab612ec6565b8281519101201490610477565b8061061a575b15610469576105d16102726005546127a1565b600a64185d591a5d60da1b01600555601280546001600160a01b0319163317905560135461060290610450906127a1565b6012681c995c5d595cdd195960ba1b01601355610469565b50610623612899565b818151910120610631612ea4565b828151910120146105be565b50610646612899565b828151910120610654612e5e565b83815191012014801561068a575b8061040b5750610670612899565b82815191012061067e612ea4565b8381519101201461040b565b50610693612899565b8281519101206106a1612e80565b83815191012014610662565b508051848201206106bc612ae9565b858151910120146103b3565b50816103ad565b50845160208601206106df612b0d565b6020815191012014610328565b506106f5612899565b60208151910120610704612ea4565b6020815191012014610322565b5084516020860120610721612ea4565b60208151910120146102f0565b50610737612899565b60208151910120610746612e80565b60208151910120146102ea565b5084516020860120610763612e80565b60208151910120146102b6565b50610779612899565b60208151910120610788612e5e565b60208151910120146102b0565b50815160208301206107a5612e5e565b602081519101201461025d565b5034610209578060031936011261020957600a54600954600b54600d54600654600c546011546014546040516003546001600160a01b03928316999198939795969383169594831694831693929091169088600061080f836127a1565b8083529260018116908115610b4a5750600114610aea575b61083392500389612642565b61083b612899565b956108446127db565b9260405194858660206000549283815201600080527f290decd9548b62a8d60345a988386fc84ba6bc95484008f6362f93160ef3e5639260005b818110610ac857505061089392500387612642565b61089b612932565b976040519960008b600254916108b0836127a1565b8083529260018116908115610aa95750600114610a49575b6108d49250038c612642565b6040518060a052602060015491828152019060016000527fb10e2d527612073b26eecdfd717e6a320cf44b4afac2b0732d9fcbe2b7fa0cf69060005b818110610a2a57505060a05161092a928190039150612642565b6109326129cb565b9c604051806080526102008091526080510161094d91612a87565b608051808203906020015261096191612a87565b9460805160400152608051606001526080516080015260805160a0015260805160c001526080518082039060e0015261099991612a87565b6080518082039061010001526109ae91612aac565b9060805161012001526080518082039061014001526109cc91612a87565b6080518082039061016001526109e191612a87565b906080516101800152608051808203906101a0015260a05190610a0391612aac565b608051808203906101c00152610a1891612a87565b906080516101e0015260805180910390f35b82546001600160a01b0316845260209093019260019283019201610910565b509060026000527f405787fa12a823e0f2b7631cc41b3ba8828b3321ca811111fa75cd3aa3bb5ace906000915b818310610a8e5750509060206108d4928201016108c8565b80602092948385600194549201015201910190918d92610a76565b602092506108d494915060ff191682840152151560051b8201016108c8565b84546001600160a01b031683526001948501948b94506020909301920161087e565b509060036000527fc2575a0e9e593c00f959f8c92f12db2869c3395a3b0502d05e2516446f71f85b906000915b818310610b2f57505090602061083392820101610827565b80602092948385600194549201015201910190918a92610b17565b6020925061083394915060ff191682840152151560051b820101610827565b905034610c0d576040366003190112610c0d57356001600160a01b0360243581811690819003610c0857601154159182610bfe575b82610bf2575b82610bcb575b82610bbd575b5050156101cc5760115580f35b600b54161490503880610bb0565b9150610bd5612899565b60208151910120610be4612b0d565b602081519101201491610baa565b60058411159250610ba4565b8315159250610b9e565b600080fd5b5080fd5b8234610209578060031936011261020957600b546040516001600160a01b039091168152602090f35b905034610c0d576020366003190112610c0d5735600e54811015610c0d57600e6000527fbb7b4a454dc3493923482f07822329ed19e8244eff582cc204f8554c3620c3fd01546040516001600160a01b039091168152602090f35b82346102095780600319360112610209576020600854604051908152f35b905034610c0d5760209081600319360112610ece5780359067ffffffffffffffff8211610eca57610ce691369101612680565b9060018060a01b038060145416331480610ea7575b80610e84575b80610e37575b610df7575b6014541633149182610dd2575b82610dad575b82610d5c575b5050610d2e5780f35b610d3c6104506013546127a1565b601067199a5b9a5cda195960c21b016013556103406102726005546127a1565b7f394203cb794be55266098011167c87501ca7d1c0037fda6b0c7f871562bc730392508082673832b93337b6b2b960c11b925191012091604051610d9f81612626565b600881520152143880610d25565b9150610db76129cb565b818151910120610dc5612f8f565b8281519101201491610d1f565b9150610ddc612899565b818151910120610dea612ec6565b8281519101201491610d19565b610e056104506013546127a1565b601067636f6d706c65746560c01b01601355610e256102726005546127a1565b6006626e657760e81b01600555610d0c565b507fff92fcfc643524468d06f3b1b0009c6839aa65507d92d305e79e5586a18dcb728351838501206731bab9ba37b6b2b960c11b84604051610e7881612626565b60088152015214610d07565b50610e8d6129cb565b828151910120610e9b612f8f565b83815191012014610d01565b50610eb0612899565b828151910120610ebe612ec6565b83815191012014610cfb565b8380fd5b8280fd5b82346102095780600319360112610209576040516000600554610ef4816127a1565b80845290600190818116908115610f915750600114610f36575b610f3284610f1e81860382612642565b604051918291602083526020830190612a87565b0390f35b6005600090815292507f036b6384b5eca791c62761152d0c79bb0604c104a5fb6f4eb0703f3154bb3db05b828410610f79575050508101602001610f1e82610f0e565b80546020858701810191909152909301928101610f61565b60ff191660208087019190915292151560051b85019092019250610f1e9150839050610f0e565b82346102095780600319360112610209576040516000600f54610fda816127a1565b80845290600190818116908115610f91575060011461100357610f3284610f1e81860382612642565b600f600090815292507f8d1108e10bcb7c27dddfc02ed9d693a074039d026cf4ea4240b40f7d581ac8025b828410611046575050508101602001610f1e82610f0e565b8054602085870181019190915290930192810161102e565b82346102095780600319360112610209576014546040516001600160a01b039091168152602090f35b823461020957806003193601126102095780f35b8234610209576020366003190112610209576110b56125e6565b8160018054156000146110cd5750506101aa90612d65565b8354906001600160a01b0384811690865b8481106110fd575b5050505050156110f4575080f35b6101aa90612d65565b828261110883612754565b90549060031b1c16146111235761111e90612b75565b6110de565b50505091505083808080806110e6565b82346102095780600319360112610209576012546040516001600160a01b039091168152602090f35b8234610209578060031936011261020957610f32610f1e6127db565b82346102095780600319360112610209576020600d54604051908152f35b905034610c0d5760209081600319360112610ece576111b36125e6565b92604051936001600160601b03199060601b1683850152601484526111d784612626565b604051906111e482612626565b601082526f181899199a1a9b1b9c1cb0b131b232b360811b84830152845160019281841b6002928082048414901517156113605782018083116113605761122a90612b32565b9687511561134d57603087890153875185101561134d5787938793879387936078602189015383985b61126b575b60405187815280610f32818a018b612a87565b8051891015611348576001600160f81b03198061129561128b8c85612b64565b5160fc1c85612b64565b5116908a871b918b830486148c1517156113355782860190818711611322576112c190881a918c612b64565b536112dc600f6112d18d86612b64565b5160f81c1685612b64565b5116600391820180921161130f57996113069161130088999a9b9c881a918d612b64565b53612b75565b98979695611253565b634e487b7160e01b865260118852602486fd5b634e487b7160e01b885260118a52602488fd5b634e487b7160e01b875260118952602487fd5b611258565b634e487b7160e01b845260328652602484fd5b634e487b7160e01b845260118652602484fd5b82602036600319011261020957806113896125e6565b611391612899565b602081519101206113a0612ae9565b602081519101201460001461140457600b546001600160a01b0391821690821681146113cd575b50505080f35b828092918192600a541631908282156113fb575bf1156113ef578082806113c7565b604051903d90823e3d90fd5b506108fc6113e1565b505061140e612899565b6020815191012061141d612b0d565b602081519101201461142c5780f35b8080808060018060a01b0380600c541690600a5416319082821561145c575bf16101aa57604051903d90823e3d90fd5b506108fc61144b565b8234610209578060031936011261020957600c546040516001600160a01b039091168152602090f35b823461020957806003193601126102095760405160006002546114b0816127a1565b80845290600190818116908115610f9157506001146114d957610f3284610f1e81860382612642565b6002600090815292507f405787fa12a823e0f2b7631cc41b3ba8828b3321ca811111fa75cd3aa3bb5ace5b82841061151c575050508101602001610f1e82610f0e565b80546020858701810191909152909301928101611504565b905034610c0d576020366003190112610c0d5735600154811015610c0d5760016000527fb10e2d527612073b26eecdfd717e6a320cf44b4afac2b0732d9fcbe2b7fa0cf601546040516001600160a01b039091168152602090f35b823461020957806003193601126102095760405160006003546115b1816127a1565b80845290600190818116908115610f9157506001146115da57610f3284610f1e81860382612642565b6003600090815292507fc2575a0e9e593c00f959f8c92f12db2869c3395a3b0502d05e2516446f71f85b5b82841061161d575050508101602001610f1e82610f0e565b80546020858701810191909152909301928101611605565b82346102095780600319360112610209576009546040516001600160a01b039091168152602090f35b82346102095780600319360112610209576020600654604051908152f35b8234610209578060031936011261020957604051600060135461169e816127a1565b80845290600190818116908115610f9157506001146116c757610f3284610f1e81860382612642565b6013600090815292507f66de8ffda797e3de9c05e8fc57b3bf0ec28a930d40b0d285d93c06501cf6a0905b82841061170a575050508101602001610f1e82610f0e565b805460208587018101919091529093019281016116f2565b8234610209578060031936011261020957600a546040516001600160a01b03909116318152602090f35b82346102095780600319360112610209576040517f00000000000000000000000000000000000000000000000000000000000000006001600160a01b03168152602090f35b823461020957806003193601126102095760405160006007546117b3816127a1565b80845290600190818116908115610f9157506001146117dc57610f3284610f1e81860382612642565b6007600090815292507fa66cc928b5edb82af9bd49922954155ab7b0942694bea4ce44661d9a8736c6885b82841061181f575050508101602001610f1e82610f0e565b80546020858701810191909152909301928101611807565b905034610c0d576020366003190112610c0d57359080548210156102095760206118608361270a565b905460405160039290921b1c6001600160a01b03168152f35b82611883366126c7565b92905061188e612899565b92835160208095012061189f612ae9565b805190860120036118cc57505080915060018060a01b0380600c541681600b541681146113cd5750505080f35b6118d4612899565b8481519101206118e2612b0d565b858151910120146118f5575b5050905080f35b6118fd612932565b6040516349ad89fb60e11b81528381018690526005602482015264615553444360d81b6044820152916001600160a01b03907f000000000000000000000000000000000000000000000000000000000000000082168785606481845afa9485156125db57879561259f575b50600a9083825416946040516370a0823160e01b815286898201528a81602481898c165afa90811561205b579084918b9161256a575b5004958031612464575b5085151580612412575b15611e57575050548216906119c634612dc6565b600c54604051635e57966d60e01b815290851688820152908882602481305afa918215611e4c576603b30b63ab29d160cd1b93600080516020612fb683398151915295938c611abf946014948e8094611e2a575b5050611aaf908d604051998a967f7769746864726177696e67207669612073656e64546f4d616e7920000000000086890152611a58603b8901612bf9565b630103a37960e51b8152611a7482518093898785019101612a64565b0191820152611a8c8251809386600b85019101612a64565b0191681030b2323932b9b99d60b91b600b84015283519384918785019101612a64565b0103600b19810185520183612642565b611ace60405192839283612c88565b0390a1604051635e57966d60e01b815233858201528581602481305afa908115611e05577faf0fb12b97da20938bb1d21fd3d221e0e82a44421eaa81ad19ef3e91c22027e691611b91918891611e10575b50611b78603960405180936b036b9b39739b2b73232b91d160a51b8d830152611b528d8251928391602c86019101612a64565b81016c01031b0b636103b30b63ab29d1609d1b602c820152036019810184520182612642565b60405191829130835260608b8401526060830190612a87565b3460408301520390a160405163095ea7b360e01b81528681604481898673e9f4b6db26f964e5b62fa3bec5115a56b4dbd79a998a8c850152896024850152165af18015611e0557611dd8575b5080600c541695600e5491600160401b831015611dc35760019788840180600e55841015611dae57600e6000527fbb7b4a454dc3493923482f07822329ed19e8244eff582cc204f8554c3620c3fd93840180546001600160a01b0319169091179055604051635e57966d60e01b815273eaaa71f74b01617ba2235083334a1c952bac0a6c878201528781602481305afa908115611da3578891611d81575b50853b15611d7d57611cc79060a060409a9493959a519863fbd9497b60e01b8a52890152600760a4890152663837b63cb3b7b760c91b60c489015260e0602489015260e4880190612a87565b600319938488830301604489015282600e54928381520199600e600052926000915b838310611d66575050505050509183808093611d2589899a97848b99030160648501526040906005815264615553444360d81b60208201520190565b906084830152039134905af18015611d5b57611d47575b50505b8082806118ee565b611d50906125fc565b610209578082611d3c565b6040513d84823e3d90fd5b845481168c529a81019a9385019391850191611ce9565b8780fd5b611d9d91503d808a833e611d958183612642565b810190612b9a565b89611c7b565b6040513d8a823e3d90fd5b603287634e487b7160e01b6000525260246000fd5b604186634e487b7160e01b6000525260246000fd5b611df790873d8911611dfe575b611def8183612642565b810190612d4d565b5086611bdd565b503d611de5565b6040513d88823e3d90fd5b611e2491503d808a833e611d958183612642565b89611b1f565b611aaf92945090611e44913d8091833e611d958183612642565b92908e611a1a565b6040513d8b823e3d90fd5b9182899a929695939998999794975190838101918220611e75612caa565b8581519101201480612274575b156120665750508290541682600c541693604051635e57966d60e01b958682528b8201528981602481305afa91821561205b57888b878e600080516020612fb6833981519152611f2a988f8b998f9991611ee392889261203f575b50612ccb565b90611ef360405192839283612c88565b0390a16040805163095ea7b360e01b81526001600160a01b0390951691850191825260208201969096529296879586948592910190565b0393165af18015611da357612021575b5050600c5416604051918252868201528481602481305afa908115612016578591611ffc575b50823b15611ff857611f9895608092611fce8793611fab6040519a8b998a9889976326ef699d60e01b89528801526084870190612a87565b6003199283878303016024880152612a87565b908482030160448501526040906005815264615553444360d81b60208201520190565b90606483015203925af18015611d5b57611fe9575b50611d3f565b611ff2906125fc565b81611fe3565b8480fd5b61201091503d8087833e611d958183612642565b87611f60565b6040513d87823e3d90fd5b8161203792903d10611dfe57611def8183612642565b508880611f3a565b6120549192503d808a833e611d958183612642565b9038611edd565b6040513d8c823e3d90fd5b9197959850919893955051902061207b612caa565b8881519101201480612227575b156121e2578088918654169381600c541660405190635e57966d60e01b8252858201528381602481305afa9586156121d757600080516020612fb68339815191526120f06120e3612124998e968e968a926121c25750612ccb565b6040519182918583612c88565b0390a16040805163095ea7b360e01b81526001600160a01b0390921687830190815260208101939093529096879283920190565b038185858a165af18015611d5b57889660649583926121a5575b5054169481600c54169760405198899788966323b872dd60e01b885287015260248601526044850152165af1801561219a5761217c575b5050611d3f565b8161219292903d10611dfe57611def8183612642565b508180612175565b6040513d85823e3d90fd5b6121bb90893d8b11611dfe57611def8183612642565b508b61213e565b6120549192503d808c833e611d958183612642565b6040513d86823e3d90fd5b6040516303c4b96f60e41b8152808301889052601b60248201527f696e76616c69642064657374696e6174696f6e206e6574776f726b00000000006044820152606490fd5b507f6f3c53069778183912da77a05fe67c3d6edb208ffdf1ca0161d51543035e3c68835188850120674d6f6f6e6261736560c01b8960405161226881612626565b60088152015214612088565b5088517f564ccaf7594d66b1eaaea24fe01f0585bf52ee70852af4eac0cc4b04711cd0e2858b0191822067457468657265756d60c01b876040516122b781612626565b600881520152149081156123c6575b811561237b575b811561232d575b81156122e1575b50611e82565b7f890af8db8ca1aa1e915857edbc2717639ebd8a22c786f9e0e776d6a1aacb5e7191508a519020662837b63cb3b7b760c91b8660405161232081612626565b600781520152148d6122db565b90507f6585177c3aba6cb7ffc0a37e831a958c4ee9278e4c62c7bdad7175ca09883c408a518220684176616c616e63686560b81b8760405161236e81612626565b60098152015214906122d4565b90507fcbf2a723bab3288b57db0bfae9d136af04a5c70c9acd46aad23acb67ef5fe1798a5182206546616e746f6d60d01b876040516123b981612626565b60068152015214906122cd565b90507f1de46e819416afc37058fd1cf806b9bcf96fa5d23b3ae565d6c72f0e19be9a9e8a5182206642696e616e636560c81b8760405161240581612626565b60078152015214906122c6565b507f1a6bd43edc4fed0639580a1068f23990a8127e419b84485501428e10beebabb584518b8601206c2837b63cb3b7b720bc32b630b960991b8c60405161245881612626565b600d81520152146119b2565b85600c541690604051635e57966d60e01b8152828b8201528b81602481305afa90811561255f578c9384938f61251a8695600080516020612fb6833981519152928796879261253c575b5060166120e39160405193816b03bb4ba34323930bbb4b733960a51b869384015261250a6124de602c8501612bf9565b91750103a379022ba3432b932bab69030b2323932b9b99d160551b835283519384918785019101612a64565b0103600919810184520182612642565b0390a13190828215612533575bf115611da3578a6119a8565b506108fc612527565b6120e39192506125576016913d808b833e611d958183612642565b9291506124ae565b6040513d8e823e3d90fd5b8092508c8092503d8311612598575b6125838183612642565b81010312612594578390518c61199e565b8980fd5b503d612579565b9094508781813d83116125d4575b6125b78183612642565b810103126125d0575182811681036125d0579388611968565b8680fd5b503d6125ad565b6040513d89823e3d90fd5b600435906001600160a01b0382168203610c0857565b67ffffffffffffffff811161261057604052565b634e487b7160e01b600052604160045260246000fd5b6040810190811067ffffffffffffffff82111761261057604052565b90601f8019910116810190811067ffffffffffffffff82111761261057604052565b67ffffffffffffffff811161261057601f01601f191660200190565b81601f82011215610c085780359061269782612664565b926126a56040519485612642565b82845260208383010111610c0857816000926020809301838601378301015290565b906040600319830112610c08576004356001600160a01b0381168103610c0857916024359067ffffffffffffffff8211610c085761270791600401612680565b90565b906000918254811015612740578280527f290decd9548b62a8d60345a988386fc84ba6bc95484008f6362f93160ef3e563019190565b634e487b7160e01b83526032600452602483fd5b60015481101561278b5760016000527fb10e2d527612073b26eecdfd717e6a320cf44b4afac2b0732d9fcbe2b7fa0cf60190600090565b634e487b7160e01b600052603260045260246000fd5b90600182811c921680156127d1575b60208310146127bb57565b634e487b7160e01b600052602260045260246000fd5b91607f16916127b0565b60405190600082600454916127ef836127a1565b808352926001908181169081156128775750600114612818575b5061281692500383612642565b565b6004600090815291507f8a35acfbc15ff81a39ae7d344fd709f28e8600b4aa8c65c6b64bfe7fe36bd19b5b84831061285c5750612816935050810160200138612809565b81935090816020925483858a01015201910190918592612843565b90506020925061281694915060ff191682840152151560051b82010138612809565b60405190600082600554916128ad836127a1565b8083529260019081811690811561287757506001146128d3575061281692500383612642565b6005600090815291507f036b6384b5eca791c62761152d0c79bb0604c104a5fb6f4eb0703f3154bb3db05b8483106129175750612816935050810160200138612809565b81935090816020925483858a010152019101909185926128fe565b60405190600082600f5491612946836127a1565b80835292600190818116908115612877575060011461296c575061281692500383612642565b600f600090815291507f8d1108e10bcb7c27dddfc02ed9d693a074039d026cf4ea4240b40f7d581ac8025b8483106129b05750612816935050810160200138612809565b81935090816020925483858a01015201910190918592612997565b60405190600082601354916129df836127a1565b808352926001908181169081156128775750600114612a05575061281692500383612642565b6013600090815291507f66de8ffda797e3de9c05e8fc57b3bf0ec28a930d40b0d285d93c06501cf6a0905b848310612a495750612816935050810160200138612809565b81935090816020925483858a01015201910190918592612a30565b60005b838110612a775750506000910152565b8181015183820152602001612a67565b90602091612aa081518092818552858086019101612a64565b601f01601f1916010190565b90815180825260208080930193019160005b828110612acc575050505090565b83516001600160a01b031685529381019392810192600101612abe565b60405190612af682612626565b600882526718d85b98d95b195960c21b6020830152565b60405190612b1a82612626565b600982526818dbdb5c1b195d195960ba1b6020830152565b90612b3c82612664565b612b496040519182612642565b8281528092612b5a601f1991612664565b0190602036910137565b90815181101561278b570160200190565b6000198114612b845760010190565b634e487b7160e01b600052601160045260246000fd5b602081830312610c085780519067ffffffffffffffff8211610c08570181601f82011215610c08578051612bcd81612664565b92612bdb6040519485612642565b81845260208284010111610c08576127079160208085019101612a64565b600f5460009291612c09826127a1565b91600190818116908115612c755750600114612c2457505050565b9091929350600f6000527f8d1108e10bcb7c27dddfc02ed9d693a074039d026cf4ea4240b40f7d581ac802906000915b848310612c62575050500190565b8181602092548587015201920191612c54565b60ff191683525050811515909102019150565b6001600160a01b03909116815260406020820181905261270792910190612a87565b60405190612cb782612626565b6005825264615553444360d81b6020830152565b6040516b03bb4ba34323930bbb4b733960a51b6020820152929161281691600c918591612cfa602c8401612bf9565b630103a37960e51b8152612d18825180936020600485019101612a64565b016730b2323932b9b99d60c11b6004820152612d3d8251809360208785019101612a64565b0103601319810185520183612642565b90816020910312610c0857518015158103610c085790565b600154600160401b81101561261057806001612d849201600155612754565b819291549060031b9160018060a01b039283811b93849216901b16911916179055565b600054600160401b81101561261057806001612d84920160005561270a565b8015612e405780816000925b612e2c5750612de082612b32565b9190805b612ded57505090565b600a906030928282068401809411612b84578015612b8457600019019260f81b6001600160f81b03191660001a612e248486612b64565b530480612de4565b91612e38600a91612b75565b920480612dd2565b50604051612e4d81612626565b60018152600360fc1b602082015290565b60405190612e6b82612626565b60068252651859dc99595960d21b6020830152565b60405190612e8d82612626565b600882526770726f677265737360c01b6020830152565b60405190612eb182612626565b600682526572657669657760d01b6020830152565b60405190612ed382612626565b6005825264185d591a5d60da1b6020830152565b601f8111612ef25750565b600060138152601f7f66de8ffda797e3de9c05e8fc57b3bf0ec28a930d40b0d285d93c06501cf6a090920160051c8201915b828110612f3057505050565b818155600101612f24565b601f8111612f465750565b600060058152601f7f036b6384b5eca791c62761152d0c79bb0604c104a5fb6f4eb0703f3154bb3db0920160051c8201915b828110612f8457505050565b818155600101612f78565b60405190612f9c82612626565b600a825269706572666f726d696e6760b01b602083015256fef914ca0348190fe49c31ec3901a60069cc792666a05ee2db257a8491cbad2b1ea2646970667358221220b33d6935fea99e60172c1f70a81e8853a16f2d0046d0e311478701d71fdbcd0e64736f6c63430008110033",
  "immutableReferences": {
    "1944": [
      {
        "length": 32,
        "start": 5986
      },
      {
        "length": 32,
        "start": 6449
      }
    ]
  },
  "source": "// SPDX-License-Identifier: MIT\npragma solidity ^0.8.12;\n\n// import { IDistributionExecutable } from './IDistributionExecutable.sol';\nimport { IDistributionExecutable } from './IDistributionExecutable.sol';\n\n\n// import { AxelarExecutable } from '@axelar-network/axelar-gmp-sdk-solidity/contracts/executables/AxelarExecutable.sol';\nimport { IAxelarGateway } from '@axelar-network/axelar-gmp-sdk-solidity/contracts/interfaces/IAxelarGateway.sol';\nimport { IERC20 } from '@axelar-network/axelar-gmp-sdk-solidity/contracts/interfaces/IERC20.sol';\n// import { IAxelarGasService } from '@axelar-network/axelar-gmp-sdk-solidity/contracts/interfaces/IAxelarGasService.sol';\nimport { StringToAddress, AddressToString } from '@axelar-network/axelar-gmp-sdk-solidity/contracts/StringAddressUtils.sol';\n\nerror RevertReason (string message);\n\ncontract Factory {\n    IAxelarGateway public immutable gateway;\n\n    Job[] public jobArray;\n    // address contractOwner;\n    uint256 public countNew = 0;\n    uint256 countAgreed = 0;\n    uint256 countProgress = 0;\n    uint256 countReview = 0;\n    uint256 countCompleted = 0;\n    uint256 countCanceled = 0;\n    string stateNew = \"new\";\n    string stateAgreed = \"agreed\";\n    string stateProgress = \"progress\";\n    string stateReview = \"review\";\n    string stateCompleted = \"completed\";\n    string stateCanceled = \"canceled\";\n\n    event OneEventForAll(address contractAdr, uint256 index);\n\n\n    event JobContractCreated(\n        string nanoId,\n        address jobAddress,\n        address jobOwner,\n        string title,\n        string description,\n        string symbol,\n        uint256 amount\n    );\n\n\n    constructor() {\n        address gateway_ = 0x5769D84DD62a6fD969856c75c7D321b84d455929;\n        gateway = IAxelarGateway(gateway_);\n    }\n\n    // initial: new, contractor choosed: agreed, work in progress: progress, completed: completed, canceled\n\n    // function indexCalculation(string memory _state) public returns (uint256) {}\n\n    function createJobContract(string memory _nanoId, string memory _title, string memory _description, string memory _symbol, uint256 _amount)\n    external\n    payable\n    {\n        Job job = new Job{value: msg.value}(\n            _nanoId,\n            _title,\n            _description,\n            _symbol,\n            jobArray.length,\n            msg.sender\n        );\n\n        if (keccak256(bytes(_symbol)) != keccak256(bytes(\"ETH\"))) {\n            address tokenAddress = gateway.tokenAddresses(_symbol);\n            // amount = IERC20(tokenAddress).balanceOf(contractAddress);\n            IERC20(tokenAddress).transferFrom(msg.sender, address(job), _amount);\n        }\n        // IERC20(tokenAddress).approve(address(gateway), _amount);\n\n        jobArray.push(job);\n        countNew++;\n        emit JobContractCreated(_nanoId, address(job), msg.sender, _title, _description, _symbol, _amount);\n        emit OneEventForAll(address(job), job.index());\n    }\n\n    // function findJobs(uint256 _myIndex) external view returns (address) {\n    //     return address(jobArray[_myIndex]);\n    // }\n\n    function allJobs() external view returns (Job[] memory _jobs) {\n        _jobs = new Job[](jobArray.length);\n        uint256 count;\n        for (uint256 i = 0; i < jobArray.length; i++) {\n            _jobs[count] = jobArray[i];\n            count++;\n        }\n    }\n\n\n    function jobParticipate(Job job) external {\n        jobArray[job.index()].jobParticipate(msg.sender);\n        emit OneEventForAll(address(job), job.index());\n    }\n\n    function jobAuditParticipate(Job job) external {\n        jobArray[job.index()].jobAuditParticipate(msg.sender);\n        emit OneEventForAll(address(job), job.index());\n    }\n\n    function jobRating(Job job, uint256 _score) external {\n        jobArray[job.index()].jobRate(_score, msg.sender);\n        emit OneEventForAll(address(job), job.index());\n    }\n\n\n    function jobStateChange(\n        Job job,\n        address payable _participantAddress,\n        string memory _state\n    ) external {\n        jobArray[job.index()].jobStateChange(_participantAddress, _state);\n        emit OneEventForAll(address(job), job.index());\n    }\n    \n\n    function jobAuditStateChange(\n        Job job,\n        string memory _favour\n    ) external {\n        jobArray[job.index()].jobAuditDecision(_favour);\n        emit OneEventForAll(address(job), job.index());\n    }\n\n    // function jobReview(Job job, address _participantAddress) external {\n    //     jobArray[job.index()].jobReview(_participantAddress);\n    //     countProgress++;\n    // }\n\n    // function jobConfimation(Job job, address _participantAddress) external {\n    //     jobArray[job.index()].jobConfimation(_participantAddress);\n    //     countReview++;\n    // }\n\n    function transferToaddress(Job job, address payable addressToSend)\n    external\n    payable\n    {\n        // addressToSend.transfer(0.5 ether);\n        jobArray[job.index()].transferToaddress(addressToSend);\n        emit OneEventForAll(address(job), job.index());\n    }\n\n    // function transferToaddressChain(Job job, address payable addressToSend, string memory chain)\n    // external\n    // payable\n    // {\n    //     jobArray[job.index()].transferToaddressChain(addressToSend, chain);\n    //     emit OneEventForAll(address(job), job.index());\n    // }\n\n    function transferToaddressChain2(Job job, address payable addressToSend, string memory chain)\n    external\n    payable\n    {\n        jobArray[job.index()].transferToaddressChain2{value: msg.value}(addressToSend, chain);\n        emit OneEventForAll(address(job), job.index());\n    }\n\n\n    // function jobCanceled(Job job) external {\n    //     jobArray[job.index()].jobCanceled();\n    //     countCanceled++;\n    // }\n\n    // function getContractAdr(uint256 _classIndex)\n    //     external\n    //     view\n    //     returns (address)\n    // {\n    //     Job _retBal = Job(payable(address(jobArray[_classIndex])));\n    //     return _retBal.returnContractAddress();\n    // }\n\n    function getBalance(uint256 _classIndex) external view returns (uint256) {\n        Job _retBal = Job(payable(address(jobArray[_classIndex])));\n        return _retBal.getBalance();\n    }\n\n    // function thisContract() external view returns (address) {\n    //     address thisConr = address(this);\n    //     return thisConr;\n    // }\n\n    function getJobInfo(uint256 _classIndex)\n    external\n    view\n    returns (\n        string memory,\n        string memory,\n        address,\n        address,\n        address,\n        uint256,\n        uint256,\n        string memory,\n        address[] memory,\n        address,\n        string memory,\n        string memory,\n        uint256,\n        address[] memory,\n        string memory,\n        address\n        \n    )\n    {\n        Job _retBal = Job(payable(address(jobArray[_classIndex])));\n        return _retBal.getJob();\n    }\n\n    // receive() external payable {}\n}\n\ncontract Job {\n    // IDistributionExecutable public immutable distributor;\n\n    IAxelarGateway public immutable gateway;\n    using AddressToString for address;\n    using StringToAddress for string;\n\n    address[] public Participants;\n    address[] public AuditParticipants;\n    // uint256 public data;\n    string public nanoId;\n    string public title;\n    string public description;\n    string public jobState;\n    uint256 public index;\n\n    string public name;\n    uint256 public price;\n    address public contractParent;\n    address public contractAddress;\n    address public contractOwner;\n    address payable public participantAddress;\n    uint256 public createTime;\n    address[] public _destinationAddresses;\n    string public symbol;\n    uint256 amount;\n    uint256 rating = 0;\n    address public auditInitiator;\n    string public auditState;\n    address public auditorAddress;\n\n\n    event Logs(address contractAdr, string message);\n    event LogsValue(address contractAdr, string message, uint value);\n\n    constructor(\n        string memory _nanoId,\n        string memory _title,\n        string memory _description,\n        string memory _symbol,\n        uint256 _index,\n        address _contractOwner\n        // uint256 _rating\n    ) payable {\n        // data = _data;\n        nanoId = _nanoId;\n        title = _title;\n        jobState = \"new\";\n        contractAddress = address(this);\n        contractParent = msg.sender;\n        contractOwner = _contractOwner;\n        createTime = block.timestamp;\n        index = _index;\n        description = _description;\n        symbol = _symbol;\n        // rating = _rating;\n\n        address gateway_ = 0x5769D84DD62a6fD969856c75c7D321b84d455929;\n        gateway = IAxelarGateway(gateway_);\n\n        // address distributor_ = 0xE9F4b6dB26f964E5B62Fa3bEC5115a56B4DBd79A;\n        // distributor = IDistributionExecutable(distributor_);\n        // distributor = DistributionExecutable(gateway_);\n        // balance = contractAddress.balance;\n        // createJob(_content, _index);\n        // myStruct = jobStructData(\n        //     _data,\n        //     true,\n        //     address(this),\n        //     msg.sender,\n        //     block.timestamp,\n        //     _index\n        // );\n    }\n\n    // event OneEventForAll2(address contractAdr);\n\n    // function createJob(string memory _content, uint256 _index) public {\n    //     jobStructDataArray.push();\n\n    //     jobStructData(\n    //         _content,\n    //         true,\n    //         address(this),\n    //         msg.sender,\n    //         block.timestamp\n    //     );\n    //     emit jobCreated(_content, _index);\n    // }\n\n    function getJob() public view returns (\n        string memory _content,\n        string memory _jobState,\n        address _contractAddress,\n        address _contractParent,\n        address _contractOwner,\n        uint256 _createTime,\n        uint256 _index,\n        string memory _description,\n        address[] memory _participants,\n        address _participantAddress,\n        string memory _symbol,\n        string memory _nanoId,\n        uint256 _rating,\n        address[] memory _auditParticipants,\n        string memory _auditState,\n        address _auditorAddress\n    )\n    {\n        return (\n            title,\n            jobState,\n            contractAddress,\n            contractParent,\n            contractOwner,\n            createTime,\n            index,\n            description,\n            Participants,\n            participantAddress,\n            symbol,\n            nanoId,\n            rating,\n            AuditParticipants,\n            auditState,\n            auditorAddress\n        );\n    }\n\n    function withdrawAll() external {\n        // jobState = true;\n    }\n\n    // function getContractInfo() public view returns (uint256) {\n    //     return contractAddress.balance;\n    // }\n\n    function getBalance() public view returns (uint256) {\n        return contractAddress.balance;\n    }\n\n    function transferToaddress(address payable _addressToSend) public payable {\n        if (keccak256(bytes(jobState)) == keccak256(bytes(\"canceled\"))) {\n            if (_addressToSend == contractOwner) {\n                _addressToSend.transfer(contractAddress.balance);\n            }\n        } else if (\n            keccak256(bytes(jobState)) == keccak256(bytes(\"completed\"))\n        ) {\n\n            participantAddress.transfer(contractAddress.balance);\n        }\n        // msg.sender.transfer(address(this).balance);\n    }\n\n    // function transferToaddressChain(address payable _addressToSend, string memory chain) public payable {\n    //     if (keccak256(bytes(jobState)) == keccak256(bytes(\"canceled\"))) {\n    //         if (_addressToSend == contractOwner) {\n    //             _addressToSend.transfer(contractAddress.balance);\n    //         }\n    //     } else if (\n    //         keccak256(bytes(jobState)) == keccak256(bytes(\"completed\"))\n    //     ) {\n    //         _destinationAddresses.push(participantAddress);\n    //         distributor.sendToMany(chain, _addressToSend, _destinationAddresses, 'WETH', contractAddress.balance);\n    //     }\n    //     // msg.sender.transfer(address(this).balance);\n    // }\n\n    function addressToString(address address_) external pure returns (string memory) {\n        return address_.toString();\n    }\n\n    function uint2str(\n        uint256 _i\n      )\n        internal\n        pure\n        returns (string memory str)\n      {\n        if (_i == 0)\n        {\n          return \"0\";\n        }\n        uint256 j = _i;\n        uint256 length;\n        while (j != 0)\n        {\n          length++;\n          j /= 10;\n        }\n        bytes memory bstr = new bytes(length);\n        uint256 k = length;\n        j = _i;\n        while (j != 0)\n        {\n          bstr[--k] = bytes1(uint8(48 + j % 10));\n          j /= 10;\n        }\n        str = string(bstr);\n      }\n\n    function transferToaddressChain2(address payable _addressToSend, string memory chain) public payable {\n        if (keccak256(bytes(jobState)) == keccak256(bytes(\"canceled\"))) {\n            if (participantAddress == contractOwner) {\n                participantAddress.transfer(contractAddress.balance);\n            }\n        } else if (\n            keccak256(bytes(jobState)) == keccak256(bytes(\"completed\")) //|| 1==1\n        ) {\n            bytes memory symbolBytes = bytes(symbol);\n            bytes memory chainBytes = bytes(chain);\n\n            //check USDC balance\n            address tokenAddress = gateway.tokenAddresses(\"aUSDC\");\n            uint256 contractUSDCAmount = IERC20(tokenAddress).balanceOf(contractAddress)/10;\n            \n            //check ETH balance\n            if (contractAddress.balance != 0) {\n                emit Logs(address(contractAddress), string.concat(\"withdrawing \", symbol, \" to Ethereum address: \",this.addressToString(participantAddress)));\n                participantAddress.transfer(contractAddress.balance);\n            } \n            if (contractUSDCAmount !=0 && (\n                keccak256(chainBytes) == keccak256(bytes(\"PolygonAxelar\"))\n            )) {\n                emit Logs(address(contractAddress), string.concat(\"withdrawing via sendToMany \", symbol, \" to \", chain, \"value: \", uint2str(msg.value), \" address:\",this.addressToString(participantAddress)));\n                emit LogsValue(address(this), string.concat(\"msg.sender: \", this.addressToString(msg.sender),\" call value: \"), msg.value);\n                // string memory _addressToSend2 = bytes(_addressToSend);\n                IERC20(tokenAddress).approve(0xE9F4b6dB26f964E5B62Fa3bEC5115a56B4DBd79A, contractUSDCAmount);\n                _destinationAddresses.push(participantAddress);\n                IDistributionExecutable(0xE9F4b6dB26f964E5B62Fa3bEC5115a56B4DBd79A).sendToMany{value: msg.value}(\"polygon\", this.addressToString(0xEAAA71f74b01617BA2235083334a1c952BAC0a6C), _destinationAddresses, 'aUSDC', contractUSDCAmount);\n            }\n            else if (keccak256(symbolBytes) == keccak256(bytes(\"aUSDC\")) && (\n                keccak256(chainBytes) == keccak256(bytes(\"Ethereum\")) || \n                keccak256(chainBytes) == keccak256(bytes(\"Binance\")) ||\n                keccak256(chainBytes) == keccak256(bytes(\"Fantom\")) ||\n                keccak256(chainBytes) == keccak256(bytes(\"Avalanche\")) ||\n                keccak256(chainBytes) == keccak256(bytes(\"Polygon\"))\n            )) {\n                emit Logs(address(contractAddress), string.concat(\"withdrawing \", symbol, \" to \", chain, \"address:\",this.addressToString(participantAddress)));\n                // _destinationAddresses.push(_addressToSend);\n                // distributor.sendToMany(chain, _addressToSend, _destinationAddresses, 'aUSDC', contractAddress.balance);\n                // string memory _addressToSend2 = bytes(_addressToSend);\n\n                IERC20(tokenAddress).approve(address(gateway), contractUSDCAmount);\n                // gateway.sendToken(chain, toAsciiString(participantAddress), \"aUSDC\", amount);\n                gateway.sendToken(chain, this.addressToString(participantAddress), \"aUSDC\", contractUSDCAmount);\n            } else if (keccak256(symbolBytes) == keccak256(bytes(\"aUSDC\")) && keccak256(chainBytes) == keccak256(bytes(\"Moonbase\"))) {\n                // revert InvalidToken({\n                //     token: string.concat(\"we are in moonbase, participantAddress\",this.addressToString(participantAddress))\n                // });\n                emit Logs(address(contractAddress), string.concat(\"withdrawing \", symbol, \" to \", chain, \"address:\",this.addressToString(participantAddress)));\n                IERC20(tokenAddress).approve(contractAddress, contractUSDCAmount);\n                IERC20(tokenAddress).transferFrom(contractAddress, participantAddress, contractUSDCAmount);\n                // IERC20(tokenAddress).approve(address(gateway), amount);\n            }\n            else{\n                revert RevertReason({\n                    message: \"invalid destination network\"\n                });\n            }\n        }\n        // msg.sender.transfer(address(this).balance);\n    }\n\n    function toAsciiString(address x) internal pure returns (string memory) {\n        bytes memory s = new bytes(40);\n        for (uint i = 0; i < 20; i++) {\n            bytes1 b = bytes1(uint8(uint(uint160(x)) / (2**(8*(19 - i)))));\n            bytes1 hi = bytes1(uint8(b) / 16);\n            bytes1 lo = bytes1(uint8(b) - 16 * uint8(hi));\n            s[2*i] = char(hi);\n            s[2*i+1] = char(lo);\n        }\n        return string(s);\n    }\n\n    function char(bytes1 b) internal pure returns (bytes1 c) {\n        if (uint8(b) < 10) return bytes1(uint8(b) + 0x30);\n        else return bytes1(uint8(b) + 0x57);\n    }\n\n\n    function jobParticipate(address _participantAddress) external {\n        bool existed = false;\n        if (Participants.length == 0) {\n            Participants.push(_participantAddress);\n        } else {\n            for (uint256 i = 0; i < Participants.length; i++) {\n                if (Participants[i] == _participantAddress) {\n                    existed = true;\n                }\n            }\n            if (!existed) {\n                Participants.push(_participantAddress);\n            }\n        }\n    }\n\n    function jobAuditParticipate(address _auditParticipantAddress) external {\n        // TODO: add NFT based auditor priviledge check\n        bool existed = false;\n        if (AuditParticipants.length == 0) {\n            AuditParticipants.push(_auditParticipantAddress);\n        } else {\n            for (uint256 i = 0; i < Participants.length; i++) {\n                if (AuditParticipants[i] == _auditParticipantAddress) {\n                    existed = true;\n                    break;\n                }\n            }\n            if (!existed) {\n                AuditParticipants.push(_auditParticipantAddress);\n            }\n        }\n    }\n\n    function jobRate(uint _score, address _applicant) external {\n        if (\n            rating == 0 &&\n            _score != 0 &&\n            _score <= 5 &&\n            keccak256(bytes(jobState)) == keccak256(bytes(\"completed\")) &&\n            contractOwner == _applicant\n        ) {\n            rating = _score;\n        } else {\n        }\n    }\n\n    function jobStateChange(\n        address payable _participantAddress,\n        string memory _state\n        // string memory _message\n    ) external {\n        if (msg.sender == contractOwner && keccak256(bytes(_state)) == keccak256(bytes(\"agreed\"))) {\n            //TODO: LETS FIX IT!!!!! _participantAddress must be compared with participant list in its contract ************************\n            jobState = \"agreed\";\n            participantAddress = _participantAddress;\n        } else if (msg.sender == participantAddress &&\n            keccak256(bytes(jobState)) == keccak256(bytes(\"agreed\")) && keccak256(bytes(_state)) == keccak256(bytes(\"progress\"))) {\n            jobState = \"progress\";\n        } else if (msg.sender == participantAddress && \n            keccak256(bytes(jobState)) == keccak256(bytes(\"progress\")) && keccak256(bytes(_state)) == keccak256(bytes(\"review\"))) {\n            jobState = \"review\";\n        } else if (msg.sender == contractOwner && \n            keccak256(bytes(jobState)) == keccak256(bytes(\"review\")) && keccak256(bytes(_state)) == keccak256(bytes(\"completed\"))) {\n            jobState = \"completed\";\n        } else if (keccak256(bytes(jobState)) == keccak256(bytes(\"new\")) && msg.sender == contractOwner && keccak256(bytes(_state)) == keccak256(bytes(\"canceled\"))) {\n            jobState = \"canceled\";\n        } else if (keccak256(bytes(_state)) == keccak256(bytes(\"audit\"))){\n            if(msg.sender == contractOwner &&\n                (keccak256(bytes(jobState)) == keccak256(bytes(\"agreed\")) || keccak256(bytes(jobState)) == keccak256(bytes(\"progress\")) || keccak256(bytes(jobState)) == keccak256(bytes(\"review\")))){\n                jobState = \"audit\";\n                auditInitiator = msg.sender;\n                auditState = 'requested';\n            }\n            else if(msg.sender == participantAddress &&\n                (keccak256(bytes(jobState)) == keccak256(bytes(\"review\"))))\n\n            {\n                jobState = \"audit\";\n                auditInitiator = msg.sender;\n                auditState = 'requested';\n                //TODO: audit history need to add \n            }\n            if(msg.sender == contractOwner &&\n                keccak256(bytes(jobState)) == keccak256(bytes(\"audit\")) && \n                keccak256(bytes(auditState)) == keccak256(bytes(\"requested\")) &&\n                AuditParticipants.length != 0){\n                for (uint256 i = 0; i < AuditParticipants.length; i++) {\n                    if (AuditParticipants[i] == _participantAddress) {\n                        jobState = \"audit\";\n                        auditorAddress = _participantAddress;\n                        auditState = 'performing';\n                        break;\n                    }\n                }\n\n            }\n        }\n    }\n\n    function jobAuditDecision(\n        // address payable _participantAddress,\n        string memory _favour\n    ) external {\n        // TODO: add NFT based auditor priviledge check\n        if (msg.sender == auditorAddress && keccak256(bytes(jobState)) == keccak256(bytes(\"audit\"))\n        && keccak256(bytes(auditState)) == keccak256(bytes(\"performing\"))\n        && keccak256(bytes(_favour)) == keccak256(bytes(\"customer\"))) {\n            auditState = \"complete\";\n            jobState = \"new\";\n        }\n        if (msg.sender == auditorAddress && keccak256(bytes(jobState)) == keccak256(bytes(\"audit\"))\n        && keccak256(bytes(auditState)) == keccak256(bytes(\"performing\"))\n        && keccak256(bytes(_favour)) == keccak256(bytes(\"perfomer\"))) {\n            auditState = \"finished\";\n            jobState = \"completed\";\n        }\n    }\n\n    // function jobReview(address _participantAddress) external {\n    //     if (participantAddress == _participantAddress) {\n    //         jobState = \"review\";\n    //     }\n    // }\n\n    // function jobParticiantAgreed(address _participantAddress) external {\n    //     jobState = \"agreed\";\n    //     participantAddress = _participantAddress;\n\n    //     // for (uint256 i = 0; i < Participants.length; i++) {\n    //     //     if (Participants[i] == _participantAddress) {\n    //     //         jobState = \"agreed\";\n    //     //         participantAddress = _participantAddress;\n    //     //     }\n    //     // }\n    // }\n\n    // function jobInProgress() external {\n    //     jobState = \"progress\";\n    // }\n\n    // function jobCompleted() external {\n    //     jobState = \"completed\";\n    // }\n\n    // function jobCanceled() external {\n    //     jobState = \"canceled\";\n    // }\n\n    receive() external payable {}\n\n    // fallback () external payable    {\n\n    // }\n\n    // constructor(string memory _name, address _owner) {\n    //     name = _name;\n    //     owner = _owner;\n    // }\n}\n",
  "sourcePath": "/home/user/Documents/mainstream/devopsdao/contracts/Factory.sol",
  "compiler": {
    "name": "solc",
    "version": "0.8.17+commit.8df45f5f.Emscripten.clang"
  },
  "schemaVersion": "3.4.10",
  "updatedAt": "2022-10-14T10:21:17.017Z",
  "devdoc": {
    "kind": "dev",
    "methods": {},
    "version": 1
  },
  "userdoc": {
    "kind": "user",
    "methods": {},
    "version": 1
  }
}