{
  "contractName": "Job",
  "abi": [
    {
      "inputs": [
        {
          "internalType": "string",
          "name": "_nanoId",
          "type": "string"
        },
        {
          "internalType": "string",
          "name": "_title",
          "type": "string"
        },
        {
          "internalType": "string",
          "name": "_description",
          "type": "string"
        },
        {
          "internalType": "string",
          "name": "_symbol",
          "type": "string"
        },
        {
          "internalType": "uint256",
          "name": "_index",
          "type": "uint256"
        },
        {
          "internalType": "address",
          "name": "_contractOwner",
          "type": "address"
        }
      ],
      "stateMutability": "payable",
      "type": "constructor"
    },
    {
      "inputs": [
        {
          "internalType": "string",
          "name": "token",
          "type": "string"
        }
      ],
      "name": "InvalidToken",
      "type": "error"
    },
    {
      "anonymous": false,
      "inputs": [
        {
          "indexed": false,
          "internalType": "address",
          "name": "contractAdr",
          "type": "address"
        },
        {
          "indexed": false,
          "internalType": "string",
          "name": "message",
          "type": "string"
        }
      ],
      "name": "Logs",
      "type": "event"
    },
    {
      "inputs": [
        {
          "internalType": "uint256",
          "name": "",
          "type": "uint256"
        }
      ],
      "name": "Participants",
      "outputs": [
        {
          "internalType": "address",
          "name": "",
          "type": "address"
        }
      ],
      "stateMutability": "view",
      "type": "function"
    },
    {
      "inputs": [
        {
          "internalType": "uint256",
          "name": "",
          "type": "uint256"
        }
      ],
      "name": "_destinationAddresses",
      "outputs": [
        {
          "internalType": "address",
          "name": "",
          "type": "address"
        }
      ],
      "stateMutability": "view",
      "type": "function"
    },
    {
      "inputs": [],
      "name": "contractAddress",
      "outputs": [
        {
          "internalType": "address",
          "name": "",
          "type": "address"
        }
      ],
      "stateMutability": "view",
      "type": "function"
    },
    {
      "inputs": [],
      "name": "contractOwner",
      "outputs": [
        {
          "internalType": "address",
          "name": "",
          "type": "address"
        }
      ],
      "stateMutability": "view",
      "type": "function"
    },
    {
      "inputs": [],
      "name": "contractParent",
      "outputs": [
        {
          "internalType": "address",
          "name": "",
          "type": "address"
        }
      ],
      "stateMutability": "view",
      "type": "function"
    },
    {
      "inputs": [],
      "name": "createTime",
      "outputs": [
        {
          "internalType": "uint256",
          "name": "",
          "type": "uint256"
        }
      ],
      "stateMutability": "view",
      "type": "function"
    },
    {
      "inputs": [],
      "name": "description",
      "outputs": [
        {
          "internalType": "string",
          "name": "",
          "type": "string"
        }
      ],
      "stateMutability": "view",
      "type": "function"
    },
    {
      "inputs": [],
      "name": "distributor",
      "outputs": [
        {
          "internalType": "contract IDistributionExecutable",
          "name": "",
          "type": "address"
        }
      ],
      "stateMutability": "view",
      "type": "function"
    },
    {
      "inputs": [],
      "name": "gateway",
      "outputs": [
        {
          "internalType": "contract IAxelarGateway",
          "name": "",
          "type": "address"
        }
      ],
      "stateMutability": "view",
      "type": "function"
    },
    {
      "inputs": [],
      "name": "index",
      "outputs": [
        {
          "internalType": "uint256",
          "name": "",
          "type": "uint256"
        }
      ],
      "stateMutability": "view",
      "type": "function"
    },
    {
      "inputs": [],
      "name": "jobState",
      "outputs": [
        {
          "internalType": "string",
          "name": "",
          "type": "string"
        }
      ],
      "stateMutability": "view",
      "type": "function"
    },
    {
      "inputs": [],
      "name": "name",
      "outputs": [
        {
          "internalType": "string",
          "name": "",
          "type": "string"
        }
      ],
      "stateMutability": "view",
      "type": "function"
    },
    {
      "inputs": [],
      "name": "nanoId",
      "outputs": [
        {
          "internalType": "string",
          "name": "",
          "type": "string"
        }
      ],
      "stateMutability": "view",
      "type": "function"
    },
    {
      "inputs": [],
      "name": "participantAddress",
      "outputs": [
        {
          "internalType": "address payable",
          "name": "",
          "type": "address"
        }
      ],
      "stateMutability": "view",
      "type": "function"
    },
    {
      "inputs": [],
      "name": "price",
      "outputs": [
        {
          "internalType": "uint256",
          "name": "",
          "type": "uint256"
        }
      ],
      "stateMutability": "view",
      "type": "function"
    },
    {
      "inputs": [],
      "name": "symbol",
      "outputs": [
        {
          "internalType": "string",
          "name": "",
          "type": "string"
        }
      ],
      "stateMutability": "view",
      "type": "function"
    },
    {
      "inputs": [],
      "name": "title",
      "outputs": [
        {
          "internalType": "string",
          "name": "",
          "type": "string"
        }
      ],
      "stateMutability": "view",
      "type": "function"
    },
    {
      "stateMutability": "payable",
      "type": "receive"
    },
    {
      "inputs": [],
      "name": "getJob",
      "outputs": [
        {
          "internalType": "string",
          "name": "_content",
          "type": "string"
        },
        {
          "internalType": "string",
          "name": "_jobState",
          "type": "string"
        },
        {
          "internalType": "address",
          "name": "_contractAddress",
          "type": "address"
        },
        {
          "internalType": "address",
          "name": "_contractParent",
          "type": "address"
        },
        {
          "internalType": "address",
          "name": "_contractOwner",
          "type": "address"
        },
        {
          "internalType": "uint256",
          "name": "_createTime",
          "type": "uint256"
        },
        {
          "internalType": "uint256",
          "name": "_index",
          "type": "uint256"
        },
        {
          "internalType": "string",
          "name": "_description",
          "type": "string"
        },
        {
          "internalType": "address[]",
          "name": "_participants",
          "type": "address[]"
        },
        {
          "internalType": "address",
          "name": "_participantAddress",
          "type": "address"
        },
        {
          "internalType": "string",
          "name": "_symbol",
          "type": "string"
        },
        {
          "internalType": "string",
          "name": "_nanoId",
          "type": "string"
        }
      ],
      "stateMutability": "view",
      "type": "function"
    },
    {
      "inputs": [],
      "name": "withdrawAll",
      "outputs": [],
      "stateMutability": "nonpayable",
      "type": "function"
    },
    {
      "inputs": [],
      "name": "getBalance",
      "outputs": [
        {
          "internalType": "uint256",
          "name": "",
          "type": "uint256"
        }
      ],
      "stateMutability": "view",
      "type": "function"
    },
    {
      "inputs": [
        {
          "internalType": "address payable",
          "name": "_addressToSend",
          "type": "address"
        }
      ],
      "name": "transferToaddress",
      "outputs": [],
      "stateMutability": "payable",
      "type": "function"
    },
    {
      "inputs": [
        {
          "internalType": "address payable",
          "name": "_addressToSend",
          "type": "address"
        },
        {
          "internalType": "string",
          "name": "chain",
          "type": "string"
        }
      ],
      "name": "transferToaddressChain",
      "outputs": [],
      "stateMutability": "payable",
      "type": "function"
    },
    {
      "inputs": [
        {
          "internalType": "address",
          "name": "address_",
          "type": "address"
        }
      ],
      "name": "addressToString",
      "outputs": [
        {
          "internalType": "string",
          "name": "",
          "type": "string"
        }
      ],
      "stateMutability": "pure",
      "type": "function"
    },
    {
      "inputs": [
        {
          "internalType": "address payable",
          "name": "_addressToSend",
          "type": "address"
        },
        {
          "internalType": "string",
          "name": "chain",
          "type": "string"
        }
      ],
      "name": "transferToaddressChain2",
      "outputs": [],
      "stateMutability": "payable",
      "type": "function"
    },
    {
      "inputs": [
        {
          "internalType": "address",
          "name": "_participantAddress",
          "type": "address"
        }
      ],
      "name": "jobParticipate",
      "outputs": [],
      "stateMutability": "nonpayable",
      "type": "function"
    },
    {
      "inputs": [
        {
          "internalType": "address payable",
          "name": "_participantAddress",
          "type": "address"
        },
        {
          "internalType": "string",
          "name": "_state",
          "type": "string"
        }
      ],
      "name": "jobStateChange",
      "outputs": [],
      "stateMutability": "nonpayable",
      "type": "function"
    }
  ],
  "bytecode": "0x60c06040526200281780380380620000178162000587565b928339810160c082820312620005825781516001600160401b03919082811162000582578162000049918501620005ad565b6020938481015184811162000582578362000066918301620005ad565b94604082015185811162000582578462000082918401620005ad565b9360608301519086821162000582576200009e918401620005ad565b9160a0608082015191015160018060a01b03811680910362000582578451978789116200034b5760019880620000d58b546200061f565b97601f9889811162000550575b508690898311600114620004df57600092620004d3575b5050600019600383901b1c1916908a1b1789555b816080528051908882116200034b5781906200012b6002546200061f565b888111620004a0575b50859088831160011462000436576000926200042a575b5050600019600383901b1c191690891b176002555b6200016d6004546200061f565b85811162000406575b506006626e657760e81b0160045560018060a01b03193081600954161760095533816008541617600855600a541617600a5542600c5560055583518581116200034b5780600395620001c987546200061f565b868111620003d4575b5083908683116001146200036d5760009262000361575b505060001982871b1c191690871b1784555b81519485116200034b5762000212600e546200061f565b8381116200030d575b50809285116001146200029d575093839491849260009562000291575b50501b92600019911b1c191617600e555b735769d84dd62a6fd969856c75c7d321b84d45592960a0526040516121a190816200067682396080518181816108940152610a60015260a05181818161125901526116430152f35b01519350388062000238565b92919084601f198116600e60005285600020956000905b89838310620002f25750505010620002d7575b50505050811b01600e5562000249565b01519060f884600019921b161c1916905538808080620002c7565b858701518955909701969485019488935090810190620002b4565b6200033a90600e600052826000208580890160051c820192858a1062000341575b0160051c01906200065c565b386200021b565b925081926200032e565b634e487b7160e01b600052604160045260246000fd5b015190503880620001e9565b90899350601f1983169188600052856000209260005b87828210620003bd5750508411620003a4575b505050811b018455620001fb565b015160001983891b60f8161c1916905538808062000396565b8385015186558d9790950194938401930162000383565b620003ff9088600052856000208880860160051c82019288871062000341570160051c01906200065c565b38620001d2565b620004239060046000528685600020910160051c8101906200065c565b3862000176565b0151905038806200014b565b908b9350601f198316916002600052876000209260005b898282106200048957505084116200046f575b505050811b0160025562000160565b015160001960f88460031b161c1916905538808062000460565b8385015186558f979095019493840193016200044d565b620004cc906002600052876000208a80860160051c8201928a871062000341570160051c01906200065c565b3862000134565b015190503880620000f9565b908c9350601f1983169184600052886000209260005b8a82821062000530575050841162000516575b505050811b0189556200010d565b015160001960f88460031b161c1916905538808062000508565b91929395968291958786015181550195019301908e9594939291620004f5565b6200057b908d600052886000208b80860160051c8201928b871062000341570160051c01906200065c565b38620000e2565b600080fd5b6040519190601f01601f191682016001600160401b038111838210176200034b57604052565b919080601f84011215620005825782516001600160401b0381116200034b57602090620005e3601f8201601f1916830162000587565b92818452828287010111620005825760005b8181106200060b57508260009394955001015290565b8581018301518482018401528201620005f5565b90600182811c9216801562000651575b60208310146200063b57565b634e487b7160e01b600052602260045260246000fd5b91607f16916200062f565b81811062000668575050565b600081556001016200065c56fe608060405260048036101561001d575b50361561001b57600080fd5b005b600090813560e01c8062bc30f91461136f57806305747a1f1461132e57806306fdde0314611288578063116191b61461124357806312065fe0146112195780632986c0e5146111fb5780634327a9f4146111d25780634a79d50c1461112c57806354ddcc3a1461108957806359ff6ba8146110605780635ad8e8ae14610f9e5780635e57966d14610d7f57806361dcd7ab14610d615780637284e41614610cbb578063853828b614610ca757806395d89b4114610bd957806398cfc1a614610ba9578063a035b1fe14610b8b578063aa826f6a1461091d578063bed5572f146108c3578063bfe109281461087e578063ce606ee014610855578063dd28e14d146103f0578063e2395ad81461020d578063f6b4dfb4146101e15763fcd3f19614610147575061000f565b346101dd5760203660031901126101dd57356001600160a01b03808216908183036101d9578391845491821560001461018a575050505061018790611fcc565b80f35b855b8381106101a95750505050156101a0575080f35b61018790611fcc565b82826101b483611cce565b90549060031b1c16146101d0575b6101cb90612035565b61018c565b600194506101c2565b8380fd5b5080fd5b823461020a578060031936011261020a576009546040516001600160a01b039091168152602090f35b80fd5b50346101dd5761021c36611c50565b809291925190602091817f6c7b0b1c2030be2c643396fd6dc3924ed2cca787e91e5b7b0d3ad68dbf3730168480940192832060405161025a81611bf6565b60068152651859dc99595960d21b9601869052036102ab57505050600c9061028a6102858454611d18565b612117565b01905560018060a01b03166001600160601b0360a01b600b541617600b5580f35b90919394508392507ff9277228123ef6174480588e3c39104edb4957fab3fd5fbf6d6beb66bd614804815183206040516102e481611bf6565b600881526770726f677265737360c01b960186905203610317575050506010906103116102858454611d18565b01905580f35b8293507f7aa61f7d41f5fab2b7227198d10b8e1d66c06c49409fec49270e545030a3cdfb8151832060405161034b81611bf6565b600681526572657669657760d01b950185905203610376575050600c91506103116102858454611d18565b80919250518220610385611fa7565b805190850120036103b5575050506103a06102858254611d18565b60126818dbdb5c1b195d195960ba1b01905580f35b519020906103c1611f83565b8051910120146103cf575080f35b6103dc6102858254611d18565b60106718d85b98d95b195960c21b01905580f35b823461020a578060031936011261020a57600954600854600a54600c54600554600b5460405160025490976001600160a01b0397881697949685169592851694909216929088600061044183611d18565b808352926001811690811561083657506001146107d6575b61046592500389611c12565b61046d611d52565b97604051916000836003549161048283611d18565b80835292600181169081156107b75750600114610756575b6104a692500384611c12565b60405197889560206000549a8b81520199878b600080527f290decd9548b62a8d60345a988386fc84ba6bc95484008f6362f93160ef3e5639260005b8181106107345750506104f792500388611c12565b6040519860008a600e549161050b83611d18565b808352926001811690811561071557506001146106b5575b61052f9250038b611c12565b6040519b60008d6001549161054383611d18565b8083529260018116908115610698575060011461063b575b909d9c9b9a989796959493929f9e915003610576908d611c12565b6040519d8e9d8e96610180808952880161058f91611e33565b87810360208901526105a091611e33565b956040015260608d015260808c015260a08b015260c08a015288810360e08a01526105ca91611e33565b90878203610100890152519081815260200194915b81811061061957505050610120850152838203610140850152610615929161060691611e33565b90838203610160850152611e33565b0390f35b82516001600160a01b03168652889750602095860195909201916001016105df565b509060016000527fb10e2d527612073b26eecdfd717e6a320cf44b4afac2b0732d9fcbe2b7fa0cf6906000915b81831061067d5750506020829182010161055b565b80602092948385600194549201015201910190918f92610668565b602092508394915060ff191682840152151560051b82010161055b565b5090600e6000527fbb7b4a454dc3493923482f07822329ed19e8244eff582cc204f8554c3620c3fd906000915b8183106106fa57505090602061052f92820101610523565b80602092948385600194549201015201910190918c926106e2565b6020925061052f94915060ff191682840152151560051b820101610523565b84546001600160a01b031683526001948501948c9450602090930192016104e2565b509060036000527fc2575a0e9e593c00f959f8c92f12db2869c3395a3b0502d05e2516446f71f85b906000915b81831061079b5750509060206104a69282010161049a565b6020919350806001915483858a01015201910190918592610783565b602092506104a694915060ff191682840152151560051b82010161049a565b509060026000527f405787fa12a823e0f2b7631cc41b3ba8828b3321ca811111fa75cd3aa3bb5ace906000915b81831061081b57505090602061046592820101610459565b80602092948385600194549201015201910190918a92610803565b6020925061046594915060ff191682840152151560051b820101610459565b823461020a578060031936011261020a57600a546040516001600160a01b039091168152602090f35b823461020a578060031936011261020a576040517f00000000000000000000000000000000000000000000000000000000000000006001600160a01b03168152602090f35b50346101dd5760203660031901126101dd5735600d548110156101dd57600d6000527fd7b6990105719101dabeb77144f2a3385c8033acd3af97e9423a695e81ad1eb501546040516001600160a01b039091168152602090f35b509061092836611c50565b604051936109408561093981611e58565b0386611c12565b8451602080960120610950611f83565b805190870120036109b7575050600a5491925082916001600160a01b039182169082168114610980575b50505080f35b8280929181926009541631908282156109ae575bf1156109a25780388061097a565b604051903d90823e3d90fd5b506108fc610994565b90916040516109d0816109c981611e58565b0382611c12565b8581519101206109de611fa7565b868151910120146109f2575b505050905080f35b600b54600d546001600160a01b039691871693600160401b821015610b765760019485830180600d55831015610b6157600d6000527fd7b6990105719101dabeb77144f2a3385c8033acd3af97e9423a695e81ad1eb5928301906001600160601b0360a01b825416179055877f0000000000000000000000000000000000000000000000000000000000000000169488600954163194863b15610b5d57989081610ab36040519963bd97f00760e01b8b5260a0868c015260a48b0190611e33565b9a166024890152600319998a8982030160448a015285600d54918281520194600d600052926000905b828210610b46575050505050604087988795630ae8aa8960e31b8a9896868a968a80990395860160648a015281520152608485015201925af18015610b3b57610b27575b80806109ea565b610b3090611bcc565b61020a578038610b20565b6040513d84823e3d90fd5b845481168752958701959383019390830190610adc565b8880fd5b603282634e487b7160e01b6000525260246000fd5b604190634e487b7160e01b6000525260246000fd5b823461020a578060031936011261020a576020600754604051908152f35b823461020a578060031936011261020a57610615610bc5611d52565b604051918291602083526020830190611e33565b823461020a578060031936011261020a576040516000600e54610bfb81611d18565b80845290600190818116908115610c805750600114610c25575b61061584610bc581860382611c12565b600e600090815292507fbb7b4a454dc3493923482f07822329ed19e8244eff582cc204f8554c3620c3fd5b828410610c68575050508101602001610bc582610c15565b80546020858701810191909152909301928101610c50565b60ff191660208087019190915292151560051b85019092019250610bc59150839050610c15565b823461020a578060031936011261020a5780f35b823461020a578060031936011261020a576040516000600354610cdd81611d18565b80845290600190818116908115610c805750600114610d065761061584610bc581860382611c12565b6003600090815292507fc2575a0e9e593c00f959f8c92f12db2869c3395a3b0502d05e2516446f71f85b5b828410610d49575050508101602001610bc582610c15565b80546020858701810191909152909301928101610d31565b823461020a578060031936011261020a576020600c54604051908152f35b50346101dd5760209081600319360112610f9a578035926001600160a01b038416840361020a57604051936001600160601b03199060601b168385015260148452610dc984611bf6565b60405190610dd682611bf6565b601082526f181899199a1a9b1b9c1cb0b131b232b360811b84830152845160019281841b600292808204841490151715610f8757820196878311610f8757610e36610e2089611c34565b98610e2e6040519a8b611c12565b808a52611c34565b88880190601f1901368237885115610f7457603090538751851015610f615787938793879387936078602189015383985b610e7f575b60405187815280610615818a018b611e33565b8051891015610f5c576001600160f81b031980610ea9610e9f8c8561200e565b5160fc1c8561200e565b5116908a871b918b830486148c151715610f495782860190818711610f3657610ed590881a918c61200e565b53610ef0600f610ee58d8661200e565b5160f81c168561200e565b51166003918201809211610f235799610f1a91610f1488999a9b9c881a918d61200e565b53612035565b98979695610e67565b634e487b7160e01b865260118852602486fd5b634e487b7160e01b885260118a52602488fd5b634e487b7160e01b875260118952602487fd5b610e6c565b634e487b7160e01b845260328652602484fd5b634e487b7160e01b855260328752602485fd5b634e487b7160e01b845260118652602484fd5b8280fd5b5060203660031901126101dd57356001600160a01b038181169182900361105b578291604051610fd1816109c981611e58565b60208151910120610fe0611f83565b60208151910120146000146110005781600a541681146109805750505080f35b50604051611011816109c981611e58565b60208151910120611020611fa7565b602081519101201461103157505080f35b8180828193600b541690600954163190828215611052575bf1156109a25780f35b506108fc611049565b600080fd5b823461020a578060031936011261020a57600b546040516001600160a01b039091168152602090f35b823461020a578060031936011261020a57604051600060018054906110ad82611d18565b80855291818116908115610c8057506001146110d35761061584610bc581860382611c12565b600081815292507fb10e2d527612073b26eecdfd717e6a320cf44b4afac2b0732d9fcbe2b7fa0cf65b828410611114575050508101602001610bc582610c15565b805460208587018101919091529093019281016110fc565b823461020a578060031936011261020a57604051600060025461114e81611d18565b80845290600190818116908115610c8057506001146111775761061584610bc581860382611c12565b6002600090815292507f405787fa12a823e0f2b7631cc41b3ba8828b3321ca811111fa75cd3aa3bb5ace5b8284106111ba575050508101602001610bc582610c15565b805460208587018101919091529093019281016111a2565b823461020a578060031936011261020a576008546040516001600160a01b039091168152602090f35b823461020a578060031936011261020a576020600554604051908152f35b823461020a578060031936011261020a576009546040516001600160a01b03909116318152602090f35b823461020a578060031936011261020a576040517f00000000000000000000000000000000000000000000000000000000000000006001600160a01b03168152602090f35b823461020a578060031936011261020a5760405160006006546112aa81611d18565b80845290600190818116908115610c8057506001146112d35761061584610bc581860382611c12565b6006600090815292507ff652222313e28459528d920b65115c16c04f3efc82aaedc97be59f3f377c0d3f5b828410611316575050508101602001610bc582610c15565b805460208587018101919091529093019281016112fe565b50346101dd5760203660031901126101dd573590805482101561020a57602061135683611cce565b905460405160039290921b1c6001600160a01b03168152f35b5061137936611c50565b60405191506113928261138b81611e58565b0383611c12565b81516020809301206113a2611f83565b805190840120036113d2575050600b54600a548392506001600160a01b0391821690821681146109805750505080f35b6040516113e2816109c981611e58565b8281519101206113f0611fa7565b838151910120148015611bc4575b6114085750505080f35b6040939192935161141c816109c981611efc565b80519081611448576040516367e8093f60e11b81528087018690528061144460248201611efc565b0390fd5b90817faaaebeba3810b1e6b70781f14b2d72c1cb89c0b2b320c43bb67ff79f562f5ff4868698979594019283206208aa8960eb1b8660405161148981611bf6565b6003815201520361151f5750505081809350809160018060a01b037ff914ca0348190fe49c31ec3901a60069cc792666a05ee2db257a8491cbad2b1e60808260095416936040805191868352820152600f60408201526e0eed2e8d0c8e4c2eed2dcce408aa89608b1b6060820152a1600b5416903190828215611516575bf1156109a2575b38808061097a565b506108fc611507565b8051822061152b61205a565b8581519101201480611b77575b156118aa575050600954600b54604051635e57966d60e01b8082526001600160a01b039283168289015292821696929493508581602481305afa90811561189f577ff914ca0348190fe49c31ec3901a60069cc792666a05ee2db257a8491cbad2b1e91611616918891611885575b50611609604860405180937f7769746864726177696e67206155534443206f6e20457468657265756d2076698a83015267309020bc32b630b960c11b60408301526115f9815180928c8686019101611e10565b8101036028810184520182611c12565b6040519182918a836120dd565b0390a16040516349ad89fb60e11b81528281018490526005602482015264615553444360d81b60448201527f0000000000000000000000000000000000000000000000000000000000000000821693908181606481885afa801561180d578391889161184b575b5016604051976370a0823160e01b8952848901528188602481845afa97881561180d578798611818575b506040805163095ea7b360e01b81526001600160a01b038716868201908152602081018b905290928492849283918c9183910103925af1801561180d576117df575b5050600b5416604051938452818401528383602481305afa9283156117d45784936117b0575b50813b156101d9578360809161176296611786604051988997889687956326ef699d60e01b87528601526008608486015267657468657265756d60c01b60a486015260c0602486015260c4850190611e33565b8381036003190160448501526005815264615553444360d81b602082015260400190565b90606483015203925af18015610b3b576117a1575b5061150e565b6117aa90611bcc565b3861179b565b6117cd9193503d8086833e6117c58183611c12565b81019061207b565b913861170f565b6040513d86823e3d90fd5b816117fe92903d10611806575b6117f68183611c12565b8101906120ff565b5038806116e9565b503d6117ec565b6040513d89823e3d90fd5b9097508181813d8311611844575b6118308183611c12565b81010312611840575196816116a7565b8680fd5b503d611826565b809250838092503d831161187e575b6118648183611c12565b81010312611840575182811681036118405782903861167d565b503d61185a565b61189991503d808a833e6117c58183611c12565b386115a6565b6040513d88823e3d90fd5b51902091939250906118ba61205a565b848151910120149081611b28575b5015611b0957600954600b54604051635e57966d60e01b81526001600160a01b039182168185015291811692918581602481305afa90811561189f577ff914ca0348190fe49c31ec3901a60069cc792666a05ee2db257a8491cbad2b1e9161199f918891611aef575b50611992604660405180937f77652061726520696e206d6f6f6e626173652c207061727469636970616e74418b8301526564647265737360d01b6040830152611982815180928d8686019101611e10565b8101036026810184520182611c12565b60405191829187836120dd565b0390a16040516370a0823160e01b81528281018490529173d1633f7fb3d716643125d6415d4177bc36b7186b90868685602481865afa948515611ab15787908296611abe575b506040805163095ea7b360e01b81526001600160a01b039098168489019081526020810188905296979687918291015b038184875af1928315611ab1578795606494611a94575b50846009541694600b54169660405197889687956323b872dd60e01b8752860152602485015260448401525af18015611a8957611a6b575b505061150e565b81611a8192903d10611806576117f68183611c12565b503880611a64565b6040513d85823e3d90fd5b611aaa90873d8911611806576117f68183611c12565b5038611a2c565b50604051903d90823e3d90fd5b809650813d8311611ae8575b611ad48183611c12565b8101031261020a5786611a159551956119e5565b503d611aca565b611b0391503d808a833e6117c58183611c12565b38611931565b90604051916367e8093f60e11b83528201528061144460248201611efc565b7f6f3c53069778183912da77a05fe67c3d6edb208ffdf1ca0161d51543035e3c689150838151910120674d6f6f6e6261736560c01b84604051611b6a81611bf6565b60088152015214386118c8565b507f564ccaf7594d66b1eaaea24fe01f0585bf52ee70852af4eac0cc4b04711cd0e283518585012067457468657265756d60c01b86604051611bb881611bf6565b60088152015214611538565b5060016113fe565b67ffffffffffffffff8111611be057604052565b634e487b7160e01b600052604160045260246000fd5b6040810190811067ffffffffffffffff821117611be057604052565b90601f8019910116810190811067ffffffffffffffff821117611be057604052565b67ffffffffffffffff8111611be057601f01601f191660200190565b90604060031983011261105b576004356001600160a01b038116810361105b579160243567ffffffffffffffff811161105b578160238201121561105b57806004013590611c9d82611c34565b92611cab6040519485611c12565b8284526024838301011161105b5781600092602460209301838601378301015290565b906000918254811015611d04578280527f290decd9548b62a8d60345a988386fc84ba6bc95484008f6362f93160ef3e563019190565b634e487b7160e01b83526032600452602483fd5b90600182811c92168015611d48575b6020831014611d3257565b634e487b7160e01b600052602260045260246000fd5b91607f1691611d27565b6040519060008260045491611d6683611d18565b80835292600190818116908115611dee5750600114611d8f575b50611d8d92500383611c12565b565b6004600090815291507f8a35acfbc15ff81a39ae7d344fd709f28e8600b4aa8c65c6b64bfe7fe36bd19b5b848310611dd35750611d8d935050810160200138611d80565b81935090816020925483858a01015201910190918592611dba565b905060209250611d8d94915060ff191682840152151560051b82010138611d80565b60005b838110611e235750506000910152565b8181015183820152602001611e13565b90602091611e4c81518092818552858086019101611e10565b601f01601f1916010190565b60045460009291611e6882611d18565b80825291600190818116908115611edf5750600114611e8657505050565b9192935060046000527f8a35acfbc15ff81a39ae7d344fd709f28e8600b4aa8c65c6b64bfe7fe36bd19b916000925b848410611ec757505060209250010190565b80546020858501810191909152909301928101611eb5565b915050602093945060ff929192191683830152151560051b010190565b600e5460009291611f0c82611d18565b80825291600190818116908115611edf5750600114611f2a57505050565b91929350600e6000527fbb7b4a454dc3493923482f07822329ed19e8244eff582cc204f8554c3620c3fd916000925b848410611f6b57505060209250010190565b80546020858501810191909152909301928101611f59565b60405190611f9082611bf6565b600882526718d85b98d95b195960c21b6020830152565b60405190611fb482611bf6565b600982526818dbdb5c1b195d195960ba1b6020830152565b600054600160401b811015611be057806001611feb9201600055611cce565b819291549060031b9160018060a01b039283811b93849216901b16911916179055565b90815181101561201f570160200190565b634e487b7160e01b600052603260045260246000fd5b60001981146120445760010190565b634e487b7160e01b600052601160045260246000fd5b6040519061206782611bf6565b6005825264615553444360d81b6020830152565b60208183031261105b5780519067ffffffffffffffff821161105b570181601f8201121561105b5780516120ae81611c34565b926120bc6040519485611c12565b8184526020828401011161105b576120da9160208085019101611e10565b90565b6001600160a01b0390911681526040602082018190526120da92910190611e33565b9081602091031261105b5751801515810361105b5790565b601f81116121225750565b600060048152601f7f8a35acfbc15ff81a39ae7d344fd709f28e8600b4aa8c65c6b64bfe7fe36bd19b920160051c8201915b82811061216057505050565b81815560010161215456fea264697066735822122073caa1dc49dafa3bef24b646392c11e7a957194671fc9ec1f525bc52edc02d2764736f6c63430008110033",
  "immutableReferences": {
    "1521": [
      {
        "length": 32,
        "start": 2196
      },
      {
        "length": 32,
        "start": 2656
      }
    ],
    "1524": [
      {
        "length": 32,
        "start": 4697
      },
      {
        "length": 32,
        "start": 5699
      }
    ]
  },
  "source": "// SPDX-License-Identifier: MIT\npragma solidity ^0.8.12;\n\nimport { IDistributionExecutable } from './IDistributionExecutable.sol';\n\n\nimport { AxelarExecutable } from '@axelar-network/axelar-gmp-sdk-solidity/contracts/executables/AxelarExecutable.sol';\nimport { IAxelarGateway } from '@axelar-network/axelar-gmp-sdk-solidity/contracts/interfaces/IAxelarGateway.sol';\nimport { IERC20 } from '@axelar-network/axelar-gmp-sdk-solidity/contracts/interfaces/IERC20.sol';\nimport { IAxelarGasService } from '@axelar-network/axelar-gmp-sdk-solidity/contracts/interfaces/IAxelarGasService.sol';\nimport { StringToAddress, AddressToString } from '@axelar-network/axelar-gmp-sdk-solidity/contracts/StringAddressUtils.sol';\n\nerror InvalidToken (string token);\n\ncontract Factory {\n    IAxelarGateway public immutable gateway;\n\n\n    Job[] public jobArray;\n    // address contractOwner;\n    uint256 public countNew = 0;\n    uint256 countAgreed = 0;\n    uint256 countProgress = 0;\n    uint256 countReview = 0;\n    uint256 countCompleted = 0;\n    uint256 countCanceled = 0;\n    string stateNew = \"new\";\n    string stateAgreed = \"agreed\";\n    string stateProgress = \"progress\";\n    string stateReview = \"review\";\n    string stateCompleted = \"completed\";\n    string stateCanceled = \"canceled\";\n\n    event OneEventForAll(address contractAdr, uint256 index);\n\n\n    event JobContractCreated(\n        string nanoId,\n        address jobAddress,\n        address jobOwner,\n        string title,\n        string description,\n        string symbol,\n        uint256 amount\n    );\n\n\n    constructor() {\n        address gateway_ = 0x5769D84DD62a6fD969856c75c7D321b84d455929;\n        gateway = IAxelarGateway(gateway_);\n    }\n\n    // initial: new, contractor choosed: agreed, work in progress: progress, completed: completed, canceled\n\n    // function indexCalculation(string memory _state) public returns (uint256) {}\n\n    function createJobContract(string memory _nanoId, string memory _title, string memory _description, string memory _symbol, uint256 _amount)\n    external\n    payable\n    {\n        Job job = new Job{value: msg.value}(\n            _nanoId,\n            _title,\n            _description,\n            _symbol,\n            jobArray.length,\n            msg.sender\n        );\n\n        if (keccak256(bytes(_symbol)) != keccak256(bytes(\"ETH\"))) {\n            address tokenAddress = gateway.tokenAddresses(_symbol);\n            // amount = IERC20(tokenAddress).balanceOf(contractAddress);\n            IERC20(tokenAddress).transferFrom(msg.sender, address(job), _amount);\n        }\n        // IERC20(tokenAddress).approve(address(gateway), _amount);\n\n        jobArray.push(job);\n        countNew++;\n        emit JobContractCreated(_nanoId, address(job), msg.sender, _title, _description, _symbol, _amount);\n        emit OneEventForAll(address(job), job.index());\n    }\n\n    // function findJobs(uint256 _myIndex) external view returns (address) {\n    //     return address(jobArray[_myIndex]);\n    // }\n\n    function allJobs() external view returns (Job[] memory _jobs) {\n        _jobs = new Job[](jobArray.length);\n        uint256 count;\n        for (uint256 i = 0; i < jobArray.length; i++) {\n            _jobs[count] = jobArray[i];\n            count++;\n        }\n    }\n\n\n    function jobParticipate(Job job) external {\n        jobArray[job.index()].jobParticipate(msg.sender);\n        emit OneEventForAll(address(job), job.index());\n    }\n\n\n    function jobStateChange(\n        Job job,\n        address payable _participantAddress,\n        string memory _state\n    ) external {\n        jobArray[job.index()].jobStateChange(_participantAddress, _state);\n\n        // if (keccak256(bytes(_state)) == keccak256(bytes(\"agreed\"))) {\n        //     countAgreed++;\n        // } else if (keccak256(bytes(_state)) == keccak256(bytes(\"progress\"))) {\n        //     countProgress++;\n        // } else if (keccak256(bytes(_state)) == keccak256(bytes(\"review\"))) {\n        //     countReview++;\n        // } else if (keccak256(bytes(_state)) == keccak256(bytes(\"completed\"))) {\n        //     countCompleted++;\n        // } else if (keccak256(bytes(_state)) == keccak256(bytes(\"canceled\"))) {\n        //     countCanceled++;\n        // }\n\n        emit OneEventForAll(address(job), job.index());\n    }\n\n    // function jobReview(Job job, address _participantAddress) external {\n    //     jobArray[job.index()].jobReview(_participantAddress);\n    //     countProgress++;\n    // }\n\n    // function jobConfimation(Job job, address _participantAddress) external {\n    //     jobArray[job.index()].jobConfimation(_participantAddress);\n    //     countReview++;\n    // }\n\n    function transferToaddress(Job job, address payable addressToSend)\n    external\n    payable\n    {\n        // addressToSend.transfer(0.5 ether);\n        jobArray[job.index()].transferToaddress(addressToSend);\n        emit OneEventForAll(address(job), job.index());\n    }\n\n    function transferToaddressChain(Job job, address payable addressToSend, string memory chain)\n    external\n    payable\n    {\n        jobArray[job.index()].transferToaddressChain(addressToSend, chain);\n        emit OneEventForAll(address(job), job.index());\n    }\n\n    function transferToaddressChain2(Job job, address payable addressToSend, string memory chain)\n    external\n    payable\n    {\n        jobArray[job.index()].transferToaddressChain2(addressToSend, chain);\n        emit OneEventForAll(address(job), job.index());\n    }\n\n\n    // function jobCanceled(Job job) external {\n    //     jobArray[job.index()].jobCanceled();\n    //     countCanceled++;\n    // }\n\n    // function getContractAdr(uint256 _classIndex)\n    //     external\n    //     view\n    //     returns (address)\n    // {\n    //     Job _retBal = Job(payable(address(jobArray[_classIndex])));\n    //     return _retBal.returnContractAddress();\n    // }\n\n    function getBalance(uint256 _classIndex) external view returns (uint256) {\n        Job _retBal = Job(payable(address(jobArray[_classIndex])));\n        return _retBal.getBalance();\n    }\n\n    // function thisContract() external view returns (address) {\n    //     address thisConr = address(this);\n    //     return thisConr;\n    // }\n\n    function getJobInfo(uint256 _classIndex)\n    external\n    view\n    returns (\n        string memory,\n        string memory,\n        address,\n        address,\n        address,\n        uint256,\n        uint256,\n        string memory,\n        address[] memory,\n        address,\n        string memory,\n        string memory\n        \n    )\n    {\n        Job _retBal = Job(payable(address(jobArray[_classIndex])));\n        return _retBal.getJob();\n    }\n\n    // receive() external payable {}\n}\n\ncontract Job {\n    IDistributionExecutable public immutable distributor;\n\n    IAxelarGateway public immutable gateway;\n    using AddressToString for address;\n    using StringToAddress for string;\n\n    address[] public Participants;\n    // uint256 public data;\n    string public nanoId;\n    string public title;\n    string public description;\n    string public jobState;\n    uint256 public index;\n\n    string public name;\n    uint256 public price;\n    address public contractParent;\n    address public contractAddress;\n    address public contractOwner;\n    address payable public participantAddress;\n    uint256 public createTime;\n    address[] public _destinationAddresses;\n    string public symbol;\n    uint256 amount;\n\n    event Logs(address contractAdr, string message);\n\n    constructor(\n        string memory _nanoId,\n        string memory _title,\n        string memory _description,\n        string memory _symbol,\n        uint256 _index,\n        address _contractOwner\n    ) payable {\n        // data = _data;\n        nanoId = _nanoId;\n        distributor = IDistributionExecutable(_contractOwner);\n        title = _title;\n        jobState = \"new\";\n        contractAddress = address(this);\n        contractParent = msg.sender;\n        contractOwner = _contractOwner;\n        createTime = block.timestamp;\n        index = _index;\n        description = _description;\n        symbol = _symbol;\n\n        address gateway_ = 0x5769D84DD62a6fD969856c75c7D321b84d455929;\n        gateway = IAxelarGateway(gateway_);\n        // balance = contractAddress.balance;\n        // createJob(_content, _index);\n        // myStruct = jobStructData(\n        //     _data,\n        //     true,\n        //     address(this),\n        //     msg.sender,\n        //     block.timestamp,\n        //     _index\n        // );\n    }\n\n    // event OneEventForAll2(address contractAdr);\n\n    // function createJob(string memory _content, uint256 _index) public {\n    //     jobStructDataArray.push();\n\n    //     jobStructData(\n    //         _content,\n    //         true,\n    //         address(this),\n    //         msg.sender,\n    //         block.timestamp\n    //     );\n    //     emit jobCreated(_content, _index);\n    // }\n\n    function getJob()\n    public\n    view\n    returns (\n        string memory _content,\n        string memory _jobState,\n        address _contractAddress,\n        address _contractParent,\n        address _contractOwner,\n        uint256 _createTime,\n        uint256 _index,\n        string memory _description,\n        address[] memory _participants,\n        address _participantAddress,\n        string memory _symbol,\n        string memory _nanoId\n    )\n    {\n        return (\n        title,\n        jobState,\n        contractAddress,\n        contractParent,\n        contractOwner,\n        createTime,\n        index,\n        description,\n        Participants,\n        participantAddress,\n        symbol,\n        nanoId\n        );\n    }\n\n    function withdrawAll() external {\n        // jobState = true;\n    }\n\n    // function getContractInfo() public view returns (uint256) {\n    //     return contractAddress.balance;\n    // }\n\n    function getBalance() public view returns (uint256) {\n        return contractAddress.balance;\n    }\n\n    function transferToaddress(address payable _addressToSend) public payable {\n        if (keccak256(bytes(jobState)) == keccak256(bytes(\"canceled\"))) {\n            if (_addressToSend == contractOwner) {\n                _addressToSend.transfer(contractAddress.balance);\n            }\n        } else if (\n            keccak256(bytes(jobState)) == keccak256(bytes(\"completed\"))\n        ) {\n\n            participantAddress.transfer(contractAddress.balance);\n        }\n        // msg.sender.transfer(address(this).balance);\n    }\n\n    function transferToaddressChain(address payable _addressToSend, string memory chain) public payable {\n        if (keccak256(bytes(jobState)) == keccak256(bytes(\"canceled\"))) {\n            if (_addressToSend == contractOwner) {\n                _addressToSend.transfer(contractAddress.balance);\n            }\n        } else if (\n            keccak256(bytes(jobState)) == keccak256(bytes(\"completed\"))\n        ) {\n            _destinationAddresses.push(participantAddress);\n            distributor.sendToMany(chain, _addressToSend, _destinationAddresses, 'WETH', contractAddress.balance);\n        }\n        // msg.sender.transfer(address(this).balance);\n    }\n\n    function addressToString(address address_) external pure returns (string memory) {\n        return address_.toString();\n    }\n\n    function transferToaddressChain2(address payable _addressToSend, string memory chain) public payable {\n        if (keccak256(bytes(jobState)) == keccak256(bytes(\"canceled\"))) {\n            if (participantAddress == contractOwner) {\n                participantAddress.transfer(contractAddress.balance);\n            }\n        } else if (\n            keccak256(bytes(jobState)) == keccak256(bytes(\"completed\")) || 1==1\n        ) {\n            bytes memory symbolBytes = bytes(symbol);\n            bytes memory chainBytes = bytes(chain);\n            if (symbolBytes.length == 0) {\n                revert InvalidToken({\n                    token: symbol\n                });\n                // do nothing\n            } else if (keccak256(symbolBytes) == keccak256(bytes(\"ETH\"))) {\n                emit Logs(address(contractAddress), \"withdrawing ETH\");\n                participantAddress.transfer(contractAddress.balance);\n            } else if (keccak256(symbolBytes) == keccak256(bytes(\"aUSDC\")) && keccak256(chainBytes) == keccak256(bytes(\"Ethereum\"))) {\n                emit Logs(address(contractAddress), string.concat(\"withdrawing aUSDC on Ethereum via Axelar\",this.addressToString(participantAddress)));\n                // _destinationAddresses.push(_addressToSend);\n                // distributor.sendToMany(chain, _addressToSend, _destinationAddresses, 'aUSDC', contractAddress.balance);\n                // string memory _addressToSend2 = bytes(_addressToSend);\n                address tokenAddress = gateway.tokenAddresses(\"aUSDC\");\n                uint256 contractAmount = IERC20(tokenAddress).balanceOf(contractAddress);\n                IERC20(tokenAddress).approve(address(gateway), contractAmount);\n                // gateway.sendToken(chain, toAsciiString(participantAddress), \"aUSDC\", amount);\n                gateway.sendToken(\"ethereum\", this.addressToString(participantAddress), \"aUSDC\", contractAmount);\n                \n            } else if (keccak256(symbolBytes) == keccak256(bytes(\"aUSDC\")) && keccak256(chainBytes) == keccak256(bytes(\"Moonbase\"))) {\n                // revert InvalidToken({\n                //     token: string.concat(\"we are in moonbase, participantAddress\",this.addressToString(participantAddress))\n                // });\n                emit Logs(address(contractAddress), string.concat(\"we are in moonbase, participantAddress\",this.addressToString(participantAddress)));\n                address tokenAddress = 0xD1633F7Fb3d716643125d6415d4177bC36b7186b;\n                uint256 contractAmount = IERC20(tokenAddress).balanceOf(contractAddress);\n                IERC20(tokenAddress).approve(contractAddress, contractAmount);\n                IERC20(tokenAddress).transferFrom(contractAddress, participantAddress, contractAmount);\n                // IERC20(tokenAddress).approve(address(gateway), amount);\n            }\n            else{\n                revert InvalidToken({\n                    token: symbol\n                });\n            }\n        }\n        // msg.sender.transfer(address(this).balance);\n    }\n\n    function toAsciiString(address x) internal pure returns (string memory) {\n        bytes memory s = new bytes(40);\n        for (uint i = 0; i < 20; i++) {\n            bytes1 b = bytes1(uint8(uint(uint160(x)) / (2**(8*(19 - i)))));\n            bytes1 hi = bytes1(uint8(b) / 16);\n            bytes1 lo = bytes1(uint8(b) - 16 * uint8(hi));\n            s[2*i] = char(hi);\n            s[2*i+1] = char(lo);\n        }\n        return string(s);\n    }\n\n    function char(bytes1 b) internal pure returns (bytes1 c) {\n        if (uint8(b) < 10) return bytes1(uint8(b) + 0x30);\n        else return bytes1(uint8(b) + 0x57);\n    }\n\n\n    function jobParticipate(address _participantAddress) external {\n        bool existed = false;\n        if (Participants.length == 0) {\n            Participants.push(_participantAddress);\n        } else {\n            for (uint256 i = 0; i < Participants.length; i++) {\n                if (Participants[i] == _participantAddress) {\n                    existed = true;\n                }\n            }\n            if (!existed) {\n                Participants.push(_participantAddress);\n            }\n        }\n        // emit OneEventForAll2(contractAddress);\n    }\n\n    function jobStateChange(\n        address payable _participantAddress,\n        string memory _state\n    ) external {\n        if (keccak256(bytes(_state)) == keccak256(bytes(\"agreed\"))) {\n            jobState = \"agreed\";\n            participantAddress = _participantAddress;\n        } else if (keccak256(bytes(_state)) == keccak256(bytes(\"progress\"))) {\n            jobState = \"progress\";\n        } else if (keccak256(bytes(_state)) == keccak256(bytes(\"review\"))) {\n            jobState = \"review\";\n        } else if (keccak256(bytes(_state)) == keccak256(bytes(\"completed\"))) {\n            jobState = \"completed\";\n        } else if (keccak256(bytes(_state)) == keccak256(bytes(\"canceled\"))) {\n            jobState = \"canceled\";\n        }\n\n        // emit OneEventForAll2(contractAddress);\n    }\n\n    // function jobReview(address _participantAddress) external {\n    //     if (participantAddress == _participantAddress) {\n    //         jobState = \"review\";\n    //     }\n    // }\n\n    // function jobParticiantAgreed(address _participantAddress) external {\n    //     jobState = \"agreed\";\n    //     participantAddress = _participantAddress;\n\n    //     // for (uint256 i = 0; i < Participants.length; i++) {\n    //     //     if (Participants[i] == _participantAddress) {\n    //     //         jobState = \"agreed\";\n    //     //         participantAddress = _participantAddress;\n    //     //     }\n    //     // }\n    // }\n\n    // function jobInProgress() external {\n    //     jobState = \"progress\";\n    // }\n\n    // function jobCompleted() external {\n    //     jobState = \"completed\";\n    // }\n\n    // function jobCanceled() external {\n    //     jobState = \"canceled\";\n    // }\n\n    receive() external payable {}\n\n    // fallback () external payable    {\n\n    // }\n\n    // constructor(string memory _name, address _owner) {\n    //     name = _name;\n    //     owner = _owner;\n    // }\n}\n",
  "sourcePath": "/home/user/Documents/mainstream/devopsdao/contracts/Factory.sol",
  "compiler": {
    "name": "solc",
    "version": "0.8.17+commit.8df45f5f.Emscripten.clang"
  },
  "schemaVersion": "3.4.10",
  "updatedAt": "2022-09-17T14:06:06.830Z",
  "devdoc": {
    "kind": "dev",
    "methods": {},
    "version": 1
  },
  "userdoc": {
    "kind": "user",
    "methods": {},
    "version": 1
  }
}