{
  "contractName": "Job",
  "abi": [
    {
      "inputs": [
        {
          "internalType": "string",
          "name": "_nanoId",
          "type": "string"
        },
        {
          "internalType": "string",
          "name": "_title",
          "type": "string"
        },
        {
          "internalType": "string",
          "name": "_description",
          "type": "string"
        },
        {
          "internalType": "string",
          "name": "_symbol",
          "type": "string"
        },
        {
          "internalType": "uint256",
          "name": "_index",
          "type": "uint256"
        },
        {
          "internalType": "address",
          "name": "_contractOwner",
          "type": "address"
        }
      ],
      "stateMutability": "payable",
      "type": "constructor"
    },
    {
      "inputs": [
        {
          "internalType": "string",
          "name": "message",
          "type": "string"
        }
      ],
      "name": "RevertReason",
      "type": "error"
    },
    {
      "anonymous": false,
      "inputs": [
        {
          "indexed": false,
          "internalType": "address",
          "name": "contractAdr",
          "type": "address"
        },
        {
          "indexed": false,
          "internalType": "string",
          "name": "message",
          "type": "string"
        }
      ],
      "name": "Logs",
      "type": "event"
    },
    {
      "anonymous": false,
      "inputs": [
        {
          "indexed": false,
          "internalType": "address",
          "name": "contractAdr",
          "type": "address"
        },
        {
          "indexed": false,
          "internalType": "string",
          "name": "message",
          "type": "string"
        },
        {
          "indexed": false,
          "internalType": "uint256",
          "name": "value",
          "type": "uint256"
        }
      ],
      "name": "LogsValue",
      "type": "event"
    },
    {
      "inputs": [
        {
          "internalType": "uint256",
          "name": "",
          "type": "uint256"
        }
      ],
      "name": "Participants",
      "outputs": [
        {
          "internalType": "address",
          "name": "",
          "type": "address"
        }
      ],
      "stateMutability": "view",
      "type": "function"
    },
    {
      "inputs": [
        {
          "internalType": "uint256",
          "name": "",
          "type": "uint256"
        }
      ],
      "name": "_destinationAddresses",
      "outputs": [
        {
          "internalType": "address",
          "name": "",
          "type": "address"
        }
      ],
      "stateMutability": "view",
      "type": "function"
    },
    {
      "inputs": [],
      "name": "contractAddress",
      "outputs": [
        {
          "internalType": "address",
          "name": "",
          "type": "address"
        }
      ],
      "stateMutability": "view",
      "type": "function"
    },
    {
      "inputs": [],
      "name": "contractOwner",
      "outputs": [
        {
          "internalType": "address",
          "name": "",
          "type": "address"
        }
      ],
      "stateMutability": "view",
      "type": "function"
    },
    {
      "inputs": [],
      "name": "contractParent",
      "outputs": [
        {
          "internalType": "address",
          "name": "",
          "type": "address"
        }
      ],
      "stateMutability": "view",
      "type": "function"
    },
    {
      "inputs": [],
      "name": "createTime",
      "outputs": [
        {
          "internalType": "uint256",
          "name": "",
          "type": "uint256"
        }
      ],
      "stateMutability": "view",
      "type": "function"
    },
    {
      "inputs": [],
      "name": "description",
      "outputs": [
        {
          "internalType": "string",
          "name": "",
          "type": "string"
        }
      ],
      "stateMutability": "view",
      "type": "function"
    },
    {
      "inputs": [],
      "name": "gateway",
      "outputs": [
        {
          "internalType": "contract IAxelarGateway",
          "name": "",
          "type": "address"
        }
      ],
      "stateMutability": "view",
      "type": "function"
    },
    {
      "inputs": [],
      "name": "index",
      "outputs": [
        {
          "internalType": "uint256",
          "name": "",
          "type": "uint256"
        }
      ],
      "stateMutability": "view",
      "type": "function"
    },
    {
      "inputs": [],
      "name": "jobState",
      "outputs": [
        {
          "internalType": "string",
          "name": "",
          "type": "string"
        }
      ],
      "stateMutability": "view",
      "type": "function"
    },
    {
      "inputs": [],
      "name": "name",
      "outputs": [
        {
          "internalType": "string",
          "name": "",
          "type": "string"
        }
      ],
      "stateMutability": "view",
      "type": "function"
    },
    {
      "inputs": [],
      "name": "nanoId",
      "outputs": [
        {
          "internalType": "string",
          "name": "",
          "type": "string"
        }
      ],
      "stateMutability": "view",
      "type": "function"
    },
    {
      "inputs": [],
      "name": "participantAddress",
      "outputs": [
        {
          "internalType": "address payable",
          "name": "",
          "type": "address"
        }
      ],
      "stateMutability": "view",
      "type": "function"
    },
    {
      "inputs": [],
      "name": "price",
      "outputs": [
        {
          "internalType": "uint256",
          "name": "",
          "type": "uint256"
        }
      ],
      "stateMutability": "view",
      "type": "function"
    },
    {
      "inputs": [],
      "name": "symbol",
      "outputs": [
        {
          "internalType": "string",
          "name": "",
          "type": "string"
        }
      ],
      "stateMutability": "view",
      "type": "function"
    },
    {
      "inputs": [],
      "name": "title",
      "outputs": [
        {
          "internalType": "string",
          "name": "",
          "type": "string"
        }
      ],
      "stateMutability": "view",
      "type": "function"
    },
    {
      "stateMutability": "payable",
      "type": "receive"
    },
    {
      "inputs": [],
      "name": "getJob",
      "outputs": [
        {
          "internalType": "string",
          "name": "_content",
          "type": "string"
        },
        {
          "internalType": "string",
          "name": "_jobState",
          "type": "string"
        },
        {
          "internalType": "address",
          "name": "_contractAddress",
          "type": "address"
        },
        {
          "internalType": "address",
          "name": "_contractParent",
          "type": "address"
        },
        {
          "internalType": "address",
          "name": "_contractOwner",
          "type": "address"
        },
        {
          "internalType": "uint256",
          "name": "_createTime",
          "type": "uint256"
        },
        {
          "internalType": "uint256",
          "name": "_index",
          "type": "uint256"
        },
        {
          "internalType": "string",
          "name": "_description",
          "type": "string"
        },
        {
          "internalType": "address[]",
          "name": "_participants",
          "type": "address[]"
        },
        {
          "internalType": "address",
          "name": "_participantAddress",
          "type": "address"
        },
        {
          "internalType": "string",
          "name": "_symbol",
          "type": "string"
        },
        {
          "internalType": "string",
          "name": "_nanoId",
          "type": "string"
        }
      ],
      "stateMutability": "view",
      "type": "function"
    },
    {
      "inputs": [],
      "name": "withdrawAll",
      "outputs": [],
      "stateMutability": "nonpayable",
      "type": "function"
    },
    {
      "inputs": [],
      "name": "getBalance",
      "outputs": [
        {
          "internalType": "uint256",
          "name": "",
          "type": "uint256"
        }
      ],
      "stateMutability": "view",
      "type": "function"
    },
    {
      "inputs": [
        {
          "internalType": "address payable",
          "name": "_addressToSend",
          "type": "address"
        }
      ],
      "name": "transferToaddress",
      "outputs": [],
      "stateMutability": "payable",
      "type": "function"
    },
    {
      "inputs": [
        {
          "internalType": "address",
          "name": "address_",
          "type": "address"
        }
      ],
      "name": "addressToString",
      "outputs": [
        {
          "internalType": "string",
          "name": "",
          "type": "string"
        }
      ],
      "stateMutability": "pure",
      "type": "function"
    },
    {
      "inputs": [
        {
          "internalType": "address payable",
          "name": "_addressToSend",
          "type": "address"
        },
        {
          "internalType": "string",
          "name": "chain",
          "type": "string"
        }
      ],
      "name": "transferToaddressChain2",
      "outputs": [],
      "stateMutability": "payable",
      "type": "function"
    },
    {
      "inputs": [
        {
          "internalType": "address",
          "name": "_participantAddress",
          "type": "address"
        }
      ],
      "name": "jobParticipate",
      "outputs": [],
      "stateMutability": "nonpayable",
      "type": "function"
    },
    {
      "inputs": [
        {
          "internalType": "address payable",
          "name": "_participantAddress",
          "type": "address"
        },
        {
          "internalType": "string",
          "name": "_state",
          "type": "string"
        }
      ],
      "name": "jobStateChange",
      "outputs": [],
      "stateMutability": "nonpayable",
      "type": "function"
    }
  ],
  "bytecode": "0x60a060405262002d7380380380620000178162000581565b928339810160c0828203126200057c5781516001600160401b0391908281116200057c578162000049918501620005a7565b602093848101518481116200057c578362000066918301620005a7565b9460408201518581116200057c578462000082918401620005a7565b936060830151908682116200057c576200009e918401620005a7565b9160a0608082015191015160018060a01b0381168091036200057c57845197878911620003455760019880620000d58b5462000619565b97601f988981116200054a575b508690898311600114620004d957600092620004cd575b5050600019600383901b1c1916908a1b1789555b805190888211620003455781906200012760025462000619565b8881116200049a575b508590888311600114620004305760009262000424575b5050600019600383901b1c191690891b176002555b6200016960045462000619565b85811162000400575b506006626e657760e81b0160045560018060a01b03193081600954161760095533816008541617600855600a541617600a5542600c556005558351858111620003455780600395620001c5875462000619565b868111620003ce575b50839086831160011462000367576000926200035b575b505060001982871b1c191690871b1784555b815194851162000345576200020e600e5462000619565b83811162000307575b50809285116001146200029757509383949184926000956200028b575b50501b92600019911b1c191617600e555b735769d84dd62a6fd969856c75c7d321b84d4559296080526040516127039081620006708239608051818181610f690152818161151e015281816118f80152611bbe0152f35b01519350388062000234565b92919084601f198116600e60005285600020956000905b89838310620002ec5750505010620002d1575b50505050811b01600e5562000245565b01519060f884600019921b161c1916905538808080620002c1565b858701518955909701969485019488935090810190620002ae565b6200033490600e600052826000208580890160051c820192858a106200033b575b0160051c019062000656565b3862000217565b9250819262000328565b634e487b7160e01b600052604160045260246000fd5b015190503880620001e5565b90899350601f1983169188600052856000209260005b87828210620003b757505084116200039e575b505050811b018455620001f7565b015160001983891b60f8161c1916905538808062000390565b8385015186558d979095019493840193016200037d565b620003f99088600052856000208880860160051c8201928887106200033b570160051c019062000656565b38620001ce565b6200041d9060046000528685600020910160051c81019062000656565b3862000172565b01519050388062000147565b908b9350601f198316916002600052876000209260005b8982821062000483575050841162000469575b505050811b016002556200015c565b015160001960f88460031b161c191690553880806200045a565b8385015186558f9790950194938401930162000447565b620004c6906002600052876000208a80860160051c8201928a87106200033b570160051c019062000656565b3862000130565b015190503880620000f9565b908c9350601f1983169184600052886000209260005b8a8282106200052a575050841162000510575b505050811b0189556200010d565b015160001960f88460031b161c1916905538808062000502565b91929395968291958786015181550195019301908e9594939291620004ef565b62000575908d600052886000208b80860160051c8201928b87106200033b570160051c019062000656565b38620000e2565b600080fd5b6040519190601f01601f191682016001600160401b038111838210176200034557604052565b919080601f840112156200057c5782516001600160401b0381116200034557602090620005dd601f8201601f1916830162000581565b928184528282870101116200057c5760005b8181106200060557508260009394955001015290565b8581018301518482018401528201620005ef565b90600182811c921680156200064b575b60208310146200063557565b634e487b7160e01b600052602260045260246000fd5b91607f169162000629565b81811062000662575050565b600081556001016200065656fe608060405260048036101561001d575b50361561001b57600080fd5b005b600090813560e01c8062bc30f91461107f57806305747a1f1461103e57806306fdde0314610f98578063116191b614610f5357806312065fe014610f295780632986c0e514610f0b5780634327a9f414610ee25780634a79d50c14610e3c57806354ddcc3a14610d9957806359ff6ba814610d705780635ad8e8ae14610c865780635e57966d14610a9757806361dcd7ab14610a795780637284e416146109d3578063853828b6146109bf57806395d89b411461090357806398cfc1a6146108d3578063a035b1fe146108b5578063bed5572f1461085b578063ce606ee014610832578063dd28e14d146103df578063e2395ad8146101f7578063f6b4dfb4146101cb5763fcd3f19614610131575061000f565b346101c75760203660031901126101c757356001600160a01b03808216908183036101c3578391845491821560001461017457505050506101719061255f565b80f35b855b83811061019357505050501561018a575080f35b6101719061255f565b828261019e836120f8565b90549060031b1c16146101ba575b6101b590612324565b610176565b600194506101ac565b8380fd5b5080fd5b82346101f457806003193601126101f4576009546040516001600160a01b039091168152602090f35b80fd5b50346101c7576102063661207a565b809291925190602091817f6c7b0b1c2030be2c643396fd6dc3924ed2cca787e91e5b7b0d3ad68dbf3730168480940192832060405161024481612020565b60068152651859dc99595960d21b96018690520361029a57505050600c9061027461026f8454612142565b612639565b01905560018060a01b03166bffffffffffffffffffffffff60a01b600b541617600b5580f35b90919394508392507ff9277228123ef6174480588e3c39104edb4957fab3fd5fbf6d6beb66bd614804815183206040516102d381612020565b600881526770726f677265737360c01b9601869052036103065750505060109061030061026f8454612142565b01905580f35b8293507f7aa61f7d41f5fab2b7227198d10b8e1d66c06c49409fec49270e545030a3cdfb8151832060405161033a81612020565b600681526572657669657760d01b950185905203610365575050600c915061030061026f8454612142565b809192505182206103746122a6565b805190850120036103a45750505061038f61026f8254612142565b60126818dbdb5c1b195d195960ba1b01905580f35b519020906103b0612282565b8051910120146103be575080f35b6103cb61026f8254612142565b60106718d85b98d95b195960c21b01905580f35b82346101f457806003193601126101f457600954600854600a54600c54600554600b5460405160025490976001600160a01b0397881697949685169592851694909216929088600061043083612142565b808352926001811690811561081357506001146107b3575b6104549250038961203c565b61045c61217c565b97604051916000836003549161047183612142565b80835292600181169081156107945750600114610733575b6104959250038461203c565b60405197889560206000549a8b81520199878b600080527f290decd9548b62a8d60345a988386fc84ba6bc95484008f6362f93160ef3e5639260005b8181106107115750506104e69250038861203c565b6040519860008a600e54916104fa83612142565b80835292600181169081156106f257506001146106a4575b61051e9250038b61203c565b6040519b60008d6001549161053283612142565b8083529260018116908115610687575060011461062a575b909d9c9b9a989796959493929f9e915003610565908d61203c565b6040519d8e9d8e96610180808952880161057e9161225d565b878103602089015261058f9161225d565b956040015260608d015260808c015260a08b015260c08a015288810360e08a01526105b99161225d565b90878203610100890152519081815260200194915b8181106106085750505061012085015283820361014085015261060492916105f59161225d565b9083820361016085015261225d565b0390f35b82516001600160a01b03168652889750602095860195909201916001016105ce565b509060016000527fb10e2d527612073b26eecdfd717e6a320cf44b4afac2b0732d9fcbe2b7fa0cf6906000915b81831061066c5750506020829182010161054a565b80602092948385600194549201015201910190918f92610657565b602092508394915060ff191682840152151560051b82010161054a565b5090600e60005260008051602061268e833981519152906000915b8183106106d757505090602061051e92820101610512565b80602092948385600194549201015201910190918c926106bf565b6020925061051e94915060ff191682840152151560051b820101610512565b84546001600160a01b031683526001948501948c9450602090930192016104d1565b509060036000527fc2575a0e9e593c00f959f8c92f12db2869c3395a3b0502d05e2516446f71f85b906000915b81831061077857505090602061049592820101610489565b6020919350806001915483858a01015201910190918592610760565b6020925061049594915060ff191682840152151560051b820101610489565b509060026000527f405787fa12a823e0f2b7631cc41b3ba8828b3321ca811111fa75cd3aa3bb5ace906000915b8183106107f857505090602061045492820101610448565b80602092948385600194549201015201910190918a926107e0565b6020925061045494915060ff191682840152151560051b820101610448565b82346101f457806003193601126101f457600a546040516001600160a01b039091168152602090f35b50346101c75760203660031901126101c75735600d548110156101c757600d6000527fd7b6990105719101dabeb77144f2a3385c8033acd3af97e9423a695e81ad1eb501546040516001600160a01b039091168152602090f35b82346101f457806003193601126101f4576020600754604051908152f35b82346101f457806003193601126101f4576106046108ef61217c565b60405191829160208352602083019061225d565b82346101f457806003193601126101f4576040516000600e5461092581612142565b80845290600190818116908115610998575060011461094f575b610604846108ef8186038261203c565b600e6000908152925060008051602061268e8339815191525b8284106109805750505081016020016108ef8261093f565b80546020858701810191909152909301928101610968565b60ff191660208087019190915292151560051b850190920192506108ef915083905061093f565b82346101f457806003193601126101f45780f35b82346101f457806003193601126101f45760405160006003546109f581612142565b808452906001908181169081156109985750600114610a1e57610604846108ef8186038261203c565b6003600090815292507fc2575a0e9e593c00f959f8c92f12db2869c3395a3b0502d05e2516446f71f85b5b828410610a615750505081016020016108ef8261093f565b80546020858701810191909152909301928101610a49565b82346101f457806003193601126101f4576020600c54604051908152f35b50346101c75760209081600319360112610c82578035926001600160a01b03841684036101f457604051936bffffffffffffffffffffffff199060601b168385015260148452610ae684612020565b60405190610af382612020565b601082526f181899199a1a9b1b9c1cb0b131b232b360811b84830152845160019281841b600292808204841490151715610c6f578201808311610c6f57610b39906122cb565b96875115610c5c576030878901538751851015610c5c5787938793879387936078602189015383985b610b7a575b60405187815280610604818a018b61225d565b8051891015610c57576001600160f81b031980610ba4610b9a8c856122fd565b5160fc1c856122fd565b5116908a871b918b830486148c151715610c445782860190818711610c3157610bd090881a918c6122fd565b53610beb600f610be08d866122fd565b5160f81c16856122fd565b51166003918201809211610c1e5799610c1591610c0f88999a9b9c881a918d6122fd565b53612324565b98979695610b62565b634e487b7160e01b865260118852602486fd5b634e487b7160e01b885260118a52602488fd5b634e487b7160e01b875260118952602487fd5b610b67565b634e487b7160e01b845260328652602484fd5b634e487b7160e01b845260118652602484fd5b8280fd5b5060203660031901126101c757356001600160a01b0381811691829003610d6b578291610cb161217c565b60208151910120610cc0612282565b6020815191012014600014610d185781600a54168114610ce1575b50505080f35b828092918192600954163190828215610d0f575bf115610d0357803880610cdb565b604051903d90823e3d90fd5b506108fc610cf5565b50610d2161217c565b60208151910120610d306122a6565b6020815191012014610d4157505080f35b8180828193600b541690600954163190828215610d62575bf115610d035780f35b506108fc610d59565b600080fd5b82346101f457806003193601126101f457600b546040516001600160a01b039091168152602090f35b82346101f457806003193601126101f45760405160006001805490610dbd82612142565b808552918181169081156109985750600114610de357610604846108ef8186038261203c565b600081815292507fb10e2d527612073b26eecdfd717e6a320cf44b4afac2b0732d9fcbe2b7fa0cf65b828410610e245750505081016020016108ef8261093f565b80546020858701810191909152909301928101610e0c565b82346101f457806003193601126101f4576040516000600254610e5e81612142565b808452906001908181169081156109985750600114610e8757610604846108ef8186038261203c565b6002600090815292507f405787fa12a823e0f2b7631cc41b3ba8828b3321ca811111fa75cd3aa3bb5ace5b828410610eca5750505081016020016108ef8261093f565b80546020858701810191909152909301928101610eb2565b82346101f457806003193601126101f4576008546040516001600160a01b039091168152602090f35b82346101f457806003193601126101f4576020600554604051908152f35b82346101f457806003193601126101f4576009546040516001600160a01b03909116318152602090f35b82346101f457806003193601126101f4576040517f00000000000000000000000000000000000000000000000000000000000000006001600160a01b03168152602090f35b82346101f457806003193601126101f4576040516000600654610fba81612142565b808452906001908181169081156109985750600114610fe357610604846108ef8186038261203c565b6006600090815292507ff652222313e28459528d920b65115c16c04f3efc82aaedc97be59f3f377c0d3f5b8284106110265750505081016020016108ef8261093f565b8054602085870181019190915290930192810161100e565b50346101c75760203660031901126101c757359080548210156101f4576020611066836120f8565b905460405160039290921b1c6001600160a01b03168152f35b506110893661207a565b91905061109461217c565b9182516020809401206110a5612282565b805190850120036110d5575050600b54600a548392506001600160a01b039182169082168114610ce15750505080f35b6110dd61217c565b8381519101206110eb6122a6565b848151910120148015611fee575b6111035750505080f35b604051600e54939492939085818561111a85612142565b8083528383019560018116908115611fd25750600114611f85575b506111429250038261203c565b80518061117c576040516303c4b96f60e41b8152808701889052600b60248201526a32b6b83a3c903a37b5b2b760a91b6044820152606490fd5b7faaaebeba3810b1e6b70781f14b2d72c1cb89c0b2b320c43bb67ff79f562f5ff49083969596206208aa8960eb1b886040516111b781612020565b600381520152036112ef5750505091819260018060a01b03806009541690600b54168060405193635e57966d60e01b85528401528483602481305afa9182156112e4576000805160206126ae833981519152611294879694879695879687926112b9575b5060166112879160405193816b03bb4ba34323930bbb4b733960a51b869384015261127761124b602c85016123ef565b91750103a379022ba3432b932bab69030b2323932b9b99d160551b83528351938491878501910161223a565b010360091981018452018261203c565b60405191829185836124ee565b0390a131908282156112b0575bf115610d03575b388080610cdb565b506108fc6112a1565b6112879192506112dc6016913d808b833e6112d4818361203c565b81019061238d565b92915061121b565b6040513d87823e3d90fd5b805182206112fb612349565b8781519101201480611f6a575b156118625750506009546001600160a01b039490851691611328346125a1565b600b54604051635e57966d60e01b815290881686820152908682602481305afa9182156117635760146000805160206126ae8339815191529461142c94879461141f948c92611845575b506040519586937f7769746864726177696e67207669612073656e64546f4d616e79200000000000828601526113c78d6113ae603b88016123ef565b92630103a37960e51b845280519485928501910161223a565b016603b30b63ab29d160cd1b8c8201526113ea825180938c600b8501910161223a565b01681030b2323932b9b99d60b91b600b82015261140f825180938b878501910161223a565b0103600b1981018452018261203c565b60405191829186836124ee565b0390a1604051635e57966d60e01b815233848201528481602481305afa9081156112e4577faf0fb12b97da20938bb1d21fd3d221e0e82a44421eaa81ad19ef3e91c22027e6916114ee91879161182b575b506114d5603960405180936b036b9b39739b2b73232b91d160a51b888301526114af815180928a602c8601910161223a565b81016c01031b0b636103b30b63ab29d1609d1b602c82015203601981018452018261203c565b604051918291308352606086840152606083019061225d565b3460408301520390a16040516349ad89fb60e11b81528381018290528181806115196024820161252f565b0381897f0000000000000000000000000000000000000000000000000000000000000000165afa9081156112e45790869186916117fe575b501691604051906370a0823160e01b8252848201528181602481865afa80156112e45785906117d0575b600a9150049060405163095ea7b360e01b815281816044818973e9f4b6db26f964e5b62fa3bec5115a56b4dbd79a98898b8401528860248401525af180156117c557611798575b5085600b541690600d5491600160401b831015611783576001830180600d5583101561176e57600d6000527fd7b6990105719101dabeb77144f2a3385c8033acd3af97e9423a695e81ad1eb592830180546001600160a01b0319169091179055604051635e57966d60e01b815273eaaa71f74b01617ba2235083334a1c952bac0a6c868201528681602481305afa908115611763578791611749575b50843b15611745576116a59060a06040519763fbd9497b60e01b8952880152600760a4880152663837b63cb3b7b760c91b60c488015260e0602488015260e487019061225d565b90600319918287820301604488015281600d54918281520193600d600052916000905b82821061172c57505050508596508480936116ef848394848b99970301606485015261252f565b906084830152039134905af180156117215761170d575b50506112a8565b61171690611ff6565b6101f4578038611706565b6040513d84823e3d90fd5b83548b16865294850194600193840193909101906116c8565b8680fd5b61175d91503d8089833e6112d4818361203c565b3861165e565b6040513d89823e3d90fd5b603286634e487b7160e01b6000525260246000fd5b604186634e487b7160e01b6000525260246000fd5b6117b790823d84116117be575b6117af818361203c565b810190612547565b50386115c2565b503d6117a5565b6040513d88823e3d90fd5b508181813d83116117f7575b6117e6818361203c565b81010312610d6b57600a905161157b565b503d6117dc565b61181e9150833d8511611824575b611816818361203c565b810190612510565b38611551565b503d61180c565b61183f91503d8089833e6112d4818361203c565b3861147d565b61185b9192508c3d8091833e6112d4818361203c565b9038611372565b9081859692959495518220611875612349565b8481519101201480611dfd575b15611b15575050600954600b54604051635e57966d60e01b8082526001600160a01b03928316888301529282169291908681602481305afa8015611763576118e56118f2916000805160206126ae833981519152938a91611afb575b508861246c565b60405191829187836124ee565b0390a1807f000000000000000000000000000000000000000000000000000000000000000016936040516349ad89fb60e11b8152818982015281818061193a6024820161252f565b0381895afa8015611aa05783918991611ade575b5016604051946370a0823160e01b8652898601528185602481845afa948515611aa0578895611aab575b506040805163095ea7b360e01b81526001600160a01b038816818c019081526020810188905290928492849283918d9183910103925af18015611aa057611a82575b5050600b5416604051918252868201528481602481305afa9081156112e4578591611a68575b50823b15611a6457611a1895608092611a3a8793611a2b6040519a8b998a9889976326ef699d60e01b8952880152608487019061225d565b600319928387830301602488015261225d565b9084820301604485015261252f565b90606483015203925af1801561172157611a55575b506112a8565b611a5e90611ff6565b38611a4f565b8480fd5b611a7c91503d8087833e6112d4818361203c565b386119e0565b81611a9892903d106117be576117af818361203c565b5038806119ba565b6040513d8a823e3d90fd5b9094508181813d8311611ad7575b611ac3818361203c565b81010312611ad357519381611978565b8780fd5b503d611ab9565b611af59150833d851161182457611816818361203c565b3861194e565b611b0f91503d808c833e6112d4818361203c565b386118de565b5190209093919250611b25612349565b8481519101201480611db0575b15611d5f57600954600b54604051635e57966d60e01b81526001600160a01b0391821684820152918116939091908682602481305afa918215611763576000805160206126ae83398151915292611b94926118e5928a92611d43575b5061246c565b0390a16040516349ad89fb60e11b8152828101859052848180611bb96024820161252f565b0381857f0000000000000000000000000000000000000000000000000000000000000000165afa80156117c55782918791611d26575b5016604051926370a0823160e01b84528481850152868685602481865afa948515611ce85787908296611cf5575b506040805163095ea7b360e01b81526001600160a01b039098168489019081526020810188905296979687918291015b038184875af1928315611ce8578795606494611ccb575b50846009541694600b54169660405197889687956323b872dd60e01b8752860152602485015260448401525af18015611cc057611ca25750506112a8565b81611cb892903d106117be576117af818361203c565b503880611706565b6040513d85823e3d90fd5b611ce190873d89116117be576117af818361203c565b5038611c64565b50604051903d90823e3d90fd5b809650813d8311611d1f575b611d0b818361203c565b810103126101f45786611c4d955195611c1d565b503d611d01565b611d3d9150863d881161182457611816818361203c565b38611bef565b611d589192503d808c833e6112d4818361203c565b9038611b8e565b6040516303c4b96f60e41b81529081018390526024808201527f696e76616c69642064657374696e6174696f6e206e6574776f726b206f72207460448201526337b5b2b760e11b6064820152608490fd5b507f6f3c53069778183912da77a05fe67c3d6edb208ffdf1ca0161d51543035e3c68825184840120674d6f6f6e6261736560c01b85604051611df181612020565b60088152015214611b32565b5083517f564ccaf7594d66b1eaaea24fe01f0585bf52ee70852af4eac0cc4b04711cd0e284860191822067457468657265756d60c01b86604051611e4081612020565b60088152015214908115611f1e575b8115611ed3575b8115611e85575b8115611e6a575b50611882565b905084519020611e7861236a565b8481519101201438611e64565b90507f6585177c3aba6cb7ffc0a37e831a958c4ee9278e4c62c7bdad7175ca09883c4085518220684176616c616e63686560b81b86604051611ec681612020565b6009815201521490611e5d565b90507fcbf2a723bab3288b57db0bfae9d136af04a5c70c9acd46aad23acb67ef5fe179855182206546616e746f6d60d01b86604051611f1181612020565b6006815201521490611e56565b90507f1de46e819416afc37058fd1cf806b9bcf96fa5d23b3ae565d6c72f0e19be9a9e855182206642696e616e636560c81b86604051611f5d81612020565b6007815201521490611e4f565b50825186840120611f7961236a565b87815191012014611308565b92505050600e8552818760008051602061268e8339815191529287905b808210611fb85750899350820101611142611135565b845482870184015260019094019385935090820190611fa2565b60ff1916875250899390151560051b8301019050611142611135565b5060016110f9565b67ffffffffffffffff811161200a57604052565b634e487b7160e01b600052604160045260246000fd5b6040810190811067ffffffffffffffff82111761200a57604052565b90601f8019910116810190811067ffffffffffffffff82111761200a57604052565b67ffffffffffffffff811161200a57601f01601f191660200190565b906040600319830112610d6b576004356001600160a01b0381168103610d6b579160243567ffffffffffffffff8111610d6b5781602382011215610d6b578060040135906120c78261205e565b926120d5604051948561203c565b82845260248383010111610d6b5781600092602460209301838601378301015290565b90600091825481101561212e578280527f290decd9548b62a8d60345a988386fc84ba6bc95484008f6362f93160ef3e563019190565b634e487b7160e01b83526032600452602483fd5b90600182811c92168015612172575b602083101461215c57565b634e487b7160e01b600052602260045260246000fd5b91607f1691612151565b604051906000826004549161219083612142565b8083529260019081811690811561221857506001146121b9575b506121b79250038361203c565b565b6004600090815291507f8a35acfbc15ff81a39ae7d344fd709f28e8600b4aa8c65c6b64bfe7fe36bd19b5b8483106121fd57506121b79350508101602001386121aa565b81935090816020925483858a010152019101909185926121e4565b9050602092506121b794915060ff191682840152151560051b820101386121aa565b60005b83811061224d5750506000910152565b818101518382015260200161223d565b906020916122768151809281855285808601910161223a565b601f01601f1916010190565b6040519061228f82612020565b600882526718d85b98d95b195960c21b6020830152565b604051906122b382612020565b600982526818dbdb5c1b195d195960ba1b6020830152565b906122d58261205e565b6122e2604051918261203c565b82815280926122f3601f199161205e565b0190602036910137565b90815181101561230e570160200190565b634e487b7160e01b600052603260045260246000fd5b60001981146123335760010190565b634e487b7160e01b600052601160045260246000fd5b6040519061235682612020565b6005825264615553444360d81b6020830152565b6040519061237782612020565b60078252662837b63cb3b7b760c91b6020830152565b602081830312610d6b5780519067ffffffffffffffff8211610d6b570181601f82011215610d6b5780516123c08161205e565b926123ce604051948561203c565b81845260208284010111610d6b576123ec916020808501910161223a565b90565b600e54600092916123ff82612142565b91600190818116908115612459575060011461241a57505050565b9091929350600e60005260008051602061268e833981519152906000915b848310612446575050500190565b8181602092548587015201920191612438565b60ff191683525050811515909102019150565b6040516b03bb4ba34323930bbb4b733960a51b602082015292916121b791600c91859161249b602c84016123ef565b630103a37960e51b81526124b982518093602060048501910161223a565b016730b2323932b9b99d60c11b60048201526124de825180936020878501910161223a565b010360131981018552018361203c565b6001600160a01b0390911681526040602082018190526123ec9291019061225d565b90816020910312610d6b57516001600160a01b0381168103610d6b5790565b6005815264615553444360d81b602082015260400190565b90816020910312610d6b57518015158103610d6b5790565b600054600160401b81101561200a5780600161257e92016000556120f8565b819291549060031b9160018060a01b039283811b93849216901b16911916179055565b801561261b5780816000925b61260757506125bb826122cb565b9190805b6125c857505090565b600a90603092828206840180941161233357801561233357600019019260f81b6001600160f81b03191660001a6125ff84866122fd565b5304806125bf565b91612613600a91612324565b9204806125ad565b5060405161262881612020565b60018152600360fc1b602082015290565b601f81116126445750565b600060048152601f7f8a35acfbc15ff81a39ae7d344fd709f28e8600b4aa8c65c6b64bfe7fe36bd19b920160051c8201915b82811061268257505050565b81815560010161267656febb7b4a454dc3493923482f07822329ed19e8244eff582cc204f8554c3620c3fdf914ca0348190fe49c31ec3901a60069cc792666a05ee2db257a8491cbad2b1ea2646970667358221220a63e350ddd19f4b6ce0fb44d5d042018d1f32744baba0cd297b1a6f3b70da96264736f6c63430008110033",
  "immutableReferences": {
    "1102": [
      {
        "length": 32,
        "start": 3945
      },
      {
        "length": 32,
        "start": 5406
      },
      {
        "length": 32,
        "start": 6392
      },
      {
        "length": 32,
        "start": 7102
      }
    ]
  },
  "source": "// SPDX-License-Identifier: MIT\npragma solidity ^0.8.12;\n\n// import { IDistributionExecutable } from './IDistributionExecutable.sol';\nimport { IDistributionExecutable } from './IDistributionExecutable.sol';\n\n\n// import { AxelarExecutable } from '@axelar-network/axelar-gmp-sdk-solidity/contracts/executables/AxelarExecutable.sol';\nimport { IAxelarGateway } from '@axelar-network/axelar-gmp-sdk-solidity/contracts/interfaces/IAxelarGateway.sol';\nimport { IERC20 } from '@axelar-network/axelar-gmp-sdk-solidity/contracts/interfaces/IERC20.sol';\n// import { IAxelarGasService } from '@axelar-network/axelar-gmp-sdk-solidity/contracts/interfaces/IAxelarGasService.sol';\nimport { StringToAddress, AddressToString } from '@axelar-network/axelar-gmp-sdk-solidity/contracts/StringAddressUtils.sol';\n\nerror RevertReason (string message);\n\ncontract Factory {\n    IAxelarGateway public immutable gateway;\n\n\n    Job[] public jobArray;\n    // address contractOwner;\n    uint256 public countNew = 0;\n    uint256 countAgreed = 0;\n    uint256 countProgress = 0;\n    uint256 countReview = 0;\n    uint256 countCompleted = 0;\n    uint256 countCanceled = 0;\n    string stateNew = \"new\";\n    string stateAgreed = \"agreed\";\n    string stateProgress = \"progress\";\n    string stateReview = \"review\";\n    string stateCompleted = \"completed\";\n    string stateCanceled = \"canceled\";\n\n    event OneEventForAll(address contractAdr, uint256 index);\n\n\n    event JobContractCreated(\n        string nanoId,\n        address jobAddress,\n        address jobOwner,\n        string title,\n        string description,\n        string symbol,\n        uint256 amount\n    );\n\n\n    constructor() {\n        address gateway_ = 0x5769D84DD62a6fD969856c75c7D321b84d455929;\n        gateway = IAxelarGateway(gateway_);\n    }\n\n    // initial: new, contractor choosed: agreed, work in progress: progress, completed: completed, canceled\n\n    // function indexCalculation(string memory _state) public returns (uint256) {}\n\n    function createJobContract(string memory _nanoId, string memory _title, string memory _description, string memory _symbol, uint256 _amount)\n    external\n    payable\n    {\n        Job job = new Job{value: msg.value}(\n            _nanoId,\n            _title,\n            _description,\n            _symbol,\n            jobArray.length,\n            msg.sender\n        );\n\n        if (keccak256(bytes(_symbol)) != keccak256(bytes(\"ETH\"))) {\n            address tokenAddress = gateway.tokenAddresses(_symbol);\n            // amount = IERC20(tokenAddress).balanceOf(contractAddress);\n            IERC20(tokenAddress).transferFrom(msg.sender, address(job), _amount);\n        }\n        // IERC20(tokenAddress).approve(address(gateway), _amount);\n\n        jobArray.push(job);\n        countNew++;\n        emit JobContractCreated(_nanoId, address(job), msg.sender, _title, _description, _symbol, _amount);\n        emit OneEventForAll(address(job), job.index());\n    }\n\n    // function findJobs(uint256 _myIndex) external view returns (address) {\n    //     return address(jobArray[_myIndex]);\n    // }\n\n    function allJobs() external view returns (Job[] memory _jobs) {\n        _jobs = new Job[](jobArray.length);\n        uint256 count;\n        for (uint256 i = 0; i < jobArray.length; i++) {\n            _jobs[count] = jobArray[i];\n            count++;\n        }\n    }\n\n\n    function jobParticipate(Job job) external {\n        jobArray[job.index()].jobParticipate(msg.sender);\n        emit OneEventForAll(address(job), job.index());\n    }\n\n\n    function jobStateChange(\n        Job job,\n        address payable _participantAddress,\n        string memory _state\n    ) external {\n        jobArray[job.index()].jobStateChange(_participantAddress, _state);\n\n        // if (keccak256(bytes(_state)) == keccak256(bytes(\"agreed\"))) {\n        //     countAgreed++;\n        // } else if (keccak256(bytes(_state)) == keccak256(bytes(\"progress\"))) {\n        //     countProgress++;\n        // } else if (keccak256(bytes(_state)) == keccak256(bytes(\"review\"))) {\n        //     countReview++;\n        // } else if (keccak256(bytes(_state)) == keccak256(bytes(\"completed\"))) {\n        //     countCompleted++;\n        // } else if (keccak256(bytes(_state)) == keccak256(bytes(\"canceled\"))) {\n        //     countCanceled++;\n        // }\n\n        emit OneEventForAll(address(job), job.index());\n    }\n\n    // function jobReview(Job job, address _participantAddress) external {\n    //     jobArray[job.index()].jobReview(_participantAddress);\n    //     countProgress++;\n    // }\n\n    // function jobConfimation(Job job, address _participantAddress) external {\n    //     jobArray[job.index()].jobConfimation(_participantAddress);\n    //     countReview++;\n    // }\n\n    function transferToaddress(Job job, address payable addressToSend)\n    external\n    payable\n    {\n        // addressToSend.transfer(0.5 ether);\n        jobArray[job.index()].transferToaddress(addressToSend);\n        emit OneEventForAll(address(job), job.index());\n    }\n\n    // function transferToaddressChain(Job job, address payable addressToSend, string memory chain)\n    // external\n    // payable\n    // {\n    //     jobArray[job.index()].transferToaddressChain(addressToSend, chain);\n    //     emit OneEventForAll(address(job), job.index());\n    // }\n\n    function transferToaddressChain2(Job job, address payable addressToSend, string memory chain)\n    external\n    payable\n    {\n        jobArray[job.index()].transferToaddressChain2{value: msg.value}(addressToSend, chain);\n        emit OneEventForAll(address(job), job.index());\n    }\n\n\n    // function jobCanceled(Job job) external {\n    //     jobArray[job.index()].jobCanceled();\n    //     countCanceled++;\n    // }\n\n    // function getContractAdr(uint256 _classIndex)\n    //     external\n    //     view\n    //     returns (address)\n    // {\n    //     Job _retBal = Job(payable(address(jobArray[_classIndex])));\n    //     return _retBal.returnContractAddress();\n    // }\n\n    function getBalance(uint256 _classIndex) external view returns (uint256) {\n        Job _retBal = Job(payable(address(jobArray[_classIndex])));\n        return _retBal.getBalance();\n    }\n\n    // function thisContract() external view returns (address) {\n    //     address thisConr = address(this);\n    //     return thisConr;\n    // }\n\n    function getJobInfo(uint256 _classIndex)\n    external\n    view\n    returns (\n        string memory,\n        string memory,\n        address,\n        address,\n        address,\n        uint256,\n        uint256,\n        string memory,\n        address[] memory,\n        address,\n        string memory,\n        string memory\n        \n    )\n    {\n        Job _retBal = Job(payable(address(jobArray[_classIndex])));\n        return _retBal.getJob();\n    }\n\n    // receive() external payable {}\n}\n\ncontract Job {\n    // IDistributionExecutable public immutable distributor;\n\n    IAxelarGateway public immutable gateway;\n    using AddressToString for address;\n    using StringToAddress for string;\n\n    address[] public Participants;\n    // uint256 public data;\n    string public nanoId;\n    string public title;\n    string public description;\n    string public jobState;\n    uint256 public index;\n\n    string public name;\n    uint256 public price;\n    address public contractParent;\n    address public contractAddress;\n    address public contractOwner;\n    address payable public participantAddress;\n    uint256 public createTime;\n    address[] public _destinationAddresses;\n    string public symbol;\n    uint256 amount;\n\n    event Logs(address contractAdr, string message);\n    event LogsValue(address contractAdr, string message, uint value);\n\n    constructor(\n        string memory _nanoId,\n        string memory _title,\n        string memory _description,\n        string memory _symbol,\n        uint256 _index,\n        address _contractOwner\n    ) payable {\n        // data = _data;\n        nanoId = _nanoId;\n        title = _title;\n        jobState = \"new\";\n        contractAddress = address(this);\n        contractParent = msg.sender;\n        contractOwner = _contractOwner;\n        createTime = block.timestamp;\n        index = _index;\n        description = _description;\n        symbol = _symbol;\n\n        address gateway_ = 0x5769D84DD62a6fD969856c75c7D321b84d455929;\n        gateway = IAxelarGateway(gateway_);\n\n        // address distributor_ = 0xE9F4b6dB26f964E5B62Fa3bEC5115a56B4DBd79A;\n        // distributor = IDistributionExecutable(distributor_);\n        // distributor = DistributionExecutable(gateway_);\n        // balance = contractAddress.balance;\n        // createJob(_content, _index);\n        // myStruct = jobStructData(\n        //     _data,\n        //     true,\n        //     address(this),\n        //     msg.sender,\n        //     block.timestamp,\n        //     _index\n        // );\n    }\n\n    // event OneEventForAll2(address contractAdr);\n\n    // function createJob(string memory _content, uint256 _index) public {\n    //     jobStructDataArray.push();\n\n    //     jobStructData(\n    //         _content,\n    //         true,\n    //         address(this),\n    //         msg.sender,\n    //         block.timestamp\n    //     );\n    //     emit jobCreated(_content, _index);\n    // }\n\n    function getJob()\n    public\n    view\n    returns (\n        string memory _content,\n        string memory _jobState,\n        address _contractAddress,\n        address _contractParent,\n        address _contractOwner,\n        uint256 _createTime,\n        uint256 _index,\n        string memory _description,\n        address[] memory _participants,\n        address _participantAddress,\n        string memory _symbol,\n        string memory _nanoId\n    )\n    {\n        return (\n        title,\n        jobState,\n        contractAddress,\n        contractParent,\n        contractOwner,\n        createTime,\n        index,\n        description,\n        Participants,\n        participantAddress,\n        symbol,\n        nanoId\n        );\n    }\n\n    function withdrawAll() external {\n        // jobState = true;\n    }\n\n    // function getContractInfo() public view returns (uint256) {\n    //     return contractAddress.balance;\n    // }\n\n    function getBalance() public view returns (uint256) {\n        return contractAddress.balance;\n    }\n\n    function transferToaddress(address payable _addressToSend) public payable {\n        if (keccak256(bytes(jobState)) == keccak256(bytes(\"canceled\"))) {\n            if (_addressToSend == contractOwner) {\n                _addressToSend.transfer(contractAddress.balance);\n            }\n        } else if (\n            keccak256(bytes(jobState)) == keccak256(bytes(\"completed\"))\n        ) {\n\n            participantAddress.transfer(contractAddress.balance);\n        }\n        // msg.sender.transfer(address(this).balance);\n    }\n\n    // function transferToaddressChain(address payable _addressToSend, string memory chain) public payable {\n    //     if (keccak256(bytes(jobState)) == keccak256(bytes(\"canceled\"))) {\n    //         if (_addressToSend == contractOwner) {\n    //             _addressToSend.transfer(contractAddress.balance);\n    //         }\n    //     } else if (\n    //         keccak256(bytes(jobState)) == keccak256(bytes(\"completed\"))\n    //     ) {\n    //         _destinationAddresses.push(participantAddress);\n    //         distributor.sendToMany(chain, _addressToSend, _destinationAddresses, 'WETH', contractAddress.balance);\n    //     }\n    //     // msg.sender.transfer(address(this).balance);\n    // }\n\n    function addressToString(address address_) external pure returns (string memory) {\n        return address_.toString();\n    }\n\n    function uint2str(\n        uint256 _i\n      )\n        internal\n        pure\n        returns (string memory str)\n      {\n        if (_i == 0)\n        {\n          return \"0\";\n        }\n        uint256 j = _i;\n        uint256 length;\n        while (j != 0)\n        {\n          length++;\n          j /= 10;\n        }\n        bytes memory bstr = new bytes(length);\n        uint256 k = length;\n        j = _i;\n        while (j != 0)\n        {\n          bstr[--k] = bytes1(uint8(48 + j % 10));\n          j /= 10;\n        }\n        str = string(bstr);\n      }\n\n    function transferToaddressChain2(address payable _addressToSend, string memory chain) public payable {\n        if (keccak256(bytes(jobState)) == keccak256(bytes(\"canceled\"))) {\n            if (participantAddress == contractOwner) {\n                participantAddress.transfer(contractAddress.balance);\n            }\n        } else if (\n            keccak256(bytes(jobState)) == keccak256(bytes(\"completed\")) || 1==1\n        ) {\n            bytes memory symbolBytes = bytes(symbol);\n            bytes memory chainBytes = bytes(chain);\n            if (symbolBytes.length == 0) {\n                revert RevertReason({\n                    message: \"empty token\"\n                });\n                // do nothing\n            } else if (keccak256(symbolBytes) == keccak256(bytes(\"ETH\"))) {\n                emit Logs(address(contractAddress), string.concat(\"withdrawing \", symbol, \" to Ethereum address: \",this.addressToString(participantAddress)));\n                participantAddress.transfer(contractAddress.balance);\n            } \n            else if (keccak256(symbolBytes) == keccak256(bytes(\"aUSDC\")) && (\n                keccak256(chainBytes) == keccak256(bytes(\"Polygon\"))\n            )) {\n                emit Logs(address(contractAddress), string.concat(\"withdrawing via sendToMany \", symbol, \" to \", chain, \"value: \", uint2str(msg.value), \" address:\",this.addressToString(participantAddress)));\n                emit LogsValue(address(this), string.concat(\"msg.sender: \", this.addressToString(msg.sender),\" call value: \"), msg.value);\n                // string memory _addressToSend2 = bytes(_addressToSend);\n                address tokenAddress = gateway.tokenAddresses(\"aUSDC\");\n                uint256 contractAmount = IERC20(tokenAddress).balanceOf(contractAddress)/10;\n                IERC20(tokenAddress).approve(0xE9F4b6dB26f964E5B62Fa3bEC5115a56B4DBd79A, contractAmount);\n                _destinationAddresses.push(participantAddress);\n                IDistributionExecutable(0xE9F4b6dB26f964E5B62Fa3bEC5115a56B4DBd79A).sendToMany{value: msg.value}(\"polygon\", this.addressToString(0xEAAA71f74b01617BA2235083334a1c952BAC0a6C), _destinationAddresses, 'aUSDC', contractAmount);\n            }\n            else if (keccak256(symbolBytes) == keccak256(bytes(\"aUSDC\")) && (\n                keccak256(chainBytes) == keccak256(bytes(\"Ethereum\")) || \n                keccak256(chainBytes) == keccak256(bytes(\"Binance\")) ||\n                keccak256(chainBytes) == keccak256(bytes(\"Fantom\")) ||\n                keccak256(chainBytes) == keccak256(bytes(\"Avalanche\")) ||\n                keccak256(chainBytes) == keccak256(bytes(\"Polygon\"))\n            )) {\n                emit Logs(address(contractAddress), string.concat(\"withdrawing \", symbol, \" to \", chain, \"address:\",this.addressToString(participantAddress)));\n                // _destinationAddresses.push(_addressToSend);\n                // distributor.sendToMany(chain, _addressToSend, _destinationAddresses, 'aUSDC', contractAddress.balance);\n                // string memory _addressToSend2 = bytes(_addressToSend);\n                address tokenAddress = gateway.tokenAddresses(\"aUSDC\");\n                uint256 contractAmount = IERC20(tokenAddress).balanceOf(contractAddress);\n                IERC20(tokenAddress).approve(address(gateway), contractAmount);\n                // gateway.sendToken(chain, toAsciiString(participantAddress), \"aUSDC\", amount);\n                gateway.sendToken(chain, this.addressToString(participantAddress), \"aUSDC\", contractAmount);\n            } else if (keccak256(symbolBytes) == keccak256(bytes(\"aUSDC\")) && keccak256(chainBytes) == keccak256(bytes(\"Moonbase\"))) {\n                // revert InvalidToken({\n                //     token: string.concat(\"we are in moonbase, participantAddress\",this.addressToString(participantAddress))\n                // });\n                emit Logs(address(contractAddress), string.concat(\"withdrawing \", symbol, \" to \", chain, \"address:\",this.addressToString(participantAddress)));\n                address tokenAddress = gateway.tokenAddresses(\"aUSDC\");\n                uint256 contractAmount = IERC20(tokenAddress).balanceOf(contractAddress);\n                IERC20(tokenAddress).approve(contractAddress, contractAmount);\n                IERC20(tokenAddress).transferFrom(contractAddress, participantAddress, contractAmount);\n                // IERC20(tokenAddress).approve(address(gateway), amount);\n            }\n            else{\n                revert RevertReason({\n                    message: \"invalid destination network or token\"\n                });\n            }\n        }\n        // msg.sender.transfer(address(this).balance);\n    }\n\n    function toAsciiString(address x) internal pure returns (string memory) {\n        bytes memory s = new bytes(40);\n        for (uint i = 0; i < 20; i++) {\n            bytes1 b = bytes1(uint8(uint(uint160(x)) / (2**(8*(19 - i)))));\n            bytes1 hi = bytes1(uint8(b) / 16);\n            bytes1 lo = bytes1(uint8(b) - 16 * uint8(hi));\n            s[2*i] = char(hi);\n            s[2*i+1] = char(lo);\n        }\n        return string(s);\n    }\n\n    function char(bytes1 b) internal pure returns (bytes1 c) {\n        if (uint8(b) < 10) return bytes1(uint8(b) + 0x30);\n        else return bytes1(uint8(b) + 0x57);\n    }\n\n\n    function jobParticipate(address _participantAddress) external {\n        bool existed = false;\n        if (Participants.length == 0) {\n            Participants.push(_participantAddress);\n        } else {\n            for (uint256 i = 0; i < Participants.length; i++) {\n                if (Participants[i] == _participantAddress) {\n                    existed = true;\n                }\n            }\n            if (!existed) {\n                Participants.push(_participantAddress);\n            }\n        }\n        // emit OneEventForAll2(contractAddress);\n    }\n\n    function jobStateChange(\n        address payable _participantAddress,\n        string memory _state\n    ) external {\n        if (keccak256(bytes(_state)) == keccak256(bytes(\"agreed\"))) {\n            jobState = \"agreed\";\n            participantAddress = _participantAddress;\n        } else if (keccak256(bytes(_state)) == keccak256(bytes(\"progress\"))) {\n            jobState = \"progress\";\n        } else if (keccak256(bytes(_state)) == keccak256(bytes(\"review\"))) {\n            jobState = \"review\";\n        } else if (keccak256(bytes(_state)) == keccak256(bytes(\"completed\"))) {\n            jobState = \"completed\";\n        } else if (keccak256(bytes(_state)) == keccak256(bytes(\"canceled\"))) {\n            jobState = \"canceled\";\n        }\n\n        // emit OneEventForAll2(contractAddress);\n    }\n\n    // function jobReview(address _participantAddress) external {\n    //     if (participantAddress == _participantAddress) {\n    //         jobState = \"review\";\n    //     }\n    // }\n\n    // function jobParticiantAgreed(address _participantAddress) external {\n    //     jobState = \"agreed\";\n    //     participantAddress = _participantAddress;\n\n    //     // for (uint256 i = 0; i < Participants.length; i++) {\n    //     //     if (Participants[i] == _participantAddress) {\n    //     //         jobState = \"agreed\";\n    //     //         participantAddress = _participantAddress;\n    //     //     }\n    //     // }\n    // }\n\n    // function jobInProgress() external {\n    //     jobState = \"progress\";\n    // }\n\n    // function jobCompleted() external {\n    //     jobState = \"completed\";\n    // }\n\n    // function jobCanceled() external {\n    //     jobState = \"canceled\";\n    // }\n\n    receive() external payable {}\n\n    // fallback () external payable    {\n\n    // }\n\n    // constructor(string memory _name, address _owner) {\n    //     name = _name;\n    //     owner = _owner;\n    // }\n}\n",
  "sourcePath": "/home/user/Documents/mainstream/devopsdao/contracts/Factory.sol",
  "compiler": {
    "name": "solc",
    "version": "0.8.17+commit.8df45f5f.Emscripten.clang"
  },
  "schemaVersion": "3.4.10",
  "updatedAt": "2022-09-25T15:38:01.323Z",
  "devdoc": {
    "kind": "dev",
    "methods": {},
    "version": 1
  },
  "userdoc": {
    "kind": "user",
    "methods": {},
    "version": 1
  }
}