{
  "contractName": "Job",
  "abi": [
    {
      "inputs": [
        {
          "internalType": "string",
          "name": "_nanoId",
          "type": "string"
        },
        {
          "internalType": "string",
          "name": "_title",
          "type": "string"
        },
        {
          "internalType": "string",
          "name": "_description",
          "type": "string"
        },
        {
          "internalType": "string",
          "name": "_symbol",
          "type": "string"
        },
        {
          "internalType": "uint256",
          "name": "_index",
          "type": "uint256"
        },
        {
          "internalType": "address",
          "name": "_contractOwner",
          "type": "address"
        }
      ],
      "stateMutability": "payable",
      "type": "constructor"
    },
    {
      "inputs": [
        {
          "internalType": "string",
          "name": "message",
          "type": "string"
        }
      ],
      "name": "RevertReason",
      "type": "error"
    },
    {
      "anonymous": false,
      "inputs": [
        {
          "indexed": false,
          "internalType": "address",
          "name": "contractAdr",
          "type": "address"
        },
        {
          "indexed": false,
          "internalType": "string",
          "name": "message",
          "type": "string"
        }
      ],
      "name": "Logs",
      "type": "event"
    },
    {
      "anonymous": false,
      "inputs": [
        {
          "indexed": false,
          "internalType": "address",
          "name": "contractAdr",
          "type": "address"
        },
        {
          "indexed": false,
          "internalType": "string",
          "name": "message",
          "type": "string"
        },
        {
          "indexed": false,
          "internalType": "uint256",
          "name": "value",
          "type": "uint256"
        }
      ],
      "name": "LogsValue",
      "type": "event"
    },
    {
      "inputs": [
        {
          "internalType": "uint256",
          "name": "",
          "type": "uint256"
        }
      ],
      "name": "Participants",
      "outputs": [
        {
          "internalType": "address",
          "name": "",
          "type": "address"
        }
      ],
      "stateMutability": "view",
      "type": "function"
    },
    {
      "inputs": [
        {
          "internalType": "uint256",
          "name": "",
          "type": "uint256"
        }
      ],
      "name": "_destinationAddresses",
      "outputs": [
        {
          "internalType": "address",
          "name": "",
          "type": "address"
        }
      ],
      "stateMutability": "view",
      "type": "function"
    },
    {
      "inputs": [],
      "name": "contractAddress",
      "outputs": [
        {
          "internalType": "address",
          "name": "",
          "type": "address"
        }
      ],
      "stateMutability": "view",
      "type": "function"
    },
    {
      "inputs": [],
      "name": "contractOwner",
      "outputs": [
        {
          "internalType": "address",
          "name": "",
          "type": "address"
        }
      ],
      "stateMutability": "view",
      "type": "function"
    },
    {
      "inputs": [],
      "name": "contractParent",
      "outputs": [
        {
          "internalType": "address",
          "name": "",
          "type": "address"
        }
      ],
      "stateMutability": "view",
      "type": "function"
    },
    {
      "inputs": [],
      "name": "createTime",
      "outputs": [
        {
          "internalType": "uint256",
          "name": "",
          "type": "uint256"
        }
      ],
      "stateMutability": "view",
      "type": "function"
    },
    {
      "inputs": [],
      "name": "description",
      "outputs": [
        {
          "internalType": "string",
          "name": "",
          "type": "string"
        }
      ],
      "stateMutability": "view",
      "type": "function"
    },
    {
      "inputs": [],
      "name": "gateway",
      "outputs": [
        {
          "internalType": "contract IAxelarGateway",
          "name": "",
          "type": "address"
        }
      ],
      "stateMutability": "view",
      "type": "function"
    },
    {
      "inputs": [],
      "name": "index",
      "outputs": [
        {
          "internalType": "uint256",
          "name": "",
          "type": "uint256"
        }
      ],
      "stateMutability": "view",
      "type": "function"
    },
    {
      "inputs": [],
      "name": "jobState",
      "outputs": [
        {
          "internalType": "string",
          "name": "",
          "type": "string"
        }
      ],
      "stateMutability": "view",
      "type": "function"
    },
    {
      "inputs": [],
      "name": "name",
      "outputs": [
        {
          "internalType": "string",
          "name": "",
          "type": "string"
        }
      ],
      "stateMutability": "view",
      "type": "function"
    },
    {
      "inputs": [],
      "name": "nanoId",
      "outputs": [
        {
          "internalType": "string",
          "name": "",
          "type": "string"
        }
      ],
      "stateMutability": "view",
      "type": "function"
    },
    {
      "inputs": [],
      "name": "participantAddress",
      "outputs": [
        {
          "internalType": "address payable",
          "name": "",
          "type": "address"
        }
      ],
      "stateMutability": "view",
      "type": "function"
    },
    {
      "inputs": [],
      "name": "price",
      "outputs": [
        {
          "internalType": "uint256",
          "name": "",
          "type": "uint256"
        }
      ],
      "stateMutability": "view",
      "type": "function"
    },
    {
      "inputs": [],
      "name": "symbol",
      "outputs": [
        {
          "internalType": "string",
          "name": "",
          "type": "string"
        }
      ],
      "stateMutability": "view",
      "type": "function"
    },
    {
      "inputs": [],
      "name": "title",
      "outputs": [
        {
          "internalType": "string",
          "name": "",
          "type": "string"
        }
      ],
      "stateMutability": "view",
      "type": "function"
    },
    {
      "stateMutability": "payable",
      "type": "receive"
    },
    {
      "inputs": [],
      "name": "getJob",
      "outputs": [
        {
          "internalType": "string",
          "name": "_content",
          "type": "string"
        },
        {
          "internalType": "string",
          "name": "_jobState",
          "type": "string"
        },
        {
          "internalType": "address",
          "name": "_contractAddress",
          "type": "address"
        },
        {
          "internalType": "address",
          "name": "_contractParent",
          "type": "address"
        },
        {
          "internalType": "address",
          "name": "_contractOwner",
          "type": "address"
        },
        {
          "internalType": "uint256",
          "name": "_createTime",
          "type": "uint256"
        },
        {
          "internalType": "uint256",
          "name": "_index",
          "type": "uint256"
        },
        {
          "internalType": "string",
          "name": "_description",
          "type": "string"
        },
        {
          "internalType": "address[]",
          "name": "_participants",
          "type": "address[]"
        },
        {
          "internalType": "address",
          "name": "_participantAddress",
          "type": "address"
        },
        {
          "internalType": "string",
          "name": "_symbol",
          "type": "string"
        },
        {
          "internalType": "string",
          "name": "_nanoId",
          "type": "string"
        }
      ],
      "stateMutability": "view",
      "type": "function"
    },
    {
      "inputs": [],
      "name": "withdrawAll",
      "outputs": [],
      "stateMutability": "nonpayable",
      "type": "function"
    },
    {
      "inputs": [],
      "name": "getBalance",
      "outputs": [
        {
          "internalType": "uint256",
          "name": "",
          "type": "uint256"
        }
      ],
      "stateMutability": "view",
      "type": "function"
    },
    {
      "inputs": [
        {
          "internalType": "address payable",
          "name": "_addressToSend",
          "type": "address"
        }
      ],
      "name": "transferToaddress",
      "outputs": [],
      "stateMutability": "payable",
      "type": "function"
    },
    {
      "inputs": [
        {
          "internalType": "address",
          "name": "address_",
          "type": "address"
        }
      ],
      "name": "addressToString",
      "outputs": [
        {
          "internalType": "string",
          "name": "",
          "type": "string"
        }
      ],
      "stateMutability": "pure",
      "type": "function"
    },
    {
      "inputs": [
        {
          "internalType": "address payable",
          "name": "_addressToSend",
          "type": "address"
        },
        {
          "internalType": "string",
          "name": "chain",
          "type": "string"
        }
      ],
      "name": "transferToaddressChain2",
      "outputs": [],
      "stateMutability": "payable",
      "type": "function"
    },
    {
      "inputs": [
        {
          "internalType": "address",
          "name": "_participantAddress",
          "type": "address"
        }
      ],
      "name": "jobParticipate",
      "outputs": [],
      "stateMutability": "nonpayable",
      "type": "function"
    },
    {
      "inputs": [
        {
          "internalType": "address payable",
          "name": "_participantAddress",
          "type": "address"
        },
        {
          "internalType": "string",
          "name": "_state",
          "type": "string"
        }
      ],
      "name": "jobStateChange",
      "outputs": [],
      "stateMutability": "nonpayable",
      "type": "function"
    }
  ],
  "bytecode": "0x60a060405262002d4580380380620000178162000581565b928339810160c0828203126200057c5781516001600160401b0391908281116200057c578162000049918501620005a7565b602093848101518481116200057c578362000066918301620005a7565b9460408201518581116200057c578462000082918401620005a7565b936060830151908682116200057c576200009e918401620005a7565b9160a0608082015191015160018060a01b0381168091036200057c57845197878911620003455760019880620000d58b5462000619565b97601f988981116200054a575b508690898311600114620004d957600092620004cd575b5050600019600383901b1c1916908a1b1789555b805190888211620003455781906200012760025462000619565b8881116200049a575b508590888311600114620004305760009262000424575b5050600019600383901b1c191690891b176002555b6200016960045462000619565b85811162000400575b506006626e657760e81b0160045560018060a01b03193081600954161760095533816008541617600855600a541617600a5542600c556005558351858111620003455780600395620001c5875462000619565b868111620003ce575b50839086831160011462000367576000926200035b575b505060001982871b1c191690871b1784555b815194851162000345576200020e600e5462000619565b83811162000307575b50809285116001146200029757509383949184926000956200028b575b50501b92600019911b1c191617600e555b735769d84dd62a6fd969856c75c7d321b84d4559296080526040516126d59081620006708239608051818181610edf0152818161145e015281816118630152611b290152f35b01519350388062000234565b92919084601f198116600e60005285600020956000905b89838310620002ec5750505010620002d1575b50505050811b01600e5562000245565b01519060f884600019921b161c1916905538808080620002c1565b858701518955909701969485019488935090810190620002ae565b6200033490600e600052826000208580890160051c820192858a106200033b575b0160051c019062000656565b3862000217565b9250819262000328565b634e487b7160e01b600052604160045260246000fd5b015190503880620001e5565b90899350601f1983169188600052856000209260005b87828210620003b757505084116200039e575b505050811b018455620001f7565b015160001983891b60f8161c1916905538808062000390565b8385015186558d979095019493840193016200037d565b620003f99088600052856000208880860160051c8201928887106200033b570160051c019062000656565b38620001ce565b6200041d9060046000528685600020910160051c81019062000656565b3862000172565b01519050388062000147565b908b9350601f198316916002600052876000209260005b8982821062000483575050841162000469575b505050811b016002556200015c565b015160001960f88460031b161c191690553880806200045a565b8385015186558f9790950194938401930162000447565b620004c6906002600052876000208a80860160051c8201928a87106200033b570160051c019062000656565b3862000130565b015190503880620000f9565b908c9350601f1983169184600052886000209260005b8a8282106200052a575050841162000510575b505050811b0189556200010d565b015160001960f88460031b161c1916905538808062000502565b91929395968291958786015181550195019301908e9594939291620004ef565b62000575908d600052886000208b80860160051c8201928b87106200033b570160051c019062000656565b38620000e2565b600080fd5b6040519190601f01601f191682016001600160401b038111838210176200034557604052565b919080601f840112156200057c5782516001600160401b0381116200034557602090620005dd601f8201601f1916830162000581565b928184528282870101116200057c5760005b8181106200060557508260009394955001015290565b8581018301518482018401528201620005ef565b90600182811c921680156200064b575b60208310146200063557565b634e487b7160e01b600052602260045260246000fd5b91607f169162000629565b81811062000662575050565b600081556001016200065656fe608060405260048036101561001d575b50361561001b57600080fd5b005b600090813560e01c8062bc30f914610ff557806305747a1f14610fb457806306fdde0314610f0e578063116191b614610ec957806312065fe014610e9f5780632986c0e514610e815780634327a9f414610e585780634a79d50c14610db257806354ddcc3a14610d0f57806359ff6ba814610ce65780635ad8e8ae14610bfc5780635e57966d14610a0d57806361dcd7ab146109ef5780637284e41614610949578063853828b61461093557806395d89b411461086757806398cfc1a614610837578063a035b1fe14610819578063bed5572f146107bf578063ce606ee014610796578063dd28e14d146103df578063e2395ad8146101f7578063f6b4dfb4146101cb5763fcd3f19614610131575061000f565b346101c75760203660031901126101c757356001600160a01b03808216908183036101c35783918454918215600014610174575050505061017190612551565b80f35b855b83811061019357505050501561018a575080f35b61017190612551565b828261019e83612062565b90549060031b1c16146101ba575b6101b590612327565b610176565b600194506101ac565b8380fd5b5080fd5b82346101f457806003193601126101f4576009546040516001600160a01b039091168152602090f35b80fd5b50346101c75761020636611fe4565b809291925190602091817f6c7b0b1c2030be2c643396fd6dc3924ed2cca787e91e5b7b0d3ad68dbf3730168480940192832060405161024481611f8a565b60068152651859dc99595960d21b96018690520361029a57505050600c9061027461026f84546120ac565b61262b565b01905560018060a01b03166bffffffffffffffffffffffff60a01b600b541617600b5580f35b90919394508392507ff9277228123ef6174480588e3c39104edb4957fab3fd5fbf6d6beb66bd614804815183206040516102d381611f8a565b600881526770726f677265737360c01b9601869052036103065750505060109061030061026f84546120ac565b01905580f35b8293507f7aa61f7d41f5fab2b7227198d10b8e1d66c06c49409fec49270e545030a3cdfb8151832060405161033a81611f8a565b600681526572657669657760d01b950185905203610365575050600c915061030061026f84546120ac565b809192505182206103746122a9565b805190850120036103a45750505061038f61026f82546120ac565b60126818dbdb5c1b195d195960ba1b01905580f35b519020906103b0612285565b8051910120146103be575080f35b6103cb61026f82546120ac565b60106718d85b98d95b195960c21b01905580f35b82346101f457806003193601126101f457600954600854600a54600c54600554600b5460405160025490976001600160a01b03978816979496851695928516949092169290886000610430836120ac565b80835292600181169081156107775750600114610717575b61045492500389611fa6565b61045c6120e6565b976040519160008360035491610471836120ac565b80835292600181169081156106f85750600114610697575b61049592500384611fa6565b60405197889560206000549a8b81520199878b600080527f290decd9548b62a8d60345a988386fc84ba6bc95484008f6362f93160ef3e5639260005b8181106106755750506104e692500388611fa6565b6104ee6121a4565b986040519b60008d60015491610503836120ac565b808352926001811690811561065857506001146105fb575b909d9c9b9a989796959493929f9e915003610536908d611fa6565b6040519d8e9d8e96610180808952880161054f91612260565b878103602089015261056091612260565b956040015260608d015260808c015260a08b015260c08a015288810360e08a015261058a91612260565b90878203610100890152519081815260200194915b8181106105d9575050506101208501528382036101408501526105d592916105c691612260565b90838203610160850152612260565b0390f35b82516001600160a01b031686528897506020958601959092019160010161059f565b509060016000527fb10e2d527612073b26eecdfd717e6a320cf44b4afac2b0732d9fcbe2b7fa0cf6906000915b81831061063d5750506020829182010161051b565b80602092948385600194549201015201910190918f92610628565b602092508394915060ff191682840152151560051b82010161051b565b84546001600160a01b031683526001948501948c9450602090930192016104d1565b509060036000527fc2575a0e9e593c00f959f8c92f12db2869c3395a3b0502d05e2516446f71f85b906000915b8183106106dc57505090602061049592820101610489565b6020919350806001915483858a010152019101909185926106c4565b6020925061049594915060ff191682840152151560051b820101610489565b509060026000527f405787fa12a823e0f2b7631cc41b3ba8828b3321ca811111fa75cd3aa3bb5ace906000915b81831061075c57505090602061045492820101610448565b80602092948385600194549201015201910190918a92610744565b6020925061045494915060ff191682840152151560051b820101610448565b82346101f457806003193601126101f457600a546040516001600160a01b039091168152602090f35b50346101c75760203660031901126101c75735600d548110156101c757600d6000527fd7b6990105719101dabeb77144f2a3385c8033acd3af97e9423a695e81ad1eb501546040516001600160a01b039091168152602090f35b82346101f457806003193601126101f4576020600754604051908152f35b82346101f457806003193601126101f4576105d56108536120e6565b604051918291602083526020830190612260565b82346101f457806003193601126101f4576040516000600e54610889816120ac565b8084529060019081811690811561090e57506001146108b3575b6105d58461085381860382611fa6565b600e600090815292507fbb7b4a454dc3493923482f07822329ed19e8244eff582cc204f8554c3620c3fd5b8284106108f6575050508101602001610853826108a3565b805460208587018101919091529093019281016108de565b60ff191660208087019190915292151560051b8501909201925061085391508390506108a3565b82346101f457806003193601126101f45780f35b82346101f457806003193601126101f457604051600060035461096b816120ac565b8084529060019081811690811561090e5750600114610994576105d58461085381860382611fa6565b6003600090815292507fc2575a0e9e593c00f959f8c92f12db2869c3395a3b0502d05e2516446f71f85b5b8284106109d7575050508101602001610853826108a3565b805460208587018101919091529093019281016109bf565b82346101f457806003193601126101f4576020600c54604051908152f35b50346101c75760209081600319360112610bf8578035926001600160a01b03841684036101f457604051936bffffffffffffffffffffffff199060601b168385015260148452610a5c84611f8a565b60405190610a6982611f8a565b601082526f181899199a1a9b1b9c1cb0b131b232b360811b84830152845160019281841b600292808204841490151715610be5578201808311610be557610aaf906122ce565b96875115610bd2576030878901538751851015610bd25787938793879387936078602189015383985b610af0575b604051878152806105d5818a018b612260565b8051891015610bcd576001600160f81b031980610b1a610b108c85612300565b5160fc1c85612300565b5116908a871b918b830486148c151715610bba5782860190818711610ba757610b4690881a918c612300565b53610b61600f610b568d86612300565b5160f81c1685612300565b51166003918201809211610b945799610b8b91610b8588999a9b9c881a918d612300565b53612327565b98979695610ad8565b634e487b7160e01b865260118852602486fd5b634e487b7160e01b885260118a52602488fd5b634e487b7160e01b875260118952602487fd5b610add565b634e487b7160e01b845260328652602484fd5b634e487b7160e01b845260118652602484fd5b8280fd5b5060203660031901126101c757356001600160a01b0381811691829003610ce1578291610c276120e6565b60208151910120610c36612285565b6020815191012014600014610c8e5781600a54168114610c57575b50505080f35b828092918192600954163190828215610c85575bf115610c7957803880610c51565b604051903d90823e3d90fd5b506108fc610c6b565b50610c976120e6565b60208151910120610ca66122a9565b6020815191012014610cb757505080f35b8180828193600b541690600954163190828215610cd8575bf115610c795780f35b506108fc610ccf565b600080fd5b82346101f457806003193601126101f457600b546040516001600160a01b039091168152602090f35b82346101f457806003193601126101f45760405160006001805490610d33826120ac565b8085529181811690811561090e5750600114610d59576105d58461085381860382611fa6565b600081815292507fb10e2d527612073b26eecdfd717e6a320cf44b4afac2b0732d9fcbe2b7fa0cf65b828410610d9a575050508101602001610853826108a3565b80546020858701810191909152909301928101610d82565b82346101f457806003193601126101f4576040516000600254610dd4816120ac565b8084529060019081811690811561090e5750600114610dfd576105d58461085381860382611fa6565b6002600090815292507f405787fa12a823e0f2b7631cc41b3ba8828b3321ca811111fa75cd3aa3bb5ace5b828410610e40575050508101602001610853826108a3565b80546020858701810191909152909301928101610e28565b82346101f457806003193601126101f4576008546040516001600160a01b039091168152602090f35b82346101f457806003193601126101f4576020600554604051908152f35b82346101f457806003193601126101f4576009546040516001600160a01b03909116318152602090f35b82346101f457806003193601126101f4576040517f00000000000000000000000000000000000000000000000000000000000000006001600160a01b03168152602090f35b82346101f457806003193601126101f4576040516000600654610f30816120ac565b8084529060019081811690811561090e5750600114610f59576105d58461085381860382611fa6565b6006600090815292507ff652222313e28459528d920b65115c16c04f3efc82aaedc97be59f3f377c0d3f5b828410610f9c575050508101602001610853826108a3565b80546020858701810191909152909301928101610f84565b50346101c75760203660031901126101c757359080548210156101f4576020610fdc83612062565b905460405160039290921b1c6001600160a01b03168152f35b50610fff36611fe4565b91905061100a6120e6565b91825160208094012061101b612285565b8051908501200361104b575050600b54600a548392506001600160a01b039182169082168114610c575750505080f35b6110536120e6565b8381519101206110616122a9565b848151910120148015611f58575b6110795750505080f35b611085939192936121a4565b805190816110c0576040516303c4b96f60e41b8152808601879052600b60248201526a32b6b83a3c903a37b5b2b760a91b6044820152606490fd5b7faaaebeba3810b1e6b70781f14b2d72c1cb89c0b2b320c43bb67ff79f562f5ff48682969596019283206208aa8960eb1b886040516110fe81611f8a565b600381520152036112365750505091819260018060a01b03806009541690600b54168060405193635e57966d60e01b85528401528483602481305afa91821561122b576000805160206126808339815191526111db87969487969587968792611200575b5060166111ce9160405193816b03bb4ba34323930bbb4b733960a51b86938401526111be611192602c85016123cf565b91750103a379022ba3432b932bab69030b2323932b9b99d160551b83528351938491878501910161223d565b0103600919810184520182611fa6565b60405191829185836124e0565b0390a131908282156111f7575bf115610c79575b388080610c51565b506108fc6111e8565b6111ce9192506112236016913d808b833e61121b8183611fa6565b81019061236d565b929150611162565b6040513d87823e3d90fd5b8051822061124261234c565b8781519101201480611f06575b156117cd5750506009546001600160a01b03169061126c34612593565b600b54604051635e57966d60e01b81526001600160a01b0390911685820152908582602481305afa9182156117c25760146000805160206126808339815191529461136d948a946111ce948b926117a6575b506040519586937f7769746864726177696e67207669612073656e64546f4d616e79200000000000828601526113138c6112fa603b88016123cf565b92630103a37960e51b845280519485928501910161223d565b016603b30b63ab29d160cd1b8b8201526113378d8351938491600b8501910161223d565b01681030b2323932b9b99d60b91b600b82015261135d8c8351938491878501910161223d565b0103600b19810184520182611fa6565b0390a1604051635e57966d60e01b815233838201528381602481305afa908115611754577faf0fb12b97da20938bb1d21fd3d221e0e82a44421eaa81ad19ef3e91c22027e69161142f91869161178c575b50611416603960405180936b036b9b39739b2b73232b91d160a51b8b8301526113f0815180928d602c8601910161223d565b81016c01031b0b636103b30b63ab29d1609d1b602c820152036019810184520182611fa6565b6040519182913083526060898401526060830190612260565b3460408301520390a16040516349ad89fb60e11b815282810185905284818061145a60248201612521565b03817f00000000000000000000000000000000000000000000000000000000000000006001600160a01b03165afa90811561175457849161175f575b506040516370a0823160e01b8152838101929092526001600160a01b0316908481602481855afa8015611754578490611726575b600a91500460405163095ea7b360e01b815285816044818873e9f4b6db26f964e5b62fa3bec5115a56b4dbd79a97888a8401528760248401525af1801561122b576116f9575b50600b54600d546001600160a01b0390911695600160401b8210156116e45760019687830180600d558310156116cf57600d6000527fd7b6990105719101dabeb77144f2a3385c8033acd3af97e9423a695e81ad1eb592830180546001600160a01b0319169091179055604051635e57966d60e01b815273eaaa71f74b01617ba2235083334a1c952bac0a6c868201528681602481305afa9081156116c45787916116aa575b50843b156116a6576116019060a0604099939499519763fbd9497b60e01b8952880152600760a4880152663837b63cb3b7b760c91b60c488015260e0602488015260e4870190612260565b91600319928387820301604488015281600d54918281520198600d600052916000905b828210611688575050505050918380809361164b89899a97848b9903016064850152612521565b906084830152039134905af1801561167d57611669575b50506111ef565b61167290611f60565b6101f4578038611662565b6040513d84823e3d90fd5b83546001600160a01b03168b52998a01999284019290840190611624565b8680fd5b6116be91503d8089833e61121b8183611fa6565b386115b6565b6040513d89823e3d90fd5b603286634e487b7160e01b6000525260246000fd5b604185634e487b7160e01b6000525260246000fd5b61171890863d881161171f575b6117108183611fa6565b810190612539565b5038611510565b503d611706565b508481813d831161174d575b61173c8183611fa6565b81010312610ce157600a90516114ca565b503d611732565b6040513d86823e3d90fd5b61177f9150853d8711611785575b6117778183611fa6565b810190612502565b38611496565b503d61176d565b6117a091503d8088833e61121b8183611fa6565b386113be565b6117bb9192503d808d833e61121b8183611fa6565b90386112be565b6040513d88823e3d90fd5b90818596929594955182206117e061234c565b8481519101201480611d68575b15611a80575050600954600b54604051635e57966d60e01b8082526001600160a01b03928316888301529282169291908681602481305afa80156116c45761185061185d91600080516020612680833981519152938a91611a66575b508861245e565b60405191829187836124e0565b0390a1807f000000000000000000000000000000000000000000000000000000000000000016936040516349ad89fb60e11b815281898201528181806118a560248201612521565b0381895afa8015611a0b5783918991611a49575b5016604051946370a0823160e01b8652898601528185602481845afa948515611a0b578895611a16575b506040805163095ea7b360e01b81526001600160a01b038816818c019081526020810188905290928492849283918d9183910103925af18015611a0b576119ed575b5050600b5416604051918252868201528481602481305afa90811561122b5785916119d3575b50823b156119cf57611983956080926119a587936119966040519a8b998a9889976326ef699d60e01b89528801526084870190612260565b6003199283878303016024880152612260565b90848203016044850152612521565b90606483015203925af1801561167d576119c0575b506111ef565b6119c990611f60565b386119ba565b8480fd5b6119e791503d8087833e61121b8183611fa6565b3861194b565b81611a0392903d1061171f576117108183611fa6565b503880611925565b6040513d8a823e3d90fd5b9094508181813d8311611a42575b611a2e8183611fa6565b81010312611a3e575193816118e3565b8780fd5b503d611a24565b611a609150833d8511611785576117778183611fa6565b386118b9565b611a7a91503d808c833e61121b8183611fa6565b38611849565b5190209093919250611a9061234c565b8481519101201480611d1b575b15611cca57600954600b54604051635e57966d60e01b81526001600160a01b0391821684820152918116939091908682602481305afa9182156116c45760008051602061268083398151915292611aff92611850928a92611cae575b5061245e565b0390a16040516349ad89fb60e11b8152828101859052848180611b2460248201612521565b0381857f0000000000000000000000000000000000000000000000000000000000000000165afa80156117c25782918791611c91575b5016604051926370a0823160e01b84528481850152868685602481865afa948515611c535787908296611c60575b506040805163095ea7b360e01b81526001600160a01b039098168489019081526020810188905296979687918291015b038184875af1928315611c53578795606494611c36575b50846009541694600b54169660405197889687956323b872dd60e01b8752860152602485015260448401525af18015611c2b57611c0d5750506111ef565b81611c2392903d1061171f576117108183611fa6565b503880611662565b6040513d85823e3d90fd5b611c4c90873d891161171f576117108183611fa6565b5038611bcf565b50604051903d90823e3d90fd5b809650813d8311611c8a575b611c768183611fa6565b810103126101f45786611bb8955195611b88565b503d611c6c565b611ca89150863d8811611785576117778183611fa6565b38611b5a565b611cc39192503d808c833e61121b8183611fa6565b9038611af9565b6040516303c4b96f60e41b81529081018390526024808201527f696e76616c69642064657374696e6174696f6e206e6574776f726b206f72207460448201526337b5b2b760e11b6064820152608490fd5b507f6f3c53069778183912da77a05fe67c3d6edb208ffdf1ca0161d51543035e3c68825184840120674d6f6f6e6261736560c01b85604051611d5c81611f8a565b60088152015214611a9d565b5083517f564ccaf7594d66b1eaaea24fe01f0585bf52ee70852af4eac0cc4b04711cd0e284860191822067457468657265756d60c01b86604051611dab81611f8a565b60088152015214908115611eba575b8115611e6f575b8115611e21575b8115611dd5575b506117ed565b7f890af8db8ca1aa1e915857edbc2717639ebd8a22c786f9e0e776d6a1aacb5e71915085519020662837b63cb3b7b760c91b85604051611e1481611f8a565b6007815201521438611dcf565b90507f6585177c3aba6cb7ffc0a37e831a958c4ee9278e4c62c7bdad7175ca09883c4085518220684176616c616e63686560b81b86604051611e6281611f8a565b6009815201521490611dc8565b90507fcbf2a723bab3288b57db0bfae9d136af04a5c70c9acd46aad23acb67ef5fe179855182206546616e746f6d60d01b86604051611ead81611f8a565b6006815201521490611dc1565b90507f1de46e819416afc37058fd1cf806b9bcf96fa5d23b3ae565d6c72f0e19be9a9e855182206642696e616e636560c81b86604051611ef981611f8a565b6007815201521490611dba565b507f1a6bd43edc4fed0639580a1068f23990a8127e419b84485501428e10beebabb58351878501206c2837b63cb3b7b720bc32b630b960991b88604051611f4c81611f8a565b600d815201521461124f565b50600161106f565b67ffffffffffffffff8111611f7457604052565b634e487b7160e01b600052604160045260246000fd5b6040810190811067ffffffffffffffff821117611f7457604052565b90601f8019910116810190811067ffffffffffffffff821117611f7457604052565b67ffffffffffffffff8111611f7457601f01601f191660200190565b906040600319830112610ce1576004356001600160a01b0381168103610ce1579160243567ffffffffffffffff8111610ce15781602382011215610ce15780600401359061203182611fc8565b9261203f6040519485611fa6565b82845260248383010111610ce15781600092602460209301838601378301015290565b906000918254811015612098578280527f290decd9548b62a8d60345a988386fc84ba6bc95484008f6362f93160ef3e563019190565b634e487b7160e01b83526032600452602483fd5b90600182811c921680156120dc575b60208310146120c657565b634e487b7160e01b600052602260045260246000fd5b91607f16916120bb565b60405190600082600454916120fa836120ac565b808352926001908181169081156121825750600114612123575b5061212192500383611fa6565b565b6004600090815291507f8a35acfbc15ff81a39ae7d344fd709f28e8600b4aa8c65c6b64bfe7fe36bd19b5b8483106121675750612121935050810160200138612114565b81935090816020925483858a0101520191019091859261214e565b90506020925061212194915060ff191682840152151560051b82010138612114565b60405190600082600e54916121b8836120ac565b8083529260019081811690811561218257506001146121de575061212192500383611fa6565b600e600090815291507fbb7b4a454dc3493923482f07822329ed19e8244eff582cc204f8554c3620c3fd5b8483106122225750612121935050810160200138612114565b81935090816020925483858a01015201910190918592612209565b60005b8381106122505750506000910152565b8181015183820152602001612240565b906020916122798151809281855285808601910161223d565b601f01601f1916010190565b6040519061229282611f8a565b600882526718d85b98d95b195960c21b6020830152565b604051906122b682611f8a565b600982526818dbdb5c1b195d195960ba1b6020830152565b906122d882611fc8565b6122e56040519182611fa6565b82815280926122f6601f1991611fc8565b0190602036910137565b908151811015612311570160200190565b634e487b7160e01b600052603260045260246000fd5b60001981146123365760010190565b634e487b7160e01b600052601160045260246000fd5b6040519061235982611f8a565b6005825264615553444360d81b6020830152565b602081830312610ce15780519067ffffffffffffffff8211610ce1570181601f82011215610ce15780516123a081611fc8565b926123ae6040519485611fa6565b81845260208284010111610ce1576123cc916020808501910161223d565b90565b600e54600092916123df826120ac565b9160019081811690811561244b57506001146123fa57505050565b9091929350600e6000527fbb7b4a454dc3493923482f07822329ed19e8244eff582cc204f8554c3620c3fd906000915b848310612438575050500190565b818160209254858701520192019161242a565b60ff191683525050811515909102019150565b6040516b03bb4ba34323930bbb4b733960a51b6020820152929161212191600c91859161248d602c84016123cf565b630103a37960e51b81526124ab82518093602060048501910161223d565b016730b2323932b9b99d60c11b60048201526124d0825180936020878501910161223d565b0103601319810185520183611fa6565b6001600160a01b0390911681526040602082018190526123cc92910190612260565b90816020910312610ce157516001600160a01b0381168103610ce15790565b6005815264615553444360d81b602082015260400190565b90816020910312610ce157518015158103610ce15790565b600054600160401b811015611f74578060016125709201600055612062565b819291549060031b9160018060a01b039283811b93849216901b16911916179055565b801561260d5780816000925b6125f957506125ad826122ce565b9190805b6125ba57505090565b600a90603092828206840180941161233657801561233657600019019260f81b6001600160f81b03191660001a6125f18486612300565b5304806125b1565b91612605600a91612327565b92048061259f565b5060405161261a81611f8a565b60018152600360fc1b602082015290565b601f81116126365750565b600060048152601f7f8a35acfbc15ff81a39ae7d344fd709f28e8600b4aa8c65c6b64bfe7fe36bd19b920160051c8201915b82811061267457505050565b81815560010161266856fef914ca0348190fe49c31ec3901a60069cc792666a05ee2db257a8491cbad2b1ea2646970667358221220bca2f65d60330306f330c9a201d3430ad0e8c71a5605890bc6c84bc25967d90f64736f6c63430008110033",
  "immutableReferences": {
    "1850": [
      {
        "length": 32,
        "start": 3807
      },
      {
        "length": 32,
        "start": 5214
      },
      {
        "length": 32,
        "start": 6243
      },
      {
        "length": 32,
        "start": 6953
      }
    ]
  },
  "source": "// SPDX-License-Identifier: MIT\npragma solidity ^0.8.12;\n\n// import { IDistributionExecutable } from './IDistributionExecutable.sol';\nimport { IDistributionExecutable } from './IDistributionExecutable.sol';\n\n\n// import { AxelarExecutable } from '@axelar-network/axelar-gmp-sdk-solidity/contracts/executables/AxelarExecutable.sol';\nimport { IAxelarGateway } from '@axelar-network/axelar-gmp-sdk-solidity/contracts/interfaces/IAxelarGateway.sol';\nimport { IERC20 } from '@axelar-network/axelar-gmp-sdk-solidity/contracts/interfaces/IERC20.sol';\n// import { IAxelarGasService } from '@axelar-network/axelar-gmp-sdk-solidity/contracts/interfaces/IAxelarGasService.sol';\nimport { StringToAddress, AddressToString } from '@axelar-network/axelar-gmp-sdk-solidity/contracts/StringAddressUtils.sol';\n\nerror RevertReason (string message);\n\ncontract Factory {\n    IAxelarGateway public immutable gateway;\n\n\n    Job[] public jobArray;\n    // address contractOwner;\n    uint256 public countNew = 0;\n    uint256 countAgreed = 0;\n    uint256 countProgress = 0;\n    uint256 countReview = 0;\n    uint256 countCompleted = 0;\n    uint256 countCanceled = 0;\n    string stateNew = \"new\";\n    string stateAgreed = \"agreed\";\n    string stateProgress = \"progress\";\n    string stateReview = \"review\";\n    string stateCompleted = \"completed\";\n    string stateCanceled = \"canceled\";\n\n    event OneEventForAll(address contractAdr, uint256 index);\n\n\n    event JobContractCreated(\n        string nanoId,\n        address jobAddress,\n        address jobOwner,\n        string title,\n        string description,\n        string symbol,\n        uint256 amount\n    );\n\n\n    constructor() {\n        address gateway_ = 0x5769D84DD62a6fD969856c75c7D321b84d455929;\n        gateway = IAxelarGateway(gateway_);\n    }\n\n    // initial: new, contractor choosed: agreed, work in progress: progress, completed: completed, canceled\n\n    // function indexCalculation(string memory _state) public returns (uint256) {}\n\n    function createJobContract(string memory _nanoId, string memory _title, string memory _description, string memory _symbol, uint256 _amount)\n    external\n    payable\n    {\n        Job job = new Job{value: msg.value}(\n            _nanoId,\n            _title,\n            _description,\n            _symbol,\n            jobArray.length,\n            msg.sender\n        );\n\n        if (keccak256(bytes(_symbol)) != keccak256(bytes(\"ETH\"))) {\n            address tokenAddress = gateway.tokenAddresses(_symbol);\n            // amount = IERC20(tokenAddress).balanceOf(contractAddress);\n            IERC20(tokenAddress).transferFrom(msg.sender, address(job), _amount);\n        }\n        // IERC20(tokenAddress).approve(address(gateway), _amount);\n\n        jobArray.push(job);\n        countNew++;\n        emit JobContractCreated(_nanoId, address(job), msg.sender, _title, _description, _symbol, _amount);\n        emit OneEventForAll(address(job), job.index());\n    }\n\n    // function findJobs(uint256 _myIndex) external view returns (address) {\n    //     return address(jobArray[_myIndex]);\n    // }\n\n    function allJobs() external view returns (Job[] memory _jobs) {\n        _jobs = new Job[](jobArray.length);\n        uint256 count;\n        for (uint256 i = 0; i < jobArray.length; i++) {\n            _jobs[count] = jobArray[i];\n            count++;\n        }\n    }\n\n\n    function jobParticipate(Job job) external {\n        jobArray[job.index()].jobParticipate(msg.sender);\n        emit OneEventForAll(address(job), job.index());\n    }\n\n\n    function jobStateChange(\n        Job job,\n        address payable _participantAddress,\n        string memory _state\n    ) external {\n        jobArray[job.index()].jobStateChange(_participantAddress, _state);\n\n        // if (keccak256(bytes(_state)) == keccak256(bytes(\"agreed\"))) {\n        //     countAgreed++;\n        // } else if (keccak256(bytes(_state)) == keccak256(bytes(\"progress\"))) {\n        //     countProgress++;\n        // } else if (keccak256(bytes(_state)) == keccak256(bytes(\"review\"))) {\n        //     countReview++;\n        // } else if (keccak256(bytes(_state)) == keccak256(bytes(\"completed\"))) {\n        //     countCompleted++;\n        // } else if (keccak256(bytes(_state)) == keccak256(bytes(\"canceled\"))) {\n        //     countCanceled++;\n        // }\n\n        emit OneEventForAll(address(job), job.index());\n    }\n\n    // function jobReview(Job job, address _participantAddress) external {\n    //     jobArray[job.index()].jobReview(_participantAddress);\n    //     countProgress++;\n    // }\n\n    // function jobConfimation(Job job, address _participantAddress) external {\n    //     jobArray[job.index()].jobConfimation(_participantAddress);\n    //     countReview++;\n    // }\n\n    function transferToaddress(Job job, address payable addressToSend)\n    external\n    payable\n    {\n        // addressToSend.transfer(0.5 ether);\n        jobArray[job.index()].transferToaddress(addressToSend);\n        emit OneEventForAll(address(job), job.index());\n    }\n\n    // function transferToaddressChain(Job job, address payable addressToSend, string memory chain)\n    // external\n    // payable\n    // {\n    //     jobArray[job.index()].transferToaddressChain(addressToSend, chain);\n    //     emit OneEventForAll(address(job), job.index());\n    // }\n\n    function transferToaddressChain2(Job job, address payable addressToSend, string memory chain)\n    external\n    payable\n    {\n        jobArray[job.index()].transferToaddressChain2{value: msg.value}(addressToSend, chain);\n        emit OneEventForAll(address(job), job.index());\n    }\n\n\n    // function jobCanceled(Job job) external {\n    //     jobArray[job.index()].jobCanceled();\n    //     countCanceled++;\n    // }\n\n    // function getContractAdr(uint256 _classIndex)\n    //     external\n    //     view\n    //     returns (address)\n    // {\n    //     Job _retBal = Job(payable(address(jobArray[_classIndex])));\n    //     return _retBal.returnContractAddress();\n    // }\n\n    function getBalance(uint256 _classIndex) external view returns (uint256) {\n        Job _retBal = Job(payable(address(jobArray[_classIndex])));\n        return _retBal.getBalance();\n    }\n\n    // function thisContract() external view returns (address) {\n    //     address thisConr = address(this);\n    //     return thisConr;\n    // }\n\n    function getJobInfo(uint256 _classIndex)\n    external\n    view\n    returns (\n        string memory,\n        string memory,\n        address,\n        address,\n        address,\n        uint256,\n        uint256,\n        string memory,\n        address[] memory,\n        address,\n        string memory,\n        string memory\n        \n    )\n    {\n        Job _retBal = Job(payable(address(jobArray[_classIndex])));\n        return _retBal.getJob();\n    }\n\n    // receive() external payable {}\n}\n\ncontract Job {\n    // IDistributionExecutable public immutable distributor;\n\n    IAxelarGateway public immutable gateway;\n    using AddressToString for address;\n    using StringToAddress for string;\n\n    address[] public Participants;\n    // uint256 public data;\n    string public nanoId;\n    string public title;\n    string public description;\n    string public jobState;\n    uint256 public index;\n\n    string public name;\n    uint256 public price;\n    address public contractParent;\n    address public contractAddress;\n    address public contractOwner;\n    address payable public participantAddress;\n    uint256 public createTime;\n    address[] public _destinationAddresses;\n    string public symbol;\n    uint256 amount;\n\n    event Logs(address contractAdr, string message);\n    event LogsValue(address contractAdr, string message, uint value);\n\n    constructor(\n        string memory _nanoId,\n        string memory _title,\n        string memory _description,\n        string memory _symbol,\n        uint256 _index,\n        address _contractOwner\n    ) payable {\n        // data = _data;\n        nanoId = _nanoId;\n        title = _title;\n        jobState = \"new\";\n        contractAddress = address(this);\n        contractParent = msg.sender;\n        contractOwner = _contractOwner;\n        createTime = block.timestamp;\n        index = _index;\n        description = _description;\n        symbol = _symbol;\n\n        address gateway_ = 0x5769D84DD62a6fD969856c75c7D321b84d455929;\n        gateway = IAxelarGateway(gateway_);\n\n        // address distributor_ = 0xE9F4b6dB26f964E5B62Fa3bEC5115a56B4DBd79A;\n        // distributor = IDistributionExecutable(distributor_);\n        // distributor = DistributionExecutable(gateway_);\n        // balance = contractAddress.balance;\n        // createJob(_content, _index);\n        // myStruct = jobStructData(\n        //     _data,\n        //     true,\n        //     address(this),\n        //     msg.sender,\n        //     block.timestamp,\n        //     _index\n        // );\n    }\n\n    // event OneEventForAll2(address contractAdr);\n\n    // function createJob(string memory _content, uint256 _index) public {\n    //     jobStructDataArray.push();\n\n    //     jobStructData(\n    //         _content,\n    //         true,\n    //         address(this),\n    //         msg.sender,\n    //         block.timestamp\n    //     );\n    //     emit jobCreated(_content, _index);\n    // }\n\n    function getJob()\n    public\n    view\n    returns (\n        string memory _content,\n        string memory _jobState,\n        address _contractAddress,\n        address _contractParent,\n        address _contractOwner,\n        uint256 _createTime,\n        uint256 _index,\n        string memory _description,\n        address[] memory _participants,\n        address _participantAddress,\n        string memory _symbol,\n        string memory _nanoId\n    )\n    {\n        return (\n        title,\n        jobState,\n        contractAddress,\n        contractParent,\n        contractOwner,\n        createTime,\n        index,\n        description,\n        Participants,\n        participantAddress,\n        symbol,\n        nanoId\n        );\n    }\n\n    function withdrawAll() external {\n        // jobState = true;\n    }\n\n    // function getContractInfo() public view returns (uint256) {\n    //     return contractAddress.balance;\n    // }\n\n    function getBalance() public view returns (uint256) {\n        return contractAddress.balance;\n    }\n\n    function transferToaddress(address payable _addressToSend) public payable {\n        if (keccak256(bytes(jobState)) == keccak256(bytes(\"canceled\"))) {\n            if (_addressToSend == contractOwner) {\n                _addressToSend.transfer(contractAddress.balance);\n            }\n        } else if (\n            keccak256(bytes(jobState)) == keccak256(bytes(\"completed\"))\n        ) {\n\n            participantAddress.transfer(contractAddress.balance);\n        }\n        // msg.sender.transfer(address(this).balance);\n    }\n\n    // function transferToaddressChain(address payable _addressToSend, string memory chain) public payable {\n    //     if (keccak256(bytes(jobState)) == keccak256(bytes(\"canceled\"))) {\n    //         if (_addressToSend == contractOwner) {\n    //             _addressToSend.transfer(contractAddress.balance);\n    //         }\n    //     } else if (\n    //         keccak256(bytes(jobState)) == keccak256(bytes(\"completed\"))\n    //     ) {\n    //         _destinationAddresses.push(participantAddress);\n    //         distributor.sendToMany(chain, _addressToSend, _destinationAddresses, 'WETH', contractAddress.balance);\n    //     }\n    //     // msg.sender.transfer(address(this).balance);\n    // }\n\n    function addressToString(address address_) external pure returns (string memory) {\n        return address_.toString();\n    }\n\n    function uint2str(\n        uint256 _i\n      )\n        internal\n        pure\n        returns (string memory str)\n      {\n        if (_i == 0)\n        {\n          return \"0\";\n        }\n        uint256 j = _i;\n        uint256 length;\n        while (j != 0)\n        {\n          length++;\n          j /= 10;\n        }\n        bytes memory bstr = new bytes(length);\n        uint256 k = length;\n        j = _i;\n        while (j != 0)\n        {\n          bstr[--k] = bytes1(uint8(48 + j % 10));\n          j /= 10;\n        }\n        str = string(bstr);\n      }\n\n    function transferToaddressChain2(address payable _addressToSend, string memory chain) public payable {\n        if (keccak256(bytes(jobState)) == keccak256(bytes(\"canceled\"))) {\n            if (participantAddress == contractOwner) {\n                participantAddress.transfer(contractAddress.balance);\n            }\n        } else if (\n            keccak256(bytes(jobState)) == keccak256(bytes(\"completed\")) || 1==1\n        ) {\n            bytes memory symbolBytes = bytes(symbol);\n            bytes memory chainBytes = bytes(chain);\n            if (symbolBytes.length == 0) {\n                revert RevertReason({\n                    message: \"empty token\"\n                });\n                // do nothing\n            } else if (keccak256(symbolBytes) == keccak256(bytes(\"ETH\"))) {\n                emit Logs(address(contractAddress), string.concat(\"withdrawing \", symbol, \" to Ethereum address: \",this.addressToString(participantAddress)));\n                participantAddress.transfer(contractAddress.balance);\n            } \n            else if (keccak256(symbolBytes) == keccak256(bytes(\"aUSDC\")) && (\n                keccak256(chainBytes) == keccak256(bytes(\"PolygonAxelar\"))\n            )) {\n                emit Logs(address(contractAddress), string.concat(\"withdrawing via sendToMany \", symbol, \" to \", chain, \"value: \", uint2str(msg.value), \" address:\",this.addressToString(participantAddress)));\n                emit LogsValue(address(this), string.concat(\"msg.sender: \", this.addressToString(msg.sender),\" call value: \"), msg.value);\n                // string memory _addressToSend2 = bytes(_addressToSend);\n                address tokenAddress = gateway.tokenAddresses(\"aUSDC\");\n                uint256 contractAmount = IERC20(tokenAddress).balanceOf(contractAddress)/10;\n                IERC20(tokenAddress).approve(0xE9F4b6dB26f964E5B62Fa3bEC5115a56B4DBd79A, contractAmount);\n                _destinationAddresses.push(participantAddress);\n                IDistributionExecutable(0xE9F4b6dB26f964E5B62Fa3bEC5115a56B4DBd79A).sendToMany{value: msg.value}(\"polygon\", this.addressToString(0xEAAA71f74b01617BA2235083334a1c952BAC0a6C), _destinationAddresses, 'aUSDC', contractAmount);\n            }\n            else if (keccak256(symbolBytes) == keccak256(bytes(\"aUSDC\")) && (\n                keccak256(chainBytes) == keccak256(bytes(\"Ethereum\")) || \n                keccak256(chainBytes) == keccak256(bytes(\"Binance\")) ||\n                keccak256(chainBytes) == keccak256(bytes(\"Fantom\")) ||\n                keccak256(chainBytes) == keccak256(bytes(\"Avalanche\")) ||\n                keccak256(chainBytes) == keccak256(bytes(\"Polygon\"))\n            )) {\n                emit Logs(address(contractAddress), string.concat(\"withdrawing \", symbol, \" to \", chain, \"address:\",this.addressToString(participantAddress)));\n                // _destinationAddresses.push(_addressToSend);\n                // distributor.sendToMany(chain, _addressToSend, _destinationAddresses, 'aUSDC', contractAddress.balance);\n                // string memory _addressToSend2 = bytes(_addressToSend);\n                address tokenAddress = gateway.tokenAddresses(\"aUSDC\");\n                uint256 contractAmount = IERC20(tokenAddress).balanceOf(contractAddress);\n                IERC20(tokenAddress).approve(address(gateway), contractAmount);\n                // gateway.sendToken(chain, toAsciiString(participantAddress), \"aUSDC\", amount);\n                gateway.sendToken(chain, this.addressToString(participantAddress), \"aUSDC\", contractAmount);\n            } else if (keccak256(symbolBytes) == keccak256(bytes(\"aUSDC\")) && keccak256(chainBytes) == keccak256(bytes(\"Moonbase\"))) {\n                // revert InvalidToken({\n                //     token: string.concat(\"we are in moonbase, participantAddress\",this.addressToString(participantAddress))\n                // });\n                emit Logs(address(contractAddress), string.concat(\"withdrawing \", symbol, \" to \", chain, \"address:\",this.addressToString(participantAddress)));\n                address tokenAddress = gateway.tokenAddresses(\"aUSDC\");\n                uint256 contractAmount = IERC20(tokenAddress).balanceOf(contractAddress);\n                IERC20(tokenAddress).approve(contractAddress, contractAmount);\n                IERC20(tokenAddress).transferFrom(contractAddress, participantAddress, contractAmount);\n                // IERC20(tokenAddress).approve(address(gateway), amount);\n            }\n            else{\n                revert RevertReason({\n                    message: \"invalid destination network or token\"\n                });\n            }\n        }\n        // msg.sender.transfer(address(this).balance);\n    }\n\n    function toAsciiString(address x) internal pure returns (string memory) {\n        bytes memory s = new bytes(40);\n        for (uint i = 0; i < 20; i++) {\n            bytes1 b = bytes1(uint8(uint(uint160(x)) / (2**(8*(19 - i)))));\n            bytes1 hi = bytes1(uint8(b) / 16);\n            bytes1 lo = bytes1(uint8(b) - 16 * uint8(hi));\n            s[2*i] = char(hi);\n            s[2*i+1] = char(lo);\n        }\n        return string(s);\n    }\n\n    function char(bytes1 b) internal pure returns (bytes1 c) {\n        if (uint8(b) < 10) return bytes1(uint8(b) + 0x30);\n        else return bytes1(uint8(b) + 0x57);\n    }\n\n\n    function jobParticipate(address _participantAddress) external {\n        bool existed = false;\n        if (Participants.length == 0) {\n            Participants.push(_participantAddress);\n        } else {\n            for (uint256 i = 0; i < Participants.length; i++) {\n                if (Participants[i] == _participantAddress) {\n                    existed = true;\n                }\n            }\n            if (!existed) {\n                Participants.push(_participantAddress);\n            }\n        }\n        // emit OneEventForAll2(contractAddress);\n    }\n\n    function jobStateChange(\n        address payable _participantAddress,\n        string memory _state\n    ) external {\n        if (keccak256(bytes(_state)) == keccak256(bytes(\"agreed\"))) {\n            jobState = \"agreed\";\n            participantAddress = _participantAddress;\n        } else if (keccak256(bytes(_state)) == keccak256(bytes(\"progress\"))) {\n            jobState = \"progress\";\n        } else if (keccak256(bytes(_state)) == keccak256(bytes(\"review\"))) {\n            jobState = \"review\";\n        } else if (keccak256(bytes(_state)) == keccak256(bytes(\"completed\"))) {\n            jobState = \"completed\";\n        } else if (keccak256(bytes(_state)) == keccak256(bytes(\"canceled\"))) {\n            jobState = \"canceled\";\n        }\n\n        // emit OneEventForAll2(contractAddress);\n    }\n\n    // function jobReview(address _participantAddress) external {\n    //     if (participantAddress == _participantAddress) {\n    //         jobState = \"review\";\n    //     }\n    // }\n\n    // function jobParticiantAgreed(address _participantAddress) external {\n    //     jobState = \"agreed\";\n    //     participantAddress = _participantAddress;\n\n    //     // for (uint256 i = 0; i < Participants.length; i++) {\n    //     //     if (Participants[i] == _participantAddress) {\n    //     //         jobState = \"agreed\";\n    //     //         participantAddress = _participantAddress;\n    //     //     }\n    //     // }\n    // }\n\n    // function jobInProgress() external {\n    //     jobState = \"progress\";\n    // }\n\n    // function jobCompleted() external {\n    //     jobState = \"completed\";\n    // }\n\n    // function jobCanceled() external {\n    //     jobState = \"canceled\";\n    // }\n\n    receive() external payable {}\n\n    // fallback () external payable    {\n\n    // }\n\n    // constructor(string memory _name, address _owner) {\n    //     name = _name;\n    //     owner = _owner;\n    // }\n}\n",
  "sourcePath": "/home/user/Documents/mainstream/devopsdao/contracts/Factory.sol",
  "compiler": {
    "name": "solc",
    "version": "0.8.17+commit.8df45f5f.Emscripten.clang"
  },
  "schemaVersion": "3.4.10",
  "updatedAt": "2022-10-06T13:48:51.535Z",
  "devdoc": {
    "kind": "dev",
    "methods": {},
    "version": 1
  },
  "userdoc": {
    "kind": "user",
    "methods": {},
    "version": 1
  }
}