{
  "contractName": "Job",
  "abi": [
    {
      "inputs": [
        {
          "internalType": "string",
          "name": "_nanoId",
          "type": "string"
        },
        {
          "internalType": "string",
          "name": "_title",
          "type": "string"
        },
        {
          "internalType": "string",
          "name": "_description",
          "type": "string"
        },
        {
          "internalType": "string",
          "name": "_symbol",
          "type": "string"
        },
        {
          "internalType": "uint256",
          "name": "_index",
          "type": "uint256"
        },
        {
          "internalType": "address",
          "name": "_contractOwner",
          "type": "address"
        }
      ],
      "stateMutability": "payable",
      "type": "constructor"
    },
    {
      "inputs": [
        {
          "internalType": "string",
          "name": "message",
          "type": "string"
        }
      ],
      "name": "RevertReason",
      "type": "error"
    },
    {
      "anonymous": false,
      "inputs": [
        {
          "indexed": false,
          "internalType": "address",
          "name": "contractAdr",
          "type": "address"
        },
        {
          "indexed": false,
          "internalType": "string",
          "name": "message",
          "type": "string"
        }
      ],
      "name": "Logs",
      "type": "event"
    },
    {
      "inputs": [
        {
          "internalType": "uint256",
          "name": "",
          "type": "uint256"
        }
      ],
      "name": "Participants",
      "outputs": [
        {
          "internalType": "address",
          "name": "",
          "type": "address"
        }
      ],
      "stateMutability": "view",
      "type": "function"
    },
    {
      "inputs": [
        {
          "internalType": "uint256",
          "name": "",
          "type": "uint256"
        }
      ],
      "name": "_destinationAddresses",
      "outputs": [
        {
          "internalType": "address",
          "name": "",
          "type": "address"
        }
      ],
      "stateMutability": "view",
      "type": "function"
    },
    {
      "inputs": [],
      "name": "contractAddress",
      "outputs": [
        {
          "internalType": "address",
          "name": "",
          "type": "address"
        }
      ],
      "stateMutability": "view",
      "type": "function"
    },
    {
      "inputs": [],
      "name": "contractOwner",
      "outputs": [
        {
          "internalType": "address",
          "name": "",
          "type": "address"
        }
      ],
      "stateMutability": "view",
      "type": "function"
    },
    {
      "inputs": [],
      "name": "contractParent",
      "outputs": [
        {
          "internalType": "address",
          "name": "",
          "type": "address"
        }
      ],
      "stateMutability": "view",
      "type": "function"
    },
    {
      "inputs": [],
      "name": "createTime",
      "outputs": [
        {
          "internalType": "uint256",
          "name": "",
          "type": "uint256"
        }
      ],
      "stateMutability": "view",
      "type": "function"
    },
    {
      "inputs": [],
      "name": "description",
      "outputs": [
        {
          "internalType": "string",
          "name": "",
          "type": "string"
        }
      ],
      "stateMutability": "view",
      "type": "function"
    },
    {
      "inputs": [],
      "name": "distributor",
      "outputs": [
        {
          "internalType": "contract IDistributionExecutable",
          "name": "",
          "type": "address"
        }
      ],
      "stateMutability": "view",
      "type": "function"
    },
    {
      "inputs": [],
      "name": "gateway",
      "outputs": [
        {
          "internalType": "contract IAxelarGateway",
          "name": "",
          "type": "address"
        }
      ],
      "stateMutability": "view",
      "type": "function"
    },
    {
      "inputs": [],
      "name": "index",
      "outputs": [
        {
          "internalType": "uint256",
          "name": "",
          "type": "uint256"
        }
      ],
      "stateMutability": "view",
      "type": "function"
    },
    {
      "inputs": [],
      "name": "jobState",
      "outputs": [
        {
          "internalType": "string",
          "name": "",
          "type": "string"
        }
      ],
      "stateMutability": "view",
      "type": "function"
    },
    {
      "inputs": [],
      "name": "name",
      "outputs": [
        {
          "internalType": "string",
          "name": "",
          "type": "string"
        }
      ],
      "stateMutability": "view",
      "type": "function"
    },
    {
      "inputs": [],
      "name": "nanoId",
      "outputs": [
        {
          "internalType": "string",
          "name": "",
          "type": "string"
        }
      ],
      "stateMutability": "view",
      "type": "function"
    },
    {
      "inputs": [],
      "name": "participantAddress",
      "outputs": [
        {
          "internalType": "address payable",
          "name": "",
          "type": "address"
        }
      ],
      "stateMutability": "view",
      "type": "function"
    },
    {
      "inputs": [],
      "name": "price",
      "outputs": [
        {
          "internalType": "uint256",
          "name": "",
          "type": "uint256"
        }
      ],
      "stateMutability": "view",
      "type": "function"
    },
    {
      "inputs": [],
      "name": "symbol",
      "outputs": [
        {
          "internalType": "string",
          "name": "",
          "type": "string"
        }
      ],
      "stateMutability": "view",
      "type": "function"
    },
    {
      "inputs": [],
      "name": "title",
      "outputs": [
        {
          "internalType": "string",
          "name": "",
          "type": "string"
        }
      ],
      "stateMutability": "view",
      "type": "function"
    },
    {
      "stateMutability": "payable",
      "type": "receive"
    },
    {
      "inputs": [],
      "name": "getJob",
      "outputs": [
        {
          "internalType": "string",
          "name": "_content",
          "type": "string"
        },
        {
          "internalType": "string",
          "name": "_jobState",
          "type": "string"
        },
        {
          "internalType": "address",
          "name": "_contractAddress",
          "type": "address"
        },
        {
          "internalType": "address",
          "name": "_contractParent",
          "type": "address"
        },
        {
          "internalType": "address",
          "name": "_contractOwner",
          "type": "address"
        },
        {
          "internalType": "uint256",
          "name": "_createTime",
          "type": "uint256"
        },
        {
          "internalType": "uint256",
          "name": "_index",
          "type": "uint256"
        },
        {
          "internalType": "string",
          "name": "_description",
          "type": "string"
        },
        {
          "internalType": "address[]",
          "name": "_participants",
          "type": "address[]"
        },
        {
          "internalType": "address",
          "name": "_participantAddress",
          "type": "address"
        },
        {
          "internalType": "string",
          "name": "_symbol",
          "type": "string"
        },
        {
          "internalType": "string",
          "name": "_nanoId",
          "type": "string"
        }
      ],
      "stateMutability": "view",
      "type": "function"
    },
    {
      "inputs": [],
      "name": "withdrawAll",
      "outputs": [],
      "stateMutability": "nonpayable",
      "type": "function"
    },
    {
      "inputs": [],
      "name": "getBalance",
      "outputs": [
        {
          "internalType": "uint256",
          "name": "",
          "type": "uint256"
        }
      ],
      "stateMutability": "view",
      "type": "function"
    },
    {
      "inputs": [
        {
          "internalType": "address payable",
          "name": "_addressToSend",
          "type": "address"
        }
      ],
      "name": "transferToaddress",
      "outputs": [],
      "stateMutability": "payable",
      "type": "function"
    },
    {
      "inputs": [
        {
          "internalType": "address payable",
          "name": "_addressToSend",
          "type": "address"
        },
        {
          "internalType": "string",
          "name": "chain",
          "type": "string"
        }
      ],
      "name": "transferToaddressChain",
      "outputs": [],
      "stateMutability": "payable",
      "type": "function"
    },
    {
      "inputs": [
        {
          "internalType": "address",
          "name": "address_",
          "type": "address"
        }
      ],
      "name": "addressToString",
      "outputs": [
        {
          "internalType": "string",
          "name": "",
          "type": "string"
        }
      ],
      "stateMutability": "pure",
      "type": "function"
    },
    {
      "inputs": [
        {
          "internalType": "address payable",
          "name": "_addressToSend",
          "type": "address"
        },
        {
          "internalType": "string",
          "name": "chain",
          "type": "string"
        }
      ],
      "name": "transferToaddressChain2",
      "outputs": [],
      "stateMutability": "payable",
      "type": "function"
    },
    {
      "inputs": [
        {
          "internalType": "address",
          "name": "_participantAddress",
          "type": "address"
        }
      ],
      "name": "jobParticipate",
      "outputs": [],
      "stateMutability": "nonpayable",
      "type": "function"
    },
    {
      "inputs": [
        {
          "internalType": "address payable",
          "name": "_participantAddress",
          "type": "address"
        },
        {
          "internalType": "string",
          "name": "_state",
          "type": "string"
        }
      ],
      "name": "jobStateChange",
      "outputs": [],
      "stateMutability": "nonpayable",
      "type": "function"
    }
  ],
  "bytecode": "0x60c060405262002ad08038038062000017816200058e565b928339810160c082820312620005895781516001600160401b03919082811162000589578162000049918501620005b4565b6020938481015184811162000589578362000066918301620005b4565b94604082015185811162000589578462000082918401620005b4565b9360608301519086821162000589576200009e918401620005b4565b9160a0608082015191015160018060a01b0381168091036200058957845197878911620003525760019880620000d58b5462000626565b97601f9889811162000557575b508690898311600114620004e657600092620004da575b5050600019600383901b1c1916908a1b1789555b81608052805190888211620003525781906200012b60025462000626565b888111620004a7575b5085908883116001146200043d5760009262000431575b5050600019600383901b1c191690891b176002555b6200016d60045462000626565b8581116200040d575b506006626e657760e81b0160045560018060a01b03193081600954161760095533816008541617600855600a541617600a5542600c556005558351858111620003525780600395620001c9875462000626565b868111620003db575b508390868311600114620003745760009262000368575b505060001982871b1c191690871b1784555b8151948511620003525762000212600e5462000626565b83811162000314575b5080928511600114620002a4575093839491849260009562000298575b50501b92600019911b1c191617600e555b735769d84dd62a6fd969856c75c7d321b84d45592960a05260405161245390816200067d82396080518181816108820152610a30015260a051818181611207015281816116ee01526119df0152f35b01519350388062000238565b92919084601f198116600e60005285600020956000905b89838310620002f95750505010620002de575b50505050811b01600e5562000249565b01519060f884600019921b161c1916905538808080620002ce565b858701518955909701969485019488935090810190620002bb565b6200034190600e600052826000208580890160051c820192858a1062000348575b0160051c019062000663565b386200021b565b9250819262000335565b634e487b7160e01b600052604160045260246000fd5b015190503880620001e9565b90899350601f1983169188600052856000209260005b87828210620003c45750508411620003ab575b505050811b018455620001fb565b015160001983891b60f8161c191690553880806200039d565b8385015186558d979095019493840193016200038a565b620004069088600052856000208880860160051c82019288871062000348570160051c019062000663565b38620001d2565b6200042a9060046000528685600020910160051c81019062000663565b3862000176565b0151905038806200014b565b908b9350601f198316916002600052876000209260005b8982821062000490575050841162000476575b505050811b0160025562000160565b015160001960f88460031b161c1916905538808062000467565b8385015186558f9790950194938401930162000454565b620004d3906002600052876000208a80860160051c8201928a871062000348570160051c019062000663565b3862000134565b015190503880620000f9565b908c9350601f1983169184600052886000209260005b8a8282106200053757505084116200051d575b505050811b0189556200010d565b015160001960f88460031b161c191690553880806200050f565b91929395968291958786015181550195019301908e9594939291620004fc565b62000582908d600052886000208b80860160051c8201928b871062000348570160051c019062000663565b38620000e2565b600080fd5b6040519190601f01601f191682016001600160401b038111838210176200035257604052565b919080601f84011215620005895782516001600160401b0381116200035257602090620005ea601f8201601f191683016200058e565b92818452828287010111620005895760005b8181106200061257508260009394955001015290565b8581018301518482018401528201620005fc565b90600182811c9216801562000658575b60208310146200064257565b634e487b7160e01b600052602260045260246000fd5b91607f169162000636565b8181106200066f575050565b600081556001016200066356fe608060405260048036101561001d575b50361561001b57600080fd5b005b600090813560e01c8062bc30f91461131d57806305747a1f146112dc57806306fdde0314611236578063116191b6146111f157806312065fe0146111c75780632986c0e5146111a95780634327a9f4146111805780634a79d50c146110da57806354ddcc3a1461103757806359ff6ba81461100e5780635ad8e8ae14610f5c5780635e57966d14610d3d57806361dcd7ab14610d1f5780637284e41614610c79578063853828b614610c6557806395d89b4114610ba957806398cfc1a614610b79578063a035b1fe14610b5b578063aa826f6a1461090b578063bed5572f146108b1578063bfe109281461086c578063ce606ee014610843578063dd28e14d146103f0578063e2395ad81461020d578063f6b4dfb4146101e15763fcd3f19614610147575061000f565b346101dd5760203660031901126101dd57356001600160a01b03808216908183036101d9578391845491821560001461018a57505050506101879061210a565b80f35b855b8381106101a95750505050156101a0575080f35b6101879061210a565b82826101b483611f37565b90549060031b1c16146101d0575b6101cb90612173565b61018c565b600194506101c2565b8380fd5b5080fd5b823461020a578060031936011261020a576009546040516001600160a01b039091168152602090f35b80fd5b50346101dd5761021c36611eb9565b809291925190602091817f6c7b0b1c2030be2c643396fd6dc3924ed2cca787e91e5b7b0d3ad68dbf3730168480940192832060405161025a81611e5f565b60068152651859dc99595960d21b9601869052036102ab57505050600c9061028a6102858454611f81565b612389565b01905560018060a01b03166001600160601b0360a01b600b541617600b5580f35b90919394508392507ff9277228123ef6174480588e3c39104edb4957fab3fd5fbf6d6beb66bd614804815183206040516102e481611e5f565b600881526770726f677265737360c01b960186905203610317575050506010906103116102858454611f81565b01905580f35b8293507f7aa61f7d41f5fab2b7227198d10b8e1d66c06c49409fec49270e545030a3cdfb8151832060405161034b81611e5f565b600681526572657669657760d01b950185905203610376575050600c91506103116102858454611f81565b809192505182206103856120e5565b805190850120036103b5575050506103a06102858254611f81565b60126818dbdb5c1b195d195960ba1b01905580f35b519020906103c16120c1565b8051910120146103cf575080f35b6103dc6102858254611f81565b60106718d85b98d95b195960c21b01905580f35b823461020a578060031936011261020a57600954600854600a54600c54600554600b5460405160025490976001600160a01b0397881697949685169592851694909216929088600061044183611f81565b808352926001811690811561082457506001146107c4575b61046592500389611e7b565b61046d611fbb565b97604051916000836003549161048283611f81565b80835292600181169081156107a55750600114610744575b6104a692500384611e7b565b60405197889560206000549a8b81520199878b600080527f290decd9548b62a8d60345a988386fc84ba6bc95484008f6362f93160ef3e5639260005b8181106107225750506104f792500388611e7b565b6040519860008a600e549161050b83611f81565b808352926001811690811561070357506001146106b5575b61052f9250038b611e7b565b6040519b60008d6001549161054383611f81565b8083529260018116908115610698575060011461063b575b909d9c9b9a989796959493929f9e915003610576908d611e7b565b6040519d8e9d8e96610180808952880161058f9161209c565b87810360208901526105a09161209c565b956040015260608d015260808c015260a08b015260c08a015288810360e08a01526105ca9161209c565b90878203610100890152519081815260200194915b8181106106195750505061012085015283820361014085015261061592916106069161209c565b9083820361016085015261209c565b0390f35b82516001600160a01b03168652889750602095860195909201916001016105df565b509060016000527fb10e2d527612073b26eecdfd717e6a320cf44b4afac2b0732d9fcbe2b7fa0cf6906000915b81831061067d5750506020829182010161055b565b80602092948385600194549201015201910190918f92610668565b602092508394915060ff191682840152151560051b82010161055b565b5090600e6000526000805160206123de833981519152906000915b8183106106e857505090602061052f92820101610523565b80602092948385600194549201015201910190918c926106d0565b6020925061052f94915060ff191682840152151560051b820101610523565b84546001600160a01b031683526001948501948c9450602090930192016104e2565b509060036000527fc2575a0e9e593c00f959f8c92f12db2869c3395a3b0502d05e2516446f71f85b906000915b8183106107895750509060206104a69282010161049a565b6020919350806001915483858a01015201910190918592610771565b602092506104a694915060ff191682840152151560051b82010161049a565b509060026000527f405787fa12a823e0f2b7631cc41b3ba8828b3321ca811111fa75cd3aa3bb5ace906000915b81831061080957505090602061046592820101610459565b80602092948385600194549201015201910190918a926107f1565b6020925061046594915060ff191682840152151560051b820101610459565b823461020a578060031936011261020a57600a546040516001600160a01b039091168152602090f35b823461020a578060031936011261020a576040517f00000000000000000000000000000000000000000000000000000000000000006001600160a01b03168152602090f35b50346101dd5760203660031901126101dd5735600d548110156101dd57600d6000527fd7b6990105719101dabeb77144f2a3385c8033acd3af97e9423a695e81ad1eb501546040516001600160a01b039091168152602090f35b509061091636611eb9565b61091e611fbb565b93845160208096012061092f6120c1565b80519087012003610996575050600a5491925082916001600160a01b03918216908216811461095f575b50505080f35b82809291819260095416319082821561098d575bf11561098157803880610959565b604051903d90823e3d90fd5b506108fc610973565b90916109a0611fbb565b8581519101206109ae6120e5565b868151910120146109c2575b505050905080f35b600b54600d546001600160a01b039691871693600160401b821015610b465760019485830180600d55831015610b3157600d6000527fd7b6990105719101dabeb77144f2a3385c8033acd3af97e9423a695e81ad1eb5928301906001600160601b0360a01b825416179055877f0000000000000000000000000000000000000000000000000000000000000000169488600954163194863b15610b2d57989081610a836040519963bd97f00760e01b8b5260a0868c015260a48b019061209c565b9a166024890152600319998a8982030160448a015285600d54918281520194600d600052926000905b828210610b16575050505050604087988795630ae8aa8960e31b8a9896868a968a80990395860160648a015281520152608485015201925af18015610b0b57610af7575b80806109ba565b610b0090611e35565b61020a578038610af0565b6040513d84823e3d90fd5b845481168752958701959383019390830190610aac565b8880fd5b603282634e487b7160e01b6000525260246000fd5b604190634e487b7160e01b6000525260246000fd5b823461020a578060031936011261020a576020600754604051908152f35b823461020a578060031936011261020a57610615610b95611fbb565b60405191829160208352602083019061209c565b823461020a578060031936011261020a576040516000600e54610bcb81611f81565b80845290600190818116908115610c3e5750600114610bf5575b61061584610b9581860382611e7b565b600e600090815292506000805160206123de8339815191525b828410610c26575050508101602001610b9582610be5565b80546020858701810191909152909301928101610c0e565b60ff191660208087019190915292151560051b85019092019250610b959150839050610be5565b823461020a578060031936011261020a5780f35b823461020a578060031936011261020a576040516000600354610c9b81611f81565b80845290600190818116908115610c3e5750600114610cc45761061584610b9581860382611e7b565b6003600090815292507fc2575a0e9e593c00f959f8c92f12db2869c3395a3b0502d05e2516446f71f85b5b828410610d07575050508101602001610b9582610be5565b80546020858701810191909152909301928101610cef565b823461020a578060031936011261020a576020600c54604051908152f35b50346101dd5760209081600319360112610f58578035926001600160a01b038416840361020a57604051936001600160601b03199060601b168385015260148452610d8784611e5f565b60405190610d9482611e5f565b601082526f181899199a1a9b1b9c1cb0b131b232b360811b84830152845160019281841b600292808204841490151715610f4557820196878311610f4557610df4610dde89611e9d565b98610dec6040519a8b611e7b565b808a52611e9d565b88880190601f1901368237885115610f3257603090538751851015610f1f5787938793879387936078602189015383985b610e3d575b60405187815280610615818a018b61209c565b8051891015610f1a576001600160f81b031980610e67610e5d8c8561214c565b5160fc1c8561214c565b5116908a871b918b830486148c151715610f075782860190818711610ef457610e9390881a918c61214c565b53610eae600f610ea38d8661214c565b5160f81c168561214c565b51166003918201809211610ee15799610ed891610ed288999a9b9c881a918d61214c565b53612173565b98979695610e25565b634e487b7160e01b865260118852602486fd5b634e487b7160e01b885260118a52602488fd5b634e487b7160e01b875260118952602487fd5b610e2a565b634e487b7160e01b845260328652602484fd5b634e487b7160e01b855260328752602485fd5b634e487b7160e01b845260118652602484fd5b8280fd5b5060203660031901126101dd57356001600160a01b0381811691829003611009578291610f87611fbb565b60208151910120610f966120c1565b6020815191012014600014610fb65781600a5416811461095f5750505080f35b50610fbf611fbb565b60208151910120610fce6120e5565b6020815191012014610fdf57505080f35b8180828193600b541690600954163190828215611000575bf1156109815780f35b506108fc610ff7565b600080fd5b823461020a578060031936011261020a57600b546040516001600160a01b039091168152602090f35b823461020a578060031936011261020a576040516000600180549061105b82611f81565b80855291818116908115610c3e57506001146110815761061584610b9581860382611e7b565b600081815292507fb10e2d527612073b26eecdfd717e6a320cf44b4afac2b0732d9fcbe2b7fa0cf65b8284106110c2575050508101602001610b9582610be5565b805460208587018101919091529093019281016110aa565b823461020a578060031936011261020a5760405160006002546110fc81611f81565b80845290600190818116908115610c3e57506001146111255761061584610b9581860382611e7b565b6002600090815292507f405787fa12a823e0f2b7631cc41b3ba8828b3321ca811111fa75cd3aa3bb5ace5b828410611168575050508101602001610b9582610be5565b80546020858701810191909152909301928101611150565b823461020a578060031936011261020a576008546040516001600160a01b039091168152602090f35b823461020a578060031936011261020a576020600554604051908152f35b823461020a578060031936011261020a576009546040516001600160a01b03909116318152602090f35b823461020a578060031936011261020a576040517f00000000000000000000000000000000000000000000000000000000000000006001600160a01b03168152602090f35b823461020a578060031936011261020a57604051600060065461125881611f81565b80845290600190818116908115610c3e57506001146112815761061584610b9581860382611e7b565b6006600090815292507ff652222313e28459528d920b65115c16c04f3efc82aaedc97be59f3f377c0d3f5b8284106112c4575050508101602001610b9582610be5565b805460208587018101919091529093019281016112ac565b50346101dd5760203660031901126101dd573590805482101561020a57602061130483611f37565b905460405160039290921b1c6001600160a01b03168152f35b5061132736611eb9565b919050611332611fbb565b9182516020809401206113436120c1565b80519085012003611373575050600b54600a548392506001600160a01b03918216908216811461095f5750505080f35b61137b611fbb565b8381519101206113896120e5565b848151910120148015611e2d575b6113a15750505080f35b604093919293519082600e549286816113b986611f81565b93848252828201946001978881169081600014611e115750600114611dc9575b506113e692500382611e7b565b805180611420576040516303c4b96f60e41b8152808801899052600b60248201526a32b6b83a3c903a37b5b2b760a91b6044820152606490fd5b7faaaebeba3810b1e6b70781f14b2d72c1cb89c0b2b320c43bb67ff79f562f5ff49083979697206208aa8960eb1b8960405161145b81611e5f565b60038152015203611630575050600954600b54604051635e57966d60e01b81526001600160a01b0391821695810186905291169291508481602481305afa908115611625578591611603575b50604051916b03bb4ba34323930bbb4b733960a51b87840152600090600e54906114d082611f81565b918181169081156115ce575060011461157a575b5050926000805160206123fe8339815191526115558461154860168a9b978b9a978a6115388d9c9b750103a379022ba3432b932bab69030b2323932b9b99d160551b8e9d5283519384918785019101612079565b0103600919810184520182611e7b565b6040519182918583612330565b0390a13190828215611571575bf115610981575b388080610959565b506108fc611562565b600e60009081529192506000805160206123de8339815191525b8383106115ba575050508201602c016000805160206123fe8339815191526115556114e4565b8054868401602c0152918901918101611594565b60ff1916602c80880191909152831515909302860190920192506000805160206123fe833981519152915061155590506114e4565b61161f91503d8087833e6116178183611e7b565b8101906121b9565b386114a7565b6040513d87823e3d90fd5b859692935080959495518220611644612198565b8481519101201480611c2b575b1561192e575050600954600b54604051635e57966d60e01b8082526001600160a01b03928316888301529282169291908681602481305afa8015611923576116b46116c1916000805160206123fe833981519152938a91611909575b508861221b565b6040519182918783612330565b0390a16040516349ad89fb60e11b81528781018590526005602482015264615553444360d81b60448201527f0000000000000000000000000000000000000000000000000000000000000000821694908181606481895afa801561189e57839189916118dc575b5016604051946370a0823160e01b8652898601528185602481845afa94851561189e5788956118a9575b506040805163095ea7b360e01b81526001600160a01b038816818c019081526020810188905290928492849283918d9183910103925af1801561189e57611870575b5050600b5416604051918252868201528481602481305afa908115611625578591611856575b50823b15611852576117f29560809261182887936118056040519a8b998a9889976326ef699d60e01b8952880152608487019061209c565b600319928387830301602488015261209c565b908482030160448501526040906005815264615553444360d81b60208201520190565b90606483015203925af18015610b0b57611843575b50611569565b61184c90611e35565b3861183d565b8480fd5b61186a91503d8087833e6116178183611e7b565b386117ba565b8161188f92903d10611897575b6118878183611e7b565b810190612371565b503880611794565b503d61187d565b6040513d8a823e3d90fd5b9094508181813d83116118d5575b6118c18183611e7b565b810103126118d157519381611752565b8780fd5b503d6118b7565b6118fc9150833d8511611902575b6118f48183611e7b565b810190612352565b38611728565b503d6118ea565b61191d91503d808c833e6116178183611e7b565b386116ad565b6040513d89823e3d90fd5b519020909391925061193e612198565b8481519101201480611bde575b15611b8d57600954600b54604051635e57966d60e01b81526001600160a01b0391821684820152918116939091908682602481305afa918215611923576000805160206123fe833981519152926119ad926116b4928a92611b71575b5061221b565b0390a16040516349ad89fb60e11b81528281018590526005602482015264615553444360d81b604482015284816064817f000000000000000000000000000000000000000000000000000000000000000086165afa8015611b665782918791611b49575b5016604051926370a0823160e01b84528481850152868685602481865afa948515611b0b5787908296611b18575b506040805163095ea7b360e01b81526001600160a01b039098168489019081526020810188905296979687918291015b038184875af1928315611b0b578795606494611aee575b50846009541694600b54169660405197889687956323b872dd60e01b8752860152602485015260448401525af18015611ae357611ac5575b5050611569565b81611adb92903d10611897576118878183611e7b565b503880611abe565b6040513d85823e3d90fd5b611b0490873d8911611897576118878183611e7b565b5038611a86565b50604051903d90823e3d90fd5b809650813d8311611b42575b611b2e8183611e7b565b8101031261020a5786611a6f955195611a3f565b503d611b24565b611b609150863d8811611902576118f48183611e7b565b38611a11565b6040513d88823e3d90fd5b611b869192503d808c833e6116178183611e7b565b90386119a7565b6040516303c4b96f60e41b81529081018390526024808201527f696e76616c69642064657374696e6174696f6e206e6574776f726b206f72207460448201526337b5b2b760e11b6064820152608490fd5b507f6f3c53069778183912da77a05fe67c3d6edb208ffdf1ca0161d51543035e3c68825184840120674d6f6f6e6261736560c01b85604051611c1f81611e5f565b6008815201521461194b565b5083517f564ccaf7594d66b1eaaea24fe01f0585bf52ee70852af4eac0cc4b04711cd0e284860191822067457468657265756d60c01b86604051611c6e81611e5f565b60088152015214908115611d7d575b8115611d32575b8115611ce4575b8115611c98575b50611651565b7f890af8db8ca1aa1e915857edbc2717639ebd8a22c786f9e0e776d6a1aacb5e71915085519020662837b63cb3b7b760c91b85604051611cd781611e5f565b6007815201521438611c92565b90507f6585177c3aba6cb7ffc0a37e831a958c4ee9278e4c62c7bdad7175ca09883c4085518220684176616c616e63686560b81b86604051611d2581611e5f565b6009815201521490611c8b565b90507fcbf2a723bab3288b57db0bfae9d136af04a5c70c9acd46aad23acb67ef5fe179855182206546616e746f6d60d01b86604051611d7081611e5f565b6006815201521490611c84565b90507f1de46e819416afc37058fd1cf806b9bcf96fa5d23b3ae565d6c72f0e19be9a9e855182206642696e616e636560c81b86604051611dbc81611e5f565b6007815201521490611c7d565b600e8952889150876000805160206123de8339815191525b828410611dfa57505050916113e69282010189926113d9565b805487850187015286945092850192899101611de1565b60ff19168752508a9390151560051b83010190506113e66113d9565b506001611397565b67ffffffffffffffff8111611e4957604052565b634e487b7160e01b600052604160045260246000fd5b6040810190811067ffffffffffffffff821117611e4957604052565b90601f8019910116810190811067ffffffffffffffff821117611e4957604052565b67ffffffffffffffff8111611e4957601f01601f191660200190565b906040600319830112611009576004356001600160a01b0381168103611009579160243567ffffffffffffffff8111611009578160238201121561100957806004013590611f0682611e9d565b92611f146040519485611e7b565b828452602483830101116110095781600092602460209301838601378301015290565b906000918254811015611f6d578280527f290decd9548b62a8d60345a988386fc84ba6bc95484008f6362f93160ef3e563019190565b634e487b7160e01b83526032600452602483fd5b90600182811c92168015611fb1575b6020831014611f9b57565b634e487b7160e01b600052602260045260246000fd5b91607f1691611f90565b6040519060008260045491611fcf83611f81565b808352926001908181169081156120575750600114611ff8575b50611ff692500383611e7b565b565b6004600090815291507f8a35acfbc15ff81a39ae7d344fd709f28e8600b4aa8c65c6b64bfe7fe36bd19b5b84831061203c5750611ff6935050810160200138611fe9565b81935090816020925483858a01015201910190918592612023565b905060209250611ff694915060ff191682840152151560051b82010138611fe9565b60005b83811061208c5750506000910152565b818101518382015260200161207c565b906020916120b581518092818552858086019101612079565b601f01601f1916010190565b604051906120ce82611e5f565b600882526718d85b98d95b195960c21b6020830152565b604051906120f282611e5f565b600982526818dbdb5c1b195d195960ba1b6020830152565b600054600160401b811015611e49578060016121299201600055611f37565b819291549060031b9160018060a01b039283811b93849216901b16911916179055565b90815181101561215d570160200190565b634e487b7160e01b600052603260045260246000fd5b60001981146121825760010190565b634e487b7160e01b600052601160045260246000fd5b604051906121a582611e5f565b6005825264615553444360d81b6020830152565b6020818303126110095780519067ffffffffffffffff8211611009570181601f820112156110095780516121ec81611e9d565b926121fa6040519485611e7b565b81845260208284010111611009576122189160208085019101612079565b90565b919060405180936020906b03bb4ba34323930bbb4b733960a51b828401526000600e5461224781611f81565b9060019081811690811561230757506001146122bc575b5050916122ac611ff6959284630103a37960e51b600c97965261228a8251809386600485019101612079565b01916730b2323932b9b99d60c11b600484015283519384918785019101612079565b0103601319810185520183611e7b565b600e60009081529192506000805160206123de8339815191525b8383106122f0575050508301602c016122ac611ff661225e565b80548a8401602c01528996509185019181016122d6565b60ff1916602c80890191909152831515909302870190920192506122ac9150611ff6905061225e565b6001600160a01b0390911681526040602082018190526122189291019061209c565b9081602091031261100957516001600160a01b03811681036110095790565b90816020910312611009575180151581036110095790565b601f81116123945750565b600060048152601f7f8a35acfbc15ff81a39ae7d344fd709f28e8600b4aa8c65c6b64bfe7fe36bd19b920160051c8201915b8281106123d257505050565b8181556001016123c656febb7b4a454dc3493923482f07822329ed19e8244eff582cc204f8554c3620c3fdf914ca0348190fe49c31ec3901a60069cc792666a05ee2db257a8491cbad2b1ea26469706673582212200552061381f476ad96d5e29910c58bd6626dcce7ce5c8869b539d860aa04695764736f6c63430008110033",
  "immutableReferences": {
    "1521": [
      {
        "length": 32,
        "start": 2178
      },
      {
        "length": 32,
        "start": 2608
      }
    ],
    "1524": [
      {
        "length": 32,
        "start": 4615
      },
      {
        "length": 32,
        "start": 5870
      },
      {
        "length": 32,
        "start": 6623
      }
    ]
  },
  "source": "// SPDX-License-Identifier: MIT\npragma solidity ^0.8.12;\n\nimport { IDistributionExecutable } from './IDistributionExecutable.sol';\n\n\nimport { AxelarExecutable } from '@axelar-network/axelar-gmp-sdk-solidity/contracts/executables/AxelarExecutable.sol';\nimport { IAxelarGateway } from '@axelar-network/axelar-gmp-sdk-solidity/contracts/interfaces/IAxelarGateway.sol';\nimport { IERC20 } from '@axelar-network/axelar-gmp-sdk-solidity/contracts/interfaces/IERC20.sol';\nimport { IAxelarGasService } from '@axelar-network/axelar-gmp-sdk-solidity/contracts/interfaces/IAxelarGasService.sol';\nimport { StringToAddress, AddressToString } from '@axelar-network/axelar-gmp-sdk-solidity/contracts/StringAddressUtils.sol';\n\nerror RevertReason (string message);\n\ncontract Factory {\n    IAxelarGateway public immutable gateway;\n\n\n    Job[] public jobArray;\n    // address contractOwner;\n    uint256 public countNew = 0;\n    uint256 countAgreed = 0;\n    uint256 countProgress = 0;\n    uint256 countReview = 0;\n    uint256 countCompleted = 0;\n    uint256 countCanceled = 0;\n    string stateNew = \"new\";\n    string stateAgreed = \"agreed\";\n    string stateProgress = \"progress\";\n    string stateReview = \"review\";\n    string stateCompleted = \"completed\";\n    string stateCanceled = \"canceled\";\n\n    event OneEventForAll(address contractAdr, uint256 index);\n\n\n    event JobContractCreated(\n        string nanoId,\n        address jobAddress,\n        address jobOwner,\n        string title,\n        string description,\n        string symbol,\n        uint256 amount\n    );\n\n\n    constructor() {\n        address gateway_ = 0x5769D84DD62a6fD969856c75c7D321b84d455929;\n        gateway = IAxelarGateway(gateway_);\n    }\n\n    // initial: new, contractor choosed: agreed, work in progress: progress, completed: completed, canceled\n\n    // function indexCalculation(string memory _state) public returns (uint256) {}\n\n    function createJobContract(string memory _nanoId, string memory _title, string memory _description, string memory _symbol, uint256 _amount)\n    external\n    payable\n    {\n        Job job = new Job{value: msg.value}(\n            _nanoId,\n            _title,\n            _description,\n            _symbol,\n            jobArray.length,\n            msg.sender\n        );\n\n        if (keccak256(bytes(_symbol)) != keccak256(bytes(\"ETH\"))) {\n            address tokenAddress = gateway.tokenAddresses(_symbol);\n            // amount = IERC20(tokenAddress).balanceOf(contractAddress);\n            IERC20(tokenAddress).transferFrom(msg.sender, address(job), _amount);\n        }\n        // IERC20(tokenAddress).approve(address(gateway), _amount);\n\n        jobArray.push(job);\n        countNew++;\n        emit JobContractCreated(_nanoId, address(job), msg.sender, _title, _description, _symbol, _amount);\n        emit OneEventForAll(address(job), job.index());\n    }\n\n    // function findJobs(uint256 _myIndex) external view returns (address) {\n    //     return address(jobArray[_myIndex]);\n    // }\n\n    function allJobs() external view returns (Job[] memory _jobs) {\n        _jobs = new Job[](jobArray.length);\n        uint256 count;\n        for (uint256 i = 0; i < jobArray.length; i++) {\n            _jobs[count] = jobArray[i];\n            count++;\n        }\n    }\n\n\n    function jobParticipate(Job job) external {\n        jobArray[job.index()].jobParticipate(msg.sender);\n        emit OneEventForAll(address(job), job.index());\n    }\n\n\n    function jobStateChange(\n        Job job,\n        address payable _participantAddress,\n        string memory _state\n    ) external {\n        jobArray[job.index()].jobStateChange(_participantAddress, _state);\n\n        // if (keccak256(bytes(_state)) == keccak256(bytes(\"agreed\"))) {\n        //     countAgreed++;\n        // } else if (keccak256(bytes(_state)) == keccak256(bytes(\"progress\"))) {\n        //     countProgress++;\n        // } else if (keccak256(bytes(_state)) == keccak256(bytes(\"review\"))) {\n        //     countReview++;\n        // } else if (keccak256(bytes(_state)) == keccak256(bytes(\"completed\"))) {\n        //     countCompleted++;\n        // } else if (keccak256(bytes(_state)) == keccak256(bytes(\"canceled\"))) {\n        //     countCanceled++;\n        // }\n\n        emit OneEventForAll(address(job), job.index());\n    }\n\n    // function jobReview(Job job, address _participantAddress) external {\n    //     jobArray[job.index()].jobReview(_participantAddress);\n    //     countProgress++;\n    // }\n\n    // function jobConfimation(Job job, address _participantAddress) external {\n    //     jobArray[job.index()].jobConfimation(_participantAddress);\n    //     countReview++;\n    // }\n\n    function transferToaddress(Job job, address payable addressToSend)\n    external\n    payable\n    {\n        // addressToSend.transfer(0.5 ether);\n        jobArray[job.index()].transferToaddress(addressToSend);\n        emit OneEventForAll(address(job), job.index());\n    }\n\n    function transferToaddressChain(Job job, address payable addressToSend, string memory chain)\n    external\n    payable\n    {\n        jobArray[job.index()].transferToaddressChain(addressToSend, chain);\n        emit OneEventForAll(address(job), job.index());\n    }\n\n    function transferToaddressChain2(Job job, address payable addressToSend, string memory chain)\n    external\n    payable\n    {\n        jobArray[job.index()].transferToaddressChain2(addressToSend, chain);\n        emit OneEventForAll(address(job), job.index());\n    }\n\n\n    // function jobCanceled(Job job) external {\n    //     jobArray[job.index()].jobCanceled();\n    //     countCanceled++;\n    // }\n\n    // function getContractAdr(uint256 _classIndex)\n    //     external\n    //     view\n    //     returns (address)\n    // {\n    //     Job _retBal = Job(payable(address(jobArray[_classIndex])));\n    //     return _retBal.returnContractAddress();\n    // }\n\n    function getBalance(uint256 _classIndex) external view returns (uint256) {\n        Job _retBal = Job(payable(address(jobArray[_classIndex])));\n        return _retBal.getBalance();\n    }\n\n    // function thisContract() external view returns (address) {\n    //     address thisConr = address(this);\n    //     return thisConr;\n    // }\n\n    function getJobInfo(uint256 _classIndex)\n    external\n    view\n    returns (\n        string memory,\n        string memory,\n        address,\n        address,\n        address,\n        uint256,\n        uint256,\n        string memory,\n        address[] memory,\n        address,\n        string memory,\n        string memory\n        \n    )\n    {\n        Job _retBal = Job(payable(address(jobArray[_classIndex])));\n        return _retBal.getJob();\n    }\n\n    // receive() external payable {}\n}\n\ncontract Job {\n    IDistributionExecutable public immutable distributor;\n\n    IAxelarGateway public immutable gateway;\n    using AddressToString for address;\n    using StringToAddress for string;\n\n    address[] public Participants;\n    // uint256 public data;\n    string public nanoId;\n    string public title;\n    string public description;\n    string public jobState;\n    uint256 public index;\n\n    string public name;\n    uint256 public price;\n    address public contractParent;\n    address public contractAddress;\n    address public contractOwner;\n    address payable public participantAddress;\n    uint256 public createTime;\n    address[] public _destinationAddresses;\n    string public symbol;\n    uint256 amount;\n\n    event Logs(address contractAdr, string message);\n\n    constructor(\n        string memory _nanoId,\n        string memory _title,\n        string memory _description,\n        string memory _symbol,\n        uint256 _index,\n        address _contractOwner\n    ) payable {\n        // data = _data;\n        nanoId = _nanoId;\n        distributor = IDistributionExecutable(_contractOwner);\n        title = _title;\n        jobState = \"new\";\n        contractAddress = address(this);\n        contractParent = msg.sender;\n        contractOwner = _contractOwner;\n        createTime = block.timestamp;\n        index = _index;\n        description = _description;\n        symbol = _symbol;\n\n        address gateway_ = 0x5769D84DD62a6fD969856c75c7D321b84d455929;\n        gateway = IAxelarGateway(gateway_);\n        // balance = contractAddress.balance;\n        // createJob(_content, _index);\n        // myStruct = jobStructData(\n        //     _data,\n        //     true,\n        //     address(this),\n        //     msg.sender,\n        //     block.timestamp,\n        //     _index\n        // );\n    }\n\n    // event OneEventForAll2(address contractAdr);\n\n    // function createJob(string memory _content, uint256 _index) public {\n    //     jobStructDataArray.push();\n\n    //     jobStructData(\n    //         _content,\n    //         true,\n    //         address(this),\n    //         msg.sender,\n    //         block.timestamp\n    //     );\n    //     emit jobCreated(_content, _index);\n    // }\n\n    function getJob()\n    public\n    view\n    returns (\n        string memory _content,\n        string memory _jobState,\n        address _contractAddress,\n        address _contractParent,\n        address _contractOwner,\n        uint256 _createTime,\n        uint256 _index,\n        string memory _description,\n        address[] memory _participants,\n        address _participantAddress,\n        string memory _symbol,\n        string memory _nanoId\n    )\n    {\n        return (\n        title,\n        jobState,\n        contractAddress,\n        contractParent,\n        contractOwner,\n        createTime,\n        index,\n        description,\n        Participants,\n        participantAddress,\n        symbol,\n        nanoId\n        );\n    }\n\n    function withdrawAll() external {\n        // jobState = true;\n    }\n\n    // function getContractInfo() public view returns (uint256) {\n    //     return contractAddress.balance;\n    // }\n\n    function getBalance() public view returns (uint256) {\n        return contractAddress.balance;\n    }\n\n    function transferToaddress(address payable _addressToSend) public payable {\n        if (keccak256(bytes(jobState)) == keccak256(bytes(\"canceled\"))) {\n            if (_addressToSend == contractOwner) {\n                _addressToSend.transfer(contractAddress.balance);\n            }\n        } else if (\n            keccak256(bytes(jobState)) == keccak256(bytes(\"completed\"))\n        ) {\n\n            participantAddress.transfer(contractAddress.balance);\n        }\n        // msg.sender.transfer(address(this).balance);\n    }\n\n    function transferToaddressChain(address payable _addressToSend, string memory chain) public payable {\n        if (keccak256(bytes(jobState)) == keccak256(bytes(\"canceled\"))) {\n            if (_addressToSend == contractOwner) {\n                _addressToSend.transfer(contractAddress.balance);\n            }\n        } else if (\n            keccak256(bytes(jobState)) == keccak256(bytes(\"completed\"))\n        ) {\n            _destinationAddresses.push(participantAddress);\n            distributor.sendToMany(chain, _addressToSend, _destinationAddresses, 'WETH', contractAddress.balance);\n        }\n        // msg.sender.transfer(address(this).balance);\n    }\n\n    function addressToString(address address_) external pure returns (string memory) {\n        return address_.toString();\n    }\n\n    function transferToaddressChain2(address payable _addressToSend, string memory chain) public payable {\n        if (keccak256(bytes(jobState)) == keccak256(bytes(\"canceled\"))) {\n            if (participantAddress == contractOwner) {\n                participantAddress.transfer(contractAddress.balance);\n            }\n        } else if (\n            keccak256(bytes(jobState)) == keccak256(bytes(\"completed\")) || 1==1\n        ) {\n            bytes memory symbolBytes = bytes(symbol);\n            bytes memory chainBytes = bytes(chain);\n            if (symbolBytes.length == 0) {\n                revert RevertReason({\n                    message: \"empty token\"\n                });\n                // do nothing\n            } else if (keccak256(symbolBytes) == keccak256(bytes(\"ETH\"))) {\n                emit Logs(address(contractAddress), string.concat(\"withdrawing \", symbol, \" to Ethereum address: \",this.addressToString(participantAddress)));\n                participantAddress.transfer(contractAddress.balance);\n            } else if (keccak256(symbolBytes) == keccak256(bytes(\"aUSDC\")) && (\n                keccak256(chainBytes) == keccak256(bytes(\"Ethereum\")) || \n                keccak256(chainBytes) == keccak256(bytes(\"Binance\")) ||\n                keccak256(chainBytes) == keccak256(bytes(\"Fantom\")) ||\n                keccak256(chainBytes) == keccak256(bytes(\"Avalanche\")) ||\n                keccak256(chainBytes) == keccak256(bytes(\"Polygon\"))\n            )) {\n                emit Logs(address(contractAddress), string.concat(\"withdrawing \", symbol, \" to \", chain, \"address:\",this.addressToString(participantAddress)));\n                // _destinationAddresses.push(_addressToSend);\n                // distributor.sendToMany(chain, _addressToSend, _destinationAddresses, 'aUSDC', contractAddress.balance);\n                // string memory _addressToSend2 = bytes(_addressToSend);\n                address tokenAddress = gateway.tokenAddresses(\"aUSDC\");\n                uint256 contractAmount = IERC20(tokenAddress).balanceOf(contractAddress);\n                IERC20(tokenAddress).approve(address(gateway), contractAmount);\n                // gateway.sendToken(chain, toAsciiString(participantAddress), \"aUSDC\", amount);\n                gateway.sendToken(chain, this.addressToString(participantAddress), \"aUSDC\", contractAmount);\n                \n            } else if (keccak256(symbolBytes) == keccak256(bytes(\"aUSDC\")) && keccak256(chainBytes) == keccak256(bytes(\"Moonbase\"))) {\n                // revert InvalidToken({\n                //     token: string.concat(\"we are in moonbase, participantAddress\",this.addressToString(participantAddress))\n                // });\n                emit Logs(address(contractAddress), string.concat(\"withdrawing \", symbol, \" to \", chain, \"address:\",this.addressToString(participantAddress)));\n                address tokenAddress = gateway.tokenAddresses(\"aUSDC\");\n                uint256 contractAmount = IERC20(tokenAddress).balanceOf(contractAddress);\n                IERC20(tokenAddress).approve(contractAddress, contractAmount);\n                IERC20(tokenAddress).transferFrom(contractAddress, participantAddress, contractAmount);\n                // IERC20(tokenAddress).approve(address(gateway), amount);\n            }\n            else{\n                revert RevertReason({\n                    message: \"invalid destination network or token\"\n                });\n            }\n        }\n        // msg.sender.transfer(address(this).balance);\n    }\n\n    function toAsciiString(address x) internal pure returns (string memory) {\n        bytes memory s = new bytes(40);\n        for (uint i = 0; i < 20; i++) {\n            bytes1 b = bytes1(uint8(uint(uint160(x)) / (2**(8*(19 - i)))));\n            bytes1 hi = bytes1(uint8(b) / 16);\n            bytes1 lo = bytes1(uint8(b) - 16 * uint8(hi));\n            s[2*i] = char(hi);\n            s[2*i+1] = char(lo);\n        }\n        return string(s);\n    }\n\n    function char(bytes1 b) internal pure returns (bytes1 c) {\n        if (uint8(b) < 10) return bytes1(uint8(b) + 0x30);\n        else return bytes1(uint8(b) + 0x57);\n    }\n\n\n    function jobParticipate(address _participantAddress) external {\n        bool existed = false;\n        if (Participants.length == 0) {\n            Participants.push(_participantAddress);\n        } else {\n            for (uint256 i = 0; i < Participants.length; i++) {\n                if (Participants[i] == _participantAddress) {\n                    existed = true;\n                }\n            }\n            if (!existed) {\n                Participants.push(_participantAddress);\n            }\n        }\n        // emit OneEventForAll2(contractAddress);\n    }\n\n    function jobStateChange(\n        address payable _participantAddress,\n        string memory _state\n    ) external {\n        if (keccak256(bytes(_state)) == keccak256(bytes(\"agreed\"))) {\n            jobState = \"agreed\";\n            participantAddress = _participantAddress;\n        } else if (keccak256(bytes(_state)) == keccak256(bytes(\"progress\"))) {\n            jobState = \"progress\";\n        } else if (keccak256(bytes(_state)) == keccak256(bytes(\"review\"))) {\n            jobState = \"review\";\n        } else if (keccak256(bytes(_state)) == keccak256(bytes(\"completed\"))) {\n            jobState = \"completed\";\n        } else if (keccak256(bytes(_state)) == keccak256(bytes(\"canceled\"))) {\n            jobState = \"canceled\";\n        }\n\n        // emit OneEventForAll2(contractAddress);\n    }\n\n    // function jobReview(address _participantAddress) external {\n    //     if (participantAddress == _participantAddress) {\n    //         jobState = \"review\";\n    //     }\n    // }\n\n    // function jobParticiantAgreed(address _participantAddress) external {\n    //     jobState = \"agreed\";\n    //     participantAddress = _participantAddress;\n\n    //     // for (uint256 i = 0; i < Participants.length; i++) {\n    //     //     if (Participants[i] == _participantAddress) {\n    //     //         jobState = \"agreed\";\n    //     //         participantAddress = _participantAddress;\n    //     //     }\n    //     // }\n    // }\n\n    // function jobInProgress() external {\n    //     jobState = \"progress\";\n    // }\n\n    // function jobCompleted() external {\n    //     jobState = \"completed\";\n    // }\n\n    // function jobCanceled() external {\n    //     jobState = \"canceled\";\n    // }\n\n    receive() external payable {}\n\n    // fallback () external payable    {\n\n    // }\n\n    // constructor(string memory _name, address _owner) {\n    //     name = _name;\n    //     owner = _owner;\n    // }\n}\n",
  "sourcePath": "/home/user/Documents/mainstream/devopsdao/contracts/Factory.sol",
  "compiler": {
    "name": "solc",
    "version": "0.8.17+commit.8df45f5f.Emscripten.clang"
  },
  "schemaVersion": "3.4.10",
  "updatedAt": "2022-09-18T17:33:29.795Z",
  "devdoc": {
    "kind": "dev",
    "methods": {},
    "version": 1
  },
  "userdoc": {
    "kind": "user",
    "methods": {},
    "version": 1
  }
}