{
  "contractName": "Job",
  "abi": [
    {
      "inputs": [
        {
          "internalType": "string",
          "name": "_title",
          "type": "string"
        },
        {
          "internalType": "string",
          "name": "_description",
          "type": "string"
        },
        {
          "internalType": "uint256",
          "name": "_index",
          "type": "uint256"
        },
        {
          "internalType": "address",
          "name": "_contractOwner",
          "type": "address"
        }
      ],
      "stateMutability": "payable",
      "type": "constructor"
    },
    {
      "inputs": [
        {
          "internalType": "uint256",
          "name": "",
          "type": "uint256"
        }
      ],
      "name": "Participants",
      "outputs": [
        {
          "internalType": "address",
          "name": "",
          "type": "address"
        }
      ],
      "stateMutability": "view",
      "type": "function"
    },
    {
      "inputs": [],
      "name": "contractAddress",
      "outputs": [
        {
          "internalType": "address",
          "name": "",
          "type": "address"
        }
      ],
      "stateMutability": "view",
      "type": "function"
    },
    {
      "inputs": [],
      "name": "contractOwner",
      "outputs": [
        {
          "internalType": "address",
          "name": "",
          "type": "address"
        }
      ],
      "stateMutability": "view",
      "type": "function"
    },
    {
      "inputs": [],
      "name": "contractParent",
      "outputs": [
        {
          "internalType": "address",
          "name": "",
          "type": "address"
        }
      ],
      "stateMutability": "view",
      "type": "function"
    },
    {
      "inputs": [],
      "name": "createTime",
      "outputs": [
        {
          "internalType": "uint256",
          "name": "",
          "type": "uint256"
        }
      ],
      "stateMutability": "view",
      "type": "function"
    },
    {
      "inputs": [],
      "name": "description",
      "outputs": [
        {
          "internalType": "string",
          "name": "",
          "type": "string"
        }
      ],
      "stateMutability": "view",
      "type": "function"
    },
    {
      "inputs": [],
      "name": "index",
      "outputs": [
        {
          "internalType": "uint256",
          "name": "",
          "type": "uint256"
        }
      ],
      "stateMutability": "view",
      "type": "function"
    },
    {
      "inputs": [],
      "name": "jobState",
      "outputs": [
        {
          "internalType": "string",
          "name": "",
          "type": "string"
        }
      ],
      "stateMutability": "view",
      "type": "function"
    },
    {
      "inputs": [],
      "name": "name",
      "outputs": [
        {
          "internalType": "string",
          "name": "",
          "type": "string"
        }
      ],
      "stateMutability": "view",
      "type": "function"
    },
    {
      "inputs": [],
      "name": "participantAddress",
      "outputs": [
        {
          "internalType": "address payable",
          "name": "",
          "type": "address"
        }
      ],
      "stateMutability": "view",
      "type": "function"
    },
    {
      "inputs": [],
      "name": "price",
      "outputs": [
        {
          "internalType": "uint256",
          "name": "",
          "type": "uint256"
        }
      ],
      "stateMutability": "view",
      "type": "function"
    },
    {
      "inputs": [],
      "name": "title",
      "outputs": [
        {
          "internalType": "string",
          "name": "",
          "type": "string"
        }
      ],
      "stateMutability": "view",
      "type": "function"
    },
    {
      "stateMutability": "payable",
      "type": "receive"
    },
    {
      "inputs": [],
      "name": "getJob",
      "outputs": [
        {
          "internalType": "string",
          "name": "_content",
          "type": "string"
        },
        {
          "internalType": "string",
          "name": "_jobState",
          "type": "string"
        },
        {
          "internalType": "address",
          "name": "_contractAddress",
          "type": "address"
        },
        {
          "internalType": "address",
          "name": "_contractParent",
          "type": "address"
        },
        {
          "internalType": "address",
          "name": "_contractOwner",
          "type": "address"
        },
        {
          "internalType": "uint256",
          "name": "_createTime",
          "type": "uint256"
        },
        {
          "internalType": "uint256",
          "name": "_index",
          "type": "uint256"
        },
        {
          "internalType": "string",
          "name": "_description",
          "type": "string"
        },
        {
          "internalType": "address[]",
          "name": "_participants",
          "type": "address[]"
        },
        {
          "internalType": "address",
          "name": "_participantAddress",
          "type": "address"
        }
      ],
      "stateMutability": "view",
      "type": "function"
    },
    {
      "inputs": [],
      "name": "withdrawAll",
      "outputs": [],
      "stateMutability": "nonpayable",
      "type": "function"
    },
    {
      "inputs": [],
      "name": "getBalance",
      "outputs": [
        {
          "internalType": "uint256",
          "name": "",
          "type": "uint256"
        }
      ],
      "stateMutability": "view",
      "type": "function"
    },
    {
      "inputs": [
        {
          "internalType": "address payable",
          "name": "_addressToSend",
          "type": "address"
        }
      ],
      "name": "transferToaddress",
      "outputs": [],
      "stateMutability": "payable",
      "type": "function"
    },
    {
      "inputs": [
        {
          "internalType": "address",
          "name": "_participantAddress",
          "type": "address"
        }
      ],
      "name": "jobParticipate",
      "outputs": [],
      "stateMutability": "nonpayable",
      "type": "function"
    },
    {
      "inputs": [
        {
          "internalType": "address payable",
          "name": "_participantAddress",
          "type": "address"
        },
        {
          "internalType": "string",
          "name": "_state",
          "type": "string"
        }
      ],
      "name": "jobStateChange",
      "outputs": [],
      "stateMutability": "nonpayable",
      "type": "function"
    }
  ],
  "bytecode": "0x608060405260405162001f4e38038062001f4e833981810160405281019062000029919062000471565b83600190805190602001906200004192919062000184565b506040518060400160405280600381526020017f6e65770000000000000000000000000000000000000000000000000000000000815250600390805190602001906200008f92919062000184565b5030600860006101000a81548173ffffffffffffffffffffffffffffffffffffffff021916908373ffffffffffffffffffffffffffffffffffffffff16021790555033600760006101000a81548173ffffffffffffffffffffffffffffffffffffffff021916908373ffffffffffffffffffffffffffffffffffffffff16021790555080600960006101000a81548173ffffffffffffffffffffffffffffffffffffffff021916908373ffffffffffffffffffffffffffffffffffffffff16021790555042600b819055508160048190555082600290805190602001906200017992919062000184565b505050505062000586565b828054620001929062000550565b90600052602060002090601f016020900481019282620001b6576000855562000202565b82601f10620001d157805160ff191683800117855562000202565b8280016001018555821562000202579182015b8281111562000201578251825591602001919060010190620001e4565b5b50905062000211919062000215565b5090565b5b808211156200023057600081600090555060010162000216565b5090565b6000604051905090565b600080fd5b600080fd5b600080fd5b600080fd5b6000601f19601f8301169050919050565b7f4e487b7100000000000000000000000000000000000000000000000000000000600052604160045260246000fd5b6200029d8262000252565b810181811067ffffffffffffffff82111715620002bf57620002be62000263565b5b80604052505050565b6000620002d462000234565b9050620002e2828262000292565b919050565b600067ffffffffffffffff82111562000305576200030462000263565b5b620003108262000252565b9050602081019050919050565b60005b838110156200033d57808201518184015260208101905062000320565b838111156200034d576000848401525b50505050565b60006200036a6200036484620002e7565b620002c8565b9050828152602081018484840111156200038957620003886200024d565b5b620003968482856200031d565b509392505050565b600082601f830112620003b657620003b562000248565b5b8151620003c884826020860162000353565b91505092915050565b6000819050919050565b620003e681620003d1565b8114620003f257600080fd5b50565b6000815190506200040681620003db565b92915050565b600073ffffffffffffffffffffffffffffffffffffffff82169050919050565b600062000439826200040c565b9050919050565b6200044b816200042c565b81146200045757600080fd5b50565b6000815190506200046b8162000440565b92915050565b600080600080608085870312156200048e576200048d6200023e565b5b600085015167ffffffffffffffff811115620004af57620004ae62000243565b5b620004bd878288016200039e565b945050602085015167ffffffffffffffff811115620004e157620004e062000243565b5b620004ef878288016200039e565b93505060406200050287828801620003f5565b925050606062000515878288016200045a565b91505092959194509250565b7f4e487b7100000000000000000000000000000000000000000000000000000000600052602260045260246000fd5b600060028204905060018216806200056957607f821691505b6020821081141562000580576200057f62000521565b5b50919050565b6119b880620005966000396000f3fe60806040526004361061010d5760003560e01c80637284e41611610095578063ce606ee011610064578063ce606ee014610337578063dd28e14d14610362578063e2395ad814610396578063f6b4dfb4146103bf578063fcd3f196146103ea57610114565b80637284e4161461029f578063853828b6146102ca57806398cfc1a6146102e1578063a035b1fe1461030c57610114565b80634327a9f4116100dc5780634327a9f4146101d75780634a79d50c1461020257806359ff6ba81461022d5780635ad8e8ae1461025857806361dcd7ab1461027457610114565b806305747a1f1461011957806306fdde031461015657806312065fe0146101815780632986c0e5146101ac57610114565b3661011457005b600080fd5b34801561012557600080fd5b50610140600480360381019061013b9190611261565b610413565b60405161014d91906112cf565b60405180910390f35b34801561016257600080fd5b5061016b610452565b6040516101789190611383565b60405180910390f35b34801561018d57600080fd5b506101966104e0565b6040516101a391906113b4565b60405180910390f35b3480156101b857600080fd5b506101c1610521565b6040516101ce91906113b4565b60405180910390f35b3480156101e357600080fd5b506101ec610527565b6040516101f991906112cf565b60405180910390f35b34801561020e57600080fd5b5061021761054d565b6040516102249190611383565b60405180910390f35b34801561023957600080fd5b506102426105db565b60405161024f91906113f0565b60405180910390f35b610272600480360381019061026d9190611437565b610601565b005b34801561028057600080fd5b50610289610838565b60405161029691906113b4565b60405180910390f35b3480156102ab57600080fd5b506102b461083e565b6040516102c19190611383565b60405180910390f35b3480156102d657600080fd5b506102df6108cc565b005b3480156102ed57600080fd5b506102f66108ce565b6040516103039190611383565b60405180910390f35b34801561031857600080fd5b5061032161095c565b60405161032e91906113b4565b60405180910390f35b34801561034357600080fd5b5061034c610962565b60405161035991906112cf565b60405180910390f35b34801561036e57600080fd5b50610377610988565b60405161038d9a99989796959493929190611522565b60405180910390f35b3480156103a257600080fd5b506103bd60048036038101906103b8919061170f565b610c7e565b005b3480156103cb57600080fd5b506103d4610fcf565b6040516103e191906112cf565b60405180910390f35b3480156103f657600080fd5b50610411600480360381019061040c9190611797565b610ff5565b005b6000818154811061042357600080fd5b906000526020600020016000915054906101000a900473ffffffffffffffffffffffffffffffffffffffff1681565b6005805461045f906117f3565b80601f016020809104026020016040519081016040528092919081815260200182805461048b906117f3565b80156104d85780601f106104ad576101008083540402835291602001916104d8565b820191906000526020600020905b8154815290600101906020018083116104bb57829003601f168201915b505050505081565b6000600860009054906101000a900473ffffffffffffffffffffffffffffffffffffffff1673ffffffffffffffffffffffffffffffffffffffff1631905090565b60045481565b600760009054906101000a900473ffffffffffffffffffffffffffffffffffffffff1681565b6001805461055a906117f3565b80601f0160208091040260200160405190810160405280929190818152602001828054610586906117f3565b80156105d35780601f106105a8576101008083540402835291602001916105d3565b820191906000526020600020905b8154815290600101906020018083116105b657829003601f168201915b505050505081565b600a60009054906101000a900473ffffffffffffffffffffffffffffffffffffffff1681565b6040518060400160405280600881526020017f63616e63656c656400000000000000000000000000000000000000000000000081525080519060200120600360405161064d91906118c4565b6040518091039020141561073757600960009054906101000a900473ffffffffffffffffffffffffffffffffffffffff1673ffffffffffffffffffffffffffffffffffffffff168173ffffffffffffffffffffffffffffffffffffffff161415610732578073ffffffffffffffffffffffffffffffffffffffff166108fc600860009054906101000a900473ffffffffffffffffffffffffffffffffffffffff1673ffffffffffffffffffffffffffffffffffffffff16319081150290604051600060405180830381858888f19350505050158015610730573d6000803e3d6000fd5b505b610835565b6040518060400160405280600981526020017f636f6d706c65746564000000000000000000000000000000000000000000000081525080519060200120600360405161078391906118c4565b6040518091039020141561083457600a60009054906101000a900473ffffffffffffffffffffffffffffffffffffffff1673ffffffffffffffffffffffffffffffffffffffff166108fc600860009054906101000a900473ffffffffffffffffffffffffffffffffffffffff1673ffffffffffffffffffffffffffffffffffffffff16319081150290604051600060405180830381858888f19350505050158015610832573d6000803e3d6000fd5b505b5b50565b600b5481565b6002805461084b906117f3565b80601f0160208091040260200160405190810160405280929190818152602001828054610877906117f3565b80156108c45780601f10610899576101008083540402835291602001916108c4565b820191906000526020600020905b8154815290600101906020018083116108a757829003601f168201915b505050505081565b565b600380546108db906117f3565b80601f0160208091040260200160405190810160405280929190818152602001828054610907906117f3565b80156109545780601f1061092957610100808354040283529160200191610954565b820191906000526020600020905b81548152906001019060200180831161093757829003601f168201915b505050505081565b60065481565b600960009054906101000a900473ffffffffffffffffffffffffffffffffffffffff1681565b6060806000806000806000606080600060016003600860009054906101000a900473ffffffffffffffffffffffffffffffffffffffff16600760009054906101000a900473ffffffffffffffffffffffffffffffffffffffff16600960009054906101000a900473ffffffffffffffffffffffffffffffffffffffff16600b5460045460026000600a60009054906101000a900473ffffffffffffffffffffffffffffffffffffffff16898054610a3e906117f3565b80601f0160208091040260200160405190810160405280929190818152602001828054610a6a906117f3565b8015610ab75780601f10610a8c57610100808354040283529160200191610ab7565b820191906000526020600020905b815481529060010190602001808311610a9a57829003601f168201915b50505050509950888054610aca906117f3565b80601f0160208091040260200160405190810160405280929190818152602001828054610af6906117f3565b8015610b435780601f10610b1857610100808354040283529160200191610b43565b820191906000526020600020905b815481529060010190602001808311610b2657829003601f168201915b50505050509850828054610b56906117f3565b80601f0160208091040260200160405190810160405280929190818152602001828054610b82906117f3565b8015610bcf5780601f10610ba457610100808354040283529160200191610bcf565b820191906000526020600020905b815481529060010190602001808311610bb257829003601f168201915b5050505050925081805480602002602001604051908101604052809291908181526020018280548015610c5757602002820191906000526020600020905b8160009054906101000a900473ffffffffffffffffffffffffffffffffffffffff1673ffffffffffffffffffffffffffffffffffffffff1681526020019060010190808311610c0d575b50505050509150995099509950995099509950995099509950995090919293949596979899565b6040518060400160405280600681526020017f61677265656400000000000000000000000000000000000000000000000000008152508051906020012081805190602001201415610d5b576040518060400160405280600681526020017f616772656564000000000000000000000000000000000000000000000000000081525060039080519060200190610d14929190611174565b5081600a60006101000a81548173ffffffffffffffffffffffffffffffffffffffff021916908373ffffffffffffffffffffffffffffffffffffffff160217905550610fcb565b6040518060400160405280600881526020017f70726f67726573730000000000000000000000000000000000000000000000008152508051906020012081805190602001201415610df7576040518060400160405280600881526020017f70726f677265737300000000000000000000000000000000000000000000000081525060039080519060200190610df1929190611174565b50610fca565b6040518060400160405280600681526020017f72657669657700000000000000000000000000000000000000000000000000008152508051906020012081805190602001201415610e93576040518060400160405280600681526020017f726576696577000000000000000000000000000000000000000000000000000081525060039080519060200190610e8d929190611174565b50610fc9565b6040518060400160405280600981526020017f636f6d706c6574656400000000000000000000000000000000000000000000008152508051906020012081805190602001201415610f2f576040518060400160405280600981526020017f636f6d706c65746564000000000000000000000000000000000000000000000081525060039080519060200190610f29929190611174565b50610fc8565b6040518060400160405280600881526020017f63616e63656c65640000000000000000000000000000000000000000000000008152508051906020012081805190602001201415610fc7576040518060400160405280600881526020017f63616e63656c656400000000000000000000000000000000000000000000000081525060039080519060200190610fc5929190611174565b505b5b5b5b5b5050565b600860009054906101000a900473ffffffffffffffffffffffffffffffffffffffff1681565b6000808080549050141561106b576000829080600181540180825580915050600190039060005260206000200160009091909190916101000a81548173ffffffffffffffffffffffffffffffffffffffff021916908373ffffffffffffffffffffffffffffffffffffffff160217905550611170565b60005b600080549050811015611105578273ffffffffffffffffffffffffffffffffffffffff16600082815481106110a6576110a56118db565b5b9060005260206000200160009054906101000a900473ffffffffffffffffffffffffffffffffffffffff1673ffffffffffffffffffffffffffffffffffffffff1614156110f257600191505b80806110fd90611939565b91505061106e565b508061116f576000829080600181540180825580915050600190039060005260206000200160009091909190916101000a81548173ffffffffffffffffffffffffffffffffffffffff021916908373ffffffffffffffffffffffffffffffffffffffff1602179055505b5b5050565b828054611180906117f3565b90600052602060002090601f0160209004810192826111a257600085556111e9565b82601f106111bb57805160ff19168380011785556111e9565b828001600101855582156111e9579182015b828111156111e85782518255916020019190600101906111cd565b5b5090506111f691906111fa565b5090565b5b808211156112135760008160009055506001016111fb565b5090565b6000604051905090565b600080fd5b600080fd5b6000819050919050565b61123e8161122b565b811461124957600080fd5b50565b60008135905061125b81611235565b92915050565b60006020828403121561127757611276611221565b5b60006112858482850161124c565b91505092915050565b600073ffffffffffffffffffffffffffffffffffffffff82169050919050565b60006112b98261128e565b9050919050565b6112c9816112ae565b82525050565b60006020820190506112e460008301846112c0565b92915050565b600081519050919050565b600082825260208201905092915050565b60005b83811015611324578082015181840152602081019050611309565b83811115611333576000848401525b50505050565b6000601f19601f8301169050919050565b6000611355826112ea565b61135f81856112f5565b935061136f818560208601611306565b61137881611339565b840191505092915050565b6000602082019050818103600083015261139d818461134a565b905092915050565b6113ae8161122b565b82525050565b60006020820190506113c960008301846113a5565b92915050565b60006113da8261128e565b9050919050565b6113ea816113cf565b82525050565b600060208201905061140560008301846113e1565b92915050565b611414816113cf565b811461141f57600080fd5b50565b6000813590506114318161140b565b92915050565b60006020828403121561144d5761144c611221565b5b600061145b84828501611422565b91505092915050565b600081519050919050565b600082825260208201905092915050565b6000819050602082019050919050565b611499816112ae565b82525050565b60006114ab8383611490565b60208301905092915050565b6000602082019050919050565b60006114cf82611464565b6114d9818561146f565b93506114e483611480565b8060005b838110156115155781516114fc888261149f565b9750611507836114b7565b9250506001810190506114e8565b5085935050505092915050565b600061014082019050818103600083015261153d818d61134a565b90508181036020830152611551818c61134a565b9050611560604083018b6112c0565b61156d606083018a6112c0565b61157a60808301896112c0565b61158760a08301886113a5565b61159460c08301876113a5565b81810360e08301526115a6818661134a565b90508181036101008301526115bb81856114c4565b90506115cb6101208301846112c0565b9b9a5050505050505050505050565b600080fd5b600080fd5b7f4e487b7100000000000000000000000000000000000000000000000000000000600052604160045260246000fd5b61161c82611339565b810181811067ffffffffffffffff8211171561163b5761163a6115e4565b5b80604052505050565b600061164e611217565b905061165a8282611613565b919050565b600067ffffffffffffffff82111561167a576116796115e4565b5b61168382611339565b9050602081019050919050565b82818337600083830152505050565b60006116b26116ad8461165f565b611644565b9050828152602081018484840111156116ce576116cd6115df565b5b6116d9848285611690565b509392505050565b600082601f8301126116f6576116f56115da565b5b813561170684826020860161169f565b91505092915050565b6000806040838503121561172657611725611221565b5b600061173485828601611422565b925050602083013567ffffffffffffffff81111561175557611754611226565b5b611761858286016116e1565b9150509250929050565b611774816112ae565b811461177f57600080fd5b50565b6000813590506117918161176b565b92915050565b6000602082840312156117ad576117ac611221565b5b60006117bb84828501611782565b91505092915050565b7f4e487b7100000000000000000000000000000000000000000000000000000000600052602260045260246000fd5b6000600282049050600182168061180b57607f821691505b6020821081141561181f5761181e6117c4565b5b50919050565b600081905092915050565b60008190508160005260206000209050919050565b60008154611852816117f3565b61185c8186611825565b945060018216600081146118775760018114611888576118bb565b60ff198316865281860193506118bb565b61189185611830565b60005b838110156118b357815481890152600182019150602081019050611894565b838801955050505b50505092915050565b60006118d08284611845565b915081905092915050565b7f4e487b7100000000000000000000000000000000000000000000000000000000600052603260045260246000fd5b7f4e487b7100000000000000000000000000000000000000000000000000000000600052601160045260246000fd5b60006119448261122b565b91507fffffffffffffffffffffffffffffffffffffffffffffffffffffffffffffffff8214156119775761197661190a565b5b60018201905091905056fea26469706673582212204f1514060d213e6ceaf1890fbe741ce38ff23fe0caf9a0cf2b5cfae4609c501a64736f6c634300080c0033",
  "immutableReferences": {},
  "source": "// SPDX-License-Identifier: MIT\npragma solidity ^0.8.12;\n\ncontract Factory {\n    Job[] public jobArray;\n    // address contractOwner;\n    uint256 public countNew = 0;\n    uint256 countAgreed = 0;\n    uint256 countProgress = 0;\n    uint256 countReview = 0;\n    uint256 countCompleted = 0;\n    uint256 countCanceled = 0;\n    string stateNew = \"new\";\n    string stateAgreed = \"agreed\";\n    string stateProgress = \"progress\";\n    string stateReview = \"review\";\n    string stateCompleted = \"completed\";\n    string stateCanceled = \"canceled\";\n\n    event OneEventForAll(address contractAdr, uint256 index);\n\n    event JobContractCreated(\n        address jobAddress,\n        string title,\n        string description\n    );\n\n    // initial: new, contractor choosed: agreed, work in progress: progress, completed: completed, canceled\n\n    // function indexCalculation(string memory _state) public returns (uint256) {}\n\n    function createJobContract(string memory _title, string memory _description)\n        external\n        payable\n    {\n        Job job = new Job{value: msg.value}(\n            _title,\n            _description,\n            jobArray.length,\n            msg.sender\n        );\n        jobArray.push(job);\n        countNew++;\n        emit JobContractCreated(address(job), _title, _description);\n        emit OneEventForAll(address(job), job.index());\n    }\n\n    // function findJobs(uint256 _myIndex) external view returns (address) {\n    //     return address(jobArray[_myIndex]);\n    // }\n\n    function allJobs() external view returns (Job[] memory _jobs) {\n        _jobs = new Job[](jobArray.length);\n        uint256 count;\n        for (uint256 i = 0; i < jobArray.length; i++) {\n            _jobs[count] = jobArray[i];\n            count++;\n        }\n    }\n\n    // function allJobsNew() external view returns (Job[] memory _jobs) {\n    //     // _jobs = new Job[](jobArray.length - indexCalculation(\"new\"));\n    //     _jobs = new Job[](countNew);\n\n    //     uint256 count;\n    //     for (uint256 i = 0; i < jobArray.length; i++) {\n    //         if (\n    //             keccak256(bytes(jobArray[i].jobState())) ==\n    //             keccak256(bytes(\"new\"))\n    //         ) {\n    //             _jobs[count] = jobArray[i];\n    //             count++;\n    //         }\n    //     }\n    // }\n\n    // function allCompletedJobs() external view returns (Job[] memory _jobs) {\n    //     _jobs = new Job[](countCompleted);\n    //     uint256 count;\n    //     for (uint256 i = 0; i < jobArray.length; i++) {\n    //         if (\n    //             keccak256(bytes(jobArray[i].jobState())) !=\n    //             keccak256(bytes(\"completed\"))\n    //         ) {\n    //             _jobs[count] = jobArray[i];\n    //             count++;\n    //         }\n    //     }\n    // }\n\n    function jobParticipate(Job job) external {\n        jobArray[job.index()].jobParticipate(msg.sender);\n        emit OneEventForAll(address(job), job.index());\n    }\n\n    function jobStateChange(\n        Job job,\n        address payable _participantAddress,\n        string memory _state\n    ) external {\n        jobArray[job.index()].jobStateChange(_participantAddress, _state);\n\n        // if (keccak256(bytes(_state)) == keccak256(bytes(\"agreed\"))) {\n        //     countAgreed++;\n        // } else if (keccak256(bytes(_state)) == keccak256(bytes(\"progress\"))) {\n        //     countProgress++;\n        // } else if (keccak256(bytes(_state)) == keccak256(bytes(\"review\"))) {\n        //     countReview++;\n        // } else if (keccak256(bytes(_state)) == keccak256(bytes(\"completed\"))) {\n        //     countCompleted++;\n        // } else if (keccak256(bytes(_state)) == keccak256(bytes(\"canceled\"))) {\n        //     countCanceled++;\n        // }\n\n        emit OneEventForAll(address(job), job.index());\n    }\n\n    // function jobReview(Job job, address _participantAddress) external {\n    //     jobArray[job.index()].jobReview(_participantAddress);\n    //     countProgress++;\n    // }\n\n    // function jobConfimation(Job job, address _participantAddress) external {\n    //     jobArray[job.index()].jobConfimation(_participantAddress);\n    //     countReview++;\n    // }\n\n    function transferToaddress(Job job, address payable addressToSend)\n        external\n        payable\n    {\n        // addressToSend.transfer(0.5 ether);\n        jobArray[job.index()].transferToaddress(addressToSend);\n        emit OneEventForAll(address(job), job.index());\n    }\n\n    // function jobCanceled(Job job) external {\n    //     jobArray[job.index()].jobCanceled();\n    //     countCanceled++;\n    // }\n\n    // function getContractAdr(uint256 _classIndex)\n    //     external\n    //     view\n    //     returns (address)\n    // {\n    //     Job _retBal = Job(payable(address(jobArray[_classIndex])));\n    //     return _retBal.returnContractAddress();\n    // }\n\n    function getBalance(uint256 _classIndex) external view returns (uint256) {\n        Job _retBal = Job(payable(address(jobArray[_classIndex])));\n        return _retBal.getBalance();\n    }\n\n    // function thisContract() external view returns (address) {\n    //     address thisConr = address(this);\n    //     return thisConr;\n    // }\n\n    function getJobInfo(uint256 _classIndex)\n        external\n        view\n        returns (\n            string memory,\n            string memory,\n            address,\n            address,\n            address,\n            uint256,\n            uint256,\n            string memory,\n            address[] memory,\n            address\n        )\n    {\n        Job _retBal = Job(payable(address(jobArray[_classIndex])));\n        return _retBal.getJob();\n    }\n\n    // receive() external payable {}\n}\n\ncontract Job {\n    address[] public Participants;\n    // uint256 public data;\n    string public title;\n    string public description;\n    string public jobState;\n    uint256 public index;\n\n    string public name;\n    uint256 public price;\n    address public contractParent;\n    address public contractAddress;\n    address public contractOwner;\n    address payable public participantAddress;\n    uint256 public createTime;\n\n    // uint256 public balance;\n\n    // struct jobStructData {\n    //     uint256 data;\n    //     bool jobState;\n    //     address contractAddress;\n    //     address contractParent;\n    //     uint256 createTime;\n    //     uint256 index;\n    // }\n\n    // jobStructData public myStruct;\n\n    constructor(\n        string memory _title,\n        string memory _description,\n        uint256 _index,\n        address _contractOwner\n    ) payable {\n        // data = _data;\n        title = _title;\n        jobState = \"new\";\n        contractAddress = address(this);\n        contractParent = msg.sender;\n        contractOwner = _contractOwner;\n        createTime = block.timestamp;\n        index = _index;\n        description = _description;\n        // balance = contractAddress.balance;\n        // createJob(_content, _index);\n        // myStruct = jobStructData(\n        //     _data,\n        //     true,\n        //     address(this),\n        //     msg.sender,\n        //     block.timestamp,\n        //     _index\n        // );\n    }\n\n    // event OneEventForAll2(address contractAdr);\n\n    // function createJob(string memory _content, uint256 _index) public {\n    //     jobStructDataArray.push();\n\n    //     jobStructData(\n    //         _content,\n    //         true,\n    //         address(this),\n    //         msg.sender,\n    //         block.timestamp\n    //     );\n    //     emit jobCreated(_content, _index);\n    // }\n\n    function getJob()\n        public\n        view\n        returns (\n            string memory _content,\n            string memory _jobState,\n            address _contractAddress,\n            address _contractParent,\n            address _contractOwner,\n            uint256 _createTime,\n            uint256 _index,\n            string memory _description,\n            address[] memory _participants,\n            address _participantAddress\n        )\n    {\n        return (\n            title,\n            jobState,\n            contractAddress,\n            contractParent,\n            contractOwner,\n            createTime,\n            index,\n            description,\n            Participants,\n            participantAddress\n        );\n    }\n\n    function withdrawAll() external {\n        // jobState = true;\n    }\n\n    // function getContractInfo() public view returns (uint256) {\n    //     return contractAddress.balance;\n    // }\n\n    function getBalance() public view returns (uint256) {\n        return contractAddress.balance;\n    }\n\n    function transferToaddress(address payable _addressToSend) public payable {\n        if (keccak256(bytes(jobState)) == keccak256(bytes(\"canceled\"))) {\n            if (_addressToSend == contractOwner) {\n                _addressToSend.transfer(contractAddress.balance);\n            }\n        } else if (\n            keccak256(bytes(jobState)) == keccak256(bytes(\"completed\"))\n        ) {\n            participantAddress.transfer(contractAddress.balance);\n        }\n        // msg.sender.transfer(address(this).balance);\n    }\n\n    function jobParticipate(address _participantAddress) external {\n        bool existed = false;\n        if (Participants.length == 0) {\n            Participants.push(_participantAddress);\n        } else {\n            for (uint256 i = 0; i < Participants.length; i++) {\n                if (Participants[i] == _participantAddress) {\n                    existed = true;\n                }\n            }\n            if (!existed) {\n                Participants.push(_participantAddress);\n            }\n        }\n        // emit OneEventForAll2(contractAddress);\n    }\n\n    function jobStateChange(\n        address payable _participantAddress,\n        string memory _state\n    ) external {\n        if (keccak256(bytes(_state)) == keccak256(bytes(\"agreed\"))) {\n            jobState = \"agreed\";\n            participantAddress = _participantAddress;\n        } else if (keccak256(bytes(_state)) == keccak256(bytes(\"progress\"))) {\n            jobState = \"progress\";\n        } else if (keccak256(bytes(_state)) == keccak256(bytes(\"review\"))) {\n            jobState = \"review\";\n        } else if (keccak256(bytes(_state)) == keccak256(bytes(\"completed\"))) {\n            jobState = \"completed\";\n        } else if (keccak256(bytes(_state)) == keccak256(bytes(\"canceled\"))) {\n            jobState = \"canceled\";\n        }\n\n        // emit OneEventForAll2(contractAddress);\n    }\n\n    // function jobReview(address _participantAddress) external {\n    //     if (participantAddress == _participantAddress) {\n    //         jobState = \"review\";\n    //     }\n    // }\n\n    // function jobParticiantAgreed(address _participantAddress) external {\n    //     jobState = \"agreed\";\n    //     participantAddress = _participantAddress;\n\n    //     // for (uint256 i = 0; i < Participants.length; i++) {\n    //     //     if (Participants[i] == _participantAddress) {\n    //     //         jobState = \"agreed\";\n    //     //         participantAddress = _participantAddress;\n    //     //     }\n    //     // }\n    // }\n\n    // function jobInProgress() external {\n    //     jobState = \"progress\";\n    // }\n\n    // function jobCompleted() external {\n    //     jobState = \"completed\";\n    // }\n\n    // function jobCanceled() external {\n    //     jobState = \"canceled\";\n    // }\n\n    receive() external payable {}\n\n    // fallback () external payable    {\n\n    // }\n\n    // constructor(string memory _name, address _owner) {\n    //     name = _name;\n    //     owner = _owner;\n    // }\n}\n",
  "sourcePath": "/home/matt/Documents/programming/devopsdao_flow/contracts/Factory.sol",
  "compiler": {
    "name": "solc",
    "version": "0.8.12+commit.f00d7308.Emscripten.clang"
  },
  "schemaVersion": "3.4.6",
  "updatedAt": "2022-07-15T15:17:43.263Z",
  "devdoc": {
    "kind": "dev",
    "methods": {},
    "version": 1
  },
  "userdoc": {
    "kind": "user",
    "methods": {},
    "version": 1
  }
}