{
  "contractName": "Job",
  "abi": [
    {
      "inputs": [
        {
          "internalType": "string",
          "name": "_nanoId",
          "type": "string"
        },
        {
          "internalType": "string",
          "name": "_title",
          "type": "string"
        },
        {
          "internalType": "string",
          "name": "_description",
          "type": "string"
        },
        {
          "internalType": "string",
          "name": "_symbol",
          "type": "string"
        },
        {
          "internalType": "uint256",
          "name": "_index",
          "type": "uint256"
        },
        {
          "internalType": "address",
          "name": "_contractOwner",
          "type": "address"
        }
      ],
      "stateMutability": "payable",
      "type": "constructor"
    },
    {
      "inputs": [
        {
          "internalType": "string",
          "name": "message",
          "type": "string"
        }
      ],
      "name": "RevertReason",
      "type": "error"
    },
    {
      "anonymous": false,
      "inputs": [
        {
          "indexed": false,
          "internalType": "address",
          "name": "contractAdr",
          "type": "address"
        },
        {
          "indexed": false,
          "internalType": "string",
          "name": "message",
          "type": "string"
        }
      ],
      "name": "Logs",
      "type": "event"
    },
    {
      "anonymous": false,
      "inputs": [
        {
          "indexed": false,
          "internalType": "address",
          "name": "contractAdr",
          "type": "address"
        },
        {
          "indexed": false,
          "internalType": "string",
          "name": "message",
          "type": "string"
        },
        {
          "indexed": false,
          "internalType": "uint256",
          "name": "value",
          "type": "uint256"
        }
      ],
      "name": "LogsValue",
      "type": "event"
    },
    {
      "inputs": [
        {
          "internalType": "uint256",
          "name": "",
          "type": "uint256"
        }
      ],
      "name": "AuditParticipants",
      "outputs": [
        {
          "internalType": "address",
          "name": "",
          "type": "address"
        }
      ],
      "stateMutability": "view",
      "type": "function"
    },
    {
      "inputs": [
        {
          "internalType": "uint256",
          "name": "",
          "type": "uint256"
        }
      ],
      "name": "Participants",
      "outputs": [
        {
          "internalType": "address",
          "name": "",
          "type": "address"
        }
      ],
      "stateMutability": "view",
      "type": "function"
    },
    {
      "inputs": [
        {
          "internalType": "uint256",
          "name": "",
          "type": "uint256"
        }
      ],
      "name": "_destinationAddresses",
      "outputs": [
        {
          "internalType": "address",
          "name": "",
          "type": "address"
        }
      ],
      "stateMutability": "view",
      "type": "function"
    },
    {
      "inputs": [],
      "name": "auditInitiator",
      "outputs": [
        {
          "internalType": "address",
          "name": "",
          "type": "address"
        }
      ],
      "stateMutability": "view",
      "type": "function"
    },
    {
      "inputs": [],
      "name": "auditState",
      "outputs": [
        {
          "internalType": "string",
          "name": "",
          "type": "string"
        }
      ],
      "stateMutability": "view",
      "type": "function"
    },
    {
      "inputs": [],
      "name": "auditorAddress",
      "outputs": [
        {
          "internalType": "address",
          "name": "",
          "type": "address"
        }
      ],
      "stateMutability": "view",
      "type": "function"
    },
    {
      "inputs": [],
      "name": "contractAddress",
      "outputs": [
        {
          "internalType": "address",
          "name": "",
          "type": "address"
        }
      ],
      "stateMutability": "view",
      "type": "function"
    },
    {
      "inputs": [],
      "name": "contractOwner",
      "outputs": [
        {
          "internalType": "address",
          "name": "",
          "type": "address"
        }
      ],
      "stateMutability": "view",
      "type": "function"
    },
    {
      "inputs": [],
      "name": "contractParent",
      "outputs": [
        {
          "internalType": "address",
          "name": "",
          "type": "address"
        }
      ],
      "stateMutability": "view",
      "type": "function"
    },
    {
      "inputs": [],
      "name": "createTime",
      "outputs": [
        {
          "internalType": "uint256",
          "name": "",
          "type": "uint256"
        }
      ],
      "stateMutability": "view",
      "type": "function"
    },
    {
      "inputs": [],
      "name": "description",
      "outputs": [
        {
          "internalType": "string",
          "name": "",
          "type": "string"
        }
      ],
      "stateMutability": "view",
      "type": "function"
    },
    {
      "inputs": [],
      "name": "gateway",
      "outputs": [
        {
          "internalType": "contract IAxelarGateway",
          "name": "",
          "type": "address"
        }
      ],
      "stateMutability": "view",
      "type": "function"
    },
    {
      "inputs": [],
      "name": "index",
      "outputs": [
        {
          "internalType": "uint256",
          "name": "",
          "type": "uint256"
        }
      ],
      "stateMutability": "view",
      "type": "function"
    },
    {
      "inputs": [],
      "name": "jobState",
      "outputs": [
        {
          "internalType": "string",
          "name": "",
          "type": "string"
        }
      ],
      "stateMutability": "view",
      "type": "function"
    },
    {
      "inputs": [],
      "name": "name",
      "outputs": [
        {
          "internalType": "string",
          "name": "",
          "type": "string"
        }
      ],
      "stateMutability": "view",
      "type": "function"
    },
    {
      "inputs": [],
      "name": "nanoId",
      "outputs": [
        {
          "internalType": "string",
          "name": "",
          "type": "string"
        }
      ],
      "stateMutability": "view",
      "type": "function"
    },
    {
      "inputs": [],
      "name": "participantAddress",
      "outputs": [
        {
          "internalType": "address payable",
          "name": "",
          "type": "address"
        }
      ],
      "stateMutability": "view",
      "type": "function"
    },
    {
      "inputs": [],
      "name": "price",
      "outputs": [
        {
          "internalType": "uint256",
          "name": "",
          "type": "uint256"
        }
      ],
      "stateMutability": "view",
      "type": "function"
    },
    {
      "inputs": [],
      "name": "symbol",
      "outputs": [
        {
          "internalType": "string",
          "name": "",
          "type": "string"
        }
      ],
      "stateMutability": "view",
      "type": "function"
    },
    {
      "inputs": [],
      "name": "title",
      "outputs": [
        {
          "internalType": "string",
          "name": "",
          "type": "string"
        }
      ],
      "stateMutability": "view",
      "type": "function"
    },
    {
      "stateMutability": "payable",
      "type": "receive"
    },
    {
      "inputs": [],
      "name": "getJob",
      "outputs": [
        {
          "internalType": "string",
          "name": "_content",
          "type": "string"
        },
        {
          "internalType": "string",
          "name": "_jobState",
          "type": "string"
        },
        {
          "internalType": "address",
          "name": "_contractAddress",
          "type": "address"
        },
        {
          "internalType": "address",
          "name": "_contractParent",
          "type": "address"
        },
        {
          "internalType": "address",
          "name": "_contractOwner",
          "type": "address"
        },
        {
          "internalType": "uint256",
          "name": "_createTime",
          "type": "uint256"
        },
        {
          "internalType": "uint256",
          "name": "_index",
          "type": "uint256"
        },
        {
          "internalType": "string",
          "name": "_description",
          "type": "string"
        },
        {
          "internalType": "address[]",
          "name": "_participants",
          "type": "address[]"
        },
        {
          "internalType": "address",
          "name": "_participantAddress",
          "type": "address"
        },
        {
          "internalType": "string",
          "name": "_symbol",
          "type": "string"
        },
        {
          "internalType": "string",
          "name": "_nanoId",
          "type": "string"
        },
        {
          "internalType": "uint256",
          "name": "_rating",
          "type": "uint256"
        },
        {
          "internalType": "address[]",
          "name": "_auditParticipants",
          "type": "address[]"
        },
        {
          "internalType": "string",
          "name": "_auditState",
          "type": "string"
        },
        {
          "internalType": "address",
          "name": "_auditorAddress",
          "type": "address"
        }
      ],
      "stateMutability": "view",
      "type": "function"
    },
    {
      "inputs": [],
      "name": "withdrawAll",
      "outputs": [],
      "stateMutability": "nonpayable",
      "type": "function"
    },
    {
      "inputs": [],
      "name": "getBalance",
      "outputs": [
        {
          "internalType": "uint256",
          "name": "",
          "type": "uint256"
        }
      ],
      "stateMutability": "view",
      "type": "function"
    },
    {
      "inputs": [
        {
          "internalType": "address payable",
          "name": "_addressToSend",
          "type": "address"
        }
      ],
      "name": "transferToaddress",
      "outputs": [],
      "stateMutability": "payable",
      "type": "function"
    },
    {
      "inputs": [
        {
          "internalType": "address",
          "name": "address_",
          "type": "address"
        }
      ],
      "name": "addressToString",
      "outputs": [
        {
          "internalType": "string",
          "name": "",
          "type": "string"
        }
      ],
      "stateMutability": "pure",
      "type": "function"
    },
    {
      "inputs": [
        {
          "internalType": "address payable",
          "name": "_addressToSend",
          "type": "address"
        },
        {
          "internalType": "string",
          "name": "chain",
          "type": "string"
        }
      ],
      "name": "transferToaddressChain2",
      "outputs": [],
      "stateMutability": "payable",
      "type": "function"
    },
    {
      "inputs": [
        {
          "internalType": "address",
          "name": "_participantAddress",
          "type": "address"
        }
      ],
      "name": "jobParticipate",
      "outputs": [],
      "stateMutability": "nonpayable",
      "type": "function"
    },
    {
      "inputs": [
        {
          "internalType": "address",
          "name": "_auditParticipantAddress",
          "type": "address"
        }
      ],
      "name": "jobAuditParticipate",
      "outputs": [],
      "stateMutability": "nonpayable",
      "type": "function"
    },
    {
      "inputs": [
        {
          "internalType": "uint256",
          "name": "_score",
          "type": "uint256"
        },
        {
          "internalType": "address",
          "name": "_applicant",
          "type": "address"
        }
      ],
      "name": "jobRate",
      "outputs": [],
      "stateMutability": "nonpayable",
      "type": "function"
    },
    {
      "inputs": [
        {
          "internalType": "address payable",
          "name": "_participantAddress",
          "type": "address"
        },
        {
          "internalType": "string",
          "name": "_state",
          "type": "string"
        },
        {
          "internalType": "address",
          "name": "_initiatorAddress",
          "type": "address"
        }
      ],
      "name": "jobStateChange",
      "outputs": [],
      "stateMutability": "nonpayable",
      "type": "function"
    },
    {
      "inputs": [
        {
          "internalType": "string",
          "name": "_favour",
          "type": "string"
        }
      ],
      "name": "jobAuditDecision",
      "outputs": [],
      "stateMutability": "nonpayable",
      "type": "function"
    }
  ],
  "bytecode": "0x60a060405262003864803803806200001781620005a7565b92833981019060c081830312620005a25780516001600160401b039190828111620005a257836200004a918301620005e3565b60209384830151848111620005a2578162000067918501620005e3565b926040810151858111620005a2578262000083918301620005e3565b91606082015190868211620005a2576200009f918301620005e3565b608082015160a09092015190926001600160a01b03821691829003620005a257600092836011558551888111620004e45780620000de60025462000655565b97601f988c8a821162000570575b50508b9089831160011462000504578792620004f8575b50508160011b916000199060031b1c1916176002555b8651888111620004e45780600398620001338a5462000655565b8c8a8211620004a8575b50508b908983116001146200043f57879262000433575b50508160011b91600019908a1b1c19161787555b60059262000177845462000655565b87811162000414575b506006626e657760e81b01845560018060a01b03193081600a541617600a5533816009541617600955600b541617600b5542600d556006558051878111620004005780600492620001d2845462000655565b8b898211620003c6575b50508a908883116001146200035f57869262000353575b50508160011b9160001990891b1c19161781555b83519687116200034057506200021f600f5462000655565b84811162000304575b5050859285116001146200029857849550936200028c575b50508260011b92600019911b1c191617600f555b735769d84dd62a6fd969856c75c7d321b84d4559296080526040516131b89081620006ac82396080518181816119330152611b2e0152f35b01519150388062000240565b929190601f19851695600f855280852094905b878210620002eb5750508460019610620002d0575b50505050811b01600f5562000254565b01519060f884600019921b161c1916905538808080620002c0565b80600185978294968601518155019601930190620002ab565b6200032e91600f84528884209086808a01821c8301938b8b1062000336575b01901c019062000692565b388062000228565b9350829362000323565b634e487b7160e01b835260419052602482fd5b015190503880620001f3565b8487528b87209250601f198416875b8d828210620003af57505090846001959493921062000396575b505050811b01815562000207565b0151600019838b1b60f8161c1916905538808062000388565b60018596829396860151815501950193016200036e565b620003ee918689528a828a20918187018a1c8301938710620003f6575b01881c019062000692565b388b620001dc565b92508192620003e3565b634e487b7160e01b84526041600452602484fd5b8486528a86206200042c918901861c81019062000692565b3862000180565b01519050388062000154565b8a88528c88209250601f198416888e5b8282106200048f57505090846001959493921062000476575b505050811b01875562000168565b0151600019838c1b60f8161c1916905538808062000468565b806001869782949787015181550196019401906200044f565b620004d2918c8a528b828b209181870160051c8301938710620004da575b0160051c019062000692565b388c6200013d565b92508192620004c6565b634e487b7160e01b85526041600452602485fd5b01519050388062000103565b600288528c88209250601f198416888e5b828210620005575750509084600195949392106200053d575b505050811b0160025562000119565b015160001960f88460031b161c191690553880806200052e565b8060018697829497870151815501960194019062000515565b6200059a9160028a528b828b209181870160051c8301938710620004da570160051c019062000692565b388c620000ec565b600080fd5b6040519190601f01601f191682016001600160401b03811183821017620005cd57604052565b634e487b7160e01b600052604160045260246000fd5b919080601f84011215620005a25782516001600160401b038111620005cd5760209062000619601f8201601f19168301620005a7565b92818452828287010111620005a25760005b8181106200064157508260009394955001015290565b85810183015184820184015282016200062b565b90600182811c9216801562000687575b60208310146200067157565b634e487b7160e01b600052602260045260246000fd5b91607f169162000665565b8181106200069e575050565b600081556001016200069256fe60c0604052600436101561001b575b361561001957600080fd5b005b6000803560e01c8062bc30f914611a4b57806305747a1f14611a0857806306fdde0314611962578063116191b61461191d57806312065fe0146118f357806328d963bf1461185f5780632986c0e5146118415780634327a9f4146118185780634a79d50c146117725780634c9bb88a1461171657806354ddcc3a1461167057806359ff6ba8146116475780635ad8e8ae146115555780635e57966d1461137e57806361dcd7ab146113605780637284e416146112ba57806378951a51146112915780638398eff8146111f9578063853828b6146111e55780638f654175146111bc57806395d89b411461112857806398cfc1a6146110425780639c36c30514610e2b578063a035b1fe14610e0d578063bed5572f14610dad578063ce606ee014610d84578063dcd521f314610ce4578063dd28e14d1461087e578063e3b02b3114610236578063f6b4dfb41461020d5763fcd3f1961461017b575061000e565b3461020a57602036600319011261020a576101946127ee565b81825480156000146101ae5750506101ab90612f07565b80f35b6001600160a01b0383811690855b8381106101da5750505050156101d1575b5080f35b6101ab90612f07565b82826101e5836128b9565b90549060031b1c1614610201575b6101fc90612c51565b6101bc565b600194506101f3565b80fd5b503461020a578060031936011261020a57600a546040516001600160a01b039091168152602090f35b503461020a57606036600319011261020a576102506127ee565b60243567ffffffffffffffff811161087a57610270903690600401612872565b6001600160a01b03906044358281169081900361087557600b54831681148080610850575b80610833575b156102de57505050906102b76102b260055461293a565b6130a8565b600c651859dc99595960d21b01600555166001600160601b0360a01b600c541617600c5580f35b600c548416821490818061080e575b806107f1575b156103215750505050505061030c6102b260055461293a565b60106770726f677265737360c01b0160055580f35b81806107cc575b806107af575b1561035a575050505050506103476102b260055461293a565b600c6572657669657760d01b0160055580f35b808061078a575b8061076d575b15610396575050505050506103806102b260055461293a565b60126818dbdb5c1b195d195960ba1b0160055580f35b61039e612974565b9384516020809601206103af612fbe565b8681519101201480610766575b8061074b575b156103f157505050505050506103dc6102b260055461293a565b60106718d85b98d95b195960c21b0160055580f35b8481519101206103ff613045565b85815191012014610414575b50505050505080f35b806106db575b15610656575061042e6102b260055461293a565b600a64185d591a5d60da1b01600555601280546001600160a01b031916821790556013546104649061045f9061293a565b613066565b6012681c995c5d595cdd195960ba1b016013555b82600b5416149081610631575b81610545575b508061053a575b6104a0575b8080808061040b565b908116825b6001548110156105325781836104ba83612903565b90549060031b1c16146104d5576104d090612c51565b6104a5565b50905060056104e76102b2825461293a565b600a64185d591a5d60da1b0190556014906001600160601b0360a01b82541617815560139061051961045f835461293a565b69706572666f726d696e6760b01b0190555b3880610497565b50505061052b565b506001541515610492565b60405160135491925060006105598361293a565b8083528483019360019081811690811561061557506001146105d2575b505091816105b5681c995c5d595cdd195960ba1b937fc8cb8d7e4d3c37d5d6f029af5d593d4c94ed80d2ac3c01b0bec1f7887c7464e096950382612834565b519020916040516105c581612818565b600981520152143861048b565b6013600090815292506000805160206131238339815191525b8284106106025750505081018301816105b5610576565b80548585018801529286019281016105eb565b60ff191686525050151560051b820184019050816105b5610576565b905061063b612974565b818151910120610649613045565b8281519101201490610485565b806106b8575b156104785761066f6102b260055461293a565b600a64185d591a5d60da1b01600555601280546001600160a01b031916821790556013546106a09061045f9061293a565b6012681c995c5d595cdd195960ba1b01601355610478565b506106c1612974565b8281519101206106cf613023565b8381519101201461065c565b506106e4612974565b8381519101206106f2612fdd565b848151910120148015610728575b8061041a575061070e612974565b83815191012061071c613023565b8481519101201461041a565b50610731612974565b83815191012061073f612fff565b84815191012014610700565b5080518582012061075a612bc5565b868151910120146103c2565b50816103bc565b508351602085012061077d612be9565b6020815191012014610367565b50610793612974565b602081519101206107a2613023565b6020815191012014610361565b50835160208501206107bf613023565b602081519101201461032e565b506107d5612974565b602081519101206107e4612fff565b6020815191012014610328565b5083516020850120610801612fff565b60208151910120146102f3565b50610817612974565b60208151910120610826612fdd565b60208151910120146102ed565b5082516020840120610843612fdd565b602081519101201461029b565b50610859612974565b60208151910120610868612fbe565b6020815191012014610295565b600080fd5b8280fd5b503461020a578060031936011261020a57600a54600954600b54600d54600654600c546011546014546040516003546001600160a01b0392831699919893979596938316959483169483169392909116908860006108db8361293a565b8083529260018116908115610cc55750600114610c65575b6108ff92500389612834565b610907612974565b95604051926000846004549161091c8361293a565b8083529260018116908115610c465750600114610be5575b61094092500385612834565b60405194858660206000549283815201600080527f290decd9548b62a8d60345a988386fc84ba6bc95484008f6362f93160ef3e5639260005b818110610bc357505061098e92500387612834565b610996612a32565b976040519960008b600254916109ab8361293a565b8083529260018116908115610ba45750600114610b44575b6109cf9250038c612834565b6040518060a052602060015491828152019060016000527fb10e2d527612073b26eecdfd717e6a320cf44b4afac2b0732d9fcbe2b7fa0cf69060005b818110610b2557505060a051610a25928190039150612834565b610a2d612ab9565b9c6040518060805261020080915260805101610a4891612b63565b6080518082039060200152610a5c91612b63565b9460805160400152608051606001526080516080015260805160a0015260805160c001526080518082039060e00152610a9491612b63565b608051808203906101000152610aa991612b88565b906080516101200152608051808203906101400152610ac791612b63565b608051808203906101600152610adc91612b63565b906080516101800152608051808203906101a0015260a05190610afe91612b88565b608051808203906101c00152610b1391612b63565b906080516101e0015260805180910390f35b82546001600160a01b0316845260209093019260019283019201610a0b565b509060026000527f405787fa12a823e0f2b7631cc41b3ba8828b3321ca811111fa75cd3aa3bb5ace906000915b818310610b895750509060206109cf928201016109c3565b80602092948385600194549201015201910190918d92610b71565b602092506109cf94915060ff191682840152151560051b8201016109c3565b84546001600160a01b031683526001948501948b945060209093019201610979565b509060046000527f8a35acfbc15ff81a39ae7d344fd709f28e8600b4aa8c65c6b64bfe7fe36bd19b906000915b818310610c2a57505090602061094092820101610934565b6020919350806001915483858b01015201910190918692610c12565b6020925061094094915060ff191682840152151560051b820101610934565b509060036000527fc2575a0e9e593c00f959f8c92f12db2869c3395a3b0502d05e2516446f71f85b906000915b818310610caa5750509060206108ff928201016108f3565b80602092948385600194549201015201910190918a92610c92565b602092506108ff94915060ff191682840152151560051b8201016108f3565b503461020a57604036600319011261020a576004356001600160a01b036024358181169081900361087557601154159182610d7a575b82610d6e575b82610d47575b82610d39575b5050156101cd5760115580f35b600b54161490503880610d2c565b9150610d51612974565b60208151910120610d60612be9565b602081519101201491610d26565b60058411159250610d20565b8315159250610d1a565b503461020a578060031936011261020a57600b546040516001600160a01b039091168152602090f35b503461020a57602036600319011261020a57600435600e54811015610e0957600e6000527fbb7b4a454dc3493923482f07822329ed19e8244eff582cc204f8554c3620c3fd01546040516001600160a01b039091168152602090f35b5080fd5b503461020a578060031936011261020a576020600854604051908152f35b503461020a57602080600319360112610e095760043567ffffffffffffffff811161087a57610e5e903690600401612872565b9060018060a01b03806014541633148061101f575b80610ffc575b80610faf575b610f6f575b6014541633149182610f4a575b82610f25575b82610ed4575b5050610ea65780f35b610eb461045f60135461293a565b601067199a5b9a5cda195960c21b016013556103806102b260055461293a565b7f394203cb794be55266098011167c87501ca7d1c0037fda6b0c7f871562bc730392508082673832b93337b6b2b960c11b925191012091604051610f1781612818565b600881520152143880610e9d565b9150610f2f612ab9565b818151910120610f3d6130fc565b8281519101201491610e97565b9150610f54612974565b818151910120610f62613045565b8281519101201491610e91565b610f7d61045f60135461293a565b601067636f6d706c65746560c01b01601355610f9d6102b260055461293a565b6006626e657760e81b01600555610e84565b507fff92fcfc643524468d06f3b1b0009c6839aa65507d92d305e79e5586a18dcb728351838501206731bab9ba37b6b2b960c11b84604051610ff081612818565b60088152015214610e7f565b50611005612ab9565b8281519101206110136130fc565b83815191012014610e79565b50611028612974565b828151910120611036613045565b83815191012014610e73565b503461020a578060031936011261020a5760405160006005546110648161293a565b8084529060019081811690811561110157506001146110a6575b6110a28461108e81860382612834565b604051918291602083526020830190612b63565b0390f35b6005600090815292507f036b6384b5eca791c62761152d0c79bb0604c104a5fb6f4eb0703f3154bb3db05b8284106110e957505050810160200161108e8261107e565b805460208587018101919091529093019281016110d1565b60ff191660208087019190915292151560051b8501909201925061108e915083905061107e565b503461020a578060031936011261020a576040516000600f5461114a8161293a565b808452906001908181169081156111015750600114611173576110a28461108e81860382612834565b600f600090815292506000805160206131638339815191525b8284106111a457505050810160200161108e8261107e565b8054602085870181019190915290930192810161118c565b503461020a578060031936011261020a576014546040516001600160a01b039091168152602090f35b503461020a578060031936011261020a5780f35b503461020a57602036600319011261020a576112136127ee565b81600180541560001461122b5750506101ab90612ec5565b8354906001600160a01b0384811690865b84811061125b575b505050505015611252575080f35b6101ab90612ec5565b828261126683612903565b90549060031b1c16146112815761127c90612c51565b61123c565b5050509150503880808080611244565b503461020a578060031936011261020a576012546040516001600160a01b039091168152602090f35b503461020a578060031936011261020a5760405160006004546112dc8161293a565b808452906001908181169081156111015750600114611305576110a28461108e81860382612834565b6004600090815292507f8a35acfbc15ff81a39ae7d344fd709f28e8600b4aa8c65c6b64bfe7fe36bd19b5b82841061134857505050810160200161108e8261107e565b80546020858701810191909152909301928101611330565b503461020a578060031936011261020a576020600d54604051908152f35b503461020a57602080600319360112610e09576113996127ee565b91604051926001600160601b03199060601b1682840152601483526113bd83612818565b6040516113c981612818565b601081526f181899199a1a9b1b9c1cb0b131b232b360811b83820152835160019181831b6002928082048414901517156115415782018083116115415761140f90612c0e565b9586511561152d57603086880153865184101561152d576078602188015384845b611448575b604051878152806110a2818a018b612b63565b8151811015611528576001600160f81b0319806114726114688486612c40565b5160fc1c86612c40565b51169082871b9183830487148415171561151457828701908188116115005761149e908a1a918c612c40565b536114b9600f6114ae8587612c40565b5160f81c1686612c40565b511660039182018092116114ec57916114e3916114dd88979695948a1a918c612c40565b53612c51565b90919293611430565b634e487b7160e01b88526011600452602488fd5b634e487b7160e01b8a52601160045260248afd5b634e487b7160e01b89526011600452602489fd5b611435565b634e487b7160e01b85526032600452602485fd5b634e487b7160e01b85526011600452602485fd5b50602036600319011261020a578061156b6127ee565b611573612974565b60208151910120611582612bc5565b60208151910120146000146115e657600b546001600160a01b0391821690821681146115af575b50505080f35b828092918192600a541631908282156115dd575bf1156115d1578038806115a9565b604051903d90823e3d90fd5b506108fc6115c3565b50506115f0612974565b602081519101206115ff612be9565b602081519101201461160e5780f35b8080808060018060a01b0380600c541690600a5416319082821561163e575bf16101ab57604051903d90823e3d90fd5b506108fc61162d565b503461020a578060031936011261020a57600c546040516001600160a01b039091168152602090f35b503461020a578060031936011261020a5760405160006002546116928161293a565b8084529060019081811690811561110157506001146116bb576110a28461108e81860382612834565b6002600090815292507f405787fa12a823e0f2b7631cc41b3ba8828b3321ca811111fa75cd3aa3bb5ace5b8284106116fe57505050810160200161108e8261107e565b805460208587018101919091529093019281016116e6565b503461020a57602036600319011261020a57600435600154811015610e095760016000527fb10e2d527612073b26eecdfd717e6a320cf44b4afac2b0732d9fcbe2b7fa0cf601546040516001600160a01b039091168152602090f35b503461020a578060031936011261020a5760405160006003546117948161293a565b8084529060019081811690811561110157506001146117bd576110a28461108e81860382612834565b6003600090815292507fc2575a0e9e593c00f959f8c92f12db2869c3395a3b0502d05e2516446f71f85b5b82841061180057505050810160200161108e8261107e565b805460208587018101919091529093019281016117e8565b503461020a578060031936011261020a576009546040516001600160a01b039091168152602090f35b503461020a578060031936011261020a576020600654604051908152f35b503461020a578060031936011261020a5760405160006013546118818161293a565b8084529060019081811690811561110157506001146118aa576110a28461108e81860382612834565b6013600090815292506000805160206131238339815191525b8284106118db57505050810160200161108e8261107e565b805460208587018101919091529093019281016118c3565b503461020a578060031936011261020a57600a546040516001600160a01b03909116318152602090f35b503461020a578060031936011261020a576040517f00000000000000000000000000000000000000000000000000000000000000006001600160a01b03168152602090f35b503461020a578060031936011261020a5760405160006007546119848161293a565b8084529060019081811690811561110157506001146119ad576110a28461108e81860382612834565b6007600090815292507fa66cc928b5edb82af9bd49922954155ab7b0942694bea4ce44661d9a8736c6885b8284106119f057505050810160200161108e8261107e565b805460208587018101919091529093019281016119d8565b503461020a57602036600319011261020a5760043590805482101561020a576020611a32836128b9565b905460405160039290921b1c6001600160a01b03168152f35b50604036600319011261020a57611a606127ee565b5060243567ffffffffffffffff8111610e0957611a81903690600401612872565b90611a8a612974565b918251602080940120611a9b612bc5565b80519085012003611ac7575080915060018060a01b0380600c541681600b541681146115af5750505080f35b611acf612974565b838151910120611add612be9565b84815191012014611aef575b50905080f35b611af7612a32565b6040516349ad89fb60e11b8152600481018590526005602482015264615553444360d81b60448201526001600160a01b03929091907f000000000000000000000000000000000000000000000000000000000000000084168684606481845afa9384156127e35786946127a7575b50600a9085825416936040516370a0823160e01b815285600482015289816024818b8b165afa908115612258579084918a91612772575b500494803161266b575b5084151580612619575b1561205857505054841690611bc434612f26565b600c54604051635e57966d60e01b81529087166004820152908782602481305afa91821561204d57611c87936000805160206131438339815191529593611cbd936014938c92612030575b508c6040519788947f7769746864726177696e67207669612073656e64546f4d616e7920000000000083870152611c48603b8701612cd8565b630103a37960e51b8152611c658251809386600485019101612b40565b01916603b30b63ab29d160cd1b60048401528351938491600b85019101612b40565b01681030b2323932b9b99d60b91b600b820152611cad8d83519384918785019101612b40565b0103600b19810185520183612834565b611ccc60405192839283612d55565b0390a1604051635e57966d60e01b81523360048201528481602481305afa90811561200b577faf0fb12b97da20938bb1d21fd3d221e0e82a44421eaa81ad19ef3e91c22027e691611d90918791612016575b50611d77603960405180936b036b9b39739b2b73232b91d160a51b8c830152611d518c8251928391602c86019101612b40565b81016c01031b0b636103b30b63ab29d1609d1b602c820152036019810184520182612834565b60405191829130835260608a8401526060830190612b63565b3460408301520390a160405163095ea7b360e01b81528581604481888873e9f4b6db26f964e5b62fa3bec5115a56b4dbd79a98896004850152886024850152165af1801561200b57611fde575b5082600c541694600e5490600160401b821015611fc85760019687830180600e55831015611fb257600e6000527fbb7b4a454dc3493923482f07822329ed19e8244eff582cc204f8554c3620c3fd92830180546001600160a01b0319169091179055604051635e57966d60e01b815273eaaa71f74b01617ba2235083334a1c952bac0a6c6004820152948686602481305afa958615611fa7578796611f83575b50843b15611f7f5760405163fbd9497b60e01b815260a06004820152600760a4820152663837b63cb3b7b760c91b60c482015260e0602482015292979295611ec99060e4880190612b63565b9060031987830301604488015282600e54928381520198600e600052926000915b838310611f685750505050505083949183808093611f2888966003198482030160648501526040906005815264615553444360d81b60208201520190565b906084830152039134905af18015611f5d57611f49575b50505b8038611ae9565b611f5290612804565b61020a578038611f3f565b6040513d84823e3d90fd5b845481168b52998101999385019391850191611eea565b8680fd5b611fa09196503d8089833e611f988183612834565b810190612c76565b9438611e7d565b6040513d89823e3d90fd5b634e487b7160e01b600052603260045260246000fd5b634e487b7160e01b600052604160045260246000fd5b611ffd90863d8811612004575b611ff58183612834565b810190612ead565b5038611ddd565b503d611feb565b6040513d87823e3d90fd5b61202a91503d8089833e611f988183612834565b38611d1e565b6120469192508c3d8091833e611f988183612834565b9038611c0f565b6040513d8a823e3d90fd5b9182889992959897935190838101918220612071612d77565b858151910120148061247b575b1561226357505054600c54604051635e57966d60e01b80825291851660048201529096918416908881602481305afa9283156122585760008051602061314383398151915285936120de8896612124958e809261223d575b50508a612d98565b906120ee60405192839283612d55565b0390a160405163095ea7b360e01b81526001600160a01b0389166004820152602481018c905293849283918c9183906044820190565b0393165af18015611fa75761221f575b5050600c541660405193845260048401528383602481305afa9283156122145784936121f8575b50813b156121f45783612194916121a6966121ca604051988997889687956326ef699d60e01b8752608060048801526084870190612b63565b85810360031901602487015290612b63565b8381036003190160448501526005815264615553444360d81b602082015260400190565b90606483015203925af18015611f5d576121e5575b50611f42565b6121ee90612804565b386121df565b8380fd5b61220d9193503d8086833e611f988183612834565b913861215b565b6040513d86823e3d90fd5b8161223592903d1061200457611ff58183612834565b503880612134565b61225192503d8091833e611f988183612834565b388e6120d6565b6040513d8b823e3d90fd5b51902091979650949350612275612d77565b878151910120148061242e575b156123e85786818554169282600c541660405190635e57966d60e01b825260048201528281602481305afa948515612397576000805160206131438339815191526122eb6122de61231f988d968d9689926123cc575b50612d98565b6040519182918583612d55565b0390a160405163095ea7b360e01b81526001600160a01b039091166004820152602481019190915293849081906044820190565b0381848689165af180156123bf57879560649484926123a2575b5054169180600c54169460405197889687956323b872dd60e01b8752600487015260248601526044850152165af1801561239757612379575b5050611f42565b8161238f92903d1061200457611ff58183612834565b503880612372565b6040513d85823e3d90fd5b6123b890883d8a1161200457611ff58183612834565b5038612339565b50604051903d90823e3d90fd5b6123e19192503d808b833e611f988183612834565b90386122d8565b6040516303c4b96f60e41b815260048101879052601b60248201527f696e76616c69642064657374696e6174696f6e206e6574776f726b00000000006044820152606490fd5b507f6f3c53069778183912da77a05fe67c3d6edb208ffdf1ca0161d51543035e3c68825187840120674d6f6f6e6261736560c01b8860405161246f81612818565b60088152015214612282565b5085517f564ccaf7594d66b1eaaea24fe01f0585bf52ee70852af4eac0cc4b04711cd0e285880191822067457468657265756d60c01b876040516124be81612818565b600881520152149081156125cd575b8115612582575b8115612534575b81156124e8575b5061207e565b7f890af8db8ca1aa1e915857edbc2717639ebd8a22c786f9e0e776d6a1aacb5e71915087519020662837b63cb3b7b760c91b8660405161252781612818565b60078152015214386124e2565b90507f6585177c3aba6cb7ffc0a37e831a958c4ee9278e4c62c7bdad7175ca09883c4087518220684176616c616e63686560b81b8760405161257581612818565b60098152015214906124db565b90507fcbf2a723bab3288b57db0bfae9d136af04a5c70c9acd46aad23acb67ef5fe179875182206546616e746f6d60d01b876040516125c081612818565b60068152015214906124d4565b90507f1de46e819416afc37058fd1cf806b9bcf96fa5d23b3ae565d6c72f0e19be9a9e875182206642696e616e636560c81b8760405161260c81612818565b60078152015214906124cd565b507f1a6bd43edc4fed0639580a1068f23990a8127e419b84485501428e10beebabb584518a8601206c2837b63cb3b7b720bc32b630b960991b8b60405161265f81612818565b600d8152015214611bb0565b87600c541690604051635e57966d60e01b81528260048201528a81602481305afa908115612767578b9384936000805160206131438339815191528f86956127229187968792612744575b5060166122de9160405193816b03bb4ba34323930bbb4b733960a51b86938401526127126126e6602c8501612cd8565b91750103a379022ba3432b932bab69030b2323932b9b99d160551b835283519384918785019101612b40565b0103600919810184520182612834565b0390a1319082821561273b575bf115611fa75738611ba6565b506108fc61272f565b6122de91925061275f6016913d808b833e611f988183612834565b9291506126b6565b6040513d8d823e3d90fd5b8092508b8092503d83116127a0575b61278b8183612834565b8101031261279c5783905138611b9c565b8880fd5b503d612781565b9093508681813d83116127dc575b6127bf8183612834565b810103126127d8575184811681036127d8579238611b65565b8580fd5b503d6127b5565b6040513d88823e3d90fd5b600435906001600160a01b038216820361087557565b67ffffffffffffffff8111611fc857604052565b6040810190811067ffffffffffffffff821117611fc857604052565b90601f8019910116810190811067ffffffffffffffff821117611fc857604052565b67ffffffffffffffff8111611fc857601f01601f191660200190565b81601f820112156108755780359061288982612856565b926128976040519485612834565b8284526020838301011161087557816000926020809301838601378301015290565b9060009182548110156128ef578280527f290decd9548b62a8d60345a988386fc84ba6bc95484008f6362f93160ef3e563019190565b634e487b7160e01b83526032600452602483fd5b600154811015611fb25760016000527fb10e2d527612073b26eecdfd717e6a320cf44b4afac2b0732d9fcbe2b7fa0cf60190600090565b90600182811c9216801561296a575b602083101461295457565b634e487b7160e01b600052602260045260246000fd5b91607f1691612949565b60405190600082600554916129888361293a565b80835292600190818116908115612a1057506001146129b1575b506129af92500383612834565b565b6005600090815291507f036b6384b5eca791c62761152d0c79bb0604c104a5fb6f4eb0703f3154bb3db05b8483106129f557506129af9350508101602001386129a2565b81935090816020925483858a010152019101909185926129dc565b9050602092506129af94915060ff191682840152151560051b820101386129a2565b60405190600082600f5491612a468361293a565b80835292600190818116908115612a105750600114612a6c57506129af92500383612834565b600f600090815291506000805160206131638339815191525b848310612a9e57506129af9350508101602001386129a2565b81935090816020925483858a01015201910190918592612a85565b6040519060008260135491612acd8361293a565b80835292600190818116908115612a105750600114612af357506129af92500383612834565b6013600090815291506000805160206131238339815191525b848310612b2557506129af9350508101602001386129a2565b81935090816020925483858a01015201910190918592612b0c565b60005b838110612b535750506000910152565b8181015183820152602001612b43565b90602091612b7c81518092818552858086019101612b40565b601f01601f1916010190565b90815180825260208080930193019160005b828110612ba8575050505090565b83516001600160a01b031685529381019392810192600101612b9a565b60405190612bd282612818565b600882526718d85b98d95b195960c21b6020830152565b60405190612bf682612818565b600982526818dbdb5c1b195d195960ba1b6020830152565b90612c1882612856565b612c256040519182612834565b8281528092612c36601f1991612856565b0190602036910137565b908151811015611fb2570160200190565b6000198114612c605760010190565b634e487b7160e01b600052601160045260246000fd5b6020818303126108755780519067ffffffffffffffff8211610875570181601f82011215610875578051612ca981612856565b92612cb76040519485612834565b8184526020828401011161087557612cd59160208085019101612b40565b90565b600f5460009291612ce88261293a565b91600190818116908115612d425750600114612d0357505050565b9091929350600f600052600080516020613163833981519152906000915b848310612d2f575050500190565b8181602092548587015201920191612d21565b60ff191683525050811515909102019150565b6001600160a01b039091168152604060208201819052612cd592910190612b63565b60405190612d8482612818565b6005825264615553444360d81b6020830152565b919060405180936020906b03bb4ba34323930bbb4b733960a51b828401526000600f54612dc48161293a565b90600190818116908115612e845750600114612e39575b505091612e296129af959284630103a37960e51b600c979652612e078251809386600485019101612b40565b01916730b2323932b9b99d60c11b600484015283519384918785019101612b40565b0103601319810185520183612834565b600f60009081529192506000805160206131638339815191525b838310612e6d575050508301602c01612e296129af612ddb565b80548a8401602c0152899650918501918101612e53565b60ff1916602c8089019190915283151590930287019092019250612e2991506129af9050612ddb565b90816020910312610875575180151581036108755790565b600154600160401b811015611fc857806001612ee49201600155612903565b819291549060031b9160018060a01b039283811b93849216901b16911916179055565b600054600160401b811015611fc857806001612ee492016000556128b9565b8015612fa05780816000925b612f8c5750612f4082612c0e565b9190805b612f4d57505090565b600a906030928282068401809411612c60578015612c6057600019019260f81b6001600160f81b03191660001a612f848486612c40565b530480612f44565b91612f98600a91612c51565b920480612f32565b50604051612fad81612818565b60018152600360fc1b602082015290565b60405190612fcb82612818565b60038252626e657760e81b6020830152565b60405190612fea82612818565b60068252651859dc99595960d21b6020830152565b6040519061300c82612818565b600882526770726f677265737360c01b6020830152565b6040519061303082612818565b600682526572657669657760d01b6020830152565b6040519061305282612818565b6005825264185d591a5d60da1b6020830152565b601f81116130715750565b600060138152601f600080516020613123833981519152920160051c8201915b82811061309d57505050565b818155600101613091565b601f81116130b35750565b600060058152601f7f036b6384b5eca791c62761152d0c79bb0604c104a5fb6f4eb0703f3154bb3db0920160051c8201915b8281106130f157505050565b8181556001016130e5565b6040519061310982612818565b600a825269706572666f726d696e6760b01b602083015256fe66de8ffda797e3de9c05e8fc57b3bf0ec28a930d40b0d285d93c06501cf6a090f914ca0348190fe49c31ec3901a60069cc792666a05ee2db257a8491cbad2b1e8d1108e10bcb7c27dddfc02ed9d693a074039d026cf4ea4240b40f7d581ac802a2646970667358221220042561107a9f6e2fc7e7d359b5cefcc719d900de3bf3e212de7ad10a3861f27b64736f6c63430008110033",
  "immutableReferences": {
    "1198": [
      {
        "length": 32,
        "start": 6451
      },
      {
        "length": 32,
        "start": 6958
      }
    ]
  },
  "source": "// SPDX-License-Identifier: MIT\npragma solidity ^0.8.12;\n\n// import { IDistributionExecutable } from './IDistributionExecutable.sol';\nimport { IDistributionExecutable } from './IDistributionExecutable.sol';\n\n\n// import { AxelarExecutable } from '@axelar-network/axelar-gmp-sdk-solidity/contracts/executables/AxelarExecutable.sol';\nimport { IAxelarGateway } from '@axelar-network/axelar-gmp-sdk-solidity/contracts/interfaces/IAxelarGateway.sol';\nimport { IERC20 } from '@axelar-network/axelar-gmp-sdk-solidity/contracts/interfaces/IERC20.sol';\n// import { IAxelarGasService } from '@axelar-network/axelar-gmp-sdk-solidity/contracts/interfaces/IAxelarGasService.sol';\nimport { StringToAddress, AddressToString } from '@axelar-network/axelar-gmp-sdk-solidity/contracts/StringAddressUtils.sol';\n\nerror RevertReason (string message);\n\ncontract Factory {\n    IAxelarGateway public immutable gateway;\n\n    Job[] public jobArray;\n    // address contractOwner;\n    uint256 public countNew = 0;\n    uint256 countAgreed = 0;\n    uint256 countProgress = 0;\n    uint256 countReview = 0;\n    uint256 countCompleted = 0;\n    uint256 countCanceled = 0;\n    string stateNew = \"new\";\n    string stateAgreed = \"agreed\";\n    string stateProgress = \"progress\";\n    string stateReview = \"review\";\n    string stateCompleted = \"completed\";\n    string stateCanceled = \"canceled\";\n\n    event OneEventForAll(address contractAdr, uint256 index);\n\n\n    event JobContractCreated(\n        string nanoId,\n        address jobAddress,\n        address jobOwner,\n        string title,\n        string description,\n        string symbol,\n        uint256 amount\n    );\n\n\n    constructor() {\n        address gateway_ = 0x5769D84DD62a6fD969856c75c7D321b84d455929;\n        gateway = IAxelarGateway(gateway_);\n    }\n\n    // initial: new, contractor choosed: agreed, work in progress: progress, completed: completed, canceled\n\n    // function indexCalculation(string memory _state) public returns (uint256) {}\n\n    function createJobContract(string memory _nanoId, string memory _title, string memory _description, string memory _symbol, uint256 _amount)\n    external\n    payable\n    {\n        Job job = new Job{value: msg.value}(\n            _nanoId,\n            _title,\n            _description,\n            _symbol,\n            jobArray.length,\n            msg.sender\n        );\n\n        if (keccak256(bytes(_symbol)) != keccak256(bytes(\"ETH\"))) {\n            address tokenAddress = gateway.tokenAddresses(_symbol);\n            // amount = IERC20(tokenAddress).balanceOf(contractAddress);\n            IERC20(tokenAddress).transferFrom(msg.sender, address(job), _amount);\n        }\n        // IERC20(tokenAddress).approve(address(gateway), _amount);\n\n        jobArray.push(job);\n        countNew++;\n        emit JobContractCreated(_nanoId, address(job), msg.sender, _title, _description, _symbol, _amount);\n        emit OneEventForAll(address(job), job.index());\n    }\n\n    // function findJobs(uint256 _myIndex) external view returns (address) {\n    //     return address(jobArray[_myIndex]);\n    // }\n\n    function allJobs() external view returns (Job[] memory _jobs) {\n        _jobs = new Job[](jobArray.length);\n        uint256 count;\n        for (uint256 i = 0; i < jobArray.length; i++) {\n            _jobs[count] = jobArray[i];\n            count++;\n        }\n    }\n\n\n    function jobParticipate(Job job) external {\n        jobArray[job.index()].jobParticipate(msg.sender);\n        emit OneEventForAll(address(job), job.index());\n    }\n\n    function jobAuditParticipate(Job job) external {\n        jobArray[job.index()].jobAuditParticipate(msg.sender);\n        emit OneEventForAll(address(job), job.index());\n    }\n\n    function jobRating(Job job, uint256 _score) external {\n        jobArray[job.index()].jobRate(_score, msg.sender);\n        emit OneEventForAll(address(job), job.index());\n    }\n\n\n    function jobStateChange(\n        Job job,\n        address payable _participantAddress,\n        string memory _state\n    ) external {\n        jobArray[job.index()].jobStateChange(_participantAddress, _state, msg.sender);\n        emit OneEventForAll(address(job), job.index());\n    }\n    \n\n    function jobAuditStateChange(\n        Job job,\n        string memory _favour\n    ) external {\n        jobArray[job.index()].jobAuditDecision(_favour);\n        emit OneEventForAll(address(job), job.index());\n    }\n\n    // function jobReview(Job job, address _participantAddress) external {\n    //     jobArray[job.index()].jobReview(_participantAddress);\n    //     countProgress++;\n    // }\n\n    // function jobConfimation(Job job, address _participantAddress) external {\n    //     jobArray[job.index()].jobConfimation(_participantAddress);\n    //     countReview++;\n    // }\n\n    function transferToaddress(Job job, address payable addressToSend)\n    external\n    payable\n    {\n        // addressToSend.transfer(0.5 ether);\n        jobArray[job.index()].transferToaddress(addressToSend);\n        emit OneEventForAll(address(job), job.index());\n    }\n\n    // function transferToaddressChain(Job job, address payable addressToSend, string memory chain)\n    // external\n    // payable\n    // {\n    //     jobArray[job.index()].transferToaddressChain(addressToSend, chain);\n    //     emit OneEventForAll(address(job), job.index());\n    // }\n\n    function transferToaddressChain2(Job job, address payable addressToSend, string memory chain)\n    external\n    payable\n    {\n        jobArray[job.index()].transferToaddressChain2{value: msg.value}(addressToSend, chain);\n        emit OneEventForAll(address(job), job.index());\n    }\n\n\n    // function jobCanceled(Job job) external {\n    //     jobArray[job.index()].jobCanceled();\n    //     countCanceled++;\n    // }\n\n    // function getContractAdr(uint256 _classIndex)\n    //     external\n    //     view\n    //     returns (address)\n    // {\n    //     Job _retBal = Job(payable(address(jobArray[_classIndex])));\n    //     return _retBal.returnContractAddress();\n    // }\n\n    function getBalance(uint256 _classIndex) external view returns (uint256) {\n        Job _retBal = Job(payable(address(jobArray[_classIndex])));\n        return _retBal.getBalance();\n    }\n\n    // function thisContract() external view returns (address) {\n    //     address thisConr = address(this);\n    //     return thisConr;\n    // }\n\n    function getJobInfo(uint256 _classIndex)\n    external\n    view\n    returns (\n        string memory,\n        string memory,\n        address,\n        address,\n        address,\n        uint256,\n        uint256,\n        string memory,\n        address[] memory,\n        address,\n        string memory,\n        string memory,\n        uint256,\n        address[] memory,\n        string memory,\n        address\n        \n    )\n    {\n        Job _retBal = Job(payable(address(jobArray[_classIndex])));\n        return _retBal.getJob();\n    }\n\n    // receive() external payable {}\n}\n\ncontract Job {\n    // IDistributionExecutable public immutable distributor;\n\n    IAxelarGateway public immutable gateway;\n    using AddressToString for address;\n    using StringToAddress for string;\n\n    address[] public Participants;\n    address[] public AuditParticipants;\n    // uint256 public data;\n    string public nanoId;\n    string public title;\n    string public description;\n    string public jobState;\n    uint256 public index;\n\n    string public name;\n    uint256 public price;\n    address public contractParent;\n    address public contractAddress;\n    address public contractOwner;\n    address payable public participantAddress;\n    uint256 public createTime;\n    address[] public _destinationAddresses;\n    string public symbol;\n    uint256 amount;\n    uint256 rating = 0;\n    address public auditInitiator;\n    string public auditState;\n    address public auditorAddress;\n\n\n    event Logs(address contractAdr, string message);\n    event LogsValue(address contractAdr, string message, uint value);\n\n    constructor(\n        string memory _nanoId,\n        string memory _title,\n        string memory _description,\n        string memory _symbol,\n        uint256 _index,\n        address _contractOwner\n        // uint256 _rating\n    ) payable {\n        // data = _data;\n        nanoId = _nanoId;\n        title = _title;\n        jobState = \"new\";\n        contractAddress = address(this);\n        contractParent = msg.sender;\n        contractOwner = _contractOwner;\n        createTime = block.timestamp;\n        index = _index;\n        description = _description;\n        symbol = _symbol;\n        // rating = _rating;\n\n        address gateway_ = 0x5769D84DD62a6fD969856c75c7D321b84d455929;\n        gateway = IAxelarGateway(gateway_);\n\n        // address distributor_ = 0xE9F4b6dB26f964E5B62Fa3bEC5115a56B4DBd79A;\n        // distributor = IDistributionExecutable(distributor_);\n        // distributor = DistributionExecutable(gateway_);\n        // balance = contractAddress.balance;\n        // createJob(_content, _index);\n        // myStruct = jobStructData(\n        //     _data,\n        //     true,\n        //     address(this),\n        //     msg.sender,\n        //     block.timestamp,\n        //     _index\n        // );\n    }\n\n    // event OneEventForAll2(address contractAdr);\n\n    // function createJob(string memory _content, uint256 _index) public {\n    //     jobStructDataArray.push();\n\n    //     jobStructData(\n    //         _content,\n    //         true,\n    //         address(this),\n    //         msg.sender,\n    //         block.timestamp\n    //     );\n    //     emit jobCreated(_content, _index);\n    // }\n\n    function getJob() public view returns (\n        string memory _content,\n        string memory _jobState,\n        address _contractAddress,\n        address _contractParent,\n        address _contractOwner,\n        uint256 _createTime,\n        uint256 _index,\n        string memory _description,\n        address[] memory _participants,\n        address _participantAddress,\n        string memory _symbol,\n        string memory _nanoId,\n        uint256 _rating,\n        address[] memory _auditParticipants,\n        string memory _auditState,\n        address _auditorAddress\n    )\n    {\n        return (\n            title,\n            jobState,\n            contractAddress,\n            contractParent,\n            contractOwner,\n            createTime,\n            index,\n            description,\n            Participants,\n            participantAddress,\n            symbol,\n            nanoId,\n            rating,\n            AuditParticipants,\n        auditState,\n            auditorAddress\n        );\n    }\n\n    function withdrawAll() external {\n        // jobState = true;\n    }\n\n    // function getContractInfo() public view returns (uint256) {\n    //     return contractAddress.balance;\n    // }\n\n    function getBalance() public view returns (uint256) {\n        return contractAddress.balance;\n    }\n\n    function transferToaddress(address payable _addressToSend) public payable {\n        if (keccak256(bytes(jobState)) == keccak256(bytes(\"canceled\"))) {\n            if (_addressToSend == contractOwner) {\n                _addressToSend.transfer(contractAddress.balance);\n            }\n        } else if (\n            keccak256(bytes(jobState)) == keccak256(bytes(\"completed\"))\n        ) {\n\n            participantAddress.transfer(contractAddress.balance);\n        }\n        // msg.sender.transfer(address(this).balance);\n    }\n\n    // function transferToaddressChain(address payable _addressToSend, string memory chain) public payable {\n    //     if (keccak256(bytes(jobState)) == keccak256(bytes(\"canceled\"))) {\n    //         if (_addressToSend == contractOwner) {\n    //             _addressToSend.transfer(contractAddress.balance);\n    //         }\n    //     } else if (\n    //         keccak256(bytes(jobState)) == keccak256(bytes(\"completed\"))\n    //     ) {\n    //         _destinationAddresses.push(participantAddress);\n    //         distributor.sendToMany(chain, _addressToSend, _destinationAddresses, 'WETH', contractAddress.balance);\n    //     }\n    //     // msg.sender.transfer(address(this).balance);\n    // }\n\n    function addressToString(address address_) external pure returns (string memory) {\n        return address_.toString();\n    }\n\n    function uint2str(\n        uint256 _i\n      )\n        internal\n        pure\n        returns (string memory str)\n      {\n        if (_i == 0)\n        {\n          return \"0\";\n        }\n        uint256 j = _i;\n        uint256 length;\n        while (j != 0)\n        {\n          length++;\n          j /= 10;\n        }\n        bytes memory bstr = new bytes(length);\n        uint256 k = length;\n        j = _i;\n        while (j != 0)\n        {\n          bstr[--k] = bytes1(uint8(48 + j % 10));\n          j /= 10;\n        }\n        str = string(bstr);\n      }\n\n    function transferToaddressChain2(address payable _addressToSend, string memory chain) public payable {\n        if (keccak256(bytes(jobState)) == keccak256(bytes(\"canceled\"))) {\n            if (participantAddress == contractOwner) {\n                participantAddress.transfer(contractAddress.balance);\n            }\n        } else if (\n            keccak256(bytes(jobState)) == keccak256(bytes(\"completed\")) //|| 1==1\n        ) {\n            bytes memory symbolBytes = bytes(symbol);\n            bytes memory chainBytes = bytes(chain);\n\n            //check USDC balance\n            address tokenAddress = gateway.tokenAddresses(\"aUSDC\");\n            uint256 contractUSDCAmount = IERC20(tokenAddress).balanceOf(contractAddress)/10;\n            \n            //check ETH balance\n            if (contractAddress.balance != 0) {\n                emit Logs(address(contractAddress), string.concat(\"withdrawing \", symbol, \" to Ethereum address: \",this.addressToString(participantAddress)));\n                participantAddress.transfer(contractAddress.balance);\n            } \n            if (contractUSDCAmount !=0 && (\n                keccak256(chainBytes) == keccak256(bytes(\"PolygonAxelar\"))\n            )) {\n                emit Logs(address(contractAddress), string.concat(\"withdrawing via sendToMany \", symbol, \" to \", chain, \"value: \", uint2str(msg.value), \" address:\",this.addressToString(participantAddress)));\n                emit LogsValue(address(this), string.concat(\"msg.sender: \", this.addressToString(msg.sender),\" call value: \"), msg.value);\n                // string memory _addressToSend2 = bytes(_addressToSend);\n                IERC20(tokenAddress).approve(0xE9F4b6dB26f964E5B62Fa3bEC5115a56B4DBd79A, contractUSDCAmount);\n                _destinationAddresses.push(participantAddress);\n                IDistributionExecutable(0xE9F4b6dB26f964E5B62Fa3bEC5115a56B4DBd79A).sendToMany{value: msg.value}(\"polygon\", this.addressToString(0xEAAA71f74b01617BA2235083334a1c952BAC0a6C), _destinationAddresses, 'aUSDC', contractUSDCAmount);\n            }\n            else if (keccak256(symbolBytes) == keccak256(bytes(\"aUSDC\")) && (\n                keccak256(chainBytes) == keccak256(bytes(\"Ethereum\")) || \n                keccak256(chainBytes) == keccak256(bytes(\"Binance\")) ||\n                keccak256(chainBytes) == keccak256(bytes(\"Fantom\")) ||\n                keccak256(chainBytes) == keccak256(bytes(\"Avalanche\")) ||\n                keccak256(chainBytes) == keccak256(bytes(\"Polygon\"))\n            )) {\n                emit Logs(address(contractAddress), string.concat(\"withdrawing \", symbol, \" to \", chain, \"address:\",this.addressToString(participantAddress)));\n                // _destinationAddresses.push(_addressToSend);\n                // distributor.sendToMany(chain, _addressToSend, _destinationAddresses, 'aUSDC', contractAddress.balance);\n                // string memory _addressToSend2 = bytes(_addressToSend);\n\n                IERC20(tokenAddress).approve(address(gateway), contractUSDCAmount);\n                // gateway.sendToken(chain, toAsciiString(participantAddress), \"aUSDC\", amount);\n                gateway.sendToken(chain, this.addressToString(participantAddress), \"aUSDC\", contractUSDCAmount);\n            } else if (keccak256(symbolBytes) == keccak256(bytes(\"aUSDC\")) && keccak256(chainBytes) == keccak256(bytes(\"Moonbase\"))) {\n                // revert InvalidToken({\n                //     token: string.concat(\"we are in moonbase, participantAddress\",this.addressToString(participantAddress))\n                // });\n                emit Logs(address(contractAddress), string.concat(\"withdrawing \", symbol, \" to \", chain, \"address:\",this.addressToString(participantAddress)));\n                IERC20(tokenAddress).approve(contractAddress, contractUSDCAmount);\n                IERC20(tokenAddress).transferFrom(contractAddress, participantAddress, contractUSDCAmount);\n                // IERC20(tokenAddress).approve(address(gateway), amount);\n            }\n            else{\n                revert RevertReason({\n                    message: \"invalid destination network\"\n                });\n            }\n        }\n        // msg.sender.transfer(address(this).balance);\n    }\n\n    function toAsciiString(address x) internal pure returns (string memory) {\n        bytes memory s = new bytes(40);\n        for (uint i = 0; i < 20; i++) {\n            bytes1 b = bytes1(uint8(uint(uint160(x)) / (2**(8*(19 - i)))));\n            bytes1 hi = bytes1(uint8(b) / 16);\n            bytes1 lo = bytes1(uint8(b) - 16 * uint8(hi));\n            s[2*i] = char(hi);\n            s[2*i+1] = char(lo);\n        }\n        return string(s);\n    }\n\n    function char(bytes1 b) internal pure returns (bytes1 c) {\n        if (uint8(b) < 10) return bytes1(uint8(b) + 0x30);\n        else return bytes1(uint8(b) + 0x57);\n    }\n\n\n    function jobParticipate(address _participantAddress) external {\n        bool existed = false;\n        if (Participants.length == 0) {\n            Participants.push(_participantAddress);\n        } else {\n            for (uint256 i = 0; i < Participants.length; i++) {\n                if (Participants[i] == _participantAddress) {\n                    existed = true;\n                }\n            }\n            if (!existed) {\n                Participants.push(_participantAddress);\n            }\n        }\n    }\n\n    function jobAuditParticipate(address _auditParticipantAddress) external {\n        // TODO: add NFT based auditor priviledge check\n        bool existed = false;\n        if (AuditParticipants.length == 0) {\n            AuditParticipants.push(_auditParticipantAddress);\n        } else {\n            for (uint256 i = 0; i < Participants.length; i++) {\n                if (AuditParticipants[i] == _auditParticipantAddress) {\n                    existed = true;\n                    break;\n                }\n            }\n            if (!existed) {\n                AuditParticipants.push(_auditParticipantAddress);\n            }\n        }\n    }\n\n    function jobRate(uint _score, address _applicant) external {\n        if (\n            rating == 0 &&\n            _score != 0 &&\n            _score <= 5 &&\n            keccak256(bytes(jobState)) == keccak256(bytes(\"completed\")) &&\n            contractOwner == _applicant\n        ) {\n            rating = _score;\n        } else {\n        }\n    }\n\n    //todo: only allow calling child contract functions from the parent contract!!!\n    function jobStateChange(\n        address payable _participantAddress,\n        string memory _state,\n        address _initiatorAddress\n        // string memory _message\n    ) external {\n        if (_initiatorAddress == contractOwner && keccak256(bytes(jobState)) == keccak256(bytes(\"new\")) && \n        keccak256(bytes(_state)) == keccak256(bytes(\"agreed\"))) {\n            //TODO: LETS FIX IT!!!!! _participantAddress must be compared with participant list in its contract ************************\n            jobState = \"agreed\";\n            participantAddress = _participantAddress;\n        } else if (_initiatorAddress == participantAddress &&\n            keccak256(bytes(jobState)) == keccak256(bytes(\"agreed\")) && keccak256(bytes(_state)) == keccak256(bytes(\"progress\"))) {\n            jobState = \"progress\";\n        } else if (_initiatorAddress == participantAddress && \n            keccak256(bytes(jobState)) == keccak256(bytes(\"progress\")) && keccak256(bytes(_state)) == keccak256(bytes(\"review\"))) {\n            jobState = \"review\";\n        } else if (_initiatorAddress == contractOwner && \n            keccak256(bytes(jobState)) == keccak256(bytes(\"review\")) && keccak256(bytes(_state)) == keccak256(bytes(\"completed\"))) {\n            jobState = \"completed\";\n        } else if (keccak256(bytes(jobState)) == keccak256(bytes(\"new\")) && _initiatorAddress == contractOwner && keccak256(bytes(_state)) == keccak256(bytes(\"canceled\"))) {\n            jobState = \"canceled\";\n        } else if (keccak256(bytes(_state)) == keccak256(bytes(\"audit\"))){\n            if(_initiatorAddress == contractOwner &&\n                (keccak256(bytes(jobState)) == keccak256(bytes(\"agreed\")) || keccak256(bytes(jobState)) == keccak256(bytes(\"progress\")) || keccak256(bytes(jobState)) == keccak256(bytes(\"review\")))){\n                jobState = \"audit\";\n                auditInitiator = _initiatorAddress;\n                auditState = 'requested';\n            }\n            else if(_initiatorAddress == participantAddress &&\n                (keccak256(bytes(jobState)) == keccak256(bytes(\"review\"))))\n\n            {\n                jobState = \"audit\";\n                auditInitiator = _initiatorAddress;\n                auditState = 'requested';\n                //TODO: audit history need to add \n            }\n            if(_initiatorAddress == contractOwner &&\n                keccak256(bytes(jobState)) == keccak256(bytes(\"audit\")) && \n                keccak256(bytes(auditState)) == keccak256(bytes(\"requested\")) &&\n                AuditParticipants.length != 0){\n                for (uint256 i = 0; i < AuditParticipants.length; i++) {\n                    if (AuditParticipants[i] == _participantAddress) {\n                        jobState = \"audit\";\n                        auditorAddress = _participantAddress;\n                        auditState = 'performing';\n                        break;\n                    }\n                }\n\n            }\n        }\n    }\n\n    function jobAuditDecision(\n        // address payable _participantAddress,\n        string memory _favour\n    ) external {\n        // TODO: add NFT based auditor priviledge check\n        if (msg.sender == auditorAddress && keccak256(bytes(jobState)) == keccak256(bytes(\"audit\"))\n        && keccak256(bytes(auditState)) == keccak256(bytes(\"performing\"))\n        && keccak256(bytes(_favour)) == keccak256(bytes(\"customer\"))) {\n            auditState = \"complete\";\n            jobState = \"new\";\n        }\n        if (msg.sender == auditorAddress && keccak256(bytes(jobState)) == keccak256(bytes(\"audit\"))\n        && keccak256(bytes(auditState)) == keccak256(bytes(\"performing\"))\n        && keccak256(bytes(_favour)) == keccak256(bytes(\"perfomer\"))) {\n            auditState = \"finished\";\n            jobState = \"completed\";\n        }\n    }\n\n    // function jobReview(address _participantAddress) external {\n    //     if (participantAddress == _participantAddress) {\n    //         jobState = \"review\";\n    //     }\n    // }\n\n    // function jobParticiantAgreed(address _participantAddress) external {\n    //     jobState = \"agreed\";\n    //     participantAddress = _participantAddress;\n\n    //     // for (uint256 i = 0; i < Participants.length; i++) {\n    //     //     if (Participants[i] == _participantAddress) {\n    //     //         jobState = \"agreed\";\n    //     //         participantAddress = _participantAddress;\n    //     //     }\n    //     // }\n    // }\n\n    // function jobInProgress() external {\n    //     jobState = \"progress\";\n    // }\n\n    // function jobCompleted() external {\n    //     jobState = \"completed\";\n    // }\n\n    // function jobCanceled() external {\n    //     jobState = \"canceled\";\n    // }\n\n    receive() external payable {}\n\n    // fallback () external payable    {\n\n    // }\n\n    // constructor(string memory _name, address _owner) {\n    //     name = _name;\n    //     owner = _owner;\n    // }\n}\n",
  "sourcePath": "/home/user/Documents/mainstream/devopsdao/contracts/Factory.sol",
  "compiler": {
    "name": "solc",
    "version": "0.8.17+commit.8df45f5f.Emscripten.clang"
  },
  "schemaVersion": "3.4.10",
  "updatedAt": "2022-10-14T17:33:48.029Z",
  "devdoc": {
    "kind": "dev",
    "methods": {},
    "version": 1
  },
  "userdoc": {
    "kind": "user",
    "methods": {},
    "version": 1
  }
}