{
  "contractName": "Job",
  "abi": [
    {
      "inputs": [
        {
          "internalType": "string",
          "name": "_nanoId",
          "type": "string"
        },
        {
          "internalType": "string",
          "name": "_title",
          "type": "string"
        },
        {
          "internalType": "string",
          "name": "_description",
          "type": "string"
        },
        {
          "internalType": "string",
          "name": "_symbol",
          "type": "string"
        },
        {
          "internalType": "uint256",
          "name": "_index",
          "type": "uint256"
        },
        {
          "internalType": "address",
          "name": "_contractOwner",
          "type": "address"
        }
      ],
      "stateMutability": "payable",
      "type": "constructor"
    },
    {
      "inputs": [
        {
          "internalType": "string",
          "name": "token",
          "type": "string"
        }
      ],
      "name": "InvalidToken",
      "type": "error"
    },
    {
      "inputs": [
        {
          "internalType": "uint256",
          "name": "",
          "type": "uint256"
        }
      ],
      "name": "Participants",
      "outputs": [
        {
          "internalType": "address",
          "name": "",
          "type": "address"
        }
      ],
      "stateMutability": "view",
      "type": "function"
    },
    {
      "inputs": [
        {
          "internalType": "uint256",
          "name": "",
          "type": "uint256"
        }
      ],
      "name": "_destinationAddresses",
      "outputs": [
        {
          "internalType": "address",
          "name": "",
          "type": "address"
        }
      ],
      "stateMutability": "view",
      "type": "function"
    },
    {
      "inputs": [],
      "name": "contractAddress",
      "outputs": [
        {
          "internalType": "address",
          "name": "",
          "type": "address"
        }
      ],
      "stateMutability": "view",
      "type": "function"
    },
    {
      "inputs": [],
      "name": "contractOwner",
      "outputs": [
        {
          "internalType": "address",
          "name": "",
          "type": "address"
        }
      ],
      "stateMutability": "view",
      "type": "function"
    },
    {
      "inputs": [],
      "name": "contractParent",
      "outputs": [
        {
          "internalType": "address",
          "name": "",
          "type": "address"
        }
      ],
      "stateMutability": "view",
      "type": "function"
    },
    {
      "inputs": [],
      "name": "createTime",
      "outputs": [
        {
          "internalType": "uint256",
          "name": "",
          "type": "uint256"
        }
      ],
      "stateMutability": "view",
      "type": "function"
    },
    {
      "inputs": [],
      "name": "description",
      "outputs": [
        {
          "internalType": "string",
          "name": "",
          "type": "string"
        }
      ],
      "stateMutability": "view",
      "type": "function"
    },
    {
      "inputs": [],
      "name": "distributor",
      "outputs": [
        {
          "internalType": "contract IDistributionExecutable",
          "name": "",
          "type": "address"
        }
      ],
      "stateMutability": "view",
      "type": "function"
    },
    {
      "inputs": [],
      "name": "gateway",
      "outputs": [
        {
          "internalType": "contract IAxelarGateway",
          "name": "",
          "type": "address"
        }
      ],
      "stateMutability": "view",
      "type": "function"
    },
    {
      "inputs": [],
      "name": "index",
      "outputs": [
        {
          "internalType": "uint256",
          "name": "",
          "type": "uint256"
        }
      ],
      "stateMutability": "view",
      "type": "function"
    },
    {
      "inputs": [],
      "name": "jobState",
      "outputs": [
        {
          "internalType": "string",
          "name": "",
          "type": "string"
        }
      ],
      "stateMutability": "view",
      "type": "function"
    },
    {
      "inputs": [],
      "name": "name",
      "outputs": [
        {
          "internalType": "string",
          "name": "",
          "type": "string"
        }
      ],
      "stateMutability": "view",
      "type": "function"
    },
    {
      "inputs": [],
      "name": "nanoId",
      "outputs": [
        {
          "internalType": "string",
          "name": "",
          "type": "string"
        }
      ],
      "stateMutability": "view",
      "type": "function"
    },
    {
      "inputs": [],
      "name": "participantAddress",
      "outputs": [
        {
          "internalType": "address payable",
          "name": "",
          "type": "address"
        }
      ],
      "stateMutability": "view",
      "type": "function"
    },
    {
      "inputs": [],
      "name": "price",
      "outputs": [
        {
          "internalType": "uint256",
          "name": "",
          "type": "uint256"
        }
      ],
      "stateMutability": "view",
      "type": "function"
    },
    {
      "inputs": [],
      "name": "symbol",
      "outputs": [
        {
          "internalType": "string",
          "name": "",
          "type": "string"
        }
      ],
      "stateMutability": "view",
      "type": "function"
    },
    {
      "inputs": [],
      "name": "title",
      "outputs": [
        {
          "internalType": "string",
          "name": "",
          "type": "string"
        }
      ],
      "stateMutability": "view",
      "type": "function"
    },
    {
      "stateMutability": "payable",
      "type": "receive"
    },
    {
      "inputs": [],
      "name": "getJob",
      "outputs": [
        {
          "internalType": "string",
          "name": "_content",
          "type": "string"
        },
        {
          "internalType": "string",
          "name": "_jobState",
          "type": "string"
        },
        {
          "internalType": "address",
          "name": "_contractAddress",
          "type": "address"
        },
        {
          "internalType": "address",
          "name": "_contractParent",
          "type": "address"
        },
        {
          "internalType": "address",
          "name": "_contractOwner",
          "type": "address"
        },
        {
          "internalType": "uint256",
          "name": "_createTime",
          "type": "uint256"
        },
        {
          "internalType": "uint256",
          "name": "_index",
          "type": "uint256"
        },
        {
          "internalType": "string",
          "name": "_description",
          "type": "string"
        },
        {
          "internalType": "address[]",
          "name": "_participants",
          "type": "address[]"
        },
        {
          "internalType": "address",
          "name": "_participantAddress",
          "type": "address"
        },
        {
          "internalType": "string",
          "name": "_symbol",
          "type": "string"
        },
        {
          "internalType": "string",
          "name": "_nanoId",
          "type": "string"
        }
      ],
      "stateMutability": "view",
      "type": "function"
    },
    {
      "inputs": [],
      "name": "withdrawAll",
      "outputs": [],
      "stateMutability": "nonpayable",
      "type": "function"
    },
    {
      "inputs": [],
      "name": "getBalance",
      "outputs": [
        {
          "internalType": "uint256",
          "name": "",
          "type": "uint256"
        }
      ],
      "stateMutability": "view",
      "type": "function"
    },
    {
      "inputs": [
        {
          "internalType": "address payable",
          "name": "_addressToSend",
          "type": "address"
        }
      ],
      "name": "transferToaddress",
      "outputs": [],
      "stateMutability": "payable",
      "type": "function"
    },
    {
      "inputs": [
        {
          "internalType": "address payable",
          "name": "_addressToSend",
          "type": "address"
        },
        {
          "internalType": "string",
          "name": "chain",
          "type": "string"
        }
      ],
      "name": "transferToaddressChain",
      "outputs": [],
      "stateMutability": "payable",
      "type": "function"
    },
    {
      "inputs": [
        {
          "internalType": "address payable",
          "name": "_addressToSend",
          "type": "address"
        },
        {
          "internalType": "string",
          "name": "chain",
          "type": "string"
        }
      ],
      "name": "transferToaddressChain2",
      "outputs": [],
      "stateMutability": "payable",
      "type": "function"
    },
    {
      "inputs": [
        {
          "internalType": "address",
          "name": "_participantAddress",
          "type": "address"
        }
      ],
      "name": "jobParticipate",
      "outputs": [],
      "stateMutability": "nonpayable",
      "type": "function"
    },
    {
      "inputs": [
        {
          "internalType": "address payable",
          "name": "_participantAddress",
          "type": "address"
        },
        {
          "internalType": "string",
          "name": "_state",
          "type": "string"
        }
      ],
      "name": "jobStateChange",
      "outputs": [],
      "stateMutability": "nonpayable",
      "type": "function"
    }
  ],
  "bytecode": "0x60c06040526200247e8038038062000017816200058e565b928339810160c082820312620005895781516001600160401b03919082811162000589578162000049918501620005b4565b6020938481015184811162000589578362000066918301620005b4565b94604082015185811162000589578462000082918401620005b4565b9360608301519086821162000589576200009e918401620005b4565b9160a0608082015191015160018060a01b0381168091036200058957845197878911620003525760019880620000d58b5462000626565b97601f9889811162000557575b508690898311600114620004e657600092620004da575b5050600019600383901b1c1916908a1b1789555b81608052805190888211620003525781906200012b60025462000626565b888111620004a7575b5085908883116001146200043d5760009262000431575b5050600019600383901b1c191690891b176002555b6200016d60045462000626565b8581116200040d575b506006626e657760e81b0160045560018060a01b03193081600954161760095533816008541617600855600a541617600a5542600c556005558351858111620003525780600395620001c9875462000626565b868111620003db575b508390868311600114620003745760009262000368575b505060001982871b1c191690871b1784555b8151948511620003525762000212600e5462000626565b83811162000314575b5080928511600114620002a4575093839491849260009562000298575b50501b92600019911b1c191617600e555b735769d84dd62a6fd969856c75c7d321b84d45592960a052604051611e0190816200067d823960805181818161088e0152610a5f015260a0518181816110390152818161131501526116b90152f35b01519350388062000238565b92919084601f198116600e60005285600020956000905b89838310620002f95750505010620002de575b50505050811b01600e5562000249565b01519060f884600019921b161c1916905538808080620002ce565b858701518955909701969485019488935090810190620002bb565b6200034190600e600052826000208580890160051c820192858a1062000348575b0160051c019062000663565b386200021b565b9250819262000335565b634e487b7160e01b600052604160045260246000fd5b015190503880620001e9565b90899350601f1983169188600052856000209260005b87828210620003c45750508411620003ab575b505050811b018455620001fb565b015160001983891b60f8161c191690553880806200039d565b8385015186558d979095019493840193016200038a565b620004069088600052856000208880860160051c82019288871062000348570160051c019062000663565b38620001d2565b6200042a9060046000528685600020910160051c81019062000663565b3862000176565b0151905038806200014b565b908b9350601f198316916002600052876000209260005b8982821062000490575050841162000476575b505050811b0160025562000160565b015160001960f88460031b161c1916905538808062000467565b8385015186558f9790950194938401930162000454565b620004d3906002600052876000208a80860160051c8201928a871062000348570160051c019062000663565b3862000134565b015190503880620000f9565b908c9350601f1983169184600052886000209260005b8a8282106200053757505084116200051d575b505050811b0189556200010d565b015160001960f88460031b161c191690553880806200050f565b91929395968291958786015181550195019301908e9594939291620004fc565b62000582908d600052886000208b80860160051c8201928b871062000348570160051c019062000663565b38620000e2565b600080fd5b6040519190601f01601f191682016001600160401b038111838210176200035257604052565b919080601f84011215620005895782516001600160401b0381116200035257602090620005ea601f8201601f191683016200058e565b92818452828287010111620005895760005b8181106200061257508260009394955001015290565b8581018301518482018401528201620005fc565b90600182811c9216801562000658575b60208310146200064257565b634e487b7160e01b600052602260045260246000fd5b91607f169162000636565b8181106200066f575050565b600081556001016200066356fe608060405260048036101561001d575b50361561001b57600080fd5b005b600090813560e01c8062bc30f91461114f57806305747a1f1461110e57806306fdde0314611068578063116191b61461102357806312065fe014610ff95780632986c0e514610fdb5780634327a9f414610fb25780634a79d50c14610f0c57806354ddcc3a14610e6957806359ff6ba814610e405780635ad8e8ae14610d7e57806361dcd7ab14610d605780637284e41614610cba578063853828b614610ca657806395d89b4114610bd857806398cfc1a614610ba8578063a035b1fe14610b8a578063aa826f6a14610917578063bed5572f146108bd578063bfe1092814610878578063ce606ee01461084f578063dd28e14d146103ea578063e2395ad814610202578063f6b4dfb4146101d65763fcd3f1961461013c575061000f565b346101d25760203660031901126101d257356001600160a01b03808216908183036101ce578391845491821560001461017f575050505061017c90611c4f565b80f35b855b83811061019e575050505015610195575080f35b61017c90611c4f565b82826101a983611959565b90549060031b1c16146101c5575b6101c090611ce9565b610181565b600194506101b7565b8380fd5b5080fd5b82346101ff57806003193601126101ff576009546040516001600160a01b039091168152602090f35b80fd5b50346101d257610211366118d3565b809291925190602091817f6c7b0b1c2030be2c643396fd6dc3924ed2cca787e91e5b7b0d3ad68dbf3730168480940192832060405161024f81611895565b60068152651859dc99595960d21b9601869052036102a557505050600c9061027f61027a84546119a3565b611d77565b01905560018060a01b03166bffffffffffffffffffffffff60a01b600b541617600b5580f35b90919394508392507ff9277228123ef6174480588e3c39104edb4957fab3fd5fbf6d6beb66bd614804815183206040516102de81611895565b600881526770726f677265737360c01b9601869052036103115750505060109061030b61027a84546119a3565b01905580f35b8293507f7aa61f7d41f5fab2b7227198d10b8e1d66c06c49409fec49270e545030a3cdfb8151832060405161034581611895565b600681526572657669657760d01b950185905203610370575050600c915061030b61027a84546119a3565b8091925051822061037f611c2a565b805190850120036103af5750505061039a61027a82546119a3565b60126818dbdb5c1b195d195960ba1b01905580f35b519020906103bb611c06565b8051910120146103c9575080f35b6103d661027a82546119a3565b60106718d85b98d95b195960c21b01905580f35b82346101ff57806003193601126101ff57600954600854600a54600c54600554600b5460405160025490976001600160a01b0397881697949685169592851694909216929088600061043b836119a3565b808352926001811690811561083057506001146107d0575b61045f925003896118b1565b6104676119dd565b97604051916000836003549161047c836119a3565b80835292600181169081156107b15750600114610750575b6104a0925003846118b1565b60405197889560206000549a8b81520199878b600080527f290decd9548b62a8d60345a988386fc84ba6bc95484008f6362f93160ef3e5639260005b81811061072e5750506104f1925003886118b1565b6040519860008a600e5491610505836119a3565b808352926001811690811561070f57506001146106af575b6105299250038b6118b1565b6040519b60008d6001549161053d836119a3565b80835292600181169081156106925750600114610635575b909d9c9b9a989796959493929f9e915003610570908d6118b1565b6040519d8e9d8e96610180808952880161058991611a9b565b878103602089015261059a91611a9b565b956040015260608d015260808c015260a08b015260c08a015288810360e08a01526105c491611a9b565b90878203610100890152519081815260200194915b8181106106135750505061012085015283820361014085015261060f929161060091611a9b565b90838203610160850152611a9b565b0390f35b82516001600160a01b03168652889750602095860195909201916001016105d9565b509060016000527fb10e2d527612073b26eecdfd717e6a320cf44b4afac2b0732d9fcbe2b7fa0cf6906000915b81831061067757505060208291820101610555565b80602092948385600194549201015201910190918f92610662565b602092508394915060ff191682840152151560051b820101610555565b5090600e6000527fbb7b4a454dc3493923482f07822329ed19e8244eff582cc204f8554c3620c3fd906000915b8183106106f45750509060206105299282010161051d565b80602092948385600194549201015201910190918c926106dc565b6020925061052994915060ff191682840152151560051b82010161051d565b84546001600160a01b031683526001948501948c9450602090930192016104dc565b509060036000527fc2575a0e9e593c00f959f8c92f12db2869c3395a3b0502d05e2516446f71f85b906000915b8183106107955750509060206104a092820101610494565b6020919350806001915483858a0101520191019091859261077d565b602092506104a094915060ff191682840152151560051b820101610494565b509060026000527f405787fa12a823e0f2b7631cc41b3ba8828b3321ca811111fa75cd3aa3bb5ace906000915b81831061081557505090602061045f92820101610453565b80602092948385600194549201015201910190918a926107fd565b6020925061045f94915060ff191682840152151560051b820101610453565b82346101ff57806003193601126101ff57600a546040516001600160a01b039091168152602090f35b82346101ff57806003193601126101ff576040517f00000000000000000000000000000000000000000000000000000000000000006001600160a01b03168152602090f35b50346101d25760203660031901126101d25735600d548110156101d257600d6000527fd7b6990105719101dabeb77144f2a3385c8033acd3af97e9423a695e81ad1eb501546040516001600160a01b039091168152602090f35b5090610922366118d3565b6040519361093a8561093381611adb565b03866118b1565b845160208096012061094a611c06565b805190870120036109b1575050600a5491925082916001600160a01b03918216908216811461097a575b50505080f35b8280929181926009541631908282156109a8575bf11561099c57803880610974565b604051903d90823e3d90fd5b506108fc61098e565b90916040516109ca816109c381611adb565b03826118b1565b8581519101206109d8611c2a565b868151910120146109ec575b505050905080f35b600b54600d546001600160a01b039691871693600160401b821015610b755760019485830180600d55831015610b6057600d6000527fd7b6990105719101dabeb77144f2a3385c8033acd3af97e9423a695e81ad1eb5928301906bffffffffffffffffffffffff60a01b825416179055877f0000000000000000000000000000000000000000000000000000000000000000169488600954163194863b15610b5c57989081610ab26040519963bd97f00760e01b8b5260a0868c015260a48b0190611a9b565b9a166024890152600319998a8982030160448a015285600d54918281520194600d600052926000905b828210610b45575050505050604087988795630ae8aa8960e31b8a9896868a968a80990395860160648a015281520152608485015201925af18015610b3a57610b26575b80806109e4565b610b2f9061186b565b6101ff578038610b1f565b6040513d84823e3d90fd5b845481168752958701959383019390830190610adb565b8880fd5b603282634e487b7160e01b6000525260246000fd5b604190634e487b7160e01b6000525260246000fd5b82346101ff57806003193601126101ff576020600754604051908152f35b82346101ff57806003193601126101ff5761060f610bc46119dd565b604051918291602083526020830190611a9b565b82346101ff57806003193601126101ff576040516000600e54610bfa816119a3565b80845290600190818116908115610c7f5750600114610c24575b61060f84610bc4818603826118b1565b600e600090815292507fbb7b4a454dc3493923482f07822329ed19e8244eff582cc204f8554c3620c3fd5b828410610c67575050508101602001610bc482610c14565b80546020858701810191909152909301928101610c4f565b60ff191660208087019190915292151560051b85019092019250610bc49150839050610c14565b82346101ff57806003193601126101ff5780f35b82346101ff57806003193601126101ff576040516000600354610cdc816119a3565b80845290600190818116908115610c7f5750600114610d055761060f84610bc4818603826118b1565b6003600090815292507fc2575a0e9e593c00f959f8c92f12db2869c3395a3b0502d05e2516446f71f85b5b828410610d48575050508101602001610bc482610c14565b80546020858701810191909152909301928101610d30565b82346101ff57806003193601126101ff576020600c54604051908152f35b5060203660031901126101d257356001600160a01b0381811691829003610e3b578291604051610db1816109c381611adb565b60208151910120610dc0611c06565b6020815191012014600014610de05781600a5416811461097a5750505080f35b50604051610df1816109c381611adb565b60208151910120610e00611c2a565b6020815191012014610e1157505080f35b8180828193600b541690600954163190828215610e32575bf11561099c5780f35b506108fc610e29565b600080fd5b82346101ff57806003193601126101ff57600b546040516001600160a01b039091168152602090f35b82346101ff57806003193601126101ff5760405160006001805490610e8d826119a3565b80855291818116908115610c7f5750600114610eb35761060f84610bc4818603826118b1565b600081815292507fb10e2d527612073b26eecdfd717e6a320cf44b4afac2b0732d9fcbe2b7fa0cf65b828410610ef4575050508101602001610bc482610c14565b80546020858701810191909152909301928101610edc565b82346101ff57806003193601126101ff576040516000600254610f2e816119a3565b80845290600190818116908115610c7f5750600114610f575761060f84610bc4818603826118b1565b6002600090815292507f405787fa12a823e0f2b7631cc41b3ba8828b3321ca811111fa75cd3aa3bb5ace5b828410610f9a575050508101602001610bc482610c14565b80546020858701810191909152909301928101610f82565b82346101ff57806003193601126101ff576008546040516001600160a01b039091168152602090f35b82346101ff57806003193601126101ff576020600554604051908152f35b82346101ff57806003193601126101ff576009546040516001600160a01b03909116318152602090f35b82346101ff57806003193601126101ff576040517f00000000000000000000000000000000000000000000000000000000000000006001600160a01b03168152602090f35b82346101ff57806003193601126101ff57604051600060065461108a816119a3565b80845290600190818116908115610c7f57506001146110b35761060f84610bc4818603826118b1565b6006600090815292507ff652222313e28459528d920b65115c16c04f3efc82aaedc97be59f3f377c0d3f5b8284106110f6575050508101602001610bc482610c14565b805460208587018101919091529093019281016110de565b50346101d25760203660031901126101d257359080548210156101ff57602061113683611959565b905460405160039290921b1c6001600160a01b03168152f35b50611159366118d3565b60405191506111728261116b81611adb565b03836118b1565b8151602080930120611182611c06565b805190840120036111b2575050600b54600a548392506001600160a01b03918216908216811461097a5750505080f35b6040516111c2816109c381611adb565b8281519101206111d0611c2a565b838151910120148015611863575b6111e85750505080f35b90919260405191611203836111fc81611b7f565b03846118b1565b82518061122e576040516367e8093f60e11b81528087018690528061122a60248201611b7f565b0390fd5b848496949592939501908120957faaaebeba3810b1e6b70781f14b2d72c1cb89c0b2b320c43bb67ff79f562f5ff46040519761126989611895565b6208aa8960eb1b8560039a8b81520152146000146112bf57505050505080808080945060018060a01b0380600b5416906009541631908282156112b6575bf11561099c575b388080610974565b506108fc6112a7565b805182206112cb611c91565b8481519101201480611815575b156116645750506040516349ad89fb60e11b8152838101829052600560248083019190915264615553444360d81b60448301526001600160a01b037f0000000000000000000000000000000000000000000000000000000000000000811693928381606481885afa9081156115e6579082918991611637575b506009546040516370a0823160e01b815290841689820152911684828581845afa91821561162c57888a8793899382966115f1575b50906044929186600f55604051968795869463095ea7b360e01b8652850152898401525af180156115e6576115b9575b50600b541696604051926060840184811067ffffffffffffffff8211176115a757906040918252602885523690850137865b60148110611495575050600f549596508694833b15611491576114319661146787936114446080966040519b8c9a8b998a986326ef699d60e01b8a528901526084880190611a9b565b9060031993848884030190880152611a9b565b908482030160448501526040906005815264615553444360d81b60208201520190565b90606483015203925af18015610b3a57611482575b506112ae565b61148b9061186b565b3861147c565b8580fd5b60138181039081116115955780831b906001600160fd1b038116036115955760ff9081811161154d5760019081811b15611583578b901c60f0811683821603928311611571576114ed9060f41b600f60f81b16611d35565b83821b92906001600160ff1b038516850361155f5790611526918c1a611513858a611d0e565b5360f81b6001600160f81b031916611d35565b90820180921161154d579061154261154893928b1a9187611d0e565b53611ce9565b6113e8565b634e487b7160e01b8a5260118952848afd5b634e487b7160e01b8c5260118b52868cfd5b634e487b7160e01b8b5260118a52858bfd5b634e487b7160e01b8b5260128a52858bfd5b634e487b7160e01b8952601188528389fd5b634e487b7160e01b8952604188528389fd5b6115d890843d86116115df575b6115d081836118b1565b810190611cd1565b50386113b6565b503d6115c6565b6040513d8a823e3d90fd5b9493509450505081813d8311611625575b61160c81836118b1565b81010312610b5c57856044898b88945195909192611386565b503d611602565b6040513d8b823e3d90fd5b6116579150853d871161165d575b61164f81836118b1565b810190611cb2565b38611351565b503d611645565b919495509150519020611675611c91565b805190840120036117f6576040516349ad89fb60e11b81528181018390526005602482015264615553444360d81b60448201526001600160a01b03919083816064817f000000000000000000000000000000000000000000000000000000000000000087165afa80156117eb57839186916117ce575b5016908260095416604051916370a0823160e01b83528181840152868684602481885afa9485156117c1578794829661178b575b5085966064949596600f55600b54169660405197889687956323b872dd60e01b8752860152602485015260448401525af1801561178057611762575b50506112ae565b8161177892903d106115df576115d081836118b1565b50388061175b565b6040513d85823e3d90fd5b858195969297503d83116117ba575b6117a481836118b1565b810103126101ff5786946064935195949361171f565b503d61179a565b50604051903d90823e3d90fd5b6117e59150853d871161165d5761164f81836118b1565b386116eb565b6040513d87823e3d90fd5b90604051916367e8093f60e11b83528201528061122a60248201611b7f565b507f6f3c53069778183912da77a05fe67c3d6edb208ffdf1ca0161d51543035e3c68845184860120674d6f6f6e6261736560c01b8560405161185681611895565b60088152015214156112d8565b5060016111de565b67ffffffffffffffff811161187f57604052565b634e487b7160e01b600052604160045260246000fd5b6040810190811067ffffffffffffffff82111761187f57604052565b90601f8019910116810190811067ffffffffffffffff82111761187f57604052565b906040600319830112610e3b576004356001600160a01b0381168103610e3b579167ffffffffffffffff602435818111610e3b5782602382011215610e3b57806004013591821161187f5760405192611936601f8401601f1916602001856118b1565b82845260248383010111610e3b5781600092602460209301838601378301015290565b90600091825481101561198f578280527f290decd9548b62a8d60345a988386fc84ba6bc95484008f6362f93160ef3e563019190565b634e487b7160e01b83526032600452602483fd5b90600182811c921680156119d3575b60208310146119bd57565b634e487b7160e01b600052602260045260246000fd5b91607f16916119b2565b60405190600082600454916119f1836119a3565b80835292600190818116908115611a795750600114611a1a575b50611a18925003836118b1565b565b6004600090815291507f8a35acfbc15ff81a39ae7d344fd709f28e8600b4aa8c65c6b64bfe7fe36bd19b5b848310611a5e5750611a18935050810160200138611a0b565b81935090816020925483858a01015201910190918592611a45565b905060209250611a1894915060ff191682840152151560051b82010138611a0b565b919082519283825260005b848110611ac7575050826000602080949584010152601f8019910116010190565b602081830181015184830182015201611aa6565b60045460009291611aeb826119a3565b80825291600190818116908115611b625750600114611b0957505050565b9192935060046000527f8a35acfbc15ff81a39ae7d344fd709f28e8600b4aa8c65c6b64bfe7fe36bd19b916000925b848410611b4a57505060209250010190565b80546020858501810191909152909301928101611b38565b915050602093945060ff929192191683830152151560051b010190565b600e5460009291611b8f826119a3565b80825291600190818116908115611b625750600114611bad57505050565b91929350600e6000527fbb7b4a454dc3493923482f07822329ed19e8244eff582cc204f8554c3620c3fd916000925b848410611bee57505060209250010190565b80546020858501810191909152909301928101611bdc565b60405190611c1382611895565b600882526718d85b98d95b195960c21b6020830152565b60405190611c3782611895565b600982526818dbdb5c1b195d195960ba1b6020830152565b600054600160401b81101561187f57806001611c6e9201600055611959565b819291549060031b9160018060a01b039283811b93849216901b16911916179055565b60405190611c9e82611895565b6005825264615553444360d81b6020830152565b90816020910312610e3b57516001600160a01b0381168103610e3b5790565b90816020910312610e3b57518015158103610e3b5790565b6000198114611cf85760010190565b634e487b7160e01b600052601160045260246000fd5b908151811015611d1f570160200190565b634e487b7160e01b600052603260045260246000fd5b60f81c600a811015611d5c5760300160ff8111611cf85760f81b6001600160f81b03191690565b60570160ff8111611cf85760f81b6001600160f81b03191690565b601f8111611d825750565b600060048152601f7f8a35acfbc15ff81a39ae7d344fd709f28e8600b4aa8c65c6b64bfe7fe36bd19b920160051c8201915b828110611dc057505050565b818155600101611db456fea26469706673582212207cebf6d04ab0804ac7cfe795016f742f64a21af69fae8cc375baabab3f278c5b64736f6c63430008110033",
  "immutableReferences": {
    "1287": [
      {
        "length": 32,
        "start": 2190
      },
      {
        "length": 32,
        "start": 2655
      }
    ],
    "1290": [
      {
        "length": 32,
        "start": 4153
      },
      {
        "length": 32,
        "start": 4885
      },
      {
        "length": 32,
        "start": 5817
      }
    ]
  },
  "source": "// SPDX-License-Identifier: MIT\npragma solidity ^0.8.12;\n\nimport { IDistributionExecutable } from './IDistributionExecutable.sol';\n\n\nimport { AxelarExecutable } from '@axelar-network/axelar-gmp-sdk-solidity/contracts/executables/AxelarExecutable.sol';\nimport { IAxelarGateway } from '@axelar-network/axelar-gmp-sdk-solidity/contracts/interfaces/IAxelarGateway.sol';\nimport { IERC20 } from '@axelar-network/axelar-gmp-sdk-solidity/contracts/interfaces/IERC20.sol';\nimport { IAxelarGasService } from '@axelar-network/axelar-gmp-sdk-solidity/contracts/interfaces/IAxelarGasService.sol';\n\nerror InvalidToken (string token);\n\ncontract Factory {\n    IAxelarGateway public immutable gateway;\n\n\n    Job[] public jobArray;\n    // address contractOwner;\n    uint256 public countNew = 0;\n    uint256 countAgreed = 0;\n    uint256 countProgress = 0;\n    uint256 countReview = 0;\n    uint256 countCompleted = 0;\n    uint256 countCanceled = 0;\n    string stateNew = \"new\";\n    string stateAgreed = \"agreed\";\n    string stateProgress = \"progress\";\n    string stateReview = \"review\";\n    string stateCompleted = \"completed\";\n    string stateCanceled = \"canceled\";\n\n    event OneEventForAll(address contractAdr, uint256 index);\n\n    event JobContractCreated(\n        string nanoId,\n        address jobAddress,\n        address jobOwner,\n        string title,\n        string description,\n        string symbol,\n        uint256 amount\n    );\n\n\n    constructor() {\n        address gateway_ = 0x5769D84DD62a6fD969856c75c7D321b84d455929;\n        gateway = IAxelarGateway(gateway_);\n    }\n\n    // initial: new, contractor choosed: agreed, work in progress: progress, completed: completed, canceled\n\n    // function indexCalculation(string memory _state) public returns (uint256) {}\n\n    function createJobContract(string memory _nanoId, string memory _title, string memory _description, string memory _symbol, uint256 _amount)\n    external\n    payable\n    {\n        Job job = new Job{value: msg.value}(\n            _nanoId,\n            _title,\n            _description,\n            _symbol,\n            jobArray.length,\n            msg.sender\n        );\n\n        if (keccak256(bytes(_symbol)) != keccak256(bytes(\"ETH\"))) {\n            address tokenAddress = gateway.tokenAddresses(_symbol);\n            // amount = IERC20(tokenAddress).balanceOf(contractAddress);\n            IERC20(tokenAddress).transferFrom(msg.sender, address(job), _amount);\n        }\n        // IERC20(tokenAddress).approve(address(gateway), _amount);\n\n        jobArray.push(job);\n        countNew++;\n        emit JobContractCreated(_nanoId, address(job), msg.sender, _title, _description, _symbol, _amount);\n        emit OneEventForAll(address(job), job.index());\n    }\n\n    // function findJobs(uint256 _myIndex) external view returns (address) {\n    //     return address(jobArray[_myIndex]);\n    // }\n\n    function allJobs() external view returns (Job[] memory _jobs) {\n        _jobs = new Job[](jobArray.length);\n        uint256 count;\n        for (uint256 i = 0; i < jobArray.length; i++) {\n            _jobs[count] = jobArray[i];\n            count++;\n        }\n    }\n\n\n    function jobParticipate(Job job) external {\n        jobArray[job.index()].jobParticipate(msg.sender);\n        emit OneEventForAll(address(job), job.index());\n    }\n\n\n    function jobStateChange(\n        Job job,\n        address payable _participantAddress,\n        string memory _state\n    ) external {\n        jobArray[job.index()].jobStateChange(_participantAddress, _state);\n\n        // if (keccak256(bytes(_state)) == keccak256(bytes(\"agreed\"))) {\n        //     countAgreed++;\n        // } else if (keccak256(bytes(_state)) == keccak256(bytes(\"progress\"))) {\n        //     countProgress++;\n        // } else if (keccak256(bytes(_state)) == keccak256(bytes(\"review\"))) {\n        //     countReview++;\n        // } else if (keccak256(bytes(_state)) == keccak256(bytes(\"completed\"))) {\n        //     countCompleted++;\n        // } else if (keccak256(bytes(_state)) == keccak256(bytes(\"canceled\"))) {\n        //     countCanceled++;\n        // }\n\n        emit OneEventForAll(address(job), job.index());\n    }\n\n    // function jobReview(Job job, address _participantAddress) external {\n    //     jobArray[job.index()].jobReview(_participantAddress);\n    //     countProgress++;\n    // }\n\n    // function jobConfimation(Job job, address _participantAddress) external {\n    //     jobArray[job.index()].jobConfimation(_participantAddress);\n    //     countReview++;\n    // }\n\n    function transferToaddress(Job job, address payable addressToSend)\n    external\n    payable\n    {\n        // addressToSend.transfer(0.5 ether);\n        jobArray[job.index()].transferToaddress(addressToSend);\n        emit OneEventForAll(address(job), job.index());\n    }\n\n    function transferToaddressChain(Job job, address payable addressToSend, string memory chain)\n    external\n    payable\n    {\n        jobArray[job.index()].transferToaddressChain(addressToSend, chain);\n        emit OneEventForAll(address(job), job.index());\n    }\n\n    function transferToaddressChain2(Job job, address payable addressToSend, string memory chain)\n    external\n    payable\n    {\n        jobArray[job.index()].transferToaddressChain2(addressToSend, chain);\n        emit OneEventForAll(address(job), job.index());\n    }\n\n\n    // function jobCanceled(Job job) external {\n    //     jobArray[job.index()].jobCanceled();\n    //     countCanceled++;\n    // }\n\n    // function getContractAdr(uint256 _classIndex)\n    //     external\n    //     view\n    //     returns (address)\n    // {\n    //     Job _retBal = Job(payable(address(jobArray[_classIndex])));\n    //     return _retBal.returnContractAddress();\n    // }\n\n    function getBalance(uint256 _classIndex) external view returns (uint256) {\n        Job _retBal = Job(payable(address(jobArray[_classIndex])));\n        return _retBal.getBalance();\n    }\n\n    // function thisContract() external view returns (address) {\n    //     address thisConr = address(this);\n    //     return thisConr;\n    // }\n\n    function getJobInfo(uint256 _classIndex)\n    external\n    view\n    returns (\n        string memory,\n        string memory,\n        address,\n        address,\n        address,\n        uint256,\n        uint256,\n        string memory,\n        address[] memory,\n        address,\n        string memory,\n        string memory\n        \n    )\n    {\n        Job _retBal = Job(payable(address(jobArray[_classIndex])));\n        return _retBal.getJob();\n    }\n\n    // receive() external payable {}\n}\n\ncontract Job {\n    IDistributionExecutable public immutable distributor;\n\n    IAxelarGateway public immutable gateway;\n\n\n    address[] public Participants;\n    // uint256 public data;\n    string public nanoId;\n    string public title;\n    string public description;\n    string public jobState;\n    uint256 public index;\n\n    string public name;\n    uint256 public price;\n    address public contractParent;\n    address public contractAddress;\n    address public contractOwner;\n    address payable public participantAddress;\n    uint256 public createTime;\n    address[] public _destinationAddresses;\n    string public symbol;\n    uint256 amount;\n\n    constructor(\n        string memory _nanoId,\n        string memory _title,\n        string memory _description,\n        string memory _symbol,\n        uint256 _index,\n        address _contractOwner\n    ) payable {\n        // data = _data;\n        nanoId = _nanoId;\n        distributor = IDistributionExecutable(_contractOwner);\n        title = _title;\n        jobState = \"new\";\n        contractAddress = address(this);\n        contractParent = msg.sender;\n        contractOwner = _contractOwner;\n        createTime = block.timestamp;\n        index = _index;\n        description = _description;\n        symbol = _symbol;\n\n        address gateway_ = 0x5769D84DD62a6fD969856c75c7D321b84d455929;\n        gateway = IAxelarGateway(gateway_);\n        // balance = contractAddress.balance;\n        // createJob(_content, _index);\n        // myStruct = jobStructData(\n        //     _data,\n        //     true,\n        //     address(this),\n        //     msg.sender,\n        //     block.timestamp,\n        //     _index\n        // );\n    }\n\n    // event OneEventForAll2(address contractAdr);\n\n    // function createJob(string memory _content, uint256 _index) public {\n    //     jobStructDataArray.push();\n\n    //     jobStructData(\n    //         _content,\n    //         true,\n    //         address(this),\n    //         msg.sender,\n    //         block.timestamp\n    //     );\n    //     emit jobCreated(_content, _index);\n    // }\n\n    function getJob()\n    public\n    view\n    returns (\n        string memory _content,\n        string memory _jobState,\n        address _contractAddress,\n        address _contractParent,\n        address _contractOwner,\n        uint256 _createTime,\n        uint256 _index,\n        string memory _description,\n        address[] memory _participants,\n        address _participantAddress,\n        string memory _symbol,\n        string memory _nanoId\n    )\n    {\n        return (\n        title,\n        jobState,\n        contractAddress,\n        contractParent,\n        contractOwner,\n        createTime,\n        index,\n        description,\n        Participants,\n        participantAddress,\n        symbol,\n        nanoId\n        );\n    }\n\n    function withdrawAll() external {\n        // jobState = true;\n    }\n\n    // function getContractInfo() public view returns (uint256) {\n    //     return contractAddress.balance;\n    // }\n\n    function getBalance() public view returns (uint256) {\n        return contractAddress.balance;\n    }\n\n    function transferToaddress(address payable _addressToSend) public payable {\n        if (keccak256(bytes(jobState)) == keccak256(bytes(\"canceled\"))) {\n            if (_addressToSend == contractOwner) {\n                _addressToSend.transfer(contractAddress.balance);\n            }\n        } else if (\n            keccak256(bytes(jobState)) == keccak256(bytes(\"completed\"))\n        ) {\n\n            participantAddress.transfer(contractAddress.balance);\n        }\n        // msg.sender.transfer(address(this).balance);\n    }\n\n    function transferToaddressChain(address payable _addressToSend, string memory chain) public payable {\n        if (keccak256(bytes(jobState)) == keccak256(bytes(\"canceled\"))) {\n            if (_addressToSend == contractOwner) {\n                _addressToSend.transfer(contractAddress.balance);\n            }\n        } else if (\n            keccak256(bytes(jobState)) == keccak256(bytes(\"completed\"))\n        ) {\n            _destinationAddresses.push(participantAddress);\n            distributor.sendToMany(chain, _addressToSend, _destinationAddresses, 'WETH', contractAddress.balance);\n        }\n        // msg.sender.transfer(address(this).balance);\n    }\n\n    function transferToaddressChain2(address payable _addressToSend, string memory chain) public payable {\n        if (keccak256(bytes(jobState)) == keccak256(bytes(\"canceled\"))) {\n            if (participantAddress == contractOwner) {\n                participantAddress.transfer(contractAddress.balance);\n            }\n        } else if (\n            keccak256(bytes(jobState)) == keccak256(bytes(\"completed\")) || 1==1\n        ) {\n            bytes memory symbolBytes = bytes(symbol);\n            bytes memory chainBytes = bytes(chain);\n            if (symbolBytes.length == 0) {\n                revert InvalidToken({\n                    token: symbol\n                });\n                // do nothing\n            } else if (keccak256(symbolBytes) == keccak256(bytes(\"ETH\"))) {\n                participantAddress.transfer(contractAddress.balance);\n            } else if (keccak256(symbolBytes) == keccak256(bytes(\"aUSDC\")) && keccak256(chainBytes) != keccak256(bytes(\"Moonbase\"))) {\n                // _destinationAddresses.push(_addressToSend);\n                // distributor.sendToMany(chain, _addressToSend, _destinationAddresses, 'aUSDC', contractAddress.balance);\n                // string memory _addressToSend2 = bytes(_addressToSend);\n                address tokenAddress = gateway.tokenAddresses(\"aUSDC\");\n                amount = IERC20(tokenAddress).balanceOf(contractAddress);\n                IERC20(tokenAddress).approve(address(gateway), amount);\n                gateway.sendToken(chain, toAsciiString(participantAddress), \"aUSDC\", amount);\n            } else if (keccak256(symbolBytes) == keccak256(bytes(\"aUSDC\"))) {\n                address tokenAddress = gateway.tokenAddresses(\"aUSDC\");\n                amount = IERC20(tokenAddress).balanceOf(contractAddress);\n                IERC20(tokenAddress).transferFrom(contractAddress, participantAddress, amount);\n                // IERC20(tokenAddress).approve(address(gateway), amount);\n            }\n            else{\n                revert InvalidToken({\n                    token: symbol\n                });\n            }\n        }\n        // msg.sender.transfer(address(this).balance);\n    }\n\n    function toAsciiString(address x) internal pure returns (string memory) {\n        bytes memory s = new bytes(40);\n        for (uint i = 0; i < 20; i++) {\n            bytes1 b = bytes1(uint8(uint(uint160(x)) / (2**(8*(19 - i)))));\n            bytes1 hi = bytes1(uint8(b) / 16);\n            bytes1 lo = bytes1(uint8(b) - 16 * uint8(hi));\n            s[2*i] = char(hi);\n            s[2*i+1] = char(lo);\n        }\n        return string(s);\n    }\n\n    function char(bytes1 b) internal pure returns (bytes1 c) {\n        if (uint8(b) < 10) return bytes1(uint8(b) + 0x30);\n        else return bytes1(uint8(b) + 0x57);\n    }\n\n\n    function jobParticipate(address _participantAddress) external {\n        bool existed = false;\n        if (Participants.length == 0) {\n            Participants.push(_participantAddress);\n        } else {\n            for (uint256 i = 0; i < Participants.length; i++) {\n                if (Participants[i] == _participantAddress) {\n                    existed = true;\n                }\n            }\n            if (!existed) {\n                Participants.push(_participantAddress);\n            }\n        }\n        // emit OneEventForAll2(contractAddress);\n    }\n\n    function jobStateChange(\n        address payable _participantAddress,\n        string memory _state\n    ) external {\n        if (keccak256(bytes(_state)) == keccak256(bytes(\"agreed\"))) {\n            jobState = \"agreed\";\n            participantAddress = _participantAddress;\n        } else if (keccak256(bytes(_state)) == keccak256(bytes(\"progress\"))) {\n            jobState = \"progress\";\n        } else if (keccak256(bytes(_state)) == keccak256(bytes(\"review\"))) {\n            jobState = \"review\";\n        } else if (keccak256(bytes(_state)) == keccak256(bytes(\"completed\"))) {\n            jobState = \"completed\";\n        } else if (keccak256(bytes(_state)) == keccak256(bytes(\"canceled\"))) {\n            jobState = \"canceled\";\n        }\n\n        // emit OneEventForAll2(contractAddress);\n    }\n\n    // function jobReview(address _participantAddress) external {\n    //     if (participantAddress == _participantAddress) {\n    //         jobState = \"review\";\n    //     }\n    // }\n\n    // function jobParticiantAgreed(address _participantAddress) external {\n    //     jobState = \"agreed\";\n    //     participantAddress = _participantAddress;\n\n    //     // for (uint256 i = 0; i < Participants.length; i++) {\n    //     //     if (Participants[i] == _participantAddress) {\n    //     //         jobState = \"agreed\";\n    //     //         participantAddress = _participantAddress;\n    //     //     }\n    //     // }\n    // }\n\n    // function jobInProgress() external {\n    //     jobState = \"progress\";\n    // }\n\n    // function jobCompleted() external {\n    //     jobState = \"completed\";\n    // }\n\n    // function jobCanceled() external {\n    //     jobState = \"canceled\";\n    // }\n\n    receive() external payable {}\n\n    // fallback () external payable    {\n\n    // }\n\n    // constructor(string memory _name, address _owner) {\n    //     name = _name;\n    //     owner = _owner;\n    // }\n}\n",
  "sourcePath": "/home/user/Documents/mainstream/devopsdao/contracts/Factory.sol",
  "compiler": {
    "name": "solc",
    "version": "0.8.17+commit.8df45f5f.Emscripten.clang"
  },
  "schemaVersion": "3.4.10",
  "updatedAt": "2022-09-17T02:08:39.051Z",
  "devdoc": {
    "kind": "dev",
    "methods": {},
    "version": 1
  },
  "userdoc": {
    "kind": "user",
    "methods": {},
    "version": 1
  }
}