{
  "contractName": "Payable",
  "abi": [
    {
      "inputs": [],
      "stateMutability": "nonpayable",
      "type": "constructor"
    },
    {
      "inputs": [],
      "name": "contractAddress",
      "outputs": [
        {
          "internalType": "address",
          "name": "",
          "type": "address"
        }
      ],
      "stateMutability": "view",
      "type": "function",
      "constant": true
    },
    {
      "inputs": [],
      "name": "contractOwner",
      "outputs": [
        {
          "internalType": "address",
          "name": "",
          "type": "address"
        }
      ],
      "stateMutability": "view",
      "type": "function",
      "constant": true
    },
    {
      "inputs": [],
      "name": "price",
      "outputs": [
        {
          "internalType": "uint256",
          "name": "",
          "type": "uint256"
        }
      ],
      "stateMutability": "view",
      "type": "function",
      "constant": true
    },
    {
      "stateMutability": "payable",
      "type": "receive",
      "payable": true
    },
    {
      "inputs": [],
      "name": "getBalance",
      "outputs": [
        {
          "internalType": "uint256",
          "name": "",
          "type": "uint256"
        }
      ],
      "stateMutability": "view",
      "type": "function",
      "constant": true
    }
  ],
  "bytecode": "0x6080604052671bc16d674ec8000060005534801561001c57600080fd5b5033600160006101000a81548173ffffffffffffffffffffffffffffffffffffffff021916908373ffffffffffffffffffffffffffffffffffffffff16021790555030600260006101000a81548173ffffffffffffffffffffffffffffffffffffffff021916908373ffffffffffffffffffffffffffffffffffffffff160217905550610254806100ae6000396000f3fe6080604052600436106100435760003560e01c806312065fe01461004f578063a035b1fe1461007a578063ce606ee0146100a5578063f6b4dfb4146100d05761004a565b3661004a57005b600080fd5b34801561005b57600080fd5b506100646100fb565b60405161007191906101a7565b60405180910390f35b34801561008657600080fd5b5061008f61013c565b60405161009c91906101a7565b60405180910390f35b3480156100b157600080fd5b506100ba610142565b6040516100c79190610203565b60405180910390f35b3480156100dc57600080fd5b506100e5610168565b6040516100f29190610203565b60405180910390f35b6000600260009054906101000a900473ffffffffffffffffffffffffffffffffffffffff1673ffffffffffffffffffffffffffffffffffffffff1631905090565b60005481565b600160009054906101000a900473ffffffffffffffffffffffffffffffffffffffff1681565b600260009054906101000a900473ffffffffffffffffffffffffffffffffffffffff1681565b6000819050919050565b6101a18161018e565b82525050565b60006020820190506101bc6000830184610198565b92915050565b600073ffffffffffffffffffffffffffffffffffffffff82169050919050565b60006101ed826101c2565b9050919050565b6101fd816101e2565b82525050565b600060208201905061021860008301846101f4565b9291505056fea2646970667358221220c40d36cffbe2e1241ffd27fdb98c6f30cd78a047afb79dae30babb438e58dbd764736f6c634300080c0033",
  "immutableReferences": {},
  "source": "// SPDX-License-Identifier: MIT\npragma solidity ^0.8.12;\n\ncontract Payable {\n    uint256 public price = 2 ether;\n    address public contractOwner;\n    address public contractAddress;\n\n    constructor() {\n        contractOwner = msg.sender;\n        contractAddress = address(this);\n        // createTask(\"test\", price);\n    }\n\n    function getBalance() public view returns (uint256) {\n        return contractAddress.balance;\n    }\n\n    receive() external payable {}\n}\n",
  "sourcePath": "/home/matt/Documents/programming/devopsdao_flow/contracts/Payable.sol",
  "compiler": {
    "name": "solc",
    "version": "0.8.12+commit.f00d7308.Emscripten.clang"
  },
  "schemaVersion": "3.4.6",
  "updatedAt": "2022-07-15T15:17:49.420Z",
  "networkType": "ethereum",
  "devdoc": {
    "kind": "dev",
    "methods": {},
    "version": 1
  },
  "userdoc": {
    "kind": "user",
    "methods": {},
    "version": 1
  }
}